:100000000C94D8030C941C040C941C040C941C0435
:100010000C941C040C941C040C941C040C941C04E0
:100020000C941C040C941C040C9490280C946229CD
:100030000C94E61E0C941C040C941C040C941C04DC
:100040000C941C040C941C040C941C040C941C04B0
:100050000C941C040C944D1F0C941C040C941C0454
:100060000C941C040C941C040C941C040C941C0490
:100070000C941C040C941C040C941C040C941C0480
:100080000C941C040C941C040C941C040C941C0470
:100090000C941C040C941C040C941C040C941C0460
:1000A0000C941C040C941C040C941C045D06630644
:1000B00067066A066E06720676067A067F0683066D
:1000C00087068B068E06920696069A069E06A3065D
:1000D0004A154A1584158415BB15DD1500173D1703
:1000E000E8153D178F168F16F9163D173D1739176E
:1000F0009C169C169C169C169C169C169C169C1670
:100100009C169C169C169C169C169C169C169C165F
:10011000AE16BC16C316CA16D416BD17BD17D01717
:10012000D017C617D017D017D017BD17BD17CC17CB
:10013000D017D017CC17C729E929D42AE929D42AFE
:100140002B2A4E2AD42AA32AB62A2E002B00E000FE
:10015000E100025100001E00140004001D003500E3
:1001600003511F001A0016001B004900290020003F
:1001700008000700060050002A00210015000900B1
:1001800019004F004C00220017000A000500000073
:10019000E30050012B0A0000E3020000E2004F01DF
:1001A0002B080000E7020000E40023001C000B0005
:1001B00011000000E700240018000D00100052009C
:1001C000015325000C000E00360051002C002600C3
:1001D00012000F0037002F00280027001300330003
:1001E000380030002D022D0031003400E5000251AE
:1001F00000000100010001000100010000000100F9
:1002000001000100010001000100010001000100E6
:1002100001000100010001000100010001000100D6
:1002200001000100010001000100010001000100C6
:100230000100010001000000010001002B06000088
:1002400001000000010001002B040000010000007B
:100250000100010001000100010000000100010097
:100260000100010001000100010001000100010086
:100270000100010001000100010001000100010076
:100280000100010001000100010001000100010066
:100290000100010001000100000001000100010057
:1002A0000100010000003A0001000100010001000E
:1002B00001003B00010001000100010001003C00C1
:1002C000010001000100010001003D0001000100EA
:1002D0000100010001003E000100010001000000DA
:1002E000010053006A0000006900000001000100E5
:1002F0000100000001000000AC003F000000000011
:1003000000000000AB0040005F005C00590062008C
:10031000AE00410060005D005A00620062004200D1
:1003200061005E005B00630058004300540055000C
:1003300058005800AD004400450056005700010029
:1003400000000100010001000100010000000100A7
:100350000100010001000100010001000100010095
:1003600001000100F800010001000100010001008E
:10037000F70001000100010001000100010001007F
:100380000100010001000000010001002F08000031
:100390003008000001000100F9000000FA00000030
:1003A000FB0001000100000001000000FC00010052
:1003B0000100F2000100F60001000100F000F10070
:1003C00001000100F40001000100F3000100010040
:1003D000F500010001000100010001000100010021
:1003E000010001000100010000006801F000B400FC
:1003F00078005A00643214643214783C1E1E140AC9
:1004000005000000000101010202030405050607C2
:10041000090A0B0C0E0F1112141517191B1D1F21A1
:100420002325282A2C2F313436393B3E4143464977
:100430004C4F5255585A5D6164676A6D7073767996
:100440007C7F8386898C8F9295989B9EA2A5A7AA74
:10045000ADB0B3B6B9BCBEC1C4C6C9CBCED0D3D57E
:10046000D7DADCDEE0E2E4E6E8EAEBEDEEF0F1F329
:10047000F4F5F6F8F9FAFAFBFCFDFDFEFEFEFFFFCF
:10048000FFFFFFFFFFFEFEFEFDFDFCFBFAFAF9F8A1
:10049000F6F5F4F3F1F0EEEDEBEAE8E6E4E2E0DEA7
:1004A000DCDAD7D5D3D0CECBC9C6C4C1BEBCB9B6B1
:1004B000B3B0ADAAA7A5A29E9B9895928F8C898672
:1004C00083807C797673706D6A6764615D5A585574
:1004D000524F4C494643413E3B393634312F2C2A4A
:1004E000282523211F1D1B1917151412110F0E0C7F
:1004F0000B0A0907060505040302020101010000B9
:1005000000000000000001010101010101010102E0
:1005100002020202020202020303030303030303B3
:10052000040404040404050505050506060606067C
:1005300007070707080808080909090A0A0A0A0B31
:100540000B0B0C0C0C0D0D0D0E0E0F0F0F101011D0
:100550001111121213131414151516161717181853
:1005600019191A1A1B1C1C1D1D1E1F1F20202122B9
:10057000222324252526272728292A2B2B2C2D2EFC
:100580002F2F30313233343536363738393A3B3C19
:100590003D3E3F4041424344464748494A4B4C4D0B
:1005A0004F50515253555657585A5B5C5E5F6062CC
:1005B00063646667696A6C6D6E707173747678795E
:1005C0007B7C7E8081838486888A8B8D8F919294B8
:1005D00096989A9B9D9FA1A3A5A7A9ABADAFB1B3D8
:1005E000B5B7B9BBBDBFC1C4C6C8CACCCFD1D3D6BD
:1005F000D8DADCDFE1E4E6E8EBEDF0F2F5F7FAFC5F
:10060000FF16034500720067006F0044006F00781A
:1006100000200045005A00000016034500720067E4
:10062000006F0044006F007800200045005A000071
:10063000000403090409026D00040100A0FA090482
:100640000000010301010009211101000122400005
:100650000705810308000A090401000103010200E3
:10066000092111010001224D000705820308000A3B
:100670000904020001030000000921110100012208
:1006800036000705830308000A090403000103007C
:10069000000009211101000122390007058403200F
:1006A00000011201100100000008EDFE0713010017
:1006B0000102000105010906A101050719E029E76A
:1006C0001500250195087501810205081901290504
:1006D00095057501910295017503910105071900B2
:1006E00029F71500250195F875018102C00501095A
:1006F00080A10185021601002603001A81002A83C9
:1007000000751095018100C0050C0901A101850348
:10071000160100269C021A01002A9C027510950100
:100720008100C005010902A1010901A10005091903
:1007300001290515002501950575018102950175B1
:100740000381010501093009311581257F95027565
:1007500008810609381581257F95017508810605F0
:100760000C0A38021581257F950175088106C0C0E5
:1007700005010906A101050719E029E71500250172
:100780009508750181029501750881010508190117
:1007900029059505750191029501750391010507DC
:1007A000190029FF150026FF00950675088100C075
:1007B00011241FBECFEFDAE0DEBFCDBF04B603FECB
:1007C00024C08091390390913A03A0913B03B091EA
:1007D0003C038730904BA740B04BB9F410923903DB
:1007E00010923A0310923B0310923C0314BE84B75C
:1007F000877F84BF88E10FB6F894809360001092E1
:1008000060000FBEE0E0FFE3099511E0A0E0B1E079
:10081000E8E4F9E502C005900D92AC3DB107D9F7C7
:1008200023E0ACEDB1E001C01D92A933B207E1F7BE
:100830000E94C2250C94A22C0C9400001092B900C6
:100840008AE08093B800089594EA9093BC00909158
:10085000BC0097FFFCCF9091B900987F983021F0B1
:10086000903111F081E008958093BB0084E880937B
:10087000BC008091BC0087FFFCCF8091B900887FCD
:10088000883111F0803471F780E0089584E9809315
:10089000BC008091BC0084FDFCCF08958093BB0018
:1008A00084E88093BC008091BC0087FFFCCF9091CE
:1008B000B900987F81E0983209F480E0089584E8D7
:1008C0008093BC008091BC0087FFFCCF8091BB006F
:1008D000089580B38C7080BB81B3836F81BB089512
:1008E00080910101811115C080E40E94240480934D
:1008F000010181110CC082E10E944E04809301012C
:10090000811105C08FEF0E944E04809301010E9467
:10091000460484B1807F84B985B1807F85B98AB16E
:10092000837F8AB98BB1837F8BB93E9846980895AF
:100930000C94CC050E949C0A809301010E947004D3
:100940000E946904EBEEF1E0ADEDB1E011921D9271
:1009500081E0E93FF807D1F70C94A8070E949C0AB0
:10096000809301010E9470040E946904EBEEF1E0A3
:10097000ADEDB1E011921D9281E0E93FF807D1F7AA
:1009800008958F929F92BF92CF92DF92EF92FF9243
:100990000F931F93CF93DF931F92CDB7DEB7809154
:1009A0000101882379F08091DC018F5F8093DC0165
:1009B000811108C00E949C0A80930101811102C02C
:1009C0000E942E0A0DED11E0812C912CEE24E3946F
:1009D000F12CDD24D39495E0C92E282D273030F555
:1009E00080910101811142C080E489820E94240427
:1009F000809301012981811114C082E10E944E047B
:100A000080930101298181110CC0C701082C01C00C
:100A1000880F0A94EAF780950E944E0480930101A2
:100A2000298129830E944604298120C02A30A1F00F
:100A300028F4283059F0293061F005C02C3089F0B5
:100A400070F02D3089F0209A289810C0219A2998AA
:100A50000DC0229A2A980AC0239A2B9807C0529A4E
:100A600001C0539A5B9802C03E9A469830EA3A9584
:100A7000F1F7273018F580910101811144C080E41D
:100A80000E94240480930101882311F0B12C12C02C
:100A900083E10E944E04809301018111F7CF81E42C
:100AA0000E942404809301018111F0CF0E945F0411
:100AB000B82EB0940E9446048B2D26C08FB1817051
:100AC0008D25799B02C090E001C092E0892B7C9B30
:100AD00002C090E001C094E0892B7D9B02C090E0B1
:100AE00001C098E0892B7E9B02C090E001C090E19C
:100AF000892B9FB19095991F9927991F9295990FCE
:100B0000907E892B01C080E0F8019081981719F040
:100B10008083C09200010E947004FFEF8F1A9F0A29
:100B20000F5F1F4F3EE08316910409F056CF80916E
:100B300000018823A1F0815080930001882329F0CF
:100B400085E08A95F1F700000AC0ABEEB1E0EDED6B
:100B5000F1E081918D9331E0EB3EF307D1F70E94F4
:100B6000AA0781E00F90DF91CF911F910F91FF9025
:100B7000EF90DF90CF90BF909F908F900895E82FD7
:100B8000F0E0E551FE4F80810895089580E090E007
:100B9000089581E008950895609183027091840220
:100BA00080918502909186020E94111E56985E984F
:100BB00025982D9826982E9827982F98823039F0CE
:100BC000833041F0813049F4279A2F9A06C0259A44
:100BD0002D9A0895269A2E9A0895089581E00895F1
:100BE0000C94C9050E94AB172FEF84E39CE02150C1
:100BF00080409040E1F700C000000C94731F0F93F9
:100C00001F93CF93DF938C01FC01C081D181CE0172
:100C10000E94951CBE010E94BF07EC01B8010E9412
:100C2000F005882309F48EC1B801CE010E94E209C3
:100C3000882309F487C1B801CE010E94D70B88230D
:100C400009F480C1C13CFCE5DF0741F4F801828171
:100C5000882309F477C10E948E0E74C1C23C8CE5D2
:100C6000D80708F0CBC0C5319CE5D90708F0A3C070
:100C7000C230ECE5DE0708F478C0F80182818823F1
:100C800009F47FC00E94851E811102C00E94641E6B
:100C90000E94981E90E090932B0380932A03FE01FC
:100CA000E350FC45E231F10520F4EA5AFF4F0C9481
:100CB000542C80912A03816003C080912A038260B2
:100CC00080932A034BC080912A038460F9CF8091DE
:100CD0002A0313C080912A038061F2CF80912A03F6
:100CE0008062EECF80912A038064EACF80912A034C
:100CF0008068E6CF80912A0384608860E1CF80918C
:100D00002A038E7FDDCF80912A038D7FD9CF8091FA
:100D10002A038B7FD5CF80912A0313C080912A03A9
:100D20008F7ECECF80912A038F7DCACF80912A03F8
:100D30008F7BC6CF80912A038F77C2CF80912A0301
:100D40008B7F877FBDCF90912A0397FB882780F9FF
:100D500021E0822780FB97F990932A0380912A0350
:100D60000E949C1E0E94AB17EDC0C115FCE5DF0779
:100D700079F0C130DC45A1F081E08093FD018093E2
:100D8000FE01C801DF91CF911F910F910C94EE05E8
:100D9000F8018281882309F4D5C00E94F205D2C0EF
:100DA000F8018281882309F4CDC08091B00281606E
:100DB0008093B002C7C0CF3B9CE5D90741F4F8014E
:100DC0008281882309F4BEC00E94830FBBC0C03C4F
:100DD000ECE5DE0740F0F8018281882309F4B2C017
:100DE0000E94750EAFC0CE3BDC4531F6F801828122
:100DF000882309F4A7C00E948D0FA4C0C53C8CE5D0
:100E0000D80741F4F8018281882309F49BC00E942D
:100E1000EC0E98C0C63C9CE5D907D8F4F801828155
:100E2000C33CFCE5DF0731F4882309F48BC00E9442
:100E3000BF0E88C0C43CDC4530F4882309F482C06E
:100E40000E94AD0E7FC0882309F47CC00E94D10EA1
:100E500079C0C73CECE5DE0781F5F8018281882383
:100E600061F01092FE010E94181F9093FC01809384
:100E7000FB0180E20E94FC1465C00E94961D81FF68
:100E800005C081E08093FD018093FE018091FE0109
:100E900081110FC08091FB019091FC010E94241FE1
:100EA000883C910530F487E20E94DA1387E20E94C1
:100EB000AD1480E20E94031545C0C73CFCE5DF0786
:100EC00060F5F8018281882351F01092FD010E94A3
:100ED000181F9093FA018093F90182E0CBCF0E9412
:100EE000961D85FF05C081E08093FD018093FE0182
:100EF0008091FD0181110FC08091F9019091FA015B
:100F00000E94241F883C910530F486E20E94DA1387
:100F100086E20E94AD1482E0CDCFCA3C8CE5D807B2
:100F200031F4F8018281882369F080E009C0CB3C6C
:100F3000DC4509F021CFF8018281882319F082E095
:100F40000E94562680E0DF91CF911F910F91089566
:100F50000C94860A0C949804282F882339F090E08A
:100F60002A3010F44D9608950697089587E290E090
:100F7000089508950C94B9070C94BA07089596E063
:100F8000799FF001112494E5899FE00DF11D112452
:100F9000E60FF11DEE0FFF1FE65BFE4F859194916A
:100FA0000895880F991F865B9E4FFC01859194914F
:100FB00008950E94BF070E946509811520E49207E9
:100FC000B0F5811540E3940708F0DBC0803E910541
:100FD000D8F4803C910508F069C0883A910578F40E
:100FE000853A910508F065C08130910509F46CC11E
:100FF00008F423C18430910508F066C11EC18D3B01
:10100000910508F461C019C18F3F910509F048F4BA
:10101000803F910508F0AFC0883E910508F454C1A7
:101020000CC1811520E2920708F0A7C00895811530
:1010300044E59407D8F4811523E5920708F0DCC055
:10104000811541E5940740F4811520E5920708F0E9
:10105000A2C09F70906A0895811542E5940708F038
:10106000B6C0982F8827816F906A0895811526E56C
:10107000920750F4811545E5940708F0D2C0982FE7
:101080008827846F906A0895811528E5920708F4EF
:10109000D4C0811549E5940708F4C8C09C013056B6
:1010A0002115304208F0C9C09F71C5C0805C91090C
:1010B00065C0853A910509F4C3C0863A910509F4E3
:1010C000C2C083E890E40895883A910509F4BEC04F
:1010D000893A910509F4BDC08A3A910509F4BCC06A
:1010E0008B3A910509F4BBC08C3A910509F4BAC05A
:1010F0008B3B910509F4B9C08C3B910509F4B8C04C
:101100008D3A910509F4B7C0803B910509F4B6C04A
:101110008E3A910509F4B5C08F3A910509F4B4C02F
:10112000813B910509F4B3C0823B910509F4B2C03B
:10113000833B910509F4B1C0843B910509F4B0C02B
:10114000853B910509F4AFC0863B910509F4AEC01B
:10115000873B910509F4ADC0883B910509F4ACC00B
:10116000893B910509F4ABC08A3B910509F0AAC0FF
:101170008AE296E40895906508959F700E94D107D1
:1011800008959C01332793FF03C0C901986C08950B
:10119000C901906C0895482F437021E030E002C0EF
:1011A000220F331F4A95E2F73C68AC0174E0569574
:1011B00047957A95E1F74370342B8F708695869525
:1011C00040E2849FC0011124822B932B0895282F85
:1011D0002695269540E2249F90011124AC0143708E
:1011E000552781E090E002C0880F991F4A95E2F7E9
:1011F000822B932B9C680895282F2695269540E2F4
:10120000249F90011124AC014370552781E090E0A8
:1012100002C0880F991F4A95E2F7822B932B9A6898
:1012200008958F719927982F882705C0982F8827B0
:10123000806F906A08959062089580E090E008952C
:1012400081E890E4089582E890E4089582EE94E4C1
:10125000089589EE94E408958AEE94E4089585EB68
:1012600094E4089586EB94E4089583EB94E4089560
:1012700084EB94E4089587EB94E408958CEC94E473
:1012800008958DEC94E4089583E895E408958AE840
:1012900095E4089582E995E4089584E995E4089534
:1012A00081E296E4089583E296E4089584E296E468
:1012B000089585E296E4089586E296E4089587E22B
:1012C00096E4089580E094E408958238910549F108
:1012D000B0F48133910509F459C048F4893291057D
:1012E00009F44FC08A32910509F455C00895853339
:1012F000910509F441C08933910599F00895833E21
:10130000910531F138F4803E910591F0823E9105CE
:10131000A9F00895863E910501F1873E910539F1C6
:10132000089520912A0320FD3BC021FD39C0089576
:1013300080912A0380FF34C089E341C080912A0351
:1013400082FF32C080912A0384FF2CC080E037C026
:1013500080912A0382FD28C0F5CF80912A0383FF64
:1013600025C080912A0384FDF1CF87EE28C08091AB
:101370002A0383FD1BC0F5CF80912A0385FF18C087
:1013800019C080912A0385FF15C012C080912A03DD
:1013900086FF12C013C080912A0386FF0FC00CC0C5
:1013A00080EE0DC083EE0BC082EE09C086EE07C052
:1013B00085E305C089E203C081E301C08AE290E0D1
:1013C00008950895CF93DF93EC01FB018281811191
:1013D00002C081E040C080910C02811125C0C5315E
:1013E000DC45B9F70E94E10981E080930C020E947C
:1013F000181F90930B0280930A021092FF01109223
:101400000102109200021092030210920202109246
:101410000502109204021092070210920602109226
:1014200009021092080216C080910A0290910B02E4
:101430000E94241F883C910560F68091FF01E82FEF
:10144000F0E0EE0FFF1FE050FE4FD183C0838F5FAF
:101450008093FF0180E0DF91CF91089556985E98C8
:1014600025982D9826982E9827982F988FEF90E002
:10147000909389008093880090938B0080938A00DA
:1014800090938D0080938C00259A2D9A2FEF80E702
:1014900092E0215080409040E1F700C00000269A81
:1014A0002E9A2FEF80E792E0215080409040E1F7A4
:1014B00000C00000279A2F9A2FEF80E792E021507A
:1014C00080409040E1F700C0000025982D982FEF54
:1014D00080E792E0215080409040E1F700C000009A
:1014E00026982E982FEF80E792E021508040904080
:1014F000E1F700C0000027982F9856985E9825982D
:101500002D9826982E9827982F98089589EA8093E9
:10151000800089E08093810024982C983F988AB1BC
:101520008F7C8AB96E98479A8BB180638BB9769A13
:101530000E942E0A0C94CB0580E2809301018091D9
:101540000D0281110EC00E941E0481E080930D02E5
:101550002FEF83ED90E3215080409040E1F700C0F1
:10156000000080E40E9424048093010181112EC0B8
:101570000E944E0480930101811128C00E944E04F4
:1015800080930101811122C08FE30E944E04809359
:10159000010181111BC00E94460480E40E942404C2
:1015A00080930101811112C08CE00E944E0480934F
:1015B000010181110BC00E944E0480930101811131
:1015C00005C08FE30E944E04809301010E944604EF
:1015D00080910101089580930E02682F8CE090E0C5
:1015E0000C946E2CE0910301F091040180818093B2
:1015F000E10281FF03C081EE0E94AD148091E102FF
:1016000085FF03C085EE0E94AD148091E10280FF4A
:1016100003C080EE0E94AD148091E10284FF03C0FC
:1016200084EE0E94AD148091E10282FF03C082EE3D
:101630000E94AD148091E10286FF03C086EE0E94F5
:10164000AD148091E10283FF03C083EE0E94AD14CC
:101650008091E10287FF03C087EE0E94AD14809164
:101660000E028130A1F078F0823011F1843049F51A
:1016700086EE0E94DA1386EE0E94AD1488E10E9485
:10168000DA1388E11CC082EE0E94DA131AC080EEE1
:101690000E94DA1381EE0E94DA1388E10E94DA13C5
:1016A00088E10E94AD1481EE0E94AD1480EE07C067
:1016B00082EE0E94DA1387E50E94DA1387E50E9422
:1016C000AD148FE39CE90197F1F700C00000089585
:1016D00080910E02813029F010F0823041F482EEC8
:1016E00004C08CE20E94DA138CE20E94AD14809157
:1016F000E10281FF03C081EE0E94DA138091E102D2
:1017000085FF03C085EE0E94DA138091E10280FF1D
:1017100003C080EE0E94DA138091E10284FF03C0CF
:1017200084EE0E94DA138091E10282FF03C082EE10
:101730000E94DA138091E10286FF03C086EE0E94C8
:10174000DA138091E10283FF03C083EE0E94DA1373
:101750008091E10287FF03C087EE0C94DA130895AD
:10176000FF920F931F93CF93DF938C01CCE0D0E0D7
:10177000C8010C2E02C0969587950A94E2F7282F8F
:101780002F70F22E822F0E94AC070E94DA138F2D49
:101790000E94AC070E94AD142497CC3F8FEFD8076E
:1017A00039F7DF91CF911F910F91FF900895CF935B
:1017B000DF93EC01C13080E8D807C8F0FB018281DB
:1017C0008823A9F080910F02811109C08CE090E07C
:1017D0000E945A2C0E94EB0A81E080930F020E9423
:1017E000F20ACE019F770E94B00B0E94680B81E045
:1017F000DF91CF910895882319F05198599A02C02A
:10180000519A59985098589A95E09A95F1F7000096
:10181000509A589895E09A95F1F70000882311F0B6
:10182000519A599885E08A95F1F7000008958BB197
:101830008C7F8BB95098589A5198599A85E08A951F
:10184000F1F7000008958AB18C7F8AB985E08A9506
:10185000F1F70000519A599885E08A95F1F7000058
:10186000509A589885E08A95F1F7000008955098AD
:10187000589A85E08A95F1F700005198599A85E0C9
:101880008A95F1F700000895CF93DF93D82FC8E031
:101890008D2F80780E94FB0BDD0FC150C9F780E0CF
:1018A0000E94FB0B85E08A95F1F7000085E08A95A0
:1018B000F1F7000080E0DF91CF9108953BB1242F34
:1018C000209523233BB1342B4FB7F894FC01680FCC
:1018D000791FE617F70789F0819198E03BB900007E
:1018E00000C087FF2BB9880F000000C000C000C0F7
:1018F0002BB900C09A9591F7ECCF4FBF0895AF92E6
:10190000BF92CF92DF92EF92FF920F931F93CF93EC
:10191000DF938C01EB01AFB6B090BC00F8948091DE
:10192000BC008B7F8093BC000E94170C0E94230C8C
:1019300084E80E94440CCC0FDD1FCC0FDD1F780122
:101940006E01C00ED11EEC14FD0431F0F70181913F
:101950007F010E94440CF7CF0E94370CAFBEB092BB
:10196000BC00579A40E8BE01C801DF91CF911F919A
:101970000F91FF90EF90DF90CF90BF90AF900C94BD
:101980005E0CDF92EF92FF920F931F93CF93DF9342
:10199000662309F44AC0E42FF0E0AFEFB0E0A61BE5
:1019A000B109BF01A69FE001A79FD00DB69FD00D42
:1019B0001124FD2FDD2E7B01ED1AF1080CE310E060
:1019C000B8010E942C2CEB01BC01E69EC001E79EF1
:1019D000900DF69E900D1124B8010E942C2CC2305F
:1019E000D105B1F040F4209779F0219709F58F2FB8
:1019F000D42E461B20C0C430D10599F068F025973D
:101A0000B9F4842F861B17C08F2FD62EDF0E13C07C
:101A1000862F8F0FD42E03C0D42ED61A842F4F2F8B
:101A20000AC0842F462F4F0F06C0842FD42E03C028
:101A300080E0D12C40E0E42FF0E0EF5FFA4F4491DA
:101A4000ED2DF0E0EF5FFA4F9491E82FF0E0EF5FBB
:101A5000FA4FE491D90111964C9311979C931296E9
:101A6000EC93DF91CF911F910F91FF90EF90DF905A
:101A7000089588E090E00C94622CAB01BC0188E0F2
:101A800090E00C94802C83E08093E2021092E302B9
:101A90008FEF8093E4028093E5026091E2027091FF
:101AA000E3028091E4029091E5020C943D0D809157
:101AB000E20280FF06C06FE070E08AEE92E00C94D4
:101AC0007F0CECEEF2E0DF0111971C9211971C9253
:101AD0001082349683E0E832F807A9F7ECCFECEEF9
:101AE000F2E0DF0111978C9311976C934083349649
:101AF00093E0E832F907A9F70C94570DCF92DF92E3
:101B0000EF92FF920F931F93CF93DF9300D000D0FB
:101B1000CDB7DEB7F82EC92ED62EE42E0091E20204
:101B20001091E3022091E4023091E5020093E60275
:101B30001093E7022093E8023093E9028091E202D9
:101B400080FF1EC09E012F5F3F4F8F2D0E94C10C52
:101B50008091E602F0FA87F98093E602F6942091EC
:101B6000E70220782F29C0FA27F92093E702D092C4
:101B7000E802E092E9024B8169818A810E946F0D3F
:101B80000F900F900F900F90DF91CF911F910F91B9
:101B9000FF90EF90DF90CF9008958F929F92AF9239
:101BA000BF92CF92DF92EF92FF920F931F93CF934A
:101BB000DF93EC01862E942E8091E20280FF88C094
:101BC000982F9E77923021F4CE010E947E0D56C050
:101BD000E82FE695EF739EE39E0F9F73943018F401
:101BE0009090E5024BC09AE39E0F9F73993070F47A
:101BF000881F8827881F9091E302292F220FC22F68
:101C0000C82B97FB992790F9D92F38C087E28E0F00
:101C10008F738A3098F5F0E07997E0FF02C02FEFDC
:101C200001C021E0EE7FE651FC4F859194916FE079
:101C300070E00E942C2C26036001279FD00C1124F9
:101C40007E0188E9E81A8EEFF80A0AEE12E088E6CB
:101C5000A82EBB24B394C701B5010E942C2C980177
:101C6000492D682D0E94C10CEC0CFD1C0C5F1F4F10
:101C700093E00632190779F70E94570D8091E2022E
:101C80009C2FC0FB87F98093E20296958091E30236
:101C90008078892BD0FB87F98093E3028092E4025D
:101CA0009092E5026091E2027091E3028091E40279
:101CB0009091E502DF91CF911F910F91FF90EF90EE
:101CC000DF90CF90BF90AF909F908F900C943D0D80
:101CD000DF91CF911F910F91FF90EF90DF90CF9008
:101CE000BF90AF909F908F9008952091E202221FA5
:101CF0002227221F3091E302432F440F842F822B8F
:101D000037FB992790F90C9668E671E00E94402C09
:101D10004091E5026091E4020C94CD0D2091E20225
:101D2000221F2227221F3091E302432F440F842FCA
:101D3000822B37FB992790F98C3091051CF4845A3B
:101D40009E4F01C00C9768E671E00E94402C4091C4
:101D5000E5026091E4020C94CD0D8091E202881FAF
:101D60008827881F9091E302292F220F97FB99273C
:101D700090F94091E5026FEF822B0C94CD0D80918C
:101D8000E202881F8827881F9091E302292F220FE3
:101D900097FB992790F94091E50260E0822B0C9423
:101DA000CD0D4091E502842F90E0843F910514F41D
:101DB000445F01C04FEF8091E202881F8827881F8F
:101DC0009091E302292F220F97FB992790F96091B8
:101DD000E402822B0C94CD0D4091E502842F90E01B
:101DE0000C9714F04C5001C040E08091E202881F33
:101DF0008827881F9091E302292F220F97FB9927AC
:101E000090F96091E402822B0C94CD0D9091E20246
:101E100090FF44C09178811102C0926003C0833268
:101E200020F094649093E20205C08F73880F892B91
:101E30008093E2026091E2027091E3028091E402F9
:101E40009091E5020E943D0D8091E202982F9E77CD
:101E5000923019F41092250210C0982F96959F7316
:101E60002EE3290F2F73273120F491E09093250260
:101E700004C0995D9F739A3068F3881F8827881F74
:101E80009091E302292F220F97FB992790F9409117
:101E9000E5026091E402822B0C94CD0D08958091AF
:101EA000B00281608093B00281E0809326020E949C
:101EB000851E811104C00E94641E0E94430D0E9471
:101EC000390D6093E2027093E3028093E4029093F1
:101ED000E5026E7761F40E94430D0E94390D609314
:101EE000E2027093E3028093E4029093E50281E0C2
:101EF000809325028091E20280FF04C086958F7353
:101F00000C94060F08958091E20286958F738F5F7F
:101F1000833208F081E00C94060F8091E202982F42
:101F2000909590FB80F98093E2026091E2027091BB
:101F3000E3028091E4029091E5020E943D0D8091C0
:101F4000E20280FF04C086958F730C94060F1092F6
:101F500025022FEF80E792E0215080409040E1F78A
:101F600000C000000C94570DCF93C82F809123021E
:101F7000909124020E94241FEC2FF0E0E350FC4FCC
:101F8000E491F0E08E179F0710F10E94181F9093C4
:101F9000240280932302E0912202F0E0EF5FFB4FE6
:101FA00044918091E202881F8827881F9091E30264
:101FB000292F220F97FB992790F96091E402822B39
:101FC0000E947E0D809122028F5F80932202CF912A
:101FD0000895CF93C82F80912002909121020E94F2
:101FE000241FEC2FF0E0E650FC4FE491F0E08E1758
:101FF0009F07E8F00E94181F90932102809320020F
:102000004091E5026091E40280911E0290911F02CE
:102010000E947E0D80911E0290911F02019668E63B
:1020200071E00E942C2C90931F0280931E02CF918E
:102030000895DF92EF92FF920F931F93CF93DF9358
:10204000D82E80911C0290911D020E94241FED2D1C
:10205000E695F0E0E650FC4FE491F0E08E179F0724
:10206000E8F10E94181F90931D0280931C020AEE53
:1020700012E0C0E0D0E098E6E92EFF24F3948091CE
:102080001A0290911B028C0F9D1FB7010E942C2CED
:1020900098014091E5026091E4020E94C10C6896AB
:1020A0000C5F1F4FC83681E0D80749F70E94570DD3
:1020B00020911A0230911B02D0FE0AC0C90101967C
:1020C000BE010E942C2C90931B0280931A0206C022
:1020D0002150310930931B0220931A02DF91CF91D6
:1020E0001F910F91FF90EF90DF9008958F929F9234
:1020F000AF92BF92CF92DF92EF92FF920F931F9316
:10210000CF93DF93C82F80FD03C09924939402C01E
:1021100099249A9480911802909119020E94241F88
:10212000C695EC2FF0E0E950FC4FE491F0E08E17FB
:102130009F0708F469C00E94181F909319028093AA
:1021400018023AEEE32E32E0F32E0CEE12E0C0E07D
:10215000D0E047E0A42EB12CF80131971082F701AE
:102160001082F801108227E0C22ED12C812C8091A0
:102170001702880D87FD815F992787FD9095C81705
:10218000D907E9F42091E5022C9DC0012D9D900D09
:102190001124B5010E94402C462F8091E202881F35
:1021A0008827881F9091E302592F550F97FB992795
:1021B00090F997016091E402852B0E94C10C890C73
:1021C000F1E0CF1AD108C114D10489F6219684E038
:1021D000E80EF11C0C5F1F4FCF30D10509F0BCCFCA
:1021E0000E94570D8091170291E0991206C081114B
:1021F00002C08EE007C0815005C090E00196BE018C
:102200000E94402C80931702DF91CF911F910F9174
:10221000FF90EF90DF90CF90BF90AF909F908F9006
:1022200008959F92AF92BF92CF92DF92EF92FF926A
:102230000F931F93CF93DF93CDB7DEB7EC970FB615
:10224000F894DEBF0FBECDBF182F8091150290917C
:1022500016020E94241FE12FF0E0EC50FC4FE491A5
:10226000F0E08E179F0708F491C00E94181F90930A
:102270001602809315028E010F5F1F4F5E0183E0EF
:10228000A80EB11CE12CF12C6801F50131971082E8
:10229000F8011082F5011082912C90910201809139
:1022A0001402999E800D112487FD04C08F301CF00C
:1022B0008EE001C080E0992787FD9095E816F90629
:1022C000A1F48091E202881F8827881F9091E30281
:1022D000592F550F97FB992790F998014091E502E6
:1022E0006091E402852B0E94C10C9394F7E09F1249
:1022F000D4CF8FEFE81AF80A0C5F1F4FE4E0AE0E60
:10230000B11CFFE0EF16F10409F0BFCF2CEE32E074
:1023100009E010E06FE0E62EF12CC801B7010E9441
:10232000402CFC01D9011197EE0FFF1FEE0FFF1F8C
:10233000EC0DFD1D81818C93119780818C9382819E
:10234000F90180830F5F1F4F2C5F3F4F083111054C
:1023500021F70E94570D9091020180911402913053
:1023600049F48A3F2CF489EF809314028FEF08C060
:1023700081500AC086313CF085E18093140281E0EF
:102380008093020103C08F5F80931402EC960FB616
:10239000F894DEBF0FBECDBFDF91CF911F910F919B
:1023A000FF90EF90DF90CF90BF90AF909F900895F7
:1023B000EF92FF920F931F93CF93DF9380911202BE
:1023C000909113020E94241F883E9340C8F10E94FE
:1023D000181F9093130280931202C0911002D091A3
:1023E00011022196C170DD27D0931102C093100213
:1023F0000AEE12E0F12C78E7E72E8F2D8695FE018C
:10240000E80FF11DCF018170992798014091E502F5
:102410006091E402FC01EE9EC001EF9E900D11243C
:102420000E94C10CF3940C5F1F4FFFE0FF12E5CF39
:10243000DF91CF911F910F91FF90EF900C94570D6A
:10244000DF91CF911F910F91FF90EF9008958091B0
:102450002502882391F12091E202822F86958F73C5
:102460009EE3980F9F73943018F482500C94B40F2D
:102470009AE3980F9F73933018F486500C94E90FE9
:1024800097E3980F9F73963018F489500C941910A5
:1024900091E3980F9F73963018F48F500C94761038
:1024A0009BE2980F9F73933018F485510C9411118F
:1024B0002E77203311F40C94D811089590932C02A8
:1024C00080932B020895E0912B02F0912C0230971B
:1024D00021F00190F081E02D099480E00895E091D1
:1024E0002B02F0912C02309721F00280F381E02D35
:1024F00009940895E0912B02F0912C02309721F07D
:102500000480F581E02D09940895209129023091ED
:102510002A028217930771F090932A02809329026E
:10252000E0912B02F0912C02309721F00680F78188
:10253000E02D0994089520912702309128028217F6
:10254000930771F09093280280932702E0912B0269
:10255000F0912C02309721F00084F185E02D099450
:10256000089508950C94B1120E940F1F0E949A04BE
:102570000E94961F0C944F0FCF92DF92EF92FF9222
:102580000F931F93CF93DF93CDB7DEB72B970FB683
:10259000F894DEBF0FBECDBF0E94C1043EE2E32E21
:1025A00032E0F32E00E010E0C02E802F0E94BF0525
:1025B000F701D1907F01D826B1F40F5F1F4F0E3085
:1025C000110591F78FEF89838A831B820E94181F60
:1025D0008160782F9D838C8349815A816B818D81A5
:1025E0000E949B1341C09091B00291FF04C08B8761
:1025F0000E94C5058B8520E030E04D2D50E0922FE4
:10260000BA01022E02C0759567950A94E2F760FF41
:1026100025C02E83CF82EE24E394F12C02C0EE0C71
:10262000FF1C9A95E2F790E08E219F2121E0892BF3
:1026300009F420E028870E94181F8160782F9A876C
:1026400089874E815F8168858A850E949B13F80186
:10265000E25DFD4F80818E25808306C02F5F3F4F56
:102660002630310561F6A9CF0E94282110912D0254
:102670000E9463121817A1F00E94631280932D022A
:102680002B960FB6F894DEBF0FBECDBFDF91CF9172
:102690001F910F91FF90EF90DF90CF900C94BC07AB
:1026A0002B960FB6F894DEBF0FBECDBFDF91CF9152
:1026B0001F910F91FF90EF90DF90CF900895DC0174
:1026C00011964C9111975C91852F90E021E030E0BC
:1026D00001C0220F5A95EAF712966C91129750E0BA
:1026E000662319F060914A0205C0FA01E45CFD4FCF
:1026F000608162236623B9F036E0349FF001359F94
:10270000F00D1124E80FF91FEE0FFF1FEB5EFE4FD7
:10271000808191818D939C93FA01E45CFD4F8081CF
:10272000822B80830895FA01E45CFD4F209580811F
:10273000282320830895CF93DF93CDB7DEB72B975F
:102740000FB6F894DEBF0FBECDBF4F8358876987A1
:102750007A878B878A859B85892B31F05F3F11F0C3
:1027600080E003C04F3FE1F781E0811104C0CE015A
:1027700007960E945F13DE01119686E0FD0111921B
:102780008A95E9F785E0FE01379601900D928A95CA
:10279000E1F749815A816B817C818D819E810E9404
:1027A000751A2B960FB6F894DEBF0FBECDBFDF9122
:1027B000CF910895CF93C82F882309F4CCC08238D5
:1027C00059F40E94631281FDC6C089E30E94151D61
:1027D0000E94E21D89E30CC0833879F40E946312E1
:1027E00080FDB9C083E50E94151D0E94E21D83E5AE
:1027F0000E94551DCF910C94E21D843859F40E941B
:10280000631282FDA8C087E40E94151D0E94E21D8C
:1028100087E4EECF8CEF8C0F813A48F48C2F0E9426
:102820005F23811198C08C2F0E94151DE3CF80E299
:102830008C0F883048F4C77081E001C0880FCA95BA
:10284000EAF70E94991DD6CF8BE58C0F833078F480
:10285000C53A29F0C63A31F482E890E005C081E833
:1028600090E002C083E890E0CF910C94851288E557
:102870008C0F853108F06FC0C83A61F1C93A69F12F
:10288000CA3A71F1CB3A79F1CC3A81F1CB3B89F17B
:10289000CC3B91F1CD3A99F1C03BA1F1CE3AA9F1EF
:1028A000CF3AB1F1C13BB9F1C23BC1F1C33BC9F170
:1028B000C43BD1F1C53BD9F1C63BE1F1C73BE9F1DE
:1028C000C83BF1F1C93BF9F1CA3B09F03FC08AE2CC
:1028D00092E03EC082EE90E03BC089EE90E038C0CE
:1028E0008AEE90E035C085EB90E032C086EB90E058
:1028F0002FC083EB90E02CC084EB90E029C087EBE5
:1029000090E026C08CEC90E023C08DEC90E020C0DD
:1029100083E891E01DC08AE891E01AC082E991E065
:1029200017C084E991E014C081E292E011C083E213
:1029300092E00EC084E292E00BC085E292E008C013
:1029400086E292E005C087E292E002C080E090E07B
:10295000CF910C949B12CF910895882309F44BC01A
:10296000823859F40E94631281FF45C089E30E94B6
:10297000151D0E94E21D89E30CC0833871F40E948A
:10298000631280FF38C083E50E94151D0E94E21D7E
:1029900083E50E94551D0C94E21D843859F40E9471
:1029A000631282FF28C087E40E94151D0E94E21D69
:1029B00087E4EFCF9CEF980F913A58F390E2980F8D
:1029C000983050F4877091E001C0990F8A95EAF72A
:1029D000892F0E949F1DDFCF9BE5980F933020F435
:1029E00080E090E00C948512885A853120F480E0D4
:1029F00090E00C949B120895882321F00E94991D69
:102A00000C94E21D0895882321F00E949F1D0C94D0
:102A1000E21D08958F929F92BF92CF92DF92EF9224
:102A2000FF920F931F93CF93DF9300D0CDB7DEB704
:102A30004C01472FFC01E580E2949FE0E922F280FF
:102A4000FF2031F079836A830E94B61D6A81498133
:102A500049836A830E940E1D49816A81882389F017
:102A6000FF2079F080E2860F883058F082E00E94E3
:102A7000F71C0E940E1DBB24B394B82649816A81BD
:102A800001C0B12CE42FE295EF70F0E0E859FF4F60
:102A90000C94542C842F807F142F1F70882311F0E6
:102AA0001295107FFF20C1F0112309F498C180E234
:102AB000860F883010F0611105C0812F6A830E9453
:102AC000991D04C0812F6A830E94A91D6A816A83AF
:102AD0000E94E21D6A8183C1862F6A830E94AD1421
:102AE0006A81112309F4C9C180E2860F883010F091
:102AF000611104C0812F0E949F1D03C0812F0E947D
:102B0000AF1D0E94E21DB9C1242F207F842F8F703A
:102B1000203211F08295807F662319F06130B9F080
:102B200020C0FF2049F0EE2009F40FC1F1E0EF12C0
:102B30000CC10E94C91DA1C1EE2021F091E0E9164F
:102B400009F49BC189830E94CC1D898104C1FF20A7
:102B500029F0E1E0EE1508F490C1F7C0E1108DC155
:102B6000FAC0FF2021F0EE2009F4EFC038C1EE20BA
:102B700009F4F1C03AC1242F26952695237030E040
:102B80002115310521F02130310561F076C1FF209A
:102B900021F0862F942F937002C080E090E00E9475
:102BA00085126BC1FF2021F0862F942F937002C0F5
:102BB00080E090E00E949B1260C1862FFF2019F0F8
:102BC0000E94302002C00E9498200E941D2155C101
:102BD000842F837009F04EC0F1104FC1262F22952B
:102BE00026952770220F220F862F8F70C82ED12C8A
:102BF000E12CF12C022E04C0CC0CDD1CEE1CFF1CC1
:102C00000A94D2F764FF10C06FE070E080E090E0BB
:102C100004C0660F771F881F991F2A95D2F7609509
:102C200070958095909503C060E070E0CB01242FF3
:102C300026952695237030E02230310569F0233047
:102C4000310589F06C297D298E299F292130310594
:102C500071F00E94C41B11C16C297D298E299F2906
:102C60000E94D61B0AC10E94C41BC701B6010E9464
:102C7000B21B03C1FF2019F0842F817001C086951B
:102C8000882309F4FAC0262F229526952770220F53
:102C9000220F862F8F70C82ED12CE12CF12C022E02
:102CA00004C0CC0CDD1CEE1CFF1C0A94D2F764FFA0
:102CB00010C06FE070E080E090E004C0660F771F06
:102CC000881F991F2A95D2F76095709580959095E9
:102CD00003C060E070E0CB01242F26952695237079
:102CE00030E02230310569F02330310589F06C295C
:102CF0007D298E299F292130310571F00E94701C99
:102D0000BCC06C297D298E299F290E94821CB5C0D8
:102D10000E94701CC701B6010E945E1CAEC0062F47
:102D200010E0F801E05EF109E531F10508F053C06B
:102D3000E858FF4F0C94542C162F1F70842F8F715E
:102D4000FF2031F00E94091C812F0E94FC1495C0C5
:102D50000E94241C812F0E9403158FC0FF2039F090
:102D6000E1108BC0842F8F710E94431C86C0F1E05C
:102D7000FE1508F482C0F6CFFF2039F0842F8F7142
:102D80000E94091C7AC0FF20C9F3842F8F710E9412
:102D9000241C73C0FF2029F0842F8F710E94FA1B1E
:102DA0006CC00E94F51B69C0FF2051F0142F1F71E9
:102DB000812F0E94091C63E0812F0E94EE1C5DC0E0
:102DC00081E00E94F71C81E08E1508F056C082E079
:102DD0000E94F71C52C0FF2031F0EE2079F2862FBE
:102DE0000E94DA134AC0EE2081F2862F0E94AD14B1
:102DF00044C04F70C4010E94C6050E94221B3DC002
:102E0000623FA9F128F4603F49F0613FE1F020C042
:102E1000643FA1F050F0653F69F01AC0FF2049F10E
:102E200080914A0221E0822702C081E08F258093B1
:102E30004A021FC0F1101DC081E0F9CFF11019C086
:102E400010924A0216C0EE2091F0F11012C0E8CFA5
:102E5000EE2069F0862F49836A83FF2019F00E94D3
:102E6000DA1302C00E94AD1449816A8102C0F09257
:102E70004A024F70C4010E94BE07BB20F1F00E94BD
:102E8000EA1C80FD1AC0F40112820E94E41C0E9418
:102E9000091CC4010E946B170E94E41C0F900F9044
:102EA000DF91CF911F910F91FF90EF90DF90CF9026
:102EB000BF909F908F900C94241C0F900F90DF91E7
:102EC000CF911F910F91FF90EF90DF90CF90BF9027
:102ED0009F908F9008950F931F93CF93DF93EC01F2
:102EE000288139818B819C81892B31F03F3F11F002
:102EF00080E003C02F3FE1F781E0811113C0CE01D4
:102F00000E94FF05882371F0688179818A810E947F
:102F1000E01C8C010E94941C0E94AF1BB801CE01E2
:102F20000E940A15DF91CF911F910F9108950E9481
:102F3000B61D0E94C61D0E94881D0E94E21D0E94AF
:102F4000C9210E941D2180E090E00E94851280E04E
:102F500090E00C949B120E94A61D0C9497170E945F
:102F6000D51CE92FE295EF70F0E03297EE30F105D5
:102F7000B8F4E357FF4F0C94542C803F59F018F4E9
:102F8000803E70F407C0843F59F404C0803E10F0C6
:102F9000813F31F481E0089593FB882780F90895FB
:102FA00080E00895CF93DF9300D000D01F92CDB77B
:102FB000DEB70F900F900F900F900F90DF91CF9191
:102FC0000895CF93DF9300D000D000D0CDB7DEB707
:102FD00026960FB6F894DEBF0FBECDBFDF91CF911E
:102FE00008951F93CF93DF93C0914B0216E0809119
:102FF0004C02C81799F0D0E01C9FF0011D9FF00D06
:103000001124E35BFD4F4081518162817381848192
:1030100095810E94E1172196C770E9CFDF91CF918A
:103020001F91089540917D0250917E0260917F0230
:103030007091800280918102909182020C94E1173C
:10304000CF938091820282958F7009F05FC080914A
:103050007F02882309F45AC020914B02A0914C02B0
:1030600060917D0270917E02809180029091810238
:1030700031E06F3F09F030E0B32FC6E02A1709F4C2
:1030800045C0009721F07F3F21F44B2F03C041E062
:1030900001C040E030E040FD35C0C29FF001C39F59
:1030A000F00D1124E35BFD4F418174132BC040816F
:1030B000641328C04281411125C0438154814817BF
:1030C000590710F441505109481B590B483C510510
:1030D000C8F4809182028F7080618093820286E0C2
:1030E000829FF001839FF00D1124EE5AFD4F8081E5
:1030F0008F70806180838DE792E00E946B17CF9183
:103100000C94F1172F5F3F4F2770B8CFCF910895E0
:10311000CF92DF92EF92FF920F931F93CF93DF93A3
:10312000CDB7DEB762970FB6F894DEBF0FBECDBF46
:103130008C0185E0F801DE011D9601900D928A95C3
:10314000E1F7D8014C9111965C91119712966C9110
:1031500012971396ED90FC90149770917D02E09178
:103160007E0220918002309181022115310531F0DB
:10317000EF3F31F481E07F3F19F403C081E001C0EB
:1031800080E0B82FB170CB2E80FD6CC1D0907F0253
:10319000DD2009F4F5C0F0918202E216F30638F062
:1031A000C701821B930B883C910548F09BC020957A
:1031B00030952E0D3F1D283C310508F093C08F2F10
:1031C000807F09F052C0E51314C0741312C0D62ECC
:1031D00061110FC0FF70F061F09382020E9412181B
:1031E0008DE792E00E946B1780918202F80185833F
:1031F0006CC1EF2831F05F3F31F481E04F3F19F4AB
:1032000003C081E001C080E080FD03C081E086272B
:1032100001C080E0F82FF170FF2E80FF1CC080916C
:103220004B0220914C0236E0821709F428C190E04D
:10323000389FF001399FF00D1124E35BFD4F718140
:10324000571306C07081471303C07281671303C010
:1032500001968770E9CFD62E662309F436C1809196
:10326000820281608093820253C0E51308C0741308
:1032700006C0611104C0D8011596FC93AEC04D87FD
:103280005E878D859E856A8B0E94AF176A89882329
:1032900029F1D62E662311F120918202822F829588
:1032A0008F7090E002970CF460C080917D02909145
:1032B0007E0298878F831986FB86EA862C87CE014B
:1032C000079651C0E51731F14D875E878D859E8544
:1032D0006A8B0E94AF176A8981112EC0C8010E94B3
:1032E0006B17A4C08F2F807F69F77E2DF98AE88A3B
:1032F00089890E94D2178DE792E00E946B17EDE753
:10330000F2E086E0DF011D928A95E9F70E9412182B
:10331000D12CDBC07413D8CF6111D6CFD80115964C
:10332000FC93C8010E946B17EDE7F2E086E0DF0135
:103330001D928A95E9F7C9C0D62E662379F22091AD
:103340008202822F82958F7090E0029774F08091B4
:103350007D0290917E029A8389831B82FD82EC829A
:103360002E83CE0101960E946B1786E0F801ADE72F
:10337000B2E001900D928A95E1F70E9420186FC08B
:10338000E216F30628F0C701821B930B9C0104C0D0
:10339000209530952E0D3F1D283C310508F052C078
:1033A000D62E662309F49ACFE5132CC074132AC0D5
:1033B0008091820280FD1DC0982F92959F70C9F068
:1033C000D80115968C9315979F3039F09F5F929591
:1033D000907F8F70892B15968C93C8010E946B1774
:1033E00086E0F801ADE7B2E001900D928A95E1F731
:1033F00036C086E0F801ADE7B2E001900D928A9503
:10340000E1F763C04D875E878D859E850E94AF176B
:10341000882379F086E0F801ADE7B2E001900D92E3
:103420008A95E1F70E9420180E941218DD24D39497
:103430004CC080918202816080938202C8010E9408
:103440006B1743C07E2DF98AE88A89890E94D217BA
:10345000EDE7F2E086E0DF011D928A95E9F70E9430
:10346000121833C0662309F439CF4D875E878D85E6
:103470009E850E94AF17882309F430CFCBCF4D87AC
:103480005E878D859E850E94D51C292F22952F70E1
:1034900030E0223031052CF49F7041F0811106C0DC
:1034A0000CC0243031052CF49F7049F4805E8830C4
:1034B00020F0C8010E946B17CF2CDC2C06C0D8016D
:1034C00015969C91907F91F7F8CF8D2D62960FB64F
:1034D000F894DEBF0FBECDBFDF91CF911F910F914A
:1034E000FF90EF90DF90CF9008951F93CF93DF93DD
:1034F000CDB7DEB72C970FB6F894DEBF0FBECDBFA9
:103500004F83588769877A878B879C87CE01079678
:103510000E9488188823C1F02F8138858A859B8571
:10352000892B31F03F3F11F080E003C02F3FE1F7DE
:1035300081E0811147C04F81588569857A858B85E7
:103540009C850E94E1173EC086E0FE013796DE01B1
:10355000119601900D928A95E1F7FF81E8854A85E1
:103560005B854115510531F0EF3F31F481E0FF3FBC
:1035700019F403C081E001C080E080FD23C02091E8
:103580004C0230E0C90101968770992760914B0287
:1035900070E086179707F1F1F983EA835D834C8326
:1035A00096E0929FD001939FB00D1124A35BBD4F75
:1035B000FE01319601900D929A95E1F780934C02AD
:1035C0000E94F11716E080914B0290914C028917EE
:1035D00079F1189FC0011124835B9D4F0E948818C8
:1035E000882331F1E0914B021E9FF0011124E35B2F
:1035F000FD4F4081518162817381848195810E9458
:10360000E11780914B0290E0019687709927809393
:103610004B02D9CF0E94AB1710924C0210924B0272
:10362000EDE7F2E086E0DF011D928A95E9F7CACF67
:103630002C960FB6F894DEBF0FBECDBFDF91CF91B1
:103640001F910895EF92FF920F931F93CF93DF93F3
:10365000FC01009709F46FC0F12CEE24E394EF0114
:1036600021968491843740F4843008F055C081302D
:1036700081F0823021F15FC0853709F447C0C0F185
:103680009CE7980F903708F056C08F770E94AD14D2
:1036900045C08F010E5F1F4FFE01849190E2980F8D
:1036A000983050F48770FE2D01C0FF0F8A95EAF71D
:1036B0008F2F0E94B91D15C00E94DA1314C08F010C
:1036C0000E5F1F4FFE01849190E2980F983068F4CE
:1036D0008770FE2D01C0FF0F8A95EAF78F2F0E9499
:1036E000BF1D0E94E21DE80119C00E94AD14FBCF6E
:1036F000CF010296FE01C491CC2361F0EFE9FFE017
:103700003197F1F700C00000C150F6CFCF0102960B
:10371000FE01F490EC0102C00E94DA138F2D882381
:1037200041F0EFE9FFE03197F1F700C00000815070
:10373000F6CFFE0194CFDF91CF911F910F91FF90B3
:10374000EF90089508950E94A21B609387027093E2
:1037500088028093890290938A020C9497170895A7
:103760000C94A31B0F931F93009187021091880262
:103770002091890230918A02602B712B822B932B2E
:103780001F910F910C94A31B0F931F93009187021D
:10379000109188022091890230918A02602371235E
:1037A000822393231F910F910C94A31B0F931F93BC
:1037B00000918702109188022091890230918A023B
:1037C00060277127822793271F910F910C94A31BC9
:1037D00008950E94E81B6093830270938402809393
:1037E0008502909386020C94971760E070E0CB01FD
:1037F0000C94E91B41E050E060E070E004C0440F2D
:10380000551F661F771F8A95D2F7CB01BA010C941A
:10381000E91B41E050E060E070E004C0440F551F38
:10382000661F771F8A95D2F7809183029091840258
:10383000A0918502B0918602482B592B6A2B7B2BD5
:10384000CB01BA010C94E91B41E050E060E070E06C
:1038500004C0440F551F661F771F8A95D2F7409505
:103860005095609570958091830290918402A0910B
:103870008502B0918602482359236A237B23CB011A
:10388000BA010C94E91B41E050E060E070E004C034
:10389000440F551F661F771F8A95D2F780918302C8
:1038A00090918402A0918502B09186024827592701
:1038B0006A277B27CB01BA010C94E91B0F931F9356
:1038C000009183021091840220918502309186023A
:1038D000602B712B822B932B1F910F910C94E91B62
:1038E0000F931F930091830210918402209185020F
:1038F0003091860260237123822393231F910F91BD
:103900000C94E91B0F931F93009183021091840282
:1039100020918502309186026027712782279327A4
:103920001F910F910C94E91B0895CF92DF92EF92B3
:10393000FF920F931F93CF93DF93EC01C090870208
:10394000D0908802E0908902F0908A0280918302F0
:1039500090918402A0918502B0918602C82AD92A4A
:10396000EA2AFB2A0FE110E0B701A601002E04C0ED
:1039700076956795579547950A94D2F740FD05C00F
:103980000150110988F780E007C0BE01802F0E9416
:10399000D9070197A9F3802FDF91CF911F910F9144
:1039A000FF90EF90DF90CF900895CF93DF93EC01DD
:1039B0000E94951CBE010E94D907DF91CF91089506
:1039C000CB010E94D51C089580918B028595859529
:1039D0008595089580918B028770089598E0899F5E
:1039E00090011124622B60938B020C94091C40916E
:1039F0008B028095842380938B02982F977069F4B3
:103A000050E0282F332727FD30954217530729F020
:103A10008595859585950C94241C089590918B022D
:103A2000977081E009F480E0089590911401992342
:103A3000D9F090912A0397FF17C0982F96959695E5
:103A400096959F3188F5E0910301F0910401E90F0B
:103A5000F11D877021E030E001C0220F8A95EAF75E
:103A60008181822B8183089540910301509104014B
:103A700020E030E09FEFFA01E20FF31F6281681748
:103A800099F09F3F19F4611101C0922F2F5F3F4FB2
:103A90002E31310581F79F3F39F0FA01E90FF11D11
:103AA00097FDFA95828308950895909114019923C2
:103AB000E1F090912A0397FF18C0982F969596955C
:103AC00096959F3120F5E0910301F0910401E90FF3
:103AD000F11D877021E030E001C0220F8A95EAF7DE
:103AE00020958181282321830895409103015091DD
:103AF000040120E030E0FA01E20FF31F92819813F5
:103B000001C012822F5F3F4F2E313105A1F708957A
:103B100081E090E0E0910301F0910401E80FF91FCA
:103B20001082019680329105A9F708958091AF0225
:103B300008959091AF02982B9093AF0208958095CD
:103B40009091AF0298239093AF0208951092AF0224
:103B500008959091AE02982B9093AE0208958095AF
:103B60009091AE0298239093AE0208951092AE0207
:103B700008959091AD02982B9093AD020895809591
:103B80009091AD0298239093AD0208951092AD02EA
:103B9000089580938C02089510928C0208954091AC
:103BA00003015091040120E030E080E0FA01E20FCF
:103BB000F31F918191118F5F2F5F3F4F2F3131059F
:103BC000A9F70895E0910301F09104018091AF02FB
:103BD0008083E0910301F091040180819091AE0215
:103BE000892B8083E0910301F09104018081909101
:103BF000AD02892B808390918C02992361F0E09132
:103C00000301F09104018081892B80830E94CF1DE4
:103C1000811110928C0280910301909104010C9407
:103C20006F12CF92DF92EF92FF920F931F936C016E
:103C3000EE24FF24C114D104E104F10421F46B014A
:103C40007C0180E001C080E133272F2D1E2D0D2D3A
:103C5000011511052105310519F0885F6801790109
:103C600097018601A4E03695279517950795AA95A3
:103C7000D1F7011511052105310519F08C5F680197
:103C8000790197018601F2E03695279517950795FA
:103C9000FA95D1F7011511052105310519F08E5F4F
:103CA00068017901B701A601769567955795479503
:103CB000452B462B472B09F08F5F1F910F91FF90EB
:103CC000EF90DF90CF9008956DEE7EEF80E090E072
:103CD0000E948C2C60E082E090E00E946E2C60E0FC
:103CE00083E090E00E946E2C60E084E090E00E940F
:103CF0006E2C60E085E090E00E946E2C40E050E089
:103D0000BA0188E090E00C94802C80E090E00E9462
:103D1000682C21E08D3E9E4F09F020E0822F08950F
:103D200082E090E00C945A2C83E090E00C945A2CA2
:103D300084E090E00C945A2C682F84E090E00C947E
:103D40006E2C80913003843021F11092B10220E476
:103D500088E190E00FB6F894A895809360000FBEBC
:103D60002093600080E00E94BC0783B7817F84605D
:103D700083BF83B7816083BF7894889583B78E7F34
:103D800083BF88E10FB6F8948093600010926000C2
:103D90000FBE08950895CF930E94AE040E94C104FF
:103DA0000E94CA1EC0E08C2F0E94BF05811105C071
:103DB000CF5FCE30C1F780E001C081E0CF910895A0
:103DC0000E94AB170E9463120C94BC071F920F92C3
:103DD0000FB60F9211248F939F93AF93BF9380914F
:103DE000B102811113C08091260390912703A09105
:103DF0002803B09129034196A11DB11D809326038C
:103E000090932703A0932803B0932903BF91AF9108
:103E10009F918F910F900FBE0F901F90189582E089
:103E200084BD93E095BD9AEF97BD80936E00089591
:103E30002FB7F8948091260390912703A09128032F
:103E4000B09129032FBF0895CF92DF92EF92FF9296
:103E50000F931F932FB7F894409126035091270397
:103E600060912803709129032FBF6A017B01EE2422
:103E7000FF248C0120E030E0C016D106E206F306F4
:103E800010F441505109481B590BCA011F910F9161
:103E9000FF90EF90DF90CF90089578941F920F924B
:103EA0000FB60F9211248F939F93AF93BF9380917E
:103EB000260390912703A0912803B091290301962E
:103EC000A11DB11D8093260390932703A09328037F
:103ED000B0932903BF91AF919F918F910F900FBE27
:103EE0000F901F9018950E941528F8942FEF87EADD
:103EF00091E6215080409040E1F700C0000087E04B
:103F000090EBDC018093390390933A03A0933B0339
:103F1000B0933C032CE088E190E00FB6F894A895AC
:103F2000809360000FBE20936000FFCF0E94851E2B
:103F3000811102C00E94641E0E94901E8093B002F4
:103F40000E94981E90E090932B0380932A030E9476
:103F5000941E682F70E080E090E00C94B01B80917C
:103F6000B50280FF0BC06091080185E0689FB00139
:103F7000112475956795759567952AC081FF09C0CD
:103F80006091080185E0689FB001112475956795DF
:103F90001FC082FF07C06091080185E0689FB001E3
:103FA000112416C04091B6024423C9F06091070164
:103FB000461788F72091080185E0289F9001112479
:103FC000429FC001439F900D112470E00E94402C3D
:103FD0006038710540F46115710539F002C065E083
:103FE00070E0862F08958FE7089581E0089580910D
:103FF000B50280FF08C06091060170E07595679575
:104000007595679521C081FF06C06091060170E03B
:104010007595679519C082FF04C06091060170E034
:1040200010C08091B6028823C1F060910501861707
:10403000A0F790910601989FC001112470E00E94A2
:10404000402C6038710528F46115710521F0862F28
:1040500008958FE7089581E0089561E070E0F4CF5E
:10406000803F21F40E94AF1F819504C0813F29F455
:104070000E94AF1F8093B9020895823F21F40E94ED
:10408000AF1F819504C0833F29F40E94AF1F809326
:10409000B8020895893F19F40E94F71F05C08A3FAE
:1040A00031F40E94F71F81958093BA0208958B3FE7
:1040B00021F40E94F71F819504C08C3F29F40E94CF
:1040C000F71F8093BB020895843F21F48091B702CB
:1040D000816017C0853F21F48091B702826011C0D2
:1040E000863F21F48091B70284600BC0873F21F4A2
:1040F0008091B702886005C0883F31F48091B70293
:1041000080618093B70208958D3F21F48091B502BC
:1041100081600BC08E3F21F48091B502826005C0A2
:104120008F3F29F48091B50284608093B502089591
:10413000803F39F48091B90287FF6CC01092B902B8
:1041400069C0813F29F48091B9021816BCF362C09E
:104150009091B802823F29F497FF5CC01092B80298
:1041600059C0833F19F41916CCF354C0893F41F468
:104170008091BA0218160CF04DC01092BA024AC0D3
:104180008A3F29F48091BA0287FF44C0F6CF8B3F63
:1041900039F48091BB0287FF3DC01092BB023AC048
:1041A0008C3F29F48091BB021816BCF333C0843FC6
:1041B00021F48091B7028E7F17C0853F21F4809152
:1041C000B7028D7F11C0863F21F48091B7028B7FAB
:1041D0000BC0873F21F48091B702877F05C0883FDD
:1041E00031F48091B7028F7E8093B70213C08D3F68
:1041F00021F48091B5028E7F0BC08E3F21F4809117
:10420000B5028D7F05C08F3F29F48091B5028B7F69
:104210008093B5028091B80281110EC08091B902DD
:1042200081110AC08091BA02811106C08091BB023F
:10423000811102C01092B602089587EB92E00E94AD
:104240007A120E94181F9093B3028093B2020895CD
:104250001F93CF93DF938091B2029091B3020E949B
:10426000241F4091B602442321F02091090130E03F
:1042700006C02091B4025AE0259F900111248217B4
:10428000930708F482C08091B8021091B902D091CE
:10429000BA02C091BB02811107C0111105C0D11132
:1042A00003C0CC2309F471C04F3F19F04F5F409316
:1042B000B602181624F40E94AF1F8093B8028091B2
:1042C000B80287FF05C00E94AF1F81958093B80296
:1042D000111624F40E94AF1F8093B9028091B90295
:1042E00087FF05C00E94AF1F81958093B90260913E
:1042F000B802662339F11091B902112319F1772719
:1043000067FD7095872F972F0E943D2B23E333E3A2
:1043100043E35FE30E94A12B0E940A2B6093B80243
:10432000612F772767FD7095872F972F0E943D2B70
:1043300023E333E343E35FE30E94A12B0E940A2BB4
:104340006093B9021D1624F40E94F71F8093BA02ED
:104350008091BA0287FF05C00E94F71F8195809364
:10436000BA021C1624F40E94F71F8093BB028091AE
:10437000BB0287FF05C00E94F71F81958093BB0297
:10438000DF91CF911F910C941D21DF91CF911F914F
:104390000895E7EBF2E085E0DF011D928A95E9F7E9
:1043A0001092B6021092B5020895833081F128F47C
:1043B000813059F08230D1F00895853009F449C038
:1043C000B8F1863009F456C008952091B402862FC2
:1043D00090E0820F911D8F3F910520F4620F609352
:1043E000B40208958FEF8093B402089520910901DB
:1043F000862F90E0820F911D8F3F910520F4620F70
:104400006093090108958FEF809309010895209129
:104410000801862F90E0820F911D8F3F910520F4B7
:10442000620F6093080108958FEF8093080108954B
:1044300020910701862F90E0820F911D8F3F9105FB
:1044400020F4620F6093070108958FEF80930701B6
:10445000089520910601862F90E0820F911D8F3FD5
:10446000910520F4620F6093060108958FEF809309
:104470000601089520910501862F90E0820F911D7D
:104480008F3F910520F4620F6093050108958FEF2F
:10449000809305010895833011F128F4813049F0AB
:1044A000823091F00895853081F120F18630C1F19C
:1044B00008958091B402681720F4861B8093B4029B
:1044C00008951092B402089580910901681720F4AC
:1044D000861B809309010895109209010895809127
:1044E0000801681720F4861B809308010895109234
:1044F0000801089580910701681720F4861B8093B6
:104500000701089510920701089580910601681728
:1045100020F4861B809306010895109206010895E9
:1045200080910501681720F4861B8093050108958A
:10453000109205010895873220F58E3108F098C059
:10454000803109F474C070F4873009F44CC018F459
:10455000863089F12EC08B3009F4A0C08E3009F46A
:104560005CC027C0863109F499C020F4813109F478
:104570006FC01FC0893109F491C08B3109F443C069
:1045800018C0883309F48AC050F4893209F47EC017
:10459000853309F47BC0873209F478C00AC08334BC
:1045A00009F474C020F48A3308F060C002C0883473
:1045B00061F080E008958091B002817F8E7F8093CA
:1045C000B00281E08093BD0208950E94AB172FEFE7
:1045D00083ED90E3215080409040E1F700C000005F
:1045E0000E94731F5BC09091B002892F80958170EB
:1045F00080FB90F99093B002811150C0997F977F12
:104600009093B0024BC09091B00291FB882780F943
:1046100021E0822780FB91F913C09091B00292FBB8
:10462000882780F921E0822780FB92F909C09091C8
:10463000B00293FB882780F921E0822780FB93F961
:104640009093B002882351F191609093B002089545
:104650000E94AB1790912A0397FB882780F921E0ED
:10466000822780FB97F990932A0318C027EC01C09A
:1046700023EE280F61E070E080E090E004C0660F58
:10468000771F881F991F2A95D2F704C061E070E058
:1046900080E090E00E94B01B0E94AB1781E008957B
:1046A00080E0089580E008958E518A3030F4E82F3C
:1046B000F0E0E354FE4F8081089580E00895CF93A9
:1046C000C82F8091BD02813079F018F08230D1F18D
:1046D00082C0E0910301F09104018081813169F091
:1046E000823209F07AC009C0E0910301F09104011F
:1046F0008081813111F0823249F48C2F0E94502345
:1047000081111DC08C2F0E949B221AC08C2F0E94E9
:104710005223811114C0C43179F048F4CB3079F0C0
:10472000C03109F05EC082E08093BD0208C0C9328A
:1047300019F0C83321F055C01092BD0252C081E07B
:10474000817051C0C93279F108F5C43161F1A0F42A
:10475000C73009F044C01092B40294E1909309016B
:104760008093080185E08093070188E0809306012B
:1047700088E28093050133C082EE8C0F863078F595
:104780008C2F0E9454238093BC0229C0CE34E9F0C0
:1047900020F4CB3421F56AE013C0C13579F0C2357D
:1047A000F1F461E00DC08091BC02882319F01092F1
:1047B000BC0215C081E08093BD0215C061E006C057
:1047C0008091BC020E94D5210AC06AE08091BC029F
:1047D0000E944B2204C01092BD0280E004C081E020
:1047E00002C080E0ADCFCF9108958091DE020895A0
:1047F0000F931F93CF93DF9300D01F92CDB7DEB7F7
:104800008C010E946626823011F0843019F583E015
:1048100089831B830A838093E9008FEF9091E800DE
:10482000815095FD06C095ED9A95F1F70000811134
:10483000F5CF8091E80085FF0DC040E050E063E0D7
:1048400070E0CE0101960E9483268091E8008E7769
:104850008093E8000F900F900F90DF91CF911F9100
:104860000F910895CF93DF9300D01F92CDB7DEB79D
:1048700020913003243031F522E0298380589109BA
:104880009B838A8383E08093E9008FEF9091E80017
:10489000815095FD06C095ED9A95F1F700008111C4
:1048A000F5CF8091E80085FF0DC040E050E063E067
:1048B00070E0CE0101960E9483268091E8008E77F9
:1048C0008093E8000F900F900F90DF91CF910895A3
:1048D000CF93DF93EC010E946626823011F0843082
:1048E000F9F482E08093E9008FEF9091E800815025
:1048F00095FD06C095ED9A95F1F700008111F5CF71
:104900008091E80085FF0CC040E050E065E070E079
:10491000CE010E9483268091E8008E778093E80084
:10492000DF91CF910895CF93DF93EC010E9466262B
:10493000823019F0843009F047C080911401882337
:10494000E1F080912A0387FF18C084E08093E9009A
:104950008FEF9091E800815095FD06C095E19A9502
:10496000F1F700008111F5CF8091E80085FF2CC0A0
:1049700040E050E060E270E017C081E08093E90021
:104980008FEF9091E800815095FD06C095ED9A95C6
:10499000F1F700008111F5CF8091E80085FF14C088
:1049A00040E050E068E070E0CE010E9483268091F4
:1049B000E8008E778093E80080E2FE01AEEBB2E083
:1049C00001900D928A95E1F7DF91CF910895809142
:1049D0002F03811109C00E9415280E94722880911E
:1049E000E20084608093E200089510922F030895FE
:1049F000089508950C94E01E42E061EC81E00E946D
:104A00008F2742E061EC82E00E948F2742E061EC58
:104A100083E00E948F2742E261EC84E00C948F27B0
:104A200080913203833009F455C030F4813071F045
:104A3000823009F48EC008958A3009F47AC08B3030
:104A400009F460C0893009F09CC020C08091310316
:104A5000813A09F096C08091E800877F8093E80052
:104A60008091350390913603892B21F060E080E03E
:104A700090E003C060E28EEB92E070E00E94CC26F2
:104A80008091E8008B778093E8000895809131034E
:104A9000813209F076C080913503909136030097FA
:104AA00019F0039709F06DC08091E800877F80932B
:104AB000E8008091E80082FD05C0809130038111FB
:104AC000F8CF5FC08091F1008093DE028091E80012
:104AD0008B7753C080913103813A09F052C08091A5
:104AE000350390913603892B09F04BC08091E80083
:104AF000877F8093E8008091E80080FFFCCF809161
:104B0000140136C0809131038132D9F5809135038B
:104B100090913603892BA9F58091E800877F8093D7
:104B2000E8000E94C42780913303809314010C9401
:104B3000AB1780913103813221F58091E800877FA6
:104B40008093E8000E94C427809134038093DF02A1
:104B5000089580913103813AA1F48091E800877F24
:104B60008093E8008091E80080FFFCCF8091DF0215
:104B70008093F1008091E8008E778093E8000C9498
:104B8000C427089584B7877F84BF88E10FB6F8945F
:104B900080936000109260000FBE80E880936100F7
:104BA000109261000E94B2120E9415280E94722881
:104BB0008091E20084608093E20078940E94ED2A64
:104BC0000E94B4128AE091E00E945E12809130034C
:104BD000853069F40E94A11E80912E038823B1F3D1
:104BE0000E94CB1E882391F30E946D26EFCF0E9476
:104BF000BC120E942712EACF292F33272330310518
:104C0000A9F06CF42130310509F442C0223031059D
:104C100009F043C08DE690E025E336E042C0213242
:104C20003105C9F02232310519F137C09927813099
:104C3000910541F08230910541F0892B71F5E1E356
:104C4000F6E005C0E9E1F6E002C0E1E0F6E08491BB
:104C500090E09F0126C0643000F5E62FF0E0EE0FF3
:104C6000FF1FED52FE4F2081318189E090E019C095
:104C7000643098F4E62FF0E0DF01AA0FBB1FA553C4
:104C8000BE4F2D913C91E953FE4F808190E009C0C9
:104C900082E190E022EA36E004C080E090E020E08B
:104CA00030E0FA013183208308950895CF93C82F0F
:104CB0000E945526C093E002CF9108958091300361
:104CC000843011F482E0089581E008958091E0023B
:104CD000811102C00C945E26089580E189BD82E1B5
:104CE00089BD09B400FEFDCF8091D8008F7D8093EF
:104CF000D8008091E00082608093E0008091E00025
:104D000081FDFCCF0895CF92DF92EF92FF920F9337
:104D10001F93CF93DF937C018B01EA010E94E5276B
:104D2000811131C0209731F088819981081B190BBE
:104D3000E80EF91EC12CD12C0115110519F1809135
:104D4000E80085FD14C08091E8008E778093E8002C
:104D5000209741F0888199818C0D9D1D99838883CE
:104D600085E011C00E94E527882331F30CC0F701CC
:104D700081917F018093F10001501109FFEFCF1A5B
:104D8000DF0ADACF80E0DF91CF911F910F91FF9082
:104D9000EF90DF90CF900895209137033091380342
:104DA0002617370748F06115710539F42091E8009E
:104DB0002E772093E80001C0B901FC0120E06115C5
:104DC0007105B9F180913003882309F440C0853022
:104DD00009F43FC08091E80083FD3DC08091E80068
:104DE00082FF06C08091E80082FF26C080E008951F
:104DF0008091E80080FFE3CF2091F3008091F200E2
:104E000090E0922B6115710551F08830910538F4CE
:104E100021912093F100615071090196F3CF21E0B7
:104E2000089709F020E08091E8008E778093E800F1
:104E3000C6CF2111C7CFD6CF80913003882339F058
:104E4000853039F08091E80083FFCCCF04C082E048
:104E5000089583E0089581E008952091370330910B
:104E600038032617370748F06115710539F420918A
:104E7000E8002E772093E80001C0B901FC0120E092
:104E800061157105C1F180913003882309F441C097
:104E9000853009F440C08091E80083FD3EC08091D8
:104EA000E80082FF06C08091E80082FF27C080E012
:104EB00008958091E80080FFE3CF2091F300809176
:104EC000F20090E0922B6115710559F08830910540
:104ED00040F424912093F1003196615071090196BC
:104EE000F2CF21E0089709F020E08091E8008E776A
:104EF0008093E800C5CF2111C6CFD5CF8091300374
:104F0000882339F0853039F08091E80083FFCBCFDA
:104F100004C082E0089583E0089581E00895982F09
:104F2000973058F59093E900981739F07091EC009C
:104F30002091ED005091F00003C0242F762F50E017
:104F400021FF19C03091EB003E7F3093EB00309190
:104F5000ED003D7F3093ED003091EB0031603093F8
:104F6000EB007093EC002093ED005093F000209143
:104F7000EE0027FF07C09F5FD3CF8F708093E900BB
:104F800081E0089580E008958091310387FD05C098
:104F90008091E80080FF0EC012C08091E80082FD81
:104FA00005C0809130038111F8CF08958091E80009
:104FB0008B7708C0809130038111EACF08958091EA
:104FC000E8008E778093E80008958091E400909146
:104FD000E50045E62091EC0020FF21C02091E8008B
:104FE00020FD21C020913003222389F0253089F053
:104FF0002091EB0025FD0FC02091E4003091E500E9
:105000002817390739F3415041F0C901E3CF82E055
:10501000089583E0089581E0089584E00895209143
:10502000E80022FFDFCF80E008950E9483280E94DD
:105030008B28E0EEF0E0808181608083E8EDF0E095
:1050400080818F77808319BCA7EDB0E08C918E7F33
:105050008C9380818F7E808310922F0308950F930D
:105060001F93CF93DF930E9483280E948B28C8ED63
:10507000D0E088818F778883888180688883888161
:105080008F7D888319BC1092300310922C031092EC
:105090002E0310922D0300EE10E0F80180818B7F2B
:1050A000808388818160888342E060E080E00E94A4
:1050B0008F27E1EEF0E080818E7F8083E2EEF0E0EA
:1050C000808181608083808188608083F801808115
:1050D0008E7F8083888180618883DF91CF911F914B
:1050E0000F910895E8EDF0E080818F7E8083E7EDF9
:1050F000F0E080818160808384E082BF81E08093E2
:105100002F030C942F28E8EDF0E080818E7F8083C0
:105110001092E20008951092DA001092E1000895D2
:105120001F920F920FB60F9211242F933F934F931C
:105130005F936F937F938F939F93AF93BF93EF93FF
:10514000FF938091E10082FF0BC08091E20082FF1B
:1051500007C08091E1008B7F8093E1000E94EC2AE0
:105160008091DA0080FF1FC08091D80080FF1BC0B3
:105170008091DA008E7F8093DA008091D90080FFE1
:105180000DC080E189BD82E189BD09B400FEFDCF7B
:1051900081E0809330030E94E72405C019BC10927F
:1051A00030030E94F5248091E10080FF19C08091B6
:1051B000E20080FF15C08091E2008E7F8093E200C4
:1051C0008091E20080618093E2008091D80080624B
:1051D0008093D80019BC85E0809330030E94F924A5
:1051E0008091E10084FF30C08091E20084FF2CC0F8
:1051F00080E189BD82E189BD09B400FEFDCF8091C7
:10520000D8008F7D8093D8008091E1008F7E8093BD
:10521000E1008091E2008F7E8093E2008091E200C5
:1052200081608093E20080912C03882311F084E058
:1052300007C08091E30087FF02C083E001C081E0E6
:10524000809330030E94FA248091E10083FF29C0FB
:105250008091E20083FF25C08091E100877F8093E9
:10526000E10082E08093300310922C038091E100F2
:105270008E7F8093E1008091E2008E7F8093E20038
:105280008091E20080618093E20042E060E080E093
:105290000E948F278091F00088608093F0000E9428
:1052A000F824FF91EF91BF91AF919F918F917F91E2
:1052B0006F915F914F913F912F910F900FBE0F9083
:1052C0001F9018951F920F920FB60F9211242F93D3
:1052D0003F934F935F936F937F938F939F93AF937E
:1052E000BF93CF93EF93FF93C091E900CF7080916C
:1052F000EC001092E9008091F000877F8093F0002D
:1053000078940E949E291092E9008091F0008860B4
:105310008093F000C093E900FF91EF91CF91BF918E
:10532000AF919F918F917F916F915F914F913F913D
:105330002F910F900FBE0F901F9018951F93CF9332
:10534000DF93CDB7DEB7AA970FB6F894DEBF0FBED6
:10535000CDBFE1E3F3E08091F100819323E0E933F5
:10536000F207C9F70E9410258091E80083FF1CC155
:105370002091310330913203832F90E08A309105E0
:1053800008F012C1FC01E556FF4F0C94542C203854
:1053900081F0223809F008C1809135038F70809325
:1053A000E9008091EB0085FB882780F91092E900E5
:1053B00006C080912D0390912E03911182609091EF
:1053C000E800977F9093E8008093F1001092F1003D
:1053D000C5C0822F8D7F09F0E7C0222319F022304B
:1053E00061F0E2C080913303813009F0DDC03330D9
:1053F00009F080E080932E0328C08091330381114F
:1054000024C0209135032F7009F4CEC02093E90009
:105410008091EB0080FF19C08091EB00333011F4D4
:10542000806211C080618093EB0081E090E0022EE9
:1054300001C0880F0A94EAF78093EA001092EA000C
:105440008091EB0088608093EB001092E9008091DE
:10545000E800877F86C02111A7C0109133031F7712
:105460008091E3008078812B8093E3008091E800B5
:10547000877F8093E8000E94C4278091E80080FF26
:10548000FCCF8091E30080688093E300112311F04A
:1054900083E001C082E08093300386C02058223030
:1054A00008F082C080913303909134038C3D23E057
:1054B000920779F583E08A838AE289834FB7F8946B
:1054C000DE01139620E03EE051E2E32FF0E050933E
:1054D0005700E49120FF03C0E295EF703F5FEF704B
:1054E0008E2F90E0EA3010F0C79601C0C0968D93E1
:1054F0009D932F5F243149F74FBF8091E800877F4C
:105500008093E8006AE270E0CE0101960E94CC260A
:1055100014C0AE014F5F5F4F609135030E94FC25C0
:10552000009709F441C02091E800277F2093E8000C
:10553000BC0189819A810E942D278091E8008B7798
:105540008093E80031C0203879F58091E800877FAA
:105550008093E80080912C038093F1008091E80013
:105560008E778093E8000E94C4271EC021111CC0C2
:10557000909133039230C0F48091E800877F80934C
:10558000E80090932C030E94C42780912C03811182
:1055900004C08091E30087FF02C084E001C081E085
:1055A000809330030E94FC248091E80083FF0AC0AE
:1055B0008091E800877F8093E8008091EB00806213
:1055C0008093EB00AA960FB6F894DEBF0FBECDBF56
:1055D000DF91CF911F9108950895CF93809130036B
:1055E0008823B1F08091E9008F709091EC0090FFDA
:1055F00002C090E801C090E0C92FC82B1092E900CA
:105600008091E80083FD0E949E29CF70C093E9003D
:10561000CF91089504D06894B1118DC0089570D0D1
:1056200088F09F5790F0B92F9927B751A0F0D1F08B
:10563000660F771F881F991F1AF0BA95C9F712C015
:10564000B13081F077D0B1E0089574C0672F782F22
:105650008827B85F39F0B93FCCF386957795679581
:10566000B395D9F73EF490958095709561957F4FED
:105670008F4F9F4F0895E89409C097FB3EF4909593
:105680008095709561957F4F8F4F9F4F9923A9F01B
:10569000F92F96E9BB279395F695879577956795AA
:1056A000B795F111F8CFFAF4BB0F11F460FF1BC0EE
:1056B0006F5F7F4F8F4F9F4F16C0882311F096E981
:1056C00011C0772321F09EE8872F762F05C066232F
:1056D00071F096E8862F70E060E02AF09A95660FE8
:1056E000771F881FDAF7880F9695879597F90895A1
:1056F00057FD9058440F551F59F05F3F71F0479583
:10570000880F97FB991F61F09F3F79F08795089567
:10571000121613061406551FF2CF4695F1DF08C086
:10572000161617061806991FF1CF869571056105A3
:1057300008940895E894BB2766277727CB0197F94B
:1057400008950BD078C069D028F06ED018F095235A
:1057500009F05AC05FC01124EECFCADFA0F3959FB5
:10576000D1F3950F50E0551F629FF001729FBB2748
:10577000F00DB11D639FAA27F00DB11DAA1F649FF4
:105780006627B00DA11D661F829F2227B00DA11DA7
:10579000621F739FB00DA11D621F839FA00D611D2D
:1057A000221F749F3327A00D611D231F849F600D4E
:1057B000211D822F762F6A2F11249F5750408AF087
:1057C000E1F088234AF0EE0FFF1FBB1F661F771F13
:1057D000881F91505040A9F79E3F510570F014C0AA
:1057E000AACF5F3FECF3983EDCF3869577956795FB
:1057F000B795F795E7959F5FC1F7FE2B880F911D31
:105800009695879597F9089597F99F6780E870E0D6
:1058100060E008959FEF80EC089500240A94161626
:10582000170618060906089500240A94121613068E
:10583000140605060895092E0394000C11F488231C
:1058400052F0BB0F40F4BF2B11F460FF04C06F5F38
:105850007F4F8F4F9F4F0895AA1BBB1B51E107C07D
:10586000AA1FBB1FA617B70710F0A61BB70B881FF0
:10587000991F5A95A9F780959095BC01CD0108957F
:1058800097FB072E16F4009407D077FD09D00E94ED
:105890002C2C07FC05D03EF4909581959F4F0895E0
:1058A000709561957F4F0895EE0FFF1F0590F4915D
:1058B000E02D0994F999FECF92BD81BDF89A992700
:1058C00080B50895A6E1B0E044E050E00C94942C3B
:1058D000A8E1B0E042E050E00C94942C262FF99916
:1058E000FECF92BD81BDF89A019700B4021639F03F
:1058F0001FBA20BD0FB6F894FA9AF99A0FBE089510
:105900000396272F0E946F2C0E946E2C252F0E9439
:105910006F2C242F0C946F2C0196272F0E946F2C34
:105920000C946E2CDC01CB01FC01F999FECF06C072
:10593000F2BDE1BDF89A319600B40D92415050404D
:08594000B8F70895F894FFCFB9
:105948000520FF8D022808050214F52393246824F6
:105958003224F82301000D010D020D030D040D057D
:105968000D000C010C020C030C040C050C000B01BF
:105978000B020B030B040B050B000A010A020A03B6
:105988000A040A050A0009010902090309040905AC
:1059980009000801080208030804080508000701AF
:1059A80007020703070407050700060106020603A6
:1059B800060406050600050105020503050405059C
:1059C800050004010402040304040405040003019F
:1059D8000302030303040305030002010202020396
:1059E800020402050200010101020103010401058C
:1059F8000100000100020003000400050001020389
:105A080004050607080900404D363970072307EDDD
:0C5A180006B406470660067906920600F8
:00000001FF
