:100000000C946F060C94B3060C94B3060C94B306D0
:100010000C94B3060C94B3060C94B3060C94B3067C
:100020000C94B3060C94B3060C94F8270C94CA28CD
:100030000C94361B0C94B3060C94B3060C94B306C4
:100040000C94B3060C94B3060C94B3060C94B3064C
:100050000C94B3060C94A91B0C94B3060C94B30631
:100060000C94B3060C94B3060C94B3060C94B3062C
:100070000C94B3060C94B3060C94B3060C94B3061C
:100080000C94B3060C94B3060C94B3060C94B3060C
:100090000C94B3060C94B3060C94B3060C94B306FC
:1000A0000C94B3060C94B3060C94B3060F08150811
:1000B00019081C082008240828082C0831083508CD
:1000C00039083D084008440848084C0850085508BD
:1000D0006E116E11A811A811E71109127813781387
:1000E0004F127813F612F6126C13781378137313F9
:1000F0000313031303130313031303130313031350
:10010000031303130313031303130313031303133F
:10011000151325132C1333133D130C140C141F1437
:100120001F1415141F141F141F140C140C141B146B
:100130001F141F141B142F295629442A5629442AF8
:100140009E29C129442A172A262A29001E001F0099
:1001500020002100220001002300240025002600A9
:1001600027002D00310014001A00080015001700A8
:1001700001001C0018000C001200130030002B00BE
:1001800004001600070009000A0001000B000D0022
:100190000E000F0033003400E1001D001B000600BC
:1001A000190005004C00110010003600370038001F
:1001B0002F00E000E300E200350001512A00280092
:1001C0002C002E002D0034002800E70010503A00CB
:1001D0003B003C003D003E0001003F00400041006C
:1001E0004200430044000100010001000100010041
:1001F0000100010045000100520001000100010062
:1002000001000100010001000100010001000100E6
:10021000500051004F000100010012500100010088
:1002200001000100010001000100010001000100C6
:1002300001000100010001000100010001000100B6
:100240000100010001000100010001000100105047
:10025000000000000000000000000000000000009E
:10026000000000000000000000000000000000008E
:10027000000000000000000000000000000000007E
:10028000000000000000000000000000000000006E
:10029000000000000000000000000000000000005E
:1002A000000000000000000000000000000000004E
:1002B000000000000000000000000000000000003E
:1002C0000000000000000000000000000000005CD2
:1002D0000A44454255473A20656E61626C65642E5A
:1002E0000A000A002530313662003A2000253032FB
:1002F00058000A722F6320303132333435363738A4
:10030000394142434445460A000A0025303258200C
:10031000006B6579626F6172645F7265706F727491
:100320003A20000A0025303258006B6579626F610F
:1003300072645F7365745F6C65643A200064656C19
:100340005F6B65795F6269743A2063616E27742020
:1003500064656C3A20253032580A006164645F6B32
:1003600065795F6269743A2063616E277420616405
:10037000643A20253032580A00290A002575002FDA
:10038000002575005D2800256400200025640020FC
:100390000025640020002564007C002530325800D0
:1003A0006D6F7573656B6579205B62746E7C782008
:1003B00079207620685D287265702F61636C293A18
:1003C000205B006D6B5F776865656C5F74696D6558
:1003D0005F746F5F6D6178203D2025640A006D6B4E
:1003E0005F776865656C5F6D61785F737065656484
:1003F000203D2025640A006D6B5F74696D655F7434
:100400006F5F6D6178203D2025640A006D6B5F6D24
:1004100061785F7370656564203D2025640A006D16
:100420006B5F696E74657276616C203D2025640A8D
:10043000006D6B5F64656C6179203D2025640A0066
:100440006D6B5F776865656C5F74696D655F746F10
:100450005F6D6178203D2025640A006D6B5F7768D1
:1004600065656C5F6D61785F7370656564203D20C4
:1004700025640A006D6B5F74696D655F746F5F6DF5
:100480006178203D2025640A006D6B5F6D61785FA7
:100490007370656564203D2025640A006D6B5F699B
:1004A0006E74657276616C203D2025640A006D6B68
:1004B0005F64656C6179203D2025640A000A00258F
:1004C0007500363A20776865656C5F74696D655FA5
:1004D000746F5F6D61783A20000A00257500353A27
:1004E00020776865656C5F6D61785F7370656564C2
:1004F0003A20000A00257500343A2074696D655F62
:10050000746F5F6D61783A20000A00257500333AF8
:10051000206D61785F73706565643A20000A00257C
:100520007500323A20696E74657276616C286D735D
:10053000293A20000A00257500313A2064656C6173
:1005400079282A31306D73293A20000A092D205666
:10055000616C756573202D0A004D3E004D25643E8B
:1005600020003F007365742064656661756C740AD1
:1005700000433E200077686572652064656C746195
:100580003A20637572736F723D25642C207768651D
:10059000656C3D25640A53656520687474703A2F54
:1005A0002F656E2E77696B6970656469612E6F7255
:1005B000672F77696B692F4D6F7573655F6B657911
:1005C000730A000A092D204D6F7573656B657920DC
:1005D0002D0A4553432F713A09717569740A313AEE
:1005E0000964656C6179282A31306D73290A323AC1
:1005F00009696E74657276616C286D73290A333AE5
:10060000096D61785F73706565640A343A097469CD
:100610006D655F746F5F6D61780A353A097768655B
:10062000656C5F6D61785F73706565640A363A0961
:10063000776865656C5F74696D655F746F5F6D6128
:10064000780A0A703A097072696E742076616C7566
:1006500065730A643A097365742064656661756C34
:1006600074730A75703A092B310A646F776E3A0910
:100670002D310A706775703A092B31300A70676442
:100680006F776E3A092D31300A0A73706565642000
:100690003D2064656C7461202A206D61785F737001
:1006A000656564202A2028726570656174202F209A
:1006B00074696D655F746F5F6D6178290A003F0032
:1006C0004D3E2000433E20004C25640A0074696DB5
:1006D00065725F72656164333228293A20253034AF
:1006E0006C580A006B65796D61705F636F6E666947
:1006F000672E6E6B726F3A2025580A006B6579621F
:100700006F6172645F69646C653A2025580A006BFA
:100710006579626F6172645F70726F746F636F6C22
:100720003A2025580A00686F73745F6B6579626FB1
:100730006172645F6C65647328293A2025580A0049
:100740000A092D20537461747573202D0A004743E4
:10075000433A20342E382E31204156522D4C4942F6
:10076000433A20312E382E3073766E204156525F38
:10077000415243483A20617672350A004F5054493D
:100780004F4E533A204C554641204D4F5553454B03
:1007900045592045585452414B455920434F4E53DB
:1007A0004F4C4520434F4D4D414E44204E4B524FF0
:1007B00020343039360A004255494C443A202265EB
:1007C00072676F646F785F657A2D313631323035FC
:1007D0002D323333332D6763373636666222202855
:1007E00031333A33313A3133204175672020352097
:1007F00032303137290A005649443A20307846458C
:1008000045442850726F66657429205049443A2047
:100810003078363036322841747265757336322935
:10082000205645523A203078303030310A00444565
:1008300053433A20712E6D2E6B2E206B6579626FBB
:10084000617264206669726D7761726520666F728D
:100850002041747265757336320A000A092D2056DC
:10086000657273696F6E202D0A000A092D20436F8F
:100870006E736F6C65202D0A4553432F713A0971D1
:100880007569740A6D3A096D6F7573656B65790AE0
:10089000000A092D204D61676963202D0A443A0939
:1008A0004465627567204D65737361676520546F99
:1008B00067676C650A583A094D617472697820441B
:1008C00065627567204D6F646520546F67676C655E
:1008D000202D2053686F77206B6579707265737374
:1008E000657320696E206D61747269782067726922
:1008F000640A4B3A094B6579626F61726420446502
:1009000062756720546F67676C65202D2053686F90
:1009100077206B65797072657373207265706F7282
:10092000740A4D3A094465627567204D6F757365A9
:1009300020546F67676C650A563A09566572736989
:100940006F6E0A533A095374617475730A433A0916
:10095000416374697661746520436F6E736F6C6573
:10096000204D6F64650A46312D4631303A09537780
:100970006974636820746F204C6179657220302D32
:10098000392028463130203D204C30290A302D397D
:100990003A0953776974636820746F204C617965F4
:1009A0007220302D390A4553433A095377697463ED
:1009B0006820746F204C6179657220302028616C4A
:1009C0007465726E617465206B65792031290A4700
:1009D000524156453A0953776974636820746F2011
:1009E0004C6179657220302028616C7465726E618B
:1009F0007465206B65792032290A50415553453A78
:100A0000094A756D7020746F20426F6F746C6F614E
:100A100064657220285265736574290A4E3A094E3E
:100A20004B524F20546F67676C650A003F004E4B76
:100A3000524F3A206F66660A004E4B524F3A206F73
:100A40006E0A000A6D6F7573653A206F66660A005C
:100A50000A6D6F7573653A206F6E0A000A6B6579CF
:100A6000626F6172643A206F66660A000A6B65798C
:100A7000626F6172643A206F6E0A000A6D6174726F
:100A800069783A206F66660A000A6D617472697847
:100A90003A206F6E0A000A64656275673A206F66D5
:100AA000660A000A64656275673A206F6E0A000A7A
:100AB0000A4A756D70696E6720746F20626F6F747B
:100AC0006C6F616465722E2E2E2000433E20005B09
:100AD000735D004B6579626F61726420737461723B
:100AE000742E0A005B575D005B535D005B525D0036
:100AF0005B445D005B435D001203410074007200C3
:100B00006500750073003600320000000E035000CF
:100B100072006F00660065007400000004030904A1
:100B200009028D00050100A0FA090400000103017B
:100B3000010009211101000122400007058103087D
:100B4000000A09040100010301020009211101004A
:100B500001224D000705820308000A090402000172
:100B6000030000000921110100012236000705835E
:100B70000308000A09040300020300000009211110
:100B8000010001222200070584032000010705045B
:100B900003200001090404000103000000092111E1
:100BA0000100012239000705850320000112011010
:100BB0000100000008EDFE62600100010200010575
:100BC000010906A101050719E029E715002501958E
:100BD000087501810205081901290595057501911E
:100BE000029501750391010507190029F7150025E4
:100BF0000195F875018102C00631FF0974A1010950
:100C000075150026FF0095207508810209761500EC
:100C100026FF00952075089102C005010980A101F9
:100C200085021601002603001A81002A8300751030
:100C300095018100C0050C0901A101850316010081
:100C4000269C021A01002A9C02751095018100C0A1
:100C500005010902A1010901A100050919012905E0
:100C60001500250195057501810295017503810126
:100C70000501093009311581257F95027508810626
:100C800009381581257F950175088106050C0A38FC
:100C9000021581257F950175088106C0C0050109EF
:100CA00006A101050719E029E7150025019508753A
:100CB0000181029501750881010508190129059531
:100CC0000575019102950175039101050719002928
:100CD000FF150026FF00950675088100C00011244D
:100CE0001FBECFEFDAE0DEBFCDBF04B603FE24C0E7
:100CF0008091360290913702A0913802B09139026A
:100D00008730904BA740B04BB9F410923602109246
:100D10003702109238021092390214BE84B7877FCE
:100D200084BF88E10FB6F894809360001092600051
:100D30000FBEE0E0F8E3099511E0A0E0B1E0EAE1E0
:100D4000F8E502C005900D92A834B107D9F722E06A
:100D5000A8E4B1E001C01D92A633B207E1F70E94FA
:100D600020250C940B2C0C940000FF93EF93E09142
:100D70004801F0914901309709F00995EF91FF91F1
:100D80000895FC018591803011F0EFDFFBCF0895CD
:100D9000FF27E0E230E247FF0CC0419597FF09C012
:100DA000EDE26095709580959095611D711D811D96
:100DB000911D27FF02C0219530E350E2AA27660F5C
:100DC000771F881F991FAA1FA41710F0A41B6395F3
:100DD0005A95A9F7AA3008F0A95FA05DAF93F395E3
:100DE000611571058105910541F7ED3211F4EF931D
:100DF000F395F21718F43F93F395FBCF8F91B5DF7E
:100E0000FA95E1F70895E991F9918591803021F003
:100E1000853219F0AADFF9CF089520E0E8945591C2
:100E20005532C1F3503311F4689455915A3348F454
:100E3000505390F3220F022E220F220F200D250F68
:100E4000F4CF0EF4219589919991533619F35337C4
:100E500029F1533559F1BC0188279927E8945C366C
:100E600021F48991999168945591543639F446EF5B
:100E70007EF077FF0DC08FEF9FEF0AC055374AE035
:100E800039F0583540E121F0523642E009F008953A
:100E9000FF93EF937DDFEF91FF91B7CFFF93EF9338
:100EA000FC0181918030B9F360DFFBCFFF93EF93BA
:100EB00068DFF1CFDF93CF93CDB7DEB72596A3DF01
:100EC000CF91DF91089561110BC0FC0182818823CD
:100ED00021F085EE0E94C90F03C085EE0E94BD106F
:100EE00080E090E0089581E0089581E008950C94F9
:100EF00075070E94FA132FEF84E39CE02150804095
:100F00009040E1F700C0000087E797E79093010861
:100F1000809300080C94CF1B0F931F93CF93DF9304
:100F20008C01FC01C081D181CE010E94E418BE0178
:100F30000E94FB08EC01B8010E947707882309F49E
:100F40003DC1B801CE010E94690B882309F436C166
:100F5000B801CE010E94140D882309F42FC1C531B8
:100F6000FCE5DF0701F5F8018281882319F0C3E36E
:100F7000D9E102C0CAE3D9E10E94A5198A7A11F029
:100F800085E301C089E2FE0109950E94721981E0A2
:100F900080934E0180934F01C801DF91CF911F9143
:100FA0000F910C947307C6318CE5D80708F09BC0ED
:100FB000C130ECE5DE0779F4F8018281882309F479
:100FC000FDC080ED92E00E94C1068091ED0181603C
:100FD0008093ED01F3C0C230FCE5DF0708F477C071
:100FE000F80182818823C1F20E94291A811102C06E
:100FF0000E940F1A0E943C1A90E09093280280935E
:101000002702FE01E350FC45E231F10520F4EA5AE3
:10101000FF4F0C94BB2B80912702816003C080910D
:1010200027028260809327024BC080912702846050
:10103000F9CF8091270213C0809127028061F2CFFF
:10104000809127028062EECF809127028064EACFF0
:10105000809127028068E6CF8091270284608860B3
:10106000E1CF809127028E7FDDCF809127028D7F97
:10107000D9CF809127028B7FD5CF8091270213C0D3
:10108000809127028F7ECECF809127028F7DCACF9D
:10109000809127028F7BC6CF809127028F77C2CFA6
:1010A000809127028B7F877FBDCF9091270297FB8E
:1010B000882780F921E0822780FB97F99093270207
:1010C000809127020E94401A0E94FA1377C0C1152E
:1010D000DC4509F05CCFF8018281882309F46EC0F9
:1010E0000E9479076BC0C93CECE5DE0739F5F801D1
:1010F0008281882361F010924F010E94681B9093B7
:101100004D0180934C0180E20E941E1157C08091D6
:101110004F0181110FC080914C0190914D010E94AF
:10112000801B883C910530F487E20E94C90F87E25A
:101130000E94BD1080E20E94251140C0CA3CFCE51F
:10114000DF0738F5C83CDC4509F021CFF801828182
:10115000882351F010924E010E94681B90934B011E
:1011600080934A0182E0D0CF80914E0181110FC05F
:1011700080914A0190914B010E94801B883C91050F
:1011800030F486E20E94C90F86E20E94BD1082E020
:10119000D2CFCC3CECE5DE0731F4F8018281882324
:1011A00069F080E009C0CD3CDC4509F0F0CEF801E3
:1011B0008281882319F082E00E94BE2580E0DF91C1
:1011C000CF911F910F9108950C94B60B0C94B90B0D
:1011D000282F882339F090E02A3010F44D96089596
:1011E0000697089587E290E0089508950C94F50815
:1011F0000C94F60808959DE0799FF001112491E484
:10120000899FE00DF11D1124E60FF11DEE0FFF1F68
:10121000E65BFE4F859194910895880F991F865B38
:101220009E4FFC01859194910895CF93DF932DE01B
:10123000729FF001112491E4899FE00DF11D1124AA
:10124000E60FF11DEE0FFF1FE65BFE4F85919491B7
:101250000E94BF0AEC01811520E49207C0F5C11578
:1012600080E3D80708F0E5C0C03ED105D8F4C03C03
:10127000D10508F072C0C83AD10578F4C53AD10555
:1012800008F06FC0C130D10509F475C108F42CC154
:10129000C430D10508F06FC127C1CD3BD10508F49A
:1012A0006BC022C1CF3FD10509F048F4C03FD10542
:1012B00008F0B9C0C83ED10508F45DC115C1C1151B
:1012C00090E2D90708F457C1CE019F70AEC08115D6
:1012D00024E59207D8F4C11583E5D80708F0E4C0E7
:1012E000C11591E5D90740F4C11520E5D20708F0F2
:1012F000AAC0DF70D06A3FC1C11582E5D80708F0E7
:10130000BEC0DC2FCC27C16FD06A35C1C11596E5B0
:10131000D90750F4C11525E5D20708F0DAC0DC2F53
:10132000CC27C46FD06A27C1C11588E5D80708F457
:10133000DBC0C11599E5D90708F4D1C0CE0190569C
:101340008115904208F0D0C08D2F8F710E943B0B09
:10135000DD27D0628F71D82B0EC1CE01805C910940
:1013600064C0C53AD10509F4C2C0C63AD10509F432
:10137000C1C0C3E8D0E4FFC0C83AD10509F4BDC07C
:10138000C93AD10509F4BCC0CA3AD10509F4BBC0B9
:10139000CB3AD10509F4BAC0CC3AD10509F4B9C0A9
:1013A000CB3BD10509F4B8C0CC3BD10509F4B7C09B
:1013B000CD3AD10509F4B6C0C03BD10509F4B5C09A
:1013C000CE3AD10509F4B4C0CF3AD10509F4B3C07F
:1013D000C13BD10509F4B2C0C23BD10509F4B1C08B
:1013E000C33BD10509F4B0C0C43BD10509F4AFC07B
:1013F000C53BD10509F4AEC0C63BD10509F4ADC06B
:10140000C73BD10509F4ACC0C83BD10509F4ABC05A
:10141000C93BD10509F4AAC0CA3BD10509F0A9C04E
:10142000CAE2D6E4A8C0D065A6C00E940D09EC01AE
:10143000A2C0CE019927D3FF03C0EC01D86C9BC09A
:10144000EC01D06C98C02C2F237081E090E002C09A
:10145000880F991F2A95E2F79C689E0174E03695E3
:1014600027957A95E1F72370922BCF70C695C69594
:1014700020E2C29FE0011124C82BD92B7CC08C2F05
:101480008695869520E2829FC00111249E012370DB
:101490003327C1E0D0E002C0CC0FDD1F2A95E2F770
:1014A000C82BD92BDC6867C08C2F8695869520E2E7
:1014B000829FC00111249E0123703327C1E0D0E038
:1014C00002C0CC0FDD1F2A95E2F7C82BD92BDA68B2
:1014D00052C0CF71DD27DC2FCC27D0624CC0DC2F6F
:1014E000CC27C06FD06A47C0C0E0D0E044C0C1E89C
:1014F000D0E441C0C2E8D0E43EC0C2EED4E43BC078
:10150000C9EED4E438C0CAEED4E435C0C5EBD4E4A7
:1015100032C0C6EBD4E42FC0C3EBD4E42CC0C4EB80
:10152000D4E429C0C7EBD4E426C0CCECD4E423C077
:10153000CDECD4E420C0C3E8D5E41DC0CAE8D5E4AE
:101540001AC0C2E9D5E417C0C4E9D5E414C0C1E2A9
:10155000D6E411C0C3E2D6E40EC0C4E2D6E40BC0A8
:10156000C5E2D6E408C0C6E2D6E405C0C7E2D6E4C8
:1015700002C0C0E0D4E4CE01DF91CF91089582385B
:10158000910549F1B0F48133910509F459C048F44B
:101590008932910509F44FC08A32910509F455C08A
:1015A00008958533910509F441C08933910599F077
:1015B0000895833E910531F138F4803E910591F014
:1015C000823E9105A9F00895863E910501F1873E7E
:1015D000910539F108952091270220FD3BC021FD9E
:1015E00039C008958091270280FF34C089E341C04B
:1015F0008091270282FF32C08091270284FF2CC095
:1016000080E037C08091270282FD28C0F5CF80910D
:10161000270283FF25C08091270284FDF1CF87EE4A
:1016200028C08091270283FD1BC0F5CF809127023F
:1016300085FF18C019C08091270285FF15C012C010
:101640008091270286FF12C013C08091270286FF77
:101650000FC00CC080EE0DC083EE0BC082EE09C03F
:1016600086EE07C085E305C089E203C081E301C0BF
:101670008AE290E00895CF93C82F0E943C1A282F49
:1016800030E0309328022093270282FF0DC08C2F78
:101690008871883019F4C77FC46006C08C2F8471AC
:1016A000843011F4CB7FC86023FF0DC08C2F88716C
:1016B000883119F4C77EC46106C08C2F84718431CF
:1016C00011F4CB7EC86124FDC77E8C2FCF91089585
:1016D0000895CF93DF93EC01FB018281811102C059
:1016E00081E040C080915D01811125C0C631DC459B
:1016F000B9F70E94680B81E080935D010E94681B2E
:1017000090935C0180935B01109250011092520102
:1017100010925101109254011092530110925601EF
:1017200010925501109258011092570110925A01CF
:101730001092590116C080915B0190915C010E944A
:10174000801B883C910560F680915001E82FF0E005
:10175000EE0FFF1FEF5AFE4FD183C0838F5F809340
:10176000500180E0DF91CF91089508950C94B50B5E
:1017700008950C94B80B85B7806885BF85B78068DD
:1017800085BFA3E1B1E021E030E08D91E82FE29543
:10179000EF70F0E041A18F70B90102C0660F771FB2
:1017A0008A95E2F7CB01962F9095492341A392A108
:1017B000982B92A371E0A032B70739F7A0E2B1E00D
:1017C00021E030E08D91E82FE295EF70F0E041A14B
:1017D0008F70B90102C0660F771F8A95E2F7CB01BF
:1017E000962F9095492341A392A1982B92A371E043
:1017F000A532B70739F7E8E6F1E0AEE5B1E01192BE
:1018000011921D921D9281E0E237F807C1F70C9406
:10181000E4082F923F924F925F926F927F928F9245
:101820009F92AF92BF92CF92DF92EF92FF920F936F
:101830001F93CF93DF9303E111E0212C312CEE2491
:10184000E394F12C55245394E80189918E01E82FFB
:10185000E295EF70F0E021A18F70A70102C0440F64
:10186000551F8A95E2F7CA01242B21A322A1742EC9
:101870007094272122A350EA5A95F1F76701022CB0
:1018800002C0CC0CDD1C0A94E2F7460180949094CF
:1018900020E231E0AEE5B1E0612C5D014D915C915B
:1018A0001197E90149909E01642D62956F7070E077
:1018B000EB0168A170E0D42DDF700D2E02C075958C
:1018C00067950A94E2F760FD04C0BA016C297D298E
:1018D00003C0BA016821792111967C936E93129608
:1018E000E501688179814617570711F066246394F2
:1018F000D1E025323D0789F691A1972191A392A1CC
:10190000982B92A3662041F0509272010E94681BAE
:101910009093740180937301EFEF2E1A3E0AFDE05D
:101920002F16310409F090CF809172018823B1F015
:1019300080917301909174010E94801B069770F052
:10194000EEE5F1E0A8E6B1E0819191918D939D9350
:1019500021E0E836F207C1F7109272010E94E60812
:1019600081E0DF91CF911F910F91FF90EF90DF9079
:10197000CF90BF90AF909F908F907F906F905F902F
:101980004F903F902F900895E82FF0E0EE0FFF1F4B
:10199000E859FE4F808191810895CF92DF92EF92B6
:1019A000FF920F931F93CF93DF9382EF92E00E94F9
:1019B000C10638E6E32E31E0F32EC0E0D0E04DEE74
:1019C000C42E42E0D42E04EE12E0DF93CF93DF92D8
:1019D000CF920E945A078AEE92E00E94C106F70158
:1019E000819191917F010E94F5199F938F931F938D
:1019F0000F930E945A0782EE92E00E94C106219640
:101A00008DB79EB708960FB6F8949EBF0FBE8DBFD8
:101A1000C530D105D1F6DF91CF911F910F91FF9085
:101A2000EF90DF90CF900895CF93DF93EC01C1301A
:101A300080E8D807C8F0FB0182818823A9F0809153
:101A40007501811109C08CE090E00E94D52B0E94A5
:101A5000380D81E0809375010E943F0DCE019F7784
:101A60000E94FD0D0E94B50D81E0DF91CF91089598
:101A700080937601682F8CE090E00C94E32BE0914A
:101A80000001F091010180818093200281FF03C059
:101A900081EE0E94BD108091200285FF03C085EE7B
:101AA0000E94BD108091200280FF03C080EE0E9442
:101AB000BD108091200284FF03C084EE0E94BD10FF
:101AC0008091200282FF03C082EE0E94BD108091AF
:101AD000200286FF03C086EE0E94BD108091200286
:101AE00083FF03C083EE0E94BD108091200287FF18
:101AF00003C087EE0E94BD10809176018130A1F075
:101B000078F0823011F1843049F586EE0E94C90FD9
:101B100086EE0E94BD1088E10E94C90F88E11CC0BA
:101B200082EE0E94C90F1AC080EE0E94C90F81EE9A
:101B30000E94C90F88E10E94C90F88E10E94BD1070
:101B400081EE0E94BD1080EE07C082EE0E94C90F98
:101B500087E50E94C90F87E50E94BD108FE39CE9CD
:101B60000197F1F700C0000008958091760181305F
:101B700029F010F0823041F482EE04C08CE20E9421
:101B8000C90F8CE20E94BD108091200281FF03C02A
:101B900081EE0E94C90F8091200285FF03C085EE6F
:101BA0000E94C90F8091200280FF03C080EE0E9436
:101BB000C90F8091200284FF03C084EE0E94C90FE8
:101BC0008091200282FF03C082EE0E94C90F8091A3
:101BD000200286FF03C086EE0E94C90F809120027A
:101BE00083FF03C083EE0E94C90F8091200287FF0C
:101BF00003C087EE0C94C90F0895FF920F931F93B3
:101C0000CF93DF938C01CCE0D0E0C8010C2E02C052
:101C1000969587950A94E2F7282F2F70F22E822F3F
:101C20000E94E8080E94C90F8F2D0E94E8080E94B8
:101C3000BD102497CC3F8FEFD80739F7DF91CF91B4
:101C40001F910F91FF90089590937C0180937B01E9
:101C50000895E0917B01F0917C01309721F0019093
:101C6000F081E02D099480E00895FF920F931F9377
:101C7000CF93DF938C01E0917B01F0917C01309751
:101C800099F10280F381E02D09958091ED0182FFA9
:101C90002BC080FF04C081E193E00E94C106E801EF
:101CA00080E2F82E0BE013E08091ED0180FF0BC085
:101CB00088811F928F931F930F930E945A070F9052
:101CC0000F900F900F90FA942196F110EDCF809124
:101CD000ED0180FF09C089E093E0DF91CF911F9172
:101CE0000F91FF900C94C106DF91CF911F910F913E
:101CF000FF900895E0917B01F0917C01309721F0F5
:101D00000480F581E02D09940895209179013091A6
:101D10007A018217930771F090937A018093790189
:101D2000E0917B01F0917C01309721F00680F781F2
:101D3000E02D099408952091770130917801821760
:101D4000930771F09093780180937701E0917B0184
:101D5000F0917C01309721F00084F185E02D099409
:101D6000089508950C94B10E0E945F1B0E94BB0B56
:101D70000C94E11BCF93C82F8091ED0182FF1EC010
:101D800080FF04C08AE293E00E94C1068091ED01C9
:101D900080FF0CC01F92CF9325E233E03F932F9337
:101DA0000E945A070F900F900F900F908091ED01B5
:101DB00080FF04C083E293E00E94C1068C2FCF9184
:101DC0000C94F8085F926F927F928F929F92AF92DD
:101DD000BF92CF92DF92EF92FF920F931F93CF9318
:101DE000DF93CDB7DEB72A970FB6F894DEBF0FBEEC
:101DF000CDBF0E94090C9EE7C92E91E0D92E00E0CC
:101E000010E0AA24A394B12C502E802F0E94C40C61
:101E10003C01F601E190F1906F01E826F926E1140A
:101E2000F104B1F40F5F1F4F0530110569F78FEF13
:101E300089838A831B820E94681B8160782F9D831F
:101E40008C8349815A816B818D810E949B0F3AC09E
:101E50008091ED0181FD0E94CD0C20E030E0450134
:101E6000022E02C0880C991C0A94E2F7C4018E214C
:101E70009F21892B09F12E835F826820792081E0E0
:101E8000672809F480E088870E94681B8160782FAA
:101E90009A8789874E815F8168858A850E949B0F1A
:101EA000F801EE0FFF1FE258FE4F808191818825D7
:101EB00099259183808306C02F5F3F4F2D303105D8
:101EC00071F6B0CF0E94F51D10917D010E94290E80
:101ED0001817D9F00E94290E80937D012A960FB61B
:101EE000F894DEBF0FBECDBFDF91CF911F910F9150
:101EF000FF90EF90DF90CF90BF90AF909F908F902A
:101F00007F906F905F900C94BA0E2A960FB6F8945B
:101F1000DEBF0FBECDBFDF91CF911F910F91FF901C
:101F2000EF90DF90CF90BF90AF909F908F907F9079
:101F30006F905F900895CF93DF93CDB7DEB72B9767
:101F40000FB6F894DEBF0FBECDBF4F8358876987A9
:101F50007A878B87DE01119686E0FD0111928A95C2
:101F6000E9F785E0FE01379601900D928A95E1F739
:101F700049815A816B817C818D819E810E94C4162A
:101F80002B960FB6F894DEBF0FBECDBFDF91CF9179
:101F90000895CF93DF931F92CDB7DEB7682F8823C4
:101FA00009F4E7C0823879F40E94290E81FDE1C06E
:101FB00069E380910001909101010E94CE1A0E9474
:101FC000721969E310C08338C9F40E94290E80FD9C
:101FD000D0C063E580910001909101010E94CE1A6A
:101FE0000E94721963E580910001909101010E94A5
:101FF000D91A0F90DF91CF910C947219843879F42B
:102000000E94290E82FDB5C067E480910001909185
:1020100001010E94CE1A0E94721967E4E4CF8CEF8E
:10202000860F813A70F4862F69830E944921698165
:1020300081119FC080910001909101010E94CE1AF0
:10204000D8CF80E2860F883048F4677081E001C005
:10205000880F6A95EAF70E94A819CBCF8BE5860F07
:10206000833088F4653A29F0663A31F482E890E0EA
:1020700005C081E890E002C083E890E00F90DF9116
:10208000CF910C94850E88E5860F853108F071C0DC
:10209000683A61F1693A69F16A3A71F16B3A79F13A
:1020A0006C3A81F16B3B89F16C3B91F16D3A99F19E
:1020B000603BA1F16E3AA9F16F3AB1F1613BB9F120
:1020C000623BC1F1633BC9F1643BD1F1653BD9F19E
:1020D000663BE1F1673BE9F1683BF1F1693BF9F1FE
:1020E0006A3B09F03FC08AE292E03EC082EE90E097
:1020F0003BC089EE90E038C08AEE90E035C085EBB9
:1021000090E032C086EB90E02FC083EB90E02CC0D3
:1021100084EB90E029C087EB90E026C08CEC90E047
:1021200023C08DEC90E020C083E891E01DC08AE8D8
:1021300091E01AC082E991E017C084E991E014C0EF
:1021400081E292E011C083E292E00EC084E292E06C
:102150000BC085E292E008C086E292E005C087E20B
:1021600092E002C080E090E00F90DF91CF910C945C
:102170009B0E0F90DF91CF910895882309F45DC0E5
:10218000823879F40E94290E81FF57C069E380915B
:102190000001909101010E94CE1A0E94721969E318
:1021A00010C08338B1F40E94290E80FF46C063E559
:1021B00080910001909101010E94CE1A0E94721933
:1021C00063E580910001909101010E94D91A0C945D
:1021D0007219843879F40E94290E82FF2EC067E4B8
:1021E00080910001909101010E94CE1A0E94721903
:1021F00067E4E7CF9CEF980F913A10F4682FE1CF96
:1022000090E2980F983050F4877091E001C0990FD8
:102210008A95EAF7892F0E94AE19D9CF9BE5980FCE
:10222000933020F480E090E00C94850E885A85313C
:1022300020F480E090E00C949B0E0895882321F018
:102240000E94A8190C9472190895882321F00E9405
:10225000AE190C94721908958F929F92BF92CF92EB
:10226000DF92EF92FF920F931F93CF93DF9300D0F3
:10227000CDB7DEB74C01472FFC01C580C2949FE06B
:10228000C922D280DD2031F079836A830E94C5198A
:102290006A81498149836A830E946B1949816A81F5
:1022A000882389F0DD2079F080E2860F883058F0AD
:1022B00082E00E9454190E946B19BB24B394B82683
:1022C00049816A8101C0B12CE42EE2948FE0E822BA
:1022D000F12CF701E859FF4F0C94BB2B842F807F22
:1022E000142F1F70882311F01295107FDD20C1F08C
:1022F000112309F4DCC180E2860F883010F06111EF
:1023000005C0812F6A830E94A81904C0812F6A83A7
:102310000E94B8196A816A830E9472196A81C7C1D2
:10232000862F6A830E94BD106A81112309F4E0C1DF
:1023300080E2860F883010F0611104C0812F0E9466
:10234000AE1903C0812F0E94BE190E947219D0C11C
:10235000242F207F842F8F70203211F08295807F70
:10236000662319F06130B9F022C0DD2049F0CC209D
:1023700009F452C1F1E0CF124FC10E94D819B8C17F
:10238000CC2021F021E0C21609F4B2C189830E9459
:10239000DB19898147C1DD2029F095E09C1508F4FF
:1023A000A7C13AC1E4E0EC1508F4A2C13BC1DD20AD
:1023B00051F0CC2009F430C1F401958190FF77C130
:1023C0009F70958329C1CC2009F42CC181C1242F91
:1023D00026952695237030E02115310521F0213016
:1023E000310561F085C1DD2021F0862F942F937097
:1023F00002C080E090E00E94850E8AC1DD2021F0BD
:10240000862F942F937002C080E090E00E949B0E74
:102410007FC1DD20F9F0653F51F0663F71F0643F08
:10242000A9F4809121029091220281600BC08091D9
:10243000210290912202826005C080912102909138
:10244000220284609093220280932102862F0E94B0
:102450007B1C22C0653F51F0663F91F0643FC9F498
:1024600080912102909122028E7F05C080912102ED
:10247000909122028D7F909322028093210209C0C5
:1024800020912102309122022B7F3093220220934F
:102490002102862F0E94E31C0E94681D39C1842FEF
:1024A000837009F04EC0D1102FC1262F229526959A
:1024B0002770220F220F862F8F70C82ED12CE12C6F
:1024C000F12C022E04C0CC0CDD1CEE1CFF1C0A9467
:1024D000D2F764FF10C06FE070E080E090E004C0CD
:1024E000660F771F881F991F2A95D2F76095709500
:1024F0008095909503C060E070E0CB01242F269575
:102500002695237030E02230310569F02330310503
:1025100089F06C297D298E299F292130310571F0A0
:102520000E941318F1C06C297D298E299F290E94D1
:102530002518EAC00E941318C701B6010E940118AD
:10254000E3C0DD2019F0842F817001C086958823B7
:1025500009F4DAC0262F229526952770220F220F24
:10256000862F8F70C82ED12CE12CF12C022E04C0A6
:10257000CC0CDD1CEE1CFF1C0A94D2F764FF10C0CB
:102580006FE070E080E090E004C0660F771F881F66
:10259000991F2A95D2F7609570958095909503C004
:1025A00060E070E0CB01242F26952695237030E063
:1025B0002230310569F02330310589F06C297D29FD
:1025C0008E299F292130310571F00E94BF189CC0CF
:1025D0006C297D298E299F290E94D11895C00E94BF
:1025E000BF18C701B6010E94AD188EC0062F10E0BB
:1025F000F801E05EF109E531F10508F054C0E85852
:10260000FF4F0C94BB2B162F1F70842F8F71DD2072
:1026100031F00E945818812F0E941E1169C00E943B
:102620007318812F0E94251163C0DD2049F0F4E06A
:10263000FC1508F45DC0842F8F710E94921858C059
:1026400025E02C1508F454C0F6CFDD2039F0842F96
:102650008F710E9458184CC0DD20C9F3842F8F71F0
:102660000E94731845C0DD2029F0842F8F710E94CD
:1026700049183EC00E9444183BC0DD2051F0142F81
:102680001F71812F0E94581863E0812F0E944B19FF
:102690002FC081E00E94541981E08C1548F582E03A
:1026A0000E94541925C0DD2031F0CC2081F2862F04
:1026B0000E94C90F1DC0CC2089F2693349F49FEFF5
:1026C000E7EEF3E09150E040F040E1F700C0000099
:1026D000862F0E94BD100CC04F70C4010E9463077A
:1026E0000E94711715C04F70C4010E94FA0810C0F3
:1026F00028E0E216F10441F05CF09AE0E91AF108F2
:10270000E2E0EE16F10420F40E94290E0E94F8087F
:10271000BB20F1F00E94471980FD1AC0F40112821B
:102720000E9441190E945818C4010E94B6130E94C9
:1027300041190F900F90DF91CF911F910F91FF9052
:10274000EF90DF90CF90BF909F908F900C94731874
:102750000F900F90DF91CF911F910F91FF90EF900D
:10276000DF90CF90BF909F908F9008950F931F930D
:10277000CF93DF93EC01288139818B819C81892B58
:1027800031F03F3F11F080E003C02F3FE1F781E0DF
:10279000811113C0CE010E948C07882371F06881DB
:1027A00079818A810E942F198C010E94E3180E946E
:1027B000FE17B801CE010E942C11DF91CF911F911D
:1027C0000F9108950E94C5190E94D51980910001AA
:1027D000909101010E94E41A0E9472190E94961EB3
:1027E0000E94681D80E090E00E94850E80E090E0ED
:1027F0000C949B0E0E94B5190C94E2130E942419AC
:10280000E92FE295EF70F0E03297EE30F105B8F481
:10281000E357FF4F0C94BB2B803F59F018F4803ED8
:1028200070F407C0843F59F404C0803E10F0813F2B
:1028300031F481E0089593FB882780F9089580E0C2
:102840000895CF93DF9300D000D01F92CDB7DEB7AD
:102850000F900F900F900F900F90DF91CF910895F0
:10286000CF93DF9300D000D000D0CDB7DEB726964F
:102870000FB6F894DEBF0FBECDBFDF91CF910895A4
:102880001F93CF93DF93C091880116E08091890157
:10289000C81799F0D0E01C9FF0011D9FF00D112486
:1028A000E657FE4F40815181628173818481958119
:1028B0000E9430142196C770E9CFDF91CF911F910C
:1028C00008954091BA015091BB016091BC01709193
:1028D000BD018091BE019091BF010C943014CF9343
:1028E0008091BF0182958F7009F05FC08091BC011B
:1028F000882309F45AC020918801A0918901609130
:10290000BA017091BB018091BD019091BE0131E08F
:102910006F3F09F030E0B32FC6E02A1709F445C035
:10292000009721F07F3F21F44B2F03C041E001C00D
:1029300040E030E040FD35C0C29FF001C39FF00D84
:102940001124E657FE4F418174132BC0408164135C
:1029500028C04281411125C043815481481759073D
:1029600010F441505109481B590B483C5105C8F41B
:102970008091BF018F7080618093BF0186E0829F4C
:10298000F001839FF00D1124E157FE4F80818F707D
:10299000806180838AEB91E00E94B613CF910C9402
:1029A00040142F5F3F4F2770B8CFCF910895CF923B
:1029B000DF92EF92FF920F931F93CF93DF93CDB7E8
:1029C000DEB762970FB6F894DEBF0FBECDBF8C01A5
:1029D00085E0F801DE011D9601900D928A95E1F7E0
:1029E000D8014C9111965C91119712966C911297A7
:1029F0001396ED90FC9014977091BA01E091BB0191
:102A00002091BD013091BE012115310531F0EF3F1C
:102A100031F481E07F3F19F403C081E001C080E020
:102A2000B82FB170CB2E80FD6CC1D090BC01DD20E1
:102A300009F4F5C0F091BF01E216F30638F0C701C2
:102A4000821B930B883C910548F09BC020953095E4
:102A50002E0D3F1D283C310508F093C08F2F807F3D
:102A600009F052C0E51314C0741312C0D62E6111C0
:102A70000FC0FF70F061F093BF010E9461148AEBF8
:102A800091E00E94B6138091BF01F80185836CC16B
:102A9000EF2831F05F3F31F481E04F3F19F403C07C
:102AA00081E001C080E080FD03C081E0862701C095
:102AB00080E0F82FF170FF2E80FF1CC0809188010C
:102AC0002091890136E0821709F428C190E0389FEF
:102AD000F001399FF00D1124E657FE4F7181571315
:102AE00006C07081471303C07281671303C001964B
:102AF0008770E9CFD62E662309F436C18091BF01D5
:102B000081608093BF0153C0E51308C0741306C0F1
:102B1000611104C0D8011596FC93AEC04D875E8745
:102B20008D859E856A8B0E94FE136A89882329F110
:102B3000D62E662311F12091BF01822F82958F70CE
:102B400090E002970CF460C08091BA019091BB01B3
:102B500098878F831986FB86EA862C87CE01079695
:102B600051C0E51731F14D875E878D859E856A8B53
:102B70000E94FE136A8981112EC0C8010E94B613FB
:102B8000A4C08F2F807F69F77E2DF98AE88A898912
:102B90000E9421148AEB91E00E94B613EAEBF1E067
:102BA00086E0DF011D928A95E9F70E946114D12C1D
:102BB000DBC07413D8CF6111D6CFD8011596FC9322
:102BC000C8010E94B613EAEBF1E086E0DF011D9236
:102BD0008A95E9F7C9C0D62E662379F22091BF0104
:102BE000822F82958F7090E0029774F08091BA01E5
:102BF0009091BB019A8389831B82FD82EC822E8394
:102C0000CE0101960E94B61386E0F801AAEBB1E06E
:102C100001900D928A95E1F70E946F146FC0E21641
:102C2000F30628F0C701821B930B9C0104C020957A
:102C300030952E0D3F1D283C310508F052C0D62E90
:102C4000662309F49ACFE5132CC074132AC080912F
:102C5000BF0180FD1DC0982F92959F70C9F0D801CB
:102C600015968C9315979F3039F09F5F9295907FC2
:102C70008F70892B15968C93C8010E94B61386E03D
:102C8000F801AAEBB1E001900D928A95E1F736C008
:102C900086E0F801AAEBB1E001900D928A95E1F788
:102CA00063C04D875E878D859E850E94FE138823B5
:102CB00079F086E0F801AAEBB1E001900D928A95D7
:102CC000E1F70E946F140E946114DD24D3944CC07C
:102CD0008091BF0181608093BF01C8010E94B6133B
:102CE00043C07E2DF98AE88A89890E942114EAEB83
:102CF000F1E086E0DF011D928A95E9F70E946114F8
:102D000033C0662309F439CF4D875E878D859E8554
:102D10000E94FE13882309F430CFCBCF4D875E8706
:102D20008D859E850E942419292F22952F7030E0D1
:102D3000223031052CF49F7041F0811106C00CC087
:102D4000243031052CF49F7049F4805E883020F0E7
:102D5000C8010E94B613CF2CDC2C06C0D8011596F2
:102D60009C91907F91F7F8CF8D2D62960FB6F894D5
:102D7000DEBF0FBECDBFDF91CF911F910F91FF90AE
:102D8000EF90DF90CF9008951F93CF93DF93CDB74F
:102D9000DEB72C970FB6F894DEBF0FBECDBF4F83C2
:102DA000588769877A878B879C87CE0107960E9410
:102DB000D7148823C1F02F8138858A859B85892B7C
:102DC00031F03F3F11F080E003C02F3FE1F781E099
:102DD000811147C04F81588569857A858B859C858F
:102DE0000E9430143EC086E0FE013796DE01119647
:102DF00001900D928A95E1F7FF81E8854A855B8510
:102E00004115510531F0EF3F31F481E0FF3F19F4F6
:102E100003C081E001C080E080FD23C020918901D2
:102E200030E0C9010196877099276091880170E0B0
:102E300086179707F1F1F983EA835D834C8396E067
:102E4000929FD001939FB00D1124A657BE4FFE0153
:102E5000319601900D929A95E1F7809389010E9435
:102E6000401416E08091880190918901891779F1C9
:102E7000189FC001112486579E4F0E94D7148823A3
:102E800031F1E09188011E9FF0011124E657FE4FB9
:102E90004081518162817381848195810E943014C7
:102EA0008091880190E0019687709927809388012E
:102EB000D9CF0E94FA131092890110928801EAEB8F
:102EC000F1E086E0DF011D928A95E9F7CACF2C96E2
:102ED0000FB6F894DEBF0FBECDBFDF91CF911F912B
:102EE0000895EF92FF920F931F93CF93DF93FC010E
:102EF000009709F46FC0F12CEE24E394EF012196C2
:102F00008491843740F4843008F055C0813081F0DA
:102F1000823021F15FC0853709F447C0C0F19CE7DA
:102F2000980F903708F056C08F770E94BD1045C0AB
:102F30008F010E5F1F4FFE01849190E2980F983031
:102F400050F48770FE2D01C0FF0F8A95EAF78F2F8E
:102F50000E94C81915C00E94C90F14C08F010E5FCE
:102F60001F4FFE01849190E2980F983068F48770AB
:102F7000FE2D01C0FF0F8A95EAF78F2F0E94CE1910
:102F80000E947219E80119C00E94BD10FBCFCF0149
:102F90000296FE01C491CC2361F0EFE9FFE0319786
:102FA000F1F700C00000C150F6CFCF010296FE013C
:102FB000F490EC0102C00E94C90F8F2D882341F0CC
:102FC000EFE9FFE03197F1F700C000008150F6CF44
:102FD000FE0194CFDF91CF911F910F91FF90EF9061
:102FE000089508950E94F1176093C4017093C5017C
:102FF0008093C6019093C7010C94E21308950C943A
:10300000F2170F931F930091C4011091C5012091F5
:10301000C6013091C701602B712B822B932B1F911E
:103020000F910C94F2170F931F930091C40110910C
:10303000C5012091C6013091C7016023712382230D
:1030400093231F910F910C94F2170F931F930091EC
:10305000C4011091C5012091C6013091C7016027BC
:103060007127822793271F910F910C94F2170895CF
:103070000E9437186093C0017093C1018093C20110
:103080009093C3010C94E21360E070E0CB010C94C8
:10309000381841E050E060E070E004C0440F551F74
:1030A000661F771F8A95D2F7CB01BA010C943818A6
:1030B00041E050E060E070E004C0440F551F661F1F
:1030C000771F8A95D2F78091C0019091C101A0919C
:1030D000C201B091C301482B592B6A2B7B2BCB012A
:1030E000BA010C94381841E050E060E070E004C090
:1030F000440F551F661F771F8A95D2F7409550954C
:10310000609570958091C0019091C101A091C2011C
:10311000B091C301482359236A237B23CB01BA0111
:103120000C94381841E050E060E070E004C0440FB7
:10313000551F661F771F8A95D2F78091C001909125
:10314000C101A091C201B091C301482759276A2744
:103150007B27CB01BA010C9438180F931F93009171
:10316000C0011091C1012091C2013091C301602BB7
:10317000712B822B932B1F910F910C9438180F9366
:103180001F930091C0011091C1012091C2013091A3
:10319000C30160237123822393231F910F910C9409
:1031A00038180F931F930091C0011091C101209115
:1031B000C2013091C30160277127822793271F9195
:1031C0000F910C9438180895CF92DF92EF92FF92EE
:1031D0000F931F93CF93DF93EC01C090C401D09065
:1031E000C501E090C601F090C7018091C0019091A7
:1031F000C101A091C201B091C301C82AD92AEA2A0B
:10320000FB2A0FE110E0B701A601002E04C076955D
:103210006795579547950A94D2F740FD05C0015030
:10322000110988F780E007C0BE01802F0E941509B0
:103230000197A9F3802FDF91CF911F910F91FF90FC
:10324000EF90DF90CF900895CF93DF93EC010E9431
:10325000E418BE010E941509DF91CF910895CB01BA
:103260000E9424190895682F809100019091010116
:103270000C94CE1A682F80910001909101010C945A
:10328000D91A8091C8018595859585950895809175
:10329000C8018770089598E0899F90011124622BDE
:1032A0006093C8010C9458184091C80180958423FC
:1032B0008093C801982F977069F450E0282F332726
:1032C00027FD30954217530729F0859585958595FB
:1032D0000C94731808959091C801977081E009F4D7
:1032E00080E00895E0910001F09101018091EC01EE
:1032F0008083E0910001F091010180819091EB01C8
:10330000892B8083E0910001F091010180819091EF
:10331000EA01892B80839091C901992381F0E09182
:103320000001F09101018081892B8083809100014F
:10333000909101010E94451A81111092C90180915A
:103340000001909101010C94350E8091EC010895DB
:103350009091EC01982B9093EC01089580959091B9
:10336000EC0198239093EC0108951092EC010895DC
:103370009091EB01982B9093EB010895809590919B
:10338000EB0198239093EB0108951092EB010895BF
:103390009091EA01982B9093EA010895809590917D
:1033A000EA0198239093EA0108951092EA010895A2
:1033B0008093C90108951092C9010895909349011D
:1033C0008093480108958295982F9C7C96959695B8
:1033D000837344E0849F90011124922B892F8A7A71
:1033E00086959575990F892B08951F93CF93DF9339
:1033F0001F92CDB7DEB799830E94E319182F9981E8
:10340000892F0E94E319212F30E0322F2227A901B2
:10341000482BCA010F90DF91CF911F9108956DEE57
:103420007EEF80E090E00E94F52B60E082E090E08B
:103430000E94E32B60E083E090E00E94E32B60E0D9
:1034400084E090E00E94E32B60E085E090E00C9443
:10345000E32B80E090E00E94DD2B21E08D3E9E4F2B
:1034600009F020E0822F089582E090E00C94D52BA3
:1034700083E090E00C94D52B84E090E00C94D52B65
:10348000682F84E090E00C94E32B20E030E040E0F3
:10349000FC01E20FF31F518151114F5F2F5F3F4F2E
:1034A0002F313105A9F7842F089520E030E04FEF48
:1034B000FC01E20FF31F5281561799F04F3F19F4A8
:1034C000511101C0422F2F5F3F4F2E31310581F73F
:1034D0004F3F39F0FC01E40FF11D47FDFA9562837F
:1034E0000895089520E030E0FC01E20FF31F4281CF
:1034F000461301C012822F5F3F4F2E313105A1F7D5
:103500000895262F2695269526952F3178F4FC01CF
:10351000E20FF11D677021E030E0062E01C0220F9E
:103520000A94EAF78181822B818308958091ED01CD
:1035300080FF0CC01F926F938BE593E09F938F9356
:103540000E945A070F900F900F900F900895262F0A
:103550002695269526952F3180F4FC01E20FF11D6A
:10356000677021E030E0062E01C0220F0A94EAF7CE
:10357000209581812823218308958091ED0180FF8A
:103580000CC01F926F938DE393E09F938F930E94E3
:103590005A070F900F900F900F90089520911201ED
:1035A000222329F02091270227FD0C94811A0C94E4
:1035B000551A20911201222329F02091270227FD7C
:1035C0000C94A71A0C94721A20E030E0FC01E20F70
:1035D000F31F11822F5F3F4F2F313105B9F7089547
:1035E00080912D02843021F11092EE0120E488E1D7
:1035F00090E00FB6F894A895809360000FBE2093DA
:10360000600080E00E94F80883B7817F846083BFF8
:1036100083B7816083BF7894889583B78E7F83BF9B
:1036200088E10FB6F89480936000109260000FBE9E
:10363000089508950895CF930E94191B0E94090CC4
:103640000E941A1BC0E08C2F0E94C40C892B29F405
:10365000CF5FC530C1F780E001C081E0CF91089510
:103660000E94FA130E94290E0C94F8081F920F92E0
:103670000FB60F9211248F939F93AF93BF938091B6
:10368000EE01811113C08091230290912402A09138
:103690002502B09126024196A11DB11D80932302FF
:1036A00090932402A0932502B0932602BF91AF917C
:1036B0009F918F910F900FBE0F901F90189582E0F1
:1036C00084BD93E095BD9AEF97BD80936E000895F9
:1036D0002FB7F8948091230290912402A0912502A3
:1036E000B09126022FBF08952FB7F894609123025E
:1036F0007091240280912502909126022FBF089597
:10370000CF92DF92EF92FF920F931F932FB7F8940F
:10371000409123025091240260912502709126026B
:103720002FBF6A017B01EE24FF248C0120E030E0F2
:10373000C016D106E206F30610F441505109481BA9
:10374000590BCA011F910F91FF90EF90DF90CF901E
:10375000089578941F920F920FB60F9211248F93B1
:103760009F93AF93BF938091230290912402A091E5
:103770002502B09126020196A11DB11D809323025E
:1037800090932402A0932502B0932602BF91AF919B
:103790009F918F910F900FBE0F901F90189587E704
:1037A00097E790930108809300082AE088E190E071
:1037B0000FB6F894A895809360000FBE2093600028
:1037C000FFCF0E94291A811102C00E940F1A0E9485
:1037D000341A8093ED010E943C1A90E090932802E5
:1037E000809327020E94381A682F70E080E090E0F2
:1037F0000C94FF178091F10180FF0BC060910501CF
:1038000085E0689FB001112475956795759567955A
:103810002AC081FF09C06091050185E0689FB00161
:103820001124759567951FC082FF07C0609105013F
:1038300085E0689FB001112416C04091F201442335
:10384000C9F060910401461788F72091050185E0D1
:10385000289F90011124429FC001439F900D112485
:1038600070E00E94A72B6038710540F46115710566
:1038700039F002C065E070E0862F08958FE7089563
:1038800081E008958091F10180FF08C060910301FB
:1038900070E0759567957595679521C081FF06C0A5
:1038A0006091030170E07595679519C082FF04C0AF
:1038B0006091030170E010C08091F2018823C1F093
:1038C000609102018617A0F790910301989FC001B3
:1038D000112470E00E94A72B6038710528F461154F
:1038E000710521F0862F08958FE7089581E00895EE
:1038F00061E070E0F4CF803F21F40E94FA1B8195D3
:1039000004C0813F29F40E94FA1B8093F5010895B9
:10391000823F21F40E94FA1B819504C0833F29F461
:103920000E94FA1B8093F4010895893F19F40E94C4
:10393000421C05C08A3F31F40E94421C819580934D
:10394000F60108958B3F21F40E94421C819504C02A
:103950008C3F29F40E94421C8093F7010895843F14
:1039600021F48091F301816017C0853F21F480919B
:10397000F301826011C0863F21F48091F3018460DD
:103980000BC0873F21F48091F301886005C0883F18
:1039900031F48091F30180618093F30108958D3FAC
:1039A00021F48091F10181600BC08E3F21F4809160
:1039B000F101826005C08F3F29F48091F10184609C
:1039C0008093F1010895803F39F48091F50187FFDC
:1039D0006CC01092F50169C0813F29F48091F50116
:1039E0001816BCF362C09091F401823F29F497FF4E
:1039F0005CC01092F40159C0833F19F41916CCF33E
:103A000054C0893F41F48091F60118160CF04DC066
:103A10001092F6014AC08A3F29F48091F60187FF8F
:103A200044C0F6CF8B3F39F48091F70187FF3DC04A
:103A30001092F7013AC08C3F29F48091F7011816D3
:103A4000BCF333C0843F21F48091F3018E7F17C013
:103A5000853F21F48091F3018D7F11C0863F21F4D1
:103A60008091F3018B7F0BC0873F21F48091F3019C
:103A7000877F05C0883F31F48091F3018F7E80936A
:103A8000F30113C08D3F21F48091F1018E7F0BC0B3
:103A90008E3F21F48091F1018D7F05C08F3F29F485
:103AA0008091F1018B7F8093F1018091F40181116C
:103AB0000EC08091F50181110AC08091F60181113B
:103AC00006C08091F701811102C01092F2010895A1
:103AD0008091ED0183FF7EC080EA93E00E94C106E1
:103AE0008091F3011F928F938BE993E09F938F93C3
:103AF0000E945A0789E993E00E94C1062091F401CF
:103B0000822F992787FD90959F932F9386E993E0C5
:103B10009F938F930E945A0784E993E00E94C10605
:103B20002091F501822F992787FD90959F932F93E0
:103B300081E993E09F938F930E945A078FE893E067
:103B40000E94C1062091F601822F992787FD90954A
:103B50009F932F938CE893E09F938F930E945A0733
:103B60008AE893E00E94C1062091F701822F9927ED
:103B700087FD90959F932F9387E893E09F938F9372
:103B80000E945A0784E893E00E94C1068091F201E6
:103B90001F928F9381E893E09F938F930E945A071F
:103BA0008FE793E00E94C1068091F1011F928F93ED
:103BB0008CE793E09F938F930E945A0789E793E0E5
:103BC0000E94C1068DB79EB74C960FB6F8949EBF63
:103BD0000FBE8DBF83EF91E00E947A0E0E94681B9A
:103BE0009093F0018093EF0108951F93CF93DF939B
:103BF0008091EF019091F0010E94801B4091F201B1
:103C0000442321F02091060130E006C020910701F5
:103C10005AE0259F900111248217930708F482C06F
:103C20008091F4011091F501D091F601C091F70156
:103C3000811107C0111105C0D11103C0CC2309F4B3
:103C400071C04F3F19F04F5F4093F201181624F4F2
:103C50000E94FA1B8093F4018091F40187FF05C054
:103C60000E94FA1B81958093F401111624F40E949E
:103C7000FA1B8093F5018091F50187FF05C00E9432
:103C8000FA1B81958093F5016091F401662339F167
:103C90001091F501112319F1772767FD7095872F92
:103CA000972F0E94AC2A23E333E343E35FE30E94B0
:103CB000102B0E94792A6093F401612F772767FD0A
:103CC0007095872F972F0E94AC2A23E333E343E3B9
:103CD0005FE30E94102B0E94792A6093F5011D1664
:103CE00024F40E94421C8093F6018091F60187FF24
:103CF00005C00E94421C81958093F6011C1624F495
:103D00000E94421C8093F7018091F70187FF05C054
:103D10000E94421C81958093F701DF91CF911F9102
:103D20000C94681DDF91CF911F910895E3EFF1E0AE
:103D300085E0DF011D928A95E9F71092F201109259
:103D4000F101089583EC95E00E94C1061F9281E085
:103D50008F931F9285E08F9385E795E09F938F93D4
:103D60000E945A070F900F900F900F900F900F9096
:103D700008958330E9F128F4813061F0823009F14F
:103D80000895853009F462C008F449C0863009F40A
:103D900074C0089520910701862F90E0820F911D35
:103DA0008F3F910520F4620F6093070103C08FEFEE
:103DB00080930701809107011F928F938EEA94E010
:103DC00072C020910601862F90E0820F911D8F3FD7
:103DD000910520F4620F6093060103C08FEF80937A
:103DE0000601809106011F928F938CE994E05BC0DD
:103DF00020910501862F90E0820F911D8F3F910544
:103E000020F4620F6093050103C08FEF80930501DA
:103E1000809105011F928F9389E894E044C020911E
:103E20000401862F90E0820F911D8F3F910520F4B1
:103E3000620F6093040103C08FEF809304018091AF
:103E400004011F928F9384E794E02DC02091030119
:103E5000862F90E0820F911D8F3F910520F4620F15
:103E60006093030103C08FEF8093030180910301EE
:103E70001F928F938BE594E016C020910201862F4C
:103E800090E0820F911D8F3F910520F4620F6093A7
:103E9000020103C08FEF80930201809102011F9203
:103EA0008F9380E494E09F938F930E945A070F9022
:103EB0000F900F900F900895833081F128F4813096
:103EC00059F08230D1F00895853009F449C0B8F135
:103ED000863009F456C0089580910701681720F4D0
:103EE000861B8093070102C0109207018091070191
:103EF0001F928F9381E394E054C08091060168176C
:103F000020F4861B8093060102C010920601809166
:103F100006011F928F938FE194E043C080910501C9
:103F2000681720F4861B8093050102C010920501DA
:103F3000809105011F928F938CE094E032C08091B4
:103F40000401681720F4861B8093040102C01092BC
:103F50000401809104011F928F9387EF93E021C0A9
:103F600080910301681720F4861B8093030102C02F
:103F700010920301809103011F928F938EED93E0C5
:103F800010C080910201681720F4861B8093020103
:103F900002C010920201809102011F928F9383EC64
:103FA00093E09F938F930E945A070F900F900F906A
:103FB0000F900895CF93C82F1F928F9328EC36E06F
:103FC0003F932F930E945A0761E070E080E090E0F9
:103FD00004C0660F771F881F991FCA95D2F70E94E9
:103FE000FF170F900F900F900F90CF910C94FA1332
:103FF000CF938732A8F58E3108F02EC1803109F4B5
:104000009DC0F8F4873009F465C0A8F4863009F043
:1040100029C18091ED01817F8E7F8093ED018AE639
:1040200098E00E94C1068BEC9AE00E94C10681E0F4
:104030008093F9014DC08B30F1F18E3009F46BC0E3
:1040400011C1863109F4ADC020F4813109F4EDC00D
:1040500009C1893109F48EC08B3109F449C002C10C
:10406000883349F150F4893209F4F8C0853309F4F2
:10407000F5C0873209F4F2C0F5C0833409F4EEC00C
:1040800028F48A3308F4EEC08953E9C0883409F073
:10409000E9C00E94FA138FEA9AE00E94C1062FEF4E
:1040A00083ED90E3215080409040E1F700C0000094
:1040B0000E94CF1B0DC081E998E059C086E99AE0C3
:1040C0000E94C1068091ED01897F877F8093ED0179
:1040D000C1E0CDC08091ED01C82FC095C170C0FB7B
:1040E00080F98093ED01CC2349F383EA9AE0AEC0D6
:1040F0008091ED0181FBCC27C0F991E0C927C0FB7D
:1041000081F98093ED01CC2319F089E89AE025C06C
:104110008BE79AE02CC08091ED0182FBCC27C0F99F
:1041200091E0C927C0FB82F98093ED01CC2319F0FF
:104130008CE69AE012C08CE59AE019C08091ED01FE
:1041400083FBCC27C0F991E0C927C0FB83F980939A
:10415000ED01CC2351F080E59AE00E94C1068091E8
:10416000ED0181608093ED0182C083E49AE00E94BA
:10417000C106AECF8BE598E00E94C1068EE298E0C2
:104180000E94C10687EF97E00E94C10687EB97E087
:104190000E94C1068CE797E00E94C1068EE497E07A
:1041A000E6CF80E497E00E94C1060E94290E1F928C
:1041B0008F9386E297E09F938F930E945A07809196
:1041C00012011F928F938FE097E09F938F930E942D
:1041D0005A0780911E021F928F938CEF96E09F9357
:1041E0008F930E945A078091270287FB882780F9C6
:1041F0001F928F9384EE96E09F938F930E945A07AD
:104200000E94741B9F938F937F936F938DEC96E026
:104210009F938F930E945A078DB79EB746960FB60D
:10422000F8949EBF0FBE8DBF53CF0E94FA138091AA
:10423000270287FBCC27C0F991E0C927C0FB87F98B
:1042400080932702CC2329F089E39AE00E94C106DB
:104250000EC08EE29AE08BCF8D5101C080E00E94AB
:10426000DA1F36CF8CE29AE00E94C106C0E08C2FA4
:10427000CF91089580E0089580E008958E518A30AE
:1042800030F4E82FF0E0EB5DFE4F8081089580E090
:104290000895CF93C82F8091F901813071F020F0FB
:1042A000823009F448C03CC1E0910001F091010165
:1042B0008081823209F036C107C0E0910001F0919F
:1042C00001018081823249F48C2F0E943A218111B0
:1042D0002FC08C2F0E94F81F2CC08C2F0E943C21D5
:1042E000811126C0C431E1F070F4CB3081F0C031CF
:1042F000D1F40E94A21E80EC96E00E94C10682E0EA
:104300008093F90115C0C93259F0C83361F48AE6C7
:1043100098E00E94C10684EC96E00E94C10608C0A5
:104320001092F90101C18EEB96E00E94C106FCC01B
:1043300081E08170FBC0C43228F5CE3108F0C1C0E5
:10434000CB30A1F1D0F4C73009F0D0C08EE180931A
:10435000070182E3809306018AE08093050184E1EE
:104360008093040188E08093030188E28093020136
:1043700084E695E00E94C106BCC0C33149F1C43156
:10438000C1F0B4C0CB3409F4A6C028F4C93289F016
:10439000C83361F0ABC0C13509F49BC0C23509F424
:1043A00096C0CE3409F0A2C06AE09BC00E94A21E53
:1043B000A0C08091F801882319F01092F80199C0EB
:1043C00081E795E00E94C10681E08093F901AEC0CB
:1043D0008BE495E00E94C10689E395E00E94C10646
:1043E000809107011F928F9386E395E09F938F93AF
:1043F0000E945A0784E395E00E94C10682E295E09C
:104400000E94C106809106011F928F938FE195E073
:104410009F938F930E945A078DE195E00E94C106F9
:104420008EE095E00E94C106809105011F928F9356
:104430008BE095E09F938F930E945A0789E095E067
:104440000E94C10688EF94E00E94C1068091040199
:104450001F928F9385EF94E09F938F930E945A074A
:1044600083EF94E00E94C1068EED94E00E94C106A5
:10447000809103011F928F938BED94E09F938F9314
:104480000E945A0789ED94E00E94C10682EC94E0F4
:104490000E94C106809102011F928F938FEB94E0DE
:1044A0009F938F930E945A078DEB94E00E94C10660
:1044B0008DB79EB748960FB6F8949EBF0FBE8DBFBE
:1044C00018C08C2F0E943E218093F80112C061E039
:1044D00003C061E006C06AE08091F8010E94B91E45
:1044E00008C08091F8010E945C1F03C082E695E03D
:1044F00013C08091F801882369F01F928F938CE597
:1045000095E09F938F930E945A070F900F900F9002
:104510000F9004C089E595E00E94C10681E006C0C5
:104520001092F90180E002C080E003CFCF9108959E
:1045300080911D0208959FB7F8941092FC019FBFCF
:1045400090912D02943009F058C09091E9009F702D
:104550002091EC0020FF02C020E801C020E0292BC0
:1045600094E09093E9009091EB0090FF43C090910C
:10457000EE0097FF3FC09091FA01992321F09091AE
:10458000E80095FF37C01092FA0196E03091E800FC
:1045900035FD15C030912D02343061F53091EB00BE
:1045A00035FD28C0915021F481E08093FA0122C0AA
:1045B000EFE9FFE03197F1F700C00000E7CF80930B
:1045C000F1008091E80085FD0AC08091E80080FF3D
:1045D000FCCF8091E8008E778093E80006C08FB70B
:1045E000F89491E09093FC018FBF2F702093E90025
:1045F00080E008952F702093E9008FEF08950F93C6
:104600001F93CF93DF9300D01F92CDB7DEB78C01FD
:104610000E94CE25823011F0843019F583E0898321
:104620001B830A838093E9008FEF9091E80081500B
:1046300095FD06C095ED9A95F1F700008111F5CF33
:104640008091E80085FF0DC040E050E063E070E03D
:10465000CE0101960E94EB258091E8008E77809331
:10466000E8000F900F900F90DF91CF911F910F9165
:104670000895CF93DF9300D01F92CDB7DEB720917E
:104680002D02243031F522E02983805891099B8343
:104690008A8383E08093E9008FEF9091E800815056
:1046A00095FD06C095ED9A95F1F700008111F5CFC3
:1046B0008091E80085FF0DC040E050E063E070E0CD
:1046C000CE0101960E94EB258091E8008E778093C1
:1046D000E8000F900F900F90DF91CF910895CF9346
:1046E000DF93EC010E94CE25823011F08430F9F482
:1046F00082E08093E9008FEF9091E800815095FD72
:1047000006C095ED9A95F1F700008111F5CF8091E3
:10471000E80085FF0CC040E050E065E070E0CE01AD
:104720000E94EB258091E8008E778093E800DF916E
:10473000CF910895CF93DF93EC010E94CE25823074
:1047400019F0843009F047C0809112018823E1F00C
:104750008091270287FF18C085E08093E9008FEFE2
:104760009091E800815095FD06C095E19A95F1F78A
:1047700000008111F5CF8091E80085FF2CC040E05A
:1047800050E060E270E017C081E08093E9008FEFB5
:104790009091E800815095FD06C095ED9A95F1F74E
:1047A00000008111F5CF8091E80085FF14C040E042
:1047B00050E068E070E0CE010E94EB258091E800B7
:1047C0008E778093E80080E2FE01ADEFB1E00190CA
:1047D0000D928A95E1F7DF91CF91089584EF9AE0E9
:1047E0000E94C10680912C02811109C00E947D2780
:1047F0000E94DA278091E20084608093E2000895AD
:1048000080EF9AE00E94C10610922C0208958CEE6F
:104810009AE00C94C10688EE9AE00C94C10684EEEE
:104820009AE00E94C1060C94301B8091FB018F5FBF
:104830008093FB0162E30E949B2B911135C0109283
:10484000FB018091FC01882379F180912D02843055
:1048500049F58091E9008F709091EC0090FF02C0C3
:1048600090E801C090E0982B84E08093E90080916B
:10487000EB0080FF14C08091EE0087FF10C0809194
:10488000E80085FF03C01092F100F9CF8091E800A5
:1048900080FF05C08091E8008E778093E8009F70CC
:1048A0009093E9001092FC01089542E061EC81E0F0
:1048B0000E94F72642E061EC82E00E94F72642E087
:1048C00061EC83E00E94F72642E261EC84E00E9402
:1048D000F72642E261EC85E00C94F72680912F02E6
:1048E000833009F455C030F4813071F0823009F41E
:1048F0008EC008958A3009F47AC08B3009F460C004
:10490000893009F09CC020C080912E02813A09F0C4
:1049100096C08091E800877F8093E8008091320202
:1049200090913302892B21F060E080E090E003C099
:1049300060E28DEF91E070E00E9434268091E80003
:104940008B778093E800089580912E02813209F0E0
:1049500076C08091320290913302009719F004974B
:1049600009F06DC08091E800877F8093E800809116
:10497000E80082FD05C080912D028111F8CF5FC053
:104980008091F10080931D028091E8008B7753C0E5
:1049900080912E02813A09F052C0809132029091AA
:1049A0003302892B09F04BC08091E800877F809308
:1049B000E8008091E80080FFFCCF8091120136C0B2
:1049C00080912E028132D9F580913202909133028A
:1049D000892BA9F58091E800877F8093E8000E94E9
:1049E0002C2780913002809312010C94FA1380914D
:1049F0002E02813221F58091E800877F8093E800C4
:104A00000E942C278091310280931E02089580918C
:104A10002E02813AA1F48091E800877F8093E8001C
:104A20008091E80080FFFCCF80911E028093F1000E
:104A30008091E8008E778093E8000C942C270895ED
:104A400084B7877F84BF88E10FB6F89480936000B5
:104A5000109260000FBE80E88093610010926100A8
:104A60000E94B20E0E947D270E94DA278091E20008
:104A700084608093E2008BE992E20E94DE197894D0
:104A80000E945C2A0E94B40E88E091E00E94240EED
:104A900083ED9AE00E94C10680912D02853089F451
:104AA0008FEC9AE00E94C1060E94F01A80912B02BE
:104AB000882391F30E941B1B882371F30E94D52544
:104AC000EBCF0E94E20EE8CF292F332723303105A8
:104AD000A9F06CF42130310509F442C022303105CF
:104AE00009F043C08DE890E020E23BE042C0213273
:104AF0003105C9F02232310519F137C099278130CB
:104B0000910541F08230910541F0892B71F5ECE17E
:104B1000FBE005C0ECE0FBE002C0E8EFFAE08491C6
:104B200090E09F0126C065307105F8F4FB01EE0F9F
:104B3000FF1FE25CFE4F2081318189E090E019C0C7
:104B40006530710590F4FB01EE0FFF1FEC5CFE4F2A
:104B500020813181FB01E15DFE4F808190E009C041
:104B600082E190E02DEA3BE004C080E090E020E0AC
:104B700030E0FA013183208308950895CF93C82F40
:104B80000E94BD25C0931F02CF91089580912D02F0
:104B9000843011F482E0089581E0089580911F022D
:104BA000811102C00C94C625089580E189BD82E17F
:104BB00089BD09B400FEFDCF8091D8008F7D809320
:104BC000D8008091E00082608093E0008091E00056
:104BD00081FDFCCF0895CF92DF92EF92FF920F9369
:104BE0001F93CF93DF937C018B01EA010E944D2735
:104BF000811131C0209731F088819981081B190BF0
:104C0000E80EF91EC12CD12C0115110519F1809166
:104C1000E80085FD14C08091E8008E778093E8005D
:104C2000209741F0888199818C0D9D1D99838883FF
:104C300085E011C00E944D27882331F30CC0F70195
:104C400081917F018093F10001501109FFEFCF1A8C
:104C5000DF0ADACF80E0DF91CF911F910F91FF90B3
:104C6000EF90DF90CF90089520913402309135027B
:104C70002617370748F06115710539F42091E800CF
:104C80002E772093E80001C0B901FC0120E06115F6
:104C90007105B9F180912D02882309F440C0853057
:104CA00009F43FC08091E80083FD3DC08091E80099
:104CB00082FF06C08091E80082FF26C080E0089550
:104CC0008091E80080FFE3CF2091F3008091F20013
:104CD00090E0922B6115710551F08830910538F400
:104CE00021912093F100615071090196F3CF21E0E9
:104CF000089709F020E08091E8008E778093E80023
:104D0000C6CF2111C7CFD6CF80912D02882339F08D
:104D1000853039F08091E80083FFCCCF04C082E079
:104D2000089583E0089581E0089520913402309140
:104D300035022617370748F06115710539F42091BF
:104D4000E8002E772093E80001C0B901FC0120E0C3
:104D500061157105C1F180912D02882309F441C0CC
:104D6000853009F440C08091E80083FD3EC0809109
:104D7000E80082FF06C08091E80082FF27C080E043
:104D800008958091E80080FFE3CF2091F3008091A7
:104D9000F20090E0922B6115710559F08830910571
:104DA00040F424912093F1003196615071090196ED
:104DB000F2CF21E0089709F020E08091E8008E779B
:104DC0008093E800C5CF2111C6CFD5CF80912D02A9
:104DD000882339F0853039F08091E80083FFCBCF0C
:104DE00004C082E0089583E0089581E00895982F3B
:104DF000973058F59093E900981739F07091EC00CE
:104E00002091ED005091F00003C0242F762F50E048
:104E100021FF19C03091EB003E7F3093EB003091C1
:104E2000ED003D7F3093ED003091EB003160309329
:104E3000EB007093EC002093ED005093F000209174
:104E4000EE0027FF07C09F5FD3CF8F708093E900EC
:104E500081E0089580E0089580912E0287FD05C0CD
:104E60008091E80080FF0EC012C08091E80082FDB2
:104E700005C080912D028111F8CF08958091E8003E
:104E80008B7708C080912D028111EACF089580911F
:104E9000E8008E778093E80008958091E400909177
:104EA000E50045E62091EC0020FF21C02091E800BC
:104EB00020FD21C020912D02222389F0253089F088
:104EC0002091EB0025FD0FC02091E4003091E5001A
:104ED0002817390739F3415041F0C901E3CF82E087
:104EE000089583E0089581E0089584E00895209175
:104EF000E80022FFDFCF80E008950E94EB270E94A8
:104F0000F327E0EEF0E0808181608083E8EDF0E05F
:104F100080818F77808319BCA7EDB0E08C918E7F64
:104F20008C9380818F7E808310922C0208950F9342
:104F30001F93CF93DF930E94EB270E94F327C8EDC6
:104F4000D0E088818F778883888180688883888192
:104F50008F7D888319BC10922D0210922902109225
:104F60002B0210922A0200EE10E0F80180818B7F64
:104F7000808388818160888342E060E080E00E94D5
:104F8000F726E1EEF0E080818E7F8083E2EEF0E0B4
:104F9000808181608083808188608083F801808146
:104FA0008E7F8083888180618883DF91CF911F917C
:104FB0000F910895E8EDF0E080818F7E8083E7ED2A
:104FC000F0E080818160808384E082BF81E0809313
:104FD0002C020C949727E8EDF0E080818E7F80838F
:104FE0001092E20008951092DA001092E100089504
:104FF0001F920F920FB60F9211242F933F934F934E
:105000005F936F937F938F939F93AF93BF93EF9330
:10501000FF938091E10082FF0BC08091E20082FF4C
:1050200007C08091E1008B7F8093E1000E941524EE
:105030008091DA0080FF1FC08091D80080FF1BC0E4
:105040008091DA008E7F8093DA008091D90080FF12
:105050000DC080E189BD82E189BD09B400FEFDCFAC
:1050600081E080932D020E94EE2305C019BC1092AE
:105070002D020E9400248091E10080FF19C08091E0
:10508000E20080FF15C08091E2008E7F8093E200F5
:105090008091E20080618093E2008091D80080627C
:1050A0008093D80019BC85E080932D020E940B24C8
:1050B0008091E10084FF30C08091E20084FF2CC029
:1050C00080E189BD82E189BD09B400FEFDCF8091F8
:1050D000D8008F7D8093D8008091E1008F7E8093EF
:1050E000E1008091E2008F7E8093E2008091E200F7
:1050F00081608093E20080912902882311F084E08E
:1051000007C08091E30087FF02C083E001C081E017
:1051100080932D020E940F248091E10083FF29C01B
:105120008091E20083FF25C08091E100877F80931A
:10513000E10082E080932D02109229028091E1002B
:105140008E7F8093E1008091E2008E7F8093E20069
:105150008091E20080618093E20042E060E080E0C4
:105160000E94F7268091F00088608093F0000E94F2
:105170000724FF91EF91BF91AF919F918F917F9104
:105180006F915F914F913F912F910F900FBE0F90B4
:105190001F9018951F920F920FB60F9211242F9304
:1051A0003F934F935F936F937F938F939F93AF93AF
:1051B000BF93CF93EF93FF93C091E900CF7080919D
:1051C000EC001092E9008091F000877F8093F0005E
:1051D00078940E9406291092E9008091F00088607E
:1051E0008093F000C093E900FF91EF91CF91BF91C0
:1051F000AF919F918F917F916F915F914F913F916F
:105200002F910F900FBE0F901F9018951F93CF9363
:10521000DF93CDB7DEB7AA970FB6F894DEBF0FBE07
:10522000CDBFEEE2F2E08091F100819322E0E6331F
:10523000F207C9F70E946E248091E80083FF24C121
:1052400020912E0230912F02832F90E08A30910519
:1052500008F01AC1FC01E556FF4F0C94BB2B203817
:1052600021F0223809F010C108C080912A029091E3
:105270002B02992389F082600FC0809132028F70D7
:10528000873008F001C18093E9008091EB0085FB35
:10529000882780F91092E9009091E800977F909319
:1052A000E8008093F1001092F100CCC0822F8D7F36
:1052B00009F0EAC0222319F0223061F0E5C08091A4
:1052C0003002813009F0E0C0333009F080E0809393
:1052D0002B022AC080913002811126C02091320217
:1052E0002F708FEF820F863008F0CEC02093E90038
:1052F0008091EB0080FF18C08091EB00333011F4F7
:10530000806210C080618093EB0081E090E001C07A
:10531000880F2A95EAF78093EA001092EA008091BC
:10532000EB0088608093EB001092E9008091E80028
:10533000877F8093E8000E942C27A6C02111A4C07B
:10534000109130021F778091E3008078812B809349
:10535000E3008091E800877F8093E8000E942C277B
:105360008091E80080FFFCCF8091E300806880930B
:10537000E300112311F083E001C082E080932D024D
:1053800083C02058223008F07FC080913002909175
:1053900031028C3D23E0920779F583E08A838AE22B
:1053A00089834FB7F894DE01139620E03EE051E286
:1053B000E32FF0E050935700E49120FF03C0E29503
:1053C000EF703F5FEF708E2F90E0EA3010F0C796DD
:1053D00001C0C0968D939D932F5F243149F74FBF35
:1053E0008091E800877F8093E8006AE270E0CE0158
:1053F00001960E94342615C06091320270913302EA
:10540000AE014F5F5F4F0E9464250097E9F1209144
:10541000E800277F2093E800BC0189819A810E94DF
:1054200095268091E8008B778093E8002DC0203886
:1054300059F58091E800877F8093E80080912902E8
:105440008093F1008091E8008E7773CF21111CC00A
:10545000909130029230C0F48091E800877F809371
:10546000E800909329020E942C2780912902811143
:1054700004C08091E30087FF02C084E001C081E0A6
:1054800080932D020E9455248091E80083FF0AC07A
:105490008091E800877F8093E8008091EB00806234
:1054A0008093EB00AA960FB6F894DEBF0FBECDBF77
:1054B000DF91CF911F910895CF9380912D02882382
:1054C000B1F08091E9008F709091EC0090FF02C0E4
:1054D00090E801C090E0C92FC82B1092E90080919C
:1054E000E80083FD0E940629CF70C093E900CF91A8
:1054F000089504D06894B1118DC0089570D088F0DB
:105500009F5790F0B92F9927B751A0F0D1F0660FAF
:10551000771F881F991F1AF0BA95C9F712C0B130CA
:1055200081F077D0B1E0089574C0672F782F882775
:10553000B85F39F0B93FCCF3869577956795B39509
:10554000D9F73EF490958095709561957F4F8F4F78
:105550009F4F0895E89409C097FB3EF4909580957D
:10556000709561957F4F8F4F9F4F9923A9F0F92F29
:1055700096E9BB279395F695879577956795B795A7
:10558000F111F8CFFAF4BB0F11F460FF1BC06F5F8D
:105590007F4F8F4F9F4F16C0882311F096E911C09F
:1055A000772321F09EE8872F762F05C0662371F0C0
:1055B00096E8862F70E060E02AF09A95660F771FD4
:1055C000881FDAF7880F9695879597F9089557FD04
:1055D0009058440F551F59F05F3F71F04795880F61
:1055E00097FB991F61F09F3F79F0879508951216F8
:1055F00013061406551FF2CF4695F1DF08C01616A4
:1056000017061806991FF1CF869571056105089454
:105610000895E894BB2766277727CB0197F908956B
:105620000BD078C069D028F06ED018F0952309F01F
:105630005AC05FC01124EECFCADFA0F3959FD1F30B
:10564000950F50E0551F629FF001729FBB27F00D30
:10565000B11D639FAA27F00DB11DAA1F649F662785
:10566000B00DA11D661F829F2227B00DA11D621FD4
:10567000739FB00DA11D621F839FA00D611D221F8E
:10568000749F3327A00D611D231F849F600D211D72
:10569000822F762F6A2F11249F5750408AF0E1F015
:1056A00088234AF0EE0FFF1FBB1F661F771F881F5E
:1056B00091505040A9F79E3F510570F014C0AACFF9
:1056C0005F3FECF3983EDCF3869577956795B79549
:1056D000F795E7959F5FC1F7FE2B880F911D969573
:1056E000879597F9089597F99F6780E870E060E0E3
:1056F00008959FEF80EC089500240A94161617066B
:1057000018060906089500240A94121613061406B2
:1057100005060895092E0394000C11F4882352F015
:10572000BB0F40F4BF2B11F460FF04C06F5F7F4FCD
:105730008F4F9F4F0895991B79E004C0991F9617CA
:1057400008F0961B881F7A95C9F78095089597FBF6
:10575000072E16F4009407D077FD09D00E94C12BC4
:1057600007FC05D03EF4909581959F4F0895709564
:1057700061957F4F0895EE0FFF1F0590F491E02D86
:105780000994AA1BBB1B51E107C0AA1FBB1FA61788
:10579000B70710F0A61BB70B881F991F5A95A9F7DA
:1057A00080959095BC01CD010895F999FECF92BDE9
:1057B00081BDF89A992780B50895A8E1B0E042E04C
:1057C00050E00C94FD2B262FF999FECF92BD81BDA0
:1057D000F89A019700B4021639F01FBA20BD0FB62F
:1057E000F894FA9AF99A0FBE08950196272F0E940D
:1057F000E42B0C94E32BDC01CB01FC01F999FECFE7
:1058000006C0F2BDE1BDF89A319600B40D92415048
:0A5810005040B8F70895F894FFCF58
:10581A00CA012808140A321E98229A236F233923B0
:10582A00FF2201F4F5F6F7313332363534C697667E
:10583A009293919094010203040506070809004017
:10584A004D3622399D0C500C1A0CF80BBF0B320B3B
:08585A004B0B640B7D0B9D0B51
:00000001FF
