:100000000C94F4060C9438070C9438070C943807B9
:100010000C9438070C9438070C9438070C94380764
:100020000C9438070C9438070C947B280C944D29B9
:100030000C94BB1B0C9438070C9438070C943807AD
:100040000C9438070C9438070C9438070C94380734
:100050000C9438070C942E1C0C9438070C94380719
:100060000C9438070C9438070C9438070C94380714
:100070000C9438070C9438070C9438070C94380704
:100080000C9438070C9438070C9438070C943807F4
:100090000C9438070C9438070C9438070C943807E4
:1000A0000C9438070C9438070C94380794089A0875
:1000B0009E08A108A508A908AD08B108B608BA08A5
:1000C000BE08C208C508C908CD08D108D508DA0895
:1000D000F311F3112D122D126C128E12FD13FD135C
:1000E000D412FD137B137B13F113FD13FD13F813CF
:1000F0008813881388138813881388138813881328
:100100008813881388138813881388138813881317
:100110009A13AA13B113B813C21391149114A4140F
:10012000A4149A14A414A414A41491149114A01443
:10013000A414A414A014B229D929C72AD929C72ADA
:10014000212A442AC72A9A2AA92A2E001E001F0003
:1001500020002100220000002300240025002600AA
:1001600027002D002B0014001A00080015001700AE
:1001700000001C0018000C00120013003100E00009
:1001800004001600070009000A0000000B000D0023
:100190000E000F0033003400E1001D001B000600BC
:1001A0001900050029421100100036003700380000
:1001B000E500035135004900E200E3002A00280071
:1001C0002C002F0030002F003000015101003A00B8
:1001D0003B003C003D003E0000003F00400041006D
:1001E0004200430044003900AC00AE00AB00AD005B
:1001F00001000000010001000100010001004500B4
:100200000100AA00A900A8000100010000000100EF
:1002100001004600470048000100010069006A0033
:100220000100010001004C0001004B004A00520097
:100230004D00010004510100010001000100010016
:10024000010001004E00500051004F00010001006C
:100250000100010001000100010000000100010097
:100260000100010001000100010001000100010086
:10027000010001000000F900FB00F000FC0001009B
:100280000100010001000100010001000100000067
:10029000FA00F200F100F30001000100010001008A
:1002A000010001002F0830080100010001000100D9
:1002B0000100010001000100010001000100F70040
:1002C000F800F500F400F600010001000100010053
:1002D0000100010001000100010001000000010017
:1002E00053005400550056000100010001000100B8
:1002F000010001000100000001005F0060006100DA
:10030000570001000100010001000100010001008F
:10031000000001005C005D005E005700010001006C
:100320000100010001000100010067000100590007
:100330005A005B00580001000100010001000100AB
:1003400001000100580062005C005C00630058007E
:100350000451000000000000000000000000000048
:10036000000000000000000000000000000000008D
:1003700000000000005C0000000000000000000021
:10038000000000000000000000000000000000006D
:10039000000000000000000000000000000000005D
:1003A000000000000000000000000000000000004D
:1003B000000000000000000000000000000000003D
:1003C000000000000000000000000000000000002D
:1003D000000000000A44454255473A20656E6162BC
:1003E0006C65642E0A000A002530313662003A201E
:1003F0000025303258000A722F63203031323334F6
:1004000035363738394142434445460A000A00250B
:1004100030325820006B6579626F6172645F72657B
:10042000706F72743A20000A0025303258006B65F4
:1004300079626F6172645F7365745F6C65643A20A2
:100440000064656C5F6B65795F6269743A20636113
:100450006E27742064656C3A20253032580A00619A
:1004600064645F6B65795F6269743A2063616E27CB
:1004700074206164643A20253032580A00290A0049
:100480002575002F002575005D28002564002000DB
:10049000256400200025640020002564007C0025E0
:1004A000303258006D6F7573656B6579205B6274CF
:1004B0006E7C782079207620685D287265702F61C7
:1004C000636C293A205B006D6B5F776865656C5FD4
:1004D00074696D655F746F5F6D6178203D20256480
:1004E0000A006D6B5F776865656C5F6D61785F733F
:1004F00070656564203D2025640A006D6B5F74693A
:100500006D655F746F5F6D6178203D2025640A0022
:100510006D6B5F6D61785F7370656564203D20254C
:10052000640A006D6B5F696E74657276616C203D64
:100530002025640A006D6B5F64656C6179203D2045
:1005400025640A006D6B5F776865656C5F74696D23
:10055000655F746F5F6D6178203D2025640A006DD2
:100560006B5F776865656C5F6D61785F73706565FB
:1005700064203D2025640A006D6B5F74696D655FC2
:10058000746F5F6D6178203D2025640A006D6B5F9C
:100590006D61785F7370656564203D2025640A0095
:1005A0006D6B5F696E74657276616C203D202564A9
:1005B0000A006D6B5F64656C6179203D2025640ADB
:1005C000000A00257500363A20776865656C5F740F
:1005D000696D655F746F5F6D61783A20000A002570
:1005E0007500353A20776865656C5F6D61785F737B
:1005F000706565643A20000A00257500343A20745D
:10060000696D655F746F5F6D61783A20000A00253F
:100610007500333A206D61785F73706565643A20C8
:10062000000A00257500323A20696E7465727661A1
:100630006C286D73293A20000A00257500313A2094
:1006400064656C6179282A31306D73293A20000A7B
:10065000092D2056616C756573202D0A004D3E00F2
:100660004D25643E20003F0073657420646566611B
:10067000756C740A00433E200077686572652064DB
:10068000656C74613A20637572736F723D25642CDA
:1006900020776865656C3D25640A5365652068743C
:1006A00074703A2F2F656E2E77696B697065646977
:1006B000612E6F72672F77696B692F4D6F75736548
:1006C0005F6B6579730A000A092D204D6F7573659C
:1006D0006B6579202D0A4553432F713A097175696D
:1006E000740A313A0964656C6179282A31306D7376
:1006F000290A323A09696E74657276616C286D73E5
:10070000290A333A096D61785F73706565640A344C
:100710003A0974696D655F746F5F6D61780A353A87
:1007200009776865656C5F6D61785F737065656496
:100730000A363A09776865656C5F74696D655F7440
:100740006F5F6D61780A0A703A097072696E742081
:1007500076616C7565730A643A0973657420646523
:100760006661756C74730A75703A092B310A646F8F
:10077000776E3A092D310A706775703A092B31305E
:100780000A7067646F776E3A092D31300A0A737008
:10079000656564203D2064656C7461202A206D616C
:1007A000785F7370656564202A20287265706561C2
:1007B00074202F2074696D655F746F5F6D61782997
:1007C0000A003F004D3E2000433E20004C25640AB5
:1007D0000074696D65725F72656164333228293A0D
:1007E000202530346C580A006B65796D61705F6349
:1007F0006F6E6669672E6E6B726F3A2025580A001D
:100800006B6579626F6172645F69646C653A20251B
:10081000580A006B6579626F6172645F70726F7401
:100820006F636F6C3A2025580A00686F73745F6BB2
:100830006579626F6172645F6C65647328293A2020
:1008400025580A000A092D20537461747573202DF0
:100850000A004743433A20342E382E312041565265
:100860002D4C4942433A20312E382E3073766E207B
:100870004156525F415243483A20617672350A0030
:100880004F5054494F4E533A204C554641204D4FFE
:100890005553454B45592045585452414B455920D5
:1008A000434F4E534F4C4520434F4D4D414E4420F6
:1008B0004E4B524F20343039360A004255494C4491
:1008C0003A20226572676F646F785F657A2D3136E2
:1008D000313230352D323333342D6734643632368D
:1008E000322D646972747922202831363A33373ACE
:1008F0003331204175672020352032303137290AC5
:10090000005649443A203078464545442850726F95
:1009100066657429205049443A20307836303632A2
:1009200028417472657573363229205645523A2033
:100930003078303030310A00444553433A20712E2C
:100940006D2E6B2E206B6579626F61726420666913
:10095000726D7761726520666F7220417472657581
:100960007336320A000A092D2056657273696F6E5C
:10097000202D0A000A092D20436F6E736F6C6520CD
:100980002D0A4553432F713A09717569740A6D3AFE
:10099000096D6F7573656B65790A000A092D204D25
:1009A00061676963202D0A443A09446562756720CE
:1009B0004D65737361676520546F67676C650A588E
:1009C0003A094D6174726978204465627567204DFB
:1009D0006F646520546F67676C65202D2053686FC6
:1009E00077206B65797072657373657320696E200B
:1009F0006D617472697820677269640A4B3A094BB9
:100A00006579626F61726420446562756720546F16
:100A100067676C65202D2053686F77206B65797050
:100A200072657373207265706F72740A4D3A09446F
:100A300065627567204D6F75736520546F67676CCD
:100A4000650A563A0956657273696F6E0A533A0918
:100A50005374617475730A433A094163746976612A
:100A6000746520436F6E736F6C65204D6F64650A0B
:100A700046312D4631303A095377697463682074E2
:100A80006F204C6179657220302D39202846313035
:100A9000203D204C30290A302D393A0953776974AA
:100AA000636820746F204C6179657220302D390A9B
:100AB0004553433A0953776974636820746F204C37
:100AC0006179657220302028616C7465726E617482
:100AD00065206B65792031290A47524156453A090C
:100AE00053776974636820746F204C617965722054
:100AF000302028616C7465726E617465206B657955
:100B00002032290A50415553453A094A756D7020E3
:100B1000746F20426F6F746C6F616465722028522D
:100B200065736574290A4E3A094E4B524F20546F33
:100B300067676C650A003F004E4B524F3A206F6664
:100B4000660A004E4B524F3A206F6E0A000A6D6FD4
:100B50007573653A206F66660A000A6D6F75736576
:100B60003A206F6E0A000A6B6579626F6172643AAF
:100B7000206F66660A000A6B6579626F6172643A7B
:100B8000206F6E0A000A6D61747269783A206F6690
:100B9000660A000A6D61747269783A206F6E0A0005
:100BA0000A64656275673A206F66660A000A6465C2
:100BB0006275673A206F6E0A000A0A4A756D70699D
:100BC0006E6720746F20626F6F746C6F6164657202
:100BD0002E2E2E2000433E20005B735D004B657976
:100BE000626F6172642073746172742E0A005B57C5
:100BF0005D005B535D005B525D005B445D005B43E9
:100C00005D001203410074007200650075007300FE
:100C10003600320000000E03500072006F006600C4
:100C20006500740000000403090409028D00050139
:100C300000A0FA09040000010301010009211101CB
:100C400000012240000705810308000A0904010091
:100C50000103010200092111010001224D000705D5
:100C6000820308000A0904020001030000000921B0
:100C7000110100012236000705830308000A090458
:100C800003000203000000092111010001222200DB
:100C9000070584032000010705040320000109045F
:100CA00004000103000000092111010001223900A4
:100CB000070585032000011201100100000008ED66
:100CC000FE626001000102000105010906A10105A3
:100CD0000719E029E715002501950875018102052E
:100CE0000819012905950575019102950175039172
:100CF000010507190029F71500250195F8750181EF
:100D000002C00631FF0974A1010975150026FF0014
:100D10009520750881020976150026FF009520753B
:100D2000089102C005010980A10185021601002673
:100D300003001A81002A8300751095018100C00507
:100D40000C0901A1018503160100269C021A01006D
:100D50002A9C02751095018100C005010902A101BC
:100D60000901A100050919012905150025019505AD
:100D70007501810295017503810105010930093171
:100D80001581257F95027508810609381581257F13
:100D9000950175088106050C0A38021581257F9595
:100DA0000175088106C0C005010906A101050719E2
:100DB000E029E71500250195087501810295017567
:100DC000088101050819012905950575019102950C
:100DD00001750391010507190029FF150026FF0081
:100DE000950675088100C00011241FBECFEFDAE020
:100DF000DEBFCDBF04B603FE24C0809137029091C0
:100E00003802A0913902B0913A028730904BA74046
:100E1000B04BB9F410923702109238021092390296
:100E200010923A0214BE84B7877F84BF88E10FB660
:100E3000F89480936000109260000FBEE0E0F8E349
:100E4000099511E0A0E0B1E0E0E2F9E502C005900B
:100E50000D92A834B107D9F722E0A8E4B1E001C0AF
:100E60001D92A733B207E1F70E94A3250C948E2CA4
:100E70000C940000FF93EF93E0914801F091490139
:100E8000309709F00995EF91FF910895FC01859144
:100E9000803011F0EFDFFBCF0895FF27E0E230E272
:100EA00047FF0CC0419597FF09C0EDE26095709532
:100EB00080959095611D711D811D911D27FF02C0B8
:100EC000219530E350E2AA27660F771F881F991FEC
:100ED000AA1FA41710F0A41B63955A95A9F7AA306E
:100EE00008F0A95FA05DAF93F395611571058105C9
:100EF000910541F7ED3211F4EF93F395F21718F4E1
:100F00003F93F395FBCF8F91B5DFFA95E1F7089505
:100F1000E991F9918591803021F0853219F0AADFAD
:100F2000F9CF089520E0E89455915532C1F350333C
:100F300011F4689455915A3348F4505390F3220FAA
:100F4000022E220F220F200D250FF4CF0EF4219533
:100F500089919991533619F3533729F1533559F142
:100F6000BC0188279927E8945C3621F489919991EE
:100F700068945591543639F446EF7EF077FF0DC0F2
:100F80008FEF9FEF0AC055374AE039F0583540E1FE
:100F900021F0523642E009F00895FF93EF937DDF90
:100FA000EF91FF91B7CFFF93EF93FC0181918030D8
:100FB000B9F360DFFBCFFF93EF9368DFF1CFDF93EF
:100FC000CF93CDB7DEB72596A3DFCF91DF910895FC
:100FD00061110BC0FC018281882321F085EE0E9403
:100FE0004E1003C085EE0E94421180E090E008950B
:100FF00081E0089581E008950C94FA070E947F141F
:101000002FEF84E39CE0215080409040E1F700C046
:10101000000087E797E790930108809300080C94FD
:10102000541C0F931F93CF93DF938C01FC01C0815D
:10103000D181CE010E946919BE010E948009EC0194
:10104000B8010E94FC07882309F43DC1B801CE0114
:101050000E94EE0B882309F436C1B801CE010E942C
:10106000990D882309F42FC1C531FCE5DF0701F58F
:10107000F8018281882319F0C8EBD9E102C0CFEBD7
:10108000D9E10E942A1A8A7A11F085E301C089E227
:10109000FE0109950E94F71981E080934E0180932B
:1010A0004F01C801DF91CF911F910F910C94F80768
:1010B000C6318CE5D80708F09BC0C130ECE5DE07EF
:1010C00079F4F8018281882309F4FDC084ED93E06E
:1010D0000E9446078091ED0181608093ED01F3C08D
:1010E000C230FCE5DF0708F477C0F801828188236D
:1010F000C1F20E94AE1A811102C00E94941A0E948D
:10110000C11A90E09093290280932802FE01E350D7
:10111000FC45E231F10520F4EA5AFF4F0C943E2CD5
:1011200080912802816003C08091280282608093B0
:1011300028024BC0809128028460F9CF8091280258
:1011400013C0809128028061F2CF809128028062D2
:10115000EECF809128028064EACF809128028068D7
:10116000E6CF8091280284608860E1CF80912802D8
:101170008E7FDDCF809128028D7FD9CF809128028C
:101180008B7FD5CF8091280213C0809128028F7E5B
:10119000CECF809128028F7DCACF809128028F7B8D
:1011A000C6CF809128028F77C2CF809128028B7F93
:1011B000877FBDCF9091280297FB882780F921E097
:1011C000822780FB97F990932802809128020E9441
:1011D000C51A0E947F1477C0C115DC4509F05CCFA9
:1011E000F8018281882309F46EC00E94FE076BC05B
:1011F000C93CECE5DE0739F5F8018281882361F00E
:1012000010924F010E94ED1B90934D0180934C0171
:1012100080E20E94A31157C080914F0181110FC03D
:1012200080914C0190914D010E94051C883C9105D4
:1012300030F487E20E944E1087E20E94421180E261
:101240000E94AA1140C0CA3CFCE5DF0738F5C83C43
:10125000DC4509F021CFF8018281882351F01092FA
:101260004E010E94ED1B90934B0180934A0182E056
:10127000D0CF80914E0181110FC080914A01909191
:101280004B010E94051C883C910530F486E20E94C7
:101290004E1086E20E94421182E0D2CFCC3CECE5B7
:1012A000DE0731F4F8018281882369F080E009C00B
:1012B000CD3CDC4509F0F0CEF8018281882319F09D
:1012C00082E00E94412680E0DF91CF911F910F9133
:1012D00008950C943B0C0C943E0C282F882339F075
:1012E00090E02A3010F44D9608950697089587E20D
:1012F00090E0089508950C947A090C947B09089560
:101300009DE0799FF001112491E4899FE00DF11D8A
:101310001124E60FF11DEE0FFF1FE65BFE4F8591D6
:1013200094910895880F991F865B9E4FFC018591CB
:1013300094910895CF93DF932DE0729FF0011124D3
:1013400091E4899FE00DF11D1124E60FF11DEE0FD0
:10135000FF1FE65BFE4F859194910E94440BEC01C8
:10136000811520E49207C0F5C11580E3D80708F085
:10137000E5C0C03ED105D8F4C03CD10508F072C02C
:10138000C83AD10578F4C53AD10508F06FC0C1302C
:10139000D10509F475C108F42CC1C430D10508F099
:1013A0006FC127C1CD3BD10508F46BC022C1CF3F2F
:1013B000D10509F048F4C03FD10508F0B9C0C83ED6
:1013C000D10508F45DC115C1C11590E2D90708F433
:1013D00057C1CE019F70AEC0811524E59207D8F4A5
:1013E000C11583E5D80708F0E4C0C11591E5D90718
:1013F00040F4C11520E5D20708F0AAC0DF70D06A1A
:101400003FC1C11582E5D80708F0BEC0DC2FCC274C
:10141000C16FD06A35C1C11596E5D90750F4C11521
:1014200025E5D20708F0DAC0DC2FCC27C46FD06ADC
:1014300027C1C11588E5D80708F4DBC0C11599E5B7
:10144000D90708F4D1C0CE0190568115904208F01A
:10145000D0C08D2F8F710E94C00BDD27D0628F719D
:10146000D82B0EC1CE01805C910964C0C53AD1056C
:1014700009F4C2C0C63AD10509F4C1C0C3E8D0E43A
:10148000FFC0C83AD10509F4BDC0C93AD10509F475
:10149000BCC0CA3AD10509F4BBC0CB3AD10509F4A6
:1014A000BAC0CC3AD10509F4B9C0CB3BD10509F497
:1014B000B8C0CC3BD10509F4B7C0CD3AD10509F489
:1014C000B6C0C03BD10509F4B5C0CE3AD10509F488
:1014D000B4C0CF3AD10509F4B3C0C13BD10509F47A
:1014E000B2C0C23BD10509F4B1C0C33BD10509F478
:1014F000B0C0C43BD10509F4AFC0C53BD10509F468
:10150000AEC0C63BD10509F4ADC0C73BD10509F457
:10151000ACC0C83BD10509F4ABC0C93BD10509F447
:10152000AAC0CA3BD10509F0A9C0CAE2D6E4A8C046
:10153000D065A6C00E949209EC01A2C0CE019927F5
:10154000D3FF03C0EC01D86C9BC0EC01D06C98C0F9
:101550002C2F237081E090E002C0880F991F2A95FC
:10156000E2F79C689E0174E0369527957A95E1F73D
:101570002370922BCF70C695C69520E2C29FE001E2
:101580001124C82BD92B7CC08C2F8695869520E200
:10159000829FC00111249E0123703327C1E0D0E057
:1015A00002C0CC0FDD1F2A95E2F7C82BD92BDC68CF
:1015B00067C08C2F8695869520E2829FC0011124FA
:1015C0009E0123703327C1E0D0E002C0CC0FDD1FA5
:1015D0002A95E2F7C82BD92BDA6852C0CF71DD27E4
:1015E000DC2FCC27D0624CC0DC2FCC27C06FD06A58
:1015F00047C0C0E0D0E044C0C1E8D0E441C0C2E888
:10160000D0E43EC0C2EED4E43BC0C9EED4E438C05E
:10161000CAEED4E435C0C5EBD4E432C0C6EBD4E4A2
:101620002FC0C3EBD4E42CC0C4EBD4E429C0C7EB77
:10163000D4E426C0CCECD4E423C0CDECD4E420C068
:10164000C3E8D5E41DC0CAE8D5E41AC0C2E9D5E4B0
:1016500017C0C4E9D5E414C0C1E2D6E411C0C3E2A6
:10166000D6E40EC0C4E2D6E40BC0C5E2D6E408C09E
:10167000C6E2D6E405C0C7E2D6E402C0C0E0D4E4C6
:10168000CE01DF91CF9108958238910549F1B0F4F0
:101690008133910509F459C048F48932910509F460
:1016A0004FC08A32910509F455C0089585339105DC
:1016B00009F441C08933910599F00895833E91055D
:1016C00031F138F4803E910591F0823E9105A9F008
:1016D0000895863E910501F1873E910539F10895FF
:1016E0002091280220FD3BC021FD39C00895809142
:1016F000280280FF34C089E341C08091280282FF24
:1017000032C08091280284FF2CC080E037C08091D5
:10171000280282FD28C0F5CF8091280283FF25C0D2
:101720008091280284FDF1CF87EE28C080912802A5
:1017300083FD1BC0F5CF8091280285FF18C019C01A
:101740008091280285FF15C012C08091280286FF73
:1017500012C013C08091280286FF0FC00CC080EE1B
:101760000DC083EE0BC082EE09C086EE07C085E394
:1017700005C089E203C081E301C08AE290E00895D8
:10178000CF93C82F0E94C11A282F30E0309329022E
:101790002093280282FF0DC08C2F8871883019F4A5
:1017A000C77FC46006C08C2F8471843011F4CB7F56
:1017B000C86023FF0DC08C2F8871883119F4C77E53
:1017C000C46106C08C2F8471843111F4CB7EC86152
:1017D00024FDC77E8C2FCF9108950895CF93DF937A
:1017E000EC01FB018281811102C081E040C0809147
:1017F0005D01811125C0C631DC45B9F70E94ED0BB2
:1018000081E080935D010E94ED1B90935C018093C9
:101810005B011092500110925201109251011092EE
:1018200054011092530110925601109255011092DA
:1018300058011092570110925A011092590116C086
:1018400080915B0190915C010E94051C883C910590
:1018500060F680915001E82FF0E0EE0FFF1FEF5A85
:10186000FE4FD183C0838F5F8093500180E0DF9172
:10187000CF91089508950C943A0C08950C943D0C62
:1018800085B7806885BF85B7806885BFA2E1B1E074
:1018900021E030E08D91E82FE295EF70F0E041A17A
:1018A0008F70B90102C0660F771F8A95E2F7CB01EE
:1018B000962F9095492341A392A1982B92A371E072
:1018C000AF31B70739F7AFE1B1E021E030E08D91FA
:1018D000E82FE295EF70F0E041A18F70B90102C0EE
:1018E000660F771F8A95E2F7CB01962F90954923D3
:1018F00041A392A1982B92A371E0A432B70739F7C4
:10190000E8E6F1E0AEE5B1E0119211921D921D9270
:1019100081E0E237F807C1F70C9469092F923F92F2
:101920004F925F926F927F928F929F92AF92BF92EF
:10193000CF92DF92EF92FF920F931F93CF93DF939B
:1019400002E111E0212C312CEE24E394F12C5524FA
:101950005394E80189918E01E82FE295EF70F0E051
:1019600021A18F70A70102C0440F551F8A95E2F78D
:10197000CA01242B21A322A1742E7094272122A313
:1019800050EA5A95F1F76701022C02C0CC0CDD1C1D
:101990000A94E2F74601809490942FE131E0AEE59D
:1019A000B1E0612C5D014D915C911197E901499085
:1019B0009E01642D62956F7070E0EB0168A170E08C
:1019C000D42DDF700D2E02C0759567950A94E2F74D
:1019D00060FD04C0BA016C297D2903C0BA016821E9
:1019E000792111967C936E931296E5016881798135
:1019F0004617570711F066246394D1E024323D075F
:101A000089F691A1972191A392A1982B92A3662088
:101A100041F0509272010E94ED1B909374018093EB
:101A20007301EFEF2E1A3E0AFDE02F16310409F084
:101A300090CF809172018823B1F0809173019091D1
:101A400074010E94051C069770F0EEE5F1E0A8E62F
:101A5000B1E0819191918D939D9321E0E836F20759
:101A6000C1F7109272010E946B0981E0DF91CF9162
:101A70001F910F91FF90EF90DF90CF90BF90AF90AC
:101A80009F908F907F906F905F904F903F902F909E
:101A90000895E82FF0E0EE0FFF1FE859FE4F808118
:101AA00091810895CF92DF92EF92FF920F931F934F
:101AB000CF93DF9386EF93E00E94460738E6E32E4C
:101AC00031E0F32EC0E0D0E041EFC42E43E0D42E4D
:101AD00008EE13E0DF93CF93DF92CF920E94DF07EF
:101AE0008EEE93E00E944607F701819191917F016C
:101AF0000E947A1A9F938F931F930F930E94DF0780
:101B000086EE93E00E94460721968DB79EB7089611
:101B10000FB6F8949EBF0FBE8DBFC530D105D1F66C
:101B2000DF91CF911F910F91FF90EF90DF90CF90B9
:101B30000895CF93DF93EC01C13080E8D807C8F057
:101B4000FB0182818823A9F080917501811109C070
:101B50008CE090E00E94582C0E94BD0D81E08093A3
:101B600075010E94C40DCE019F770E94820E0E94D3
:101B70003A0E81E0DF91CF91089580937601682F2E
:101B80008CE090E00C94662CE0910001F091010152
:101B900080818093210281FF03C081EE0E94421167
:101BA0008091210285FF03C085EE0E944211809141
:101BB000210280FF03C080EE0E9442118091210229
:101BC00084FF03C084EE0E9442118091210282FFB3
:101BD00003C082EE0E9442118091210286FF03C061
:101BE00086EE0E9442118091210283FF03C083EEA2
:101BF0000E9442118091210287FF03C087EE0E945C
:101C00004211809176018130A1F078F0823011F19B
:101C1000843049F586EE0E944E1086EE0E944211F5
:101C200088E10E944E1088E11CC082EE0E944E1096
:101C30001AC080EE0E944E1081EE0E944E1088E184
:101C40000E944E1088E10E94421181EE0E944211D2
:101C500080EE07C082EE0E944E1087E50E944E1073
:101C600087E50E9442118FE39CE90197F1F700C0DC
:101C70000000089580917601813029F010F08230C3
:101C800041F482EE04C08CE20E944E108CE20E946D
:101C900042118091210281FF03C081EE0E944E100B
:101CA0008091210285FF03C085EE0E944E10809135
:101CB000210280FF03C080EE0E944E10809121021D
:101CC00084FF03C084EE0E944E108091210282FFA7
:101CD00003C082EE0E944E108091210286FF03C055
:101CE00086EE0E944E108091210283FF03C083EE96
:101CF0000E944E108091210287FF03C087EE0C9452
:101D00004E100895FF920F931F93CF93DF938C0192
:101D1000CCE0D0E0C8010C2E02C0969587950A94BD
:101D2000E2F7282F2F70F22E822F0E946D090E9459
:101D30004E108F2D0E946D090E9442112497CC3FB6
:101D40008FEFD80739F7DF91CF911F910F91FF9057
:101D5000089590937C0180937B010895E0917B012D
:101D6000F0917C01309721F00190F081E02D0994F1
:101D700080E00895FF920F931F93CF93DF938C0120
:101D8000E0917B01F0917C01309799F10280F38121
:101D9000E02D09958091ED0182FF2BC080FF04C0EA
:101DA00085E194E00E944607E80180E2F82E0FE00A
:101DB00014E08091ED0180FF0BC088811F928F930A
:101DC0001F930F930E94DF070F900F900F900F90BB
:101DD000FA942196F110EDCF8091ED0180FF09C0BA
:101DE0008DE094E0DF91CF911F910F91FF900C94C3
:101DF0004607DF91CF911F910F91FF900895E091D9
:101E00007B01F0917C01309721F00480F581E02D79
:101E1000099408952091790130917A0182179307EE
:101E200071F090937A0180937901E0917B01F091B8
:101E30007C01309721F00680F781E02D0994089508
:101E400020917701309178018217930771F0909378
:101E5000780180937701E0917B01F0917C013097CC
:101E600021F00084F185E02D0994089508950C94E3
:101E7000360F0E94E41B0E94400C0C94661CCF930A
:101E8000C82F8091ED0182FF1EC080FF04C08EE24A
:101E900094E00E9446078091ED0180FF0CC01F92E4
:101EA000CF9329E234E03F932F930E94DF070F90F6
:101EB0000F900F900F908091ED0180FF04C087E29A
:101EC00094E00E9446078C2FCF910C947D095F927D
:101ED0006F927F928F929F92AF92BF92CF92DF923A
:101EE000EF92FF920F931F93CF93DF93CDB7DEB79F
:101EF0002A970FB6F894DEBF0FBECDBF0E948E0C9E
:101F00009EE7C92E91E0D92E00E010E0AA24A39408
:101F1000B12C502E802F0E94490D3C01F601E1901A
:101F2000F1906F01E826F926E114F104B1F40F5F96
:101F30001F4F0530110569F78FEF89838A831B8254
:101F40000E94ED1B8160782F9D838C8349815A818B
:101F50006B818D810E9420103AC08091ED0181FD3E
:101F60000E94520D20E030E04501022E02C0880C94
:101F7000991C0A94E2F7C4018E219F21892B09F153
:101F80002E835F826820792081E0672809F480E051
:101F900088870E94ED1B8160782F9A8789874E8100
:101FA0005F8168858A850E942010F801EE0FFF1F6F
:101FB000E258FE4F80819181882599259183808305
:101FC00006C02F5F3F4F2D30310571F6B0CF0E9414
:101FD0007A1E10917D010E94AE0E1817D9F00E9452
:101FE000AE0E80937D012A960FB6F894DEBF0FBE29
:101FF000CDBFDF91CF911F910F91FF90EF90DF90B8
:10200000CF90BF90AF909F908F907F906F905F9098
:102010000C943F0F2A960FB6F894DEBF0FBECDBFCB
:10202000DF91CF911F910F91FF90EF90DF90CF90B4
:10203000BF90AF909F908F907F906F905F9008952A
:10204000CF93DF93CDB7DEB72B970FB6F894DEBFF3
:102050000FBECDBF4F83588769877A878B87DE0194
:10206000119686E0FD0111928A95E9F785E0FE015F
:10207000379601900D928A95E1F749815A816B81DB
:102080007C818D819E810E9449172B960FB6F89412
:10209000DEBF0FBECDBFDF91CF910895CF93DF9309
:1020A0001F92CDB7DEB7682F882309F4E7C08238C6
:1020B00079F40E94AE0E81FDE1C069E380910001D8
:1020C000909101010E94531B0E94F71969E310C00F
:1020D0008338C9F40E94AE0E80FDD0C063E58091C4
:1020E0000001909101010E94531B0E94F71963E5C2
:1020F00080910001909101010E945E1B0F90DF9181
:10210000CF910C94F719843879F40E94AE0E82FDB9
:10211000B5C067E480910001909101010E94531BBA
:102120000E94F71967E4E4CF8CEF860F813A70F4D0
:10213000862F69830E94CE21698181119FC0809181
:102140000001909101010E94531BD8CF80E2860FBD
:10215000883048F4677081E001C0880F6A95EAF71B
:102160000E942D1ACBCF8BE5860F833088F4653A19
:1021700029F0663A31F482E890E005C081E890E009
:1021800002C083E890E00F90DF91CF910C940A0F8A
:1021900088E5860F853108F071C0683A61F1693AC7
:1021A00069F16A3A71F16B3A79F16C3A81F16B3B02
:1021B00089F16C3B91F16D3A99F1603BA1F16E3A76
:1021C000A9F16F3AB1F1613BB9F1623BC1F1633BF7
:1021D000C9F1643BD1F1653BD9F1663BE1F1673B65
:1021E000E9F1683BF1F1693BF9F16A3B09F03FC065
:1021F0008AE292E03EC082EE90E03BC089EE90E041
:1022000038C08AEE90E035C085EB90E032C086EBB6
:1022100090E02FC083EB90E02CC084EB90E029C0CD
:1022200087EB90E026C08CEC90E023C08DEC90E032
:1022300020C083E891E01DC08AE891E01AC082E9DD
:1022400091E017C084E991E014C081E292E011C0EE
:1022500083E292E00EC084E292E00BC085E292E05D
:1022600008C086E292E005C087E292E002C080E00A
:1022700090E00F90DF91CF910C94200F0F90DF91A1
:10228000CF910895882309F45DC0823879F40E94C3
:10229000AE0E81FF57C069E380910001909101016A
:1022A0000E94531B0E94F71969E310C08338B1F4F0
:1022B0000E94AE0E80FF46C063E5809100019091C0
:1022C00001010E94531B0E94F71963E580910001F0
:1022D000909101010E945E1B0C94F719843879F4E7
:1022E0000E94AE0E82FF2EC067E4809100019091A3
:1022F00001010E94531B0E94F71967E4E7CF9CEF8E
:10230000980F913A10F4682FE1CF90E2980F98302F
:1023100050F4877091E001C0990F8A95EAF7892FF0
:102320000E94331AD9CF9BE5980F933020F480E0B8
:1023300090E00C940A0F885A853120F480E090E0F8
:102340000C94200F0895882321F00E942D1A0C94DC
:10235000F7190895882321F00E94331A0C94F71975
:1023600008958F929F92BF92CF92DF92EF92FF9249
:102370000F931F93CF93DF9300D0CDB7DEB74C01FF
:10238000472FFC01C580C2949FE0C922D280DD2086
:1023900031F079836A830E944A1A6A8149814983AC
:1023A0006A830E94F01949816A81882389F0DD20BF
:1023B00079F080E2860F883058F082E00E94D919C7
:1023C0000E94F019BB24B394B82649816A8101C0E8
:1023D000B12CE42EE2948FE0E822F12CF701E859C9
:1023E000FF4F0C943E2C842F807F142F1F70882366
:1023F00011F01295107FDD20C1F0112309F4DCC12A
:1024000080E2860F883010F0611105C0812F6A8349
:102410000E942D1A04C0812F6A830E943D1A6A818E
:102420006A830E94F7196A81C7C1862F6A830E9456
:1024300042116A81112309F4E0C180E2860F8830DD
:1024400010F0611104C0812F0E94331A03C0812F44
:102450000E94431A0E94F719D0C1242F207F842F95
:102460008F70203211F08295807F662319F06130E1
:10247000B9F022C0DD2049F0CC2009F452C1F1E0CE
:10248000CF124FC10E945D1AB8C1CC2021F021E0CB
:10249000C21609F4B2C189830E94601A898147C1BA
:1024A000DD2029F095E09C1508F4A7C13AC1E4E0CD
:1024B000EC1508F4A2C13BC1DD2051F0CC2009F499
:1024C00030C1F401958190FF77C19F70958329C138
:1024D000CC2009F42CC181C1242F26952695237088
:1024E00030E02115310521F02130310561F085C141
:1024F000DD2021F0862F942F937002C080E090E0C1
:102500000E940A0F8AC1DD2021F0862F942F93703C
:1025100002C080E090E00E94200F7FC1DD20F9F032
:10252000653F51F0663F71F0643FA9F4809122024B
:102530009091230281600BC080912202909123022E
:10254000826005C080912202909123028460909362
:10255000230280932202862F0E94001D22C0653F25
:1025600051F0663F91F0643FC9F48091220290914E
:1025700023028E7F05C080912202909123028D7FDD
:10258000909323028093220209C02091220230916D
:1025900023022B7F3093230220932202862F0E9456
:1025A000681D0E94ED1D39C1842F837009F04EC053
:1025B000D1102FC1262F229526952770220F220F8A
:1025C000862F8F70C82ED12CE12CF12C022E04C046
:1025D000CC0CDD1CEE1CFF1C0A94D2F764FF10C06B
:1025E0006FE070E080E090E004C0660F771F881F06
:1025F000991F2A95D2F7609570958095909503C0A4
:1026000060E070E0CB01242F26952695237030E002
:102610002230310569F02330310589F06C297D299C
:102620008E299F292130310571F00E949818F1C040
:102630006C297D298E299F290E94AA18EAC00E9430
:102640009818C701B6010E948618E3C0DD2019F072
:10265000842F817001C08695882309F4DAC0262F63
:10266000229526952770220F220F862F8F70C82E55
:10267000D12CE12CF12C022E04C0CC0CDD1CEE1C64
:10268000FF1C0A94D2F764FF10C06FE070E080E096
:1026900090E004C0660F771F881F991F2A95D2F714
:1026A000609570958095909503C060E070E0CB01D7
:1026B000242F26952695237030E02230310569F0CD
:1026C0002330310589F06C297D298E299F292130FD
:1026D000310571F00E9444199CC06C297D298E2916
:1026E0009F290E94561995C00E944419C701B6013E
:1026F0000E9432198EC0062F10E0F801E05EF10949
:10270000E531F10508F054C0E858FF4F0C943E2C19
:10271000162F1F70842F8F71DD2031F00E94DD187D
:10272000812F0E94A31169C00E94F818812F0E9476
:10273000AA1163C0DD2049F0F4E0FC1508F45DC087
:10274000842F8F710E94171958C025E02C1508F4AA
:1027500054C0F6CFDD2039F0842F8F710E94DD1830
:102760004CC0DD20C9F3842F8F710E94F81845C03A
:10277000DD2029F0842F8F710E94CE183EC00E9468
:10278000C9183BC0DD2051F0142F1F71812F0E940A
:10279000DD1863E0812F0E94D0192FC081E00E94D4
:1027A000D91981E08C1548F582E00E94D91925C01D
:1027B000DD2031F0CC2081F2862F0E944E101DC00A
:1027C000CC2089F2693349F49FEFE7EEF3E09150B2
:1027D000E040F040E1F700C00000862F0E94421167
:1027E0000CC04F70C4010E94E8070E94F61715C084
:1027F0004F70C4010E947F0910C028E0E216F10466
:1028000041F05CF09AE0E91AF108E2E0EE16F1041A
:1028100020F40E94AE0E0E947D09BB20F1F00E94C0
:10282000CC1980FD1AC0F40112820E94C6190E94C0
:10283000DD18C4010E943B140E94C6190F900F902E
:10284000DF91CF911F910F91FF90EF90DF90CF908C
:10285000BF909F908F900C94F8180F900F90DF917D
:10286000CF911F910F91FF90EF90DF90CF90BF908D
:102870009F908F9008950F931F93CF93DF93EC0158
:10288000288139818B819C81892B31F03F3F11F068
:1028900080E003C02F3FE1F781E0811113C0CE013A
:1028A0000E941108882371F0688179818A810E94D1
:1028B000B4198C010E9468190E948318B801CE01D6
:1028C0000E94B111DF91CF911F910F9108950E9445
:1028D0004A1A0E945A1A80910001909101010E94A7
:1028E000691B0E94F7190E941B1F0E94ED1D80E0CA
:1028F00090E00E940A0F80E090E00C94200F0E946C
:102900003A1A0C9467140E94A919E92FE295EF7006
:10291000F0E03297EE30F105B8F4E357FF4F0C9436
:102920003E2C803F59F018F4803E70F407C0843F7D
:1029300059F404C0803E10F0813F31F481E00895E5
:1029400093FB882780F9089580E00895CF93DF9363
:1029500000D000D01F92CDB7DEB70F900F900F9030
:102960000F900F90DF91CF910895CF93DF9300D018
:1029700000D000D0CDB7DEB726960FB6F894DEBFF4
:102980000FBECDBFDF91CF9108951F93CF93DF93FB
:10299000C091880116E080918901C81799F0D0E0B4
:1029A0001C9FF0011D9FF00D1124E657FE4F408142
:1029B000518162817381848195810E94B514219631
:1029C000C770E9CFDF91CF911F9108954091BA016F
:1029D0005091BB016091BC017091BD018091BE011D
:1029E0009091BF010C94B514CF938091BF01829553
:1029F0008F7009F05FC08091BC01882309F45AC030
:102A000020918801A09189016091BA017091BB0168
:102A10008091BD019091BE0131E06F3F09F030E03F
:102A2000B32FC6E02A1709F445C0009721F07F3F75
:102A300021F44B2F03C041E001C040E030E040FDF5
:102A400035C0C29FF001C39FF00D1124E657FE4F21
:102A5000418174132BC04081641328C0428141110D
:102A600025C0438154814817590710F4415051093A
:102A7000481B590B483C5105C8F48091BF018F7029
:102A800080618093BF0186E0829FF001839FF00DFB
:102A90001124E157FE4F80818F70806180838AEB23
:102AA00091E00E943B14CF910C94C5142F5F3F4FCF
:102AB0002770B8CFCF910895CF92DF92EF92FF9217
:102AC0000F931F93CF93DF93CDB7DEB762970FB607
:102AD000F894DEBF0FBECDBF8C0185E0F801DE01AA
:102AE0001D9601900D928A95E1F7D8014C911196AF
:102AF0005C91119712966C9112971396ED90FC9041
:102B000014977091BA01E091BB012091BD01309101
:102B1000BE012115310531F0EF3F31F481E07F3FF7
:102B200019F403C081E001C080E0B82FB170CB2E52
:102B300080FD6CC1D090BC01DD2009F4F5C0F0919E
:102B4000BF01E216F30638F0C701821B930B883CE5
:102B5000910548F09BC0209530952E0D3F1D283CD7
:102B6000310508F093C08F2F807F09F052C0E51324
:102B700014C0741312C0D62E61110FC0FF70F06123
:102B8000F093BF010E94E6148AEB91E00E943B148F
:102B90008091BF01F80185836CC1EF2831F05F3F60
:102BA00031F481E04F3F19F403C081E001C080E0BF
:102BB00080FD03C081E0862701C080E0F82FF1701E
:102BC000FF2E80FF1CC0809188012091890136E092
:102BD000821709F428C190E0389FF001399FF00D69
:102BE0001124E657FE4F7181571306C070814713B9
:102BF00003C07281671303C001968770E9CFD62E98
:102C0000662309F436C18091BF0181608093BF01C2
:102C100053C0E51308C0741306C0611104C0D80185
:102C20001596FC93AEC04D875E878D859E856A8B19
:102C30000E9483146A89882329F1D62E662311F114
:102C40002091BF01822F82958F7090E002970CF443
:102C500060C08091BA019091BB0198878F831986DB
:102C6000FB86EA862C87CE01079651C0E51731F125
:102C70004D875E878D859E856A8B0E9483146A8945
:102C800081112EC0C8010E943B14A4C08F2F807FE9
:102C900069F77E2DF98AE88A89890E94A6148AEB51
:102CA00091E00E943B14EAEBF1E086E0DF011D9227
:102CB0008A95E9F70E94E614D12CDBC07413D8CFB3
:102CC0006111D6CFD8011596FC93C8010E943B1420
:102CD000EAEBF1E086E0DF011D928A95E9F7C9C0D1
:102CE000D62E662379F22091BF01822F82958F70B4
:102CF00090E0029774F08091BA019091BB019A83A1
:102D000089831B82FD82EC822E83CE0101960E9474
:102D10003B1486E0F801AAEBB1E001900D928A9590
:102D2000E1F70E94F4146FC0E216F30628F0C70121
:102D3000821B930B9C0104C0209530952E0D3F1DE6
:102D4000283C310508F052C0D62E662309F49ACFEC
:102D5000E5132CC074132AC08091BF0180FD1DC0F3
:102D6000982F92959F70C9F0D80115968C9315975E
:102D70009F3039F09F5F9295907F8F70892B1596C9
:102D80008C93C8010E943B1486E0F801AAEBB1E0E5
:102D900001900D928A95E1F736C086E0F801AAEB22
:102DA000B1E001900D928A95E1F763C04D875E878F
:102DB0008D859E850E948314882379F086E0F80132
:102DC000AAEBB1E001900D928A95E1F70E94F4140C
:102DD0000E94E614DD24D3944CC08091BF01816031
:102DE0008093BF01C8010E943B1443C07E2DF98A25
:102DF000E88A89890E94A614EAEBF1E086E0DF0107
:102E00001D928A95E9F70E94E61433C0662309F4FF
:102E100039CF4D875E878D859E850E9483148823D8
:102E200009F430CFCBCF4D875E878D859E850E947C
:102E3000A919292F22952F7030E0223031052CF46A
:102E40009F7041F0811106C00CC0243031052CF474
:102E50009F7049F4805E883020F0C8010E943B14C6
:102E6000CF2CDC2C06C0D80115969C91907F91F751
:102E7000F8CF8D2D62960FB6F894DEBF0FBECDBF92
:102E8000DF91CF911F910F91FF90EF90DF90CF9046
:102E900008951F93CF93DF93CDB7DEB72C970FB66E
:102EA000F894DEBF0FBECDBF4F83588769877A87FE
:102EB0008B879C87CE0107960E945C158823C1F002
:102EC0002F8138858A859B85892B31F03F3F11F012
:102ED00080E003C02F3FE1F781E0811147C04F81BF
:102EE000588569857A858B859C850E94B5143EC07E
:102EF00086E0FE013796DE01119601900D928A95CB
:102F0000E1F7FF81E8854A855B854115510531F080
:102F1000EF3F31F481E0FF3F19F403C081E001C0CD
:102F200080E080FD23C02091890130E0C901019635
:102F3000877099276091880170E086179707F1F1F3
:102F4000F983EA835D834C8396E0929FD001939F3F
:102F5000B00D1124A657BE4FFE01319601900D927F
:102F60009A95E1F7809389010E94C51416E080913B
:102F7000880190918901891779F1189FC001112466
:102F800086579E4F0E945C15882331F1E09188019D
:102F90001E9FF0011124E657FE4F4081518162814E
:102FA0007381848195810E94B5148091880190E09D
:102FB00001968770992780938801D9CF0E947F144A
:102FC0001092890110928801EAEBF1E086E0DF01BE
:102FD0001D928A95E9F7CACF2C960FB6F894DEBFFA
:102FE0000FBECDBFDF91CF911F910895EF92FF9259
:102FF0000F931F93CF93DF93FC01009709F46FC0E9
:10300000F12CEE24E394EF0121968491843740F46F
:10301000843008F055C0813081F0823021F15FC0EA
:10302000853709F447C0C0F19CE7980F903708F046
:1030300056C08F770E94421145C08F010E5F1F4F0F
:10304000FE01849190E2980F983050F48770FE2D25
:1030500001C0FF0F8A95EAF78F2F0E944D1A15C005
:103060000E944E1014C08F010E5F1F4FFE0184910D
:1030700090E2980F983068F48770FE2D01C0FF0F22
:103080008A95EAF78F2F0E94531A0E94F719E801D8
:1030900019C00E944211FBCFCF010296FE01C491DC
:1030A000CC2361F0EFE9FFE03197F1F700C00000B9
:1030B000C150F6CFCF010296FE01F490EC0102C0A0
:1030C0000E944E108F2D882341F0EFE9FFE03197E9
:1030D000F1F700C000008150F6CFFE0194CFDF91E0
:1030E000CF911F910F91FF90EF90089508950E9446
:1030F00076186093C4017093C5018093C6019093C4
:10310000C7010C94671408950C9477180F931F93BC
:103110000091C4011091C5012091C6013091C701F1
:10312000602B712B822B932B1F910F910C9477188E
:103130000F931F930091C4011091C5012091C60106
:103140003091C70160237123822393231F910F9134
:103150000C9477180F931F930091C4011091C5012F
:103160002091C6013091C7016027712782279327DC
:103170001F910F910C94771808950E94BC186093CA
:10318000C0017093C1018093C2019093C3010C945C
:10319000671460E070E0CB010C94BD1841E050E092
:1031A00060E070E004C0440F551F661F771F8A95CA
:1031B000D2F7CB01BA010C94BD1841E050E060E0B9
:1031C00070E004C0440F551F661F771F8A95D2F721
:1031D0008091C0019091C101A091C201B091C30141
:1031E000482B592B6A2B7B2BCB01BA010C94BD18B1
:1031F00041E050E060E070E004C0440F551F661FDE
:10320000771F8A95D2F7409550956095709580917B
:10321000C0019091C101A091C201B091C3014823A6
:1032200059236A237B23CB01BA010C94BD1841E0DA
:1032300050E060E070E004C0440F551F661F771F28
:103240008A95D2F78091C0019091C101A091C201ED
:10325000B091C301482759276A277B27CB01BA01C0
:103260000C94BD180F931F930091C0011091C101E0
:103270002091C2013091C301602B712B822B932BC3
:103280001F910F910C94BD180F931F930091C001D3
:103290001091C1012091C2013091C30160237123BB
:1032A000822393231F910F910C94BD180F931F93AA
:1032B0000091C0011091C1012091C2013091C30160
:1032C00060277127822793271F910F910C94BD18B7
:1032D0000895CF92DF92EF92FF920F931F93CF93B7
:1032E000DF93EC01C090C401D090C501E090C6010D
:1032F000F090C7018091C0019091C101A091C201DD
:10330000B091C301C82AD92AEA2AFB2A0FE110E0AA
:10331000B701A601002E04C076956795579547958D
:103320000A94D2F740FD05C00150110988F780E0EA
:1033300007C0BE01802F0E949A090197A9F3802F30
:10334000DF91CF911F910F91FF90EF90DF90CF9081
:103350000895CF93DF93EC010E946919BE010E948A
:103360009A09DF91CF910895CB010E94A919089580
:10337000682F80910001909101010C94531B682FDC
:1033800080910001909101010C945E1B8091C80115
:1033900085958595859508958091C80187700895D4
:1033A00098E0899F90011124622B6093C8010C94CE
:1033B000DD184091C801809584238093C801982F1F
:1033C000977069F450E0282F332727FD3095421776
:1033D000530729F08595859585950C94F8180895DF
:1033E0009091C801977081E009F480E00895E09120
:1033F0000001F09101018091EC018083E0910001D6
:10340000F091010180819091EB01892B8083E09103
:103410000001F091010180819091EA01892B808364
:103420009091C901992381F0E0910001F09101018F
:103430008081892B808380910001909101010E94FD
:10344000CA1A81111092C901809100019091010165
:103450000C94BA0E8091EC0108959091EC01982B98
:103460009093EC01089580959091EC0198239093AE
:10347000EC0108951092EC0108959091EB01982BC6
:103480009093EB01089580959091EB019823909390
:10349000EB0108951092EB0108959091EA01982BA9
:1034A0009093EA01089580959091EA019823909372
:1034B000EA0108951092EA0108958093C9010895E0
:1034C0001092C9010895909349018093480108958D
:1034D0008295982F9C7C96959695837344E0849F63
:1034E00090011124922B892F8A7A86959575990FD0
:1034F000892B08951F93CF93DF931F92CDB7DEB72B
:1035000099830E94681A182F9981892F0E94681A3E
:10351000212F30E0322F2227A901482BCA010F901A
:10352000DF91CF911F9108956DEE7EEF80E090E0E6
:103530000E94782C60E082E090E00E94662C60E0BF
:1035400083E090E00E94662C60E084E090E00E94BE
:10355000662C60E085E090E00C94662C80E090E0C2
:103560000E94602C21E08D3E9E4F09F020E0822FCA
:10357000089582E090E00C94582C83E090E00C9445
:10358000582C84E090E00C94582C682F84E090E054
:103590000C94662C20E030E040E0FC01E20FF31FC9
:1035A000518151114F5F2F5F3F4F2F313105A9F7E7
:1035B000842F089520E030E04FEFFC01E20FF31F6D
:1035C0005281561799F04F3F19F4511101C0422F03
:1035D0002F5F3F4F2E31310581F74F3F39F0FC010E
:1035E000E40FF11D47FDFA9562830895089520E0E8
:1035F00030E0FC01E20FF31F4281461301C012824A
:103600002F5F3F4F2E313105A1F70895262F2695C4
:10361000269526952F3178F4FC01E20FF11D677095
:1036200021E030E0062E01C0220F0A94EAF78181E2
:10363000822B818308958091ED0180FF0CC01F9241
:103640006F938FE594E09F938F930E94DF070F9015
:103650000F900F900F900895262F2695269526956A
:103660002F3180F4FC01E20FF11D677021E030E0A2
:10367000062E01C0220F0A94EAF7209581812823A3
:10368000218308958091ED0180FF0CC01F926F93FC
:1036900081E494E09F938F930E94DF070F900F9037
:1036A0000F900F90089520911101222329F020916D
:1036B000280227FD0C94061B0C94DA1A20911101A4
:1036C000222329F02091280227FD0C942C1B0C9416
:1036D000F71A20E030E0FC01E20FF31F11822F5FA8
:1036E0003F4F2F313105B9F7089580912E02843074
:1036F00021F11092EE0120E488E190E00FB6F894F9
:10370000A895809360000FBE2093600080E00E9427
:103710007D0983B7817F846083BF83B7816083BF66
:103720007894889583B78E7F83BF88E10FB6F8942D
:1037300080936000109260000FBE08950895089570
:10374000CF930E949E1B0E948E0C0E949F1BC0E084
:103750008C2F0E94490D892B29F4CF5FC530C1F70A
:1037600080E001C081E0CF9108950E947F140E9403
:10377000AE0E0C947D091F920F920FB60F9211247A
:103780008F939F93AF93BF938091EE01811113C0EC
:103790008091240290912502A0912602B0912702E7
:1037A0004196A11DB11D8093240290932502A09300
:1037B0002602B0932702BF91AF919F918F910F90F6
:1037C0000FBE0F901F90189582E084BD93E095BDC9
:1037D0009AEF97BD80936E0008952FB7F89480916B
:1037E000240290912502A0912602B09127022FBFBA
:1037F00008952FB7F894609124027091250280916A
:103800002602909127022FBF0895CF92DF92EF9268
:10381000FF920F931F932FB7F89440912402509179
:10382000250260912602709127022FBF6A017B0159
:10383000EE24FF248C0120E030E0C016D106E20621
:10384000F30610F441505109481B590BCA011F914E
:103850000F91FF90EF90DF90CF90089578941F9292
:103860000F920FB60F9211248F939F93AF93BF9334
:103870008091240290912502A0912602B091270206
:103880000196A11DB11D8093240290932502A0935F
:103890002602B0932702BF91AF919F918F910F9015
:1038A0000FBE0F901F90189587E797E79093010838
:1038B000809300082AE088E190E00FB6F894A8957C
:1038C000809360000FBE20936000FFCF0E94AE1A6D
:1038D000811102C00E94941A0E94B91A8093ED01CE
:1038E0000E94C11A90E090932902809328020E94BE
:1038F000BD1A682F70E080E090E00C9484188091ED
:10390000F20180FF0BC06091050185E0689FB00166
:10391000112475956795759567952AC081FF09C033
:103920006091050185E0689FB00111247595679548
:103930001FC082FF07C06091050185E0689FB0014C
:10394000112416C04091F3014423C9F06091040191
:10395000461788F72091050185E0289F90011124E2
:10396000429FC001439F900D112470E00E942A2CB9
:103970006038710540F46115710539F002C065E0E9
:1039800070E0862F08958FE7089581E00895809173
:10399000F20180FF08C06091030170E075956795A2
:1039A0007595679521C081FF06C06091030170E0A5
:1039B0007595679519C082FF04C06091030170E09E
:1039C00010C08091F3018823C1F060910201861735
:1039D000A0F790910301989FC001112470E00E940C
:1039E0002A2C6038710528F46115710521F0862FA5
:1039F00008958FE7089581E0089561E070E0F4CFC5
:103A0000803F21F40E947F1C819504C0813F29F4EE
:103A10000E947F1C8093F6010895823F21F40E944A
:103A20007F1C819504C0833F29F40E947F1C8093F2
:103A3000F5010895893F19F40E94C71C05C08A3F0B
:103A400031F40E94C71C81958093F70108958B3F44
:103A500021F40E94C71C819504C08C3F29F40E9468
:103A6000C71C8093F8010895843F21F48091F401EC
:103A7000816017C0853F21F48091F401826011C0FC
:103A8000863F21F48091F40184600BC0873F21F4CC
:103A90008091F401886005C0883F31F48091F40181
:103AA00080618093F40108958D3F21F48091F201AB
:103AB00081600BC08E3F21F48091F201826005C0CD
:103AC0008F3F29F48091F20184608093F201089580
:103AD000803F39F48091F60187FF6CC01092F601A7
:103AE00069C0813F29F48091F6011816BCF362C0C9
:103AF0009091F501823F29F497FF5CC01092F50187
:103B000059C0833F19F41916CCF354C0893F41F4CE
:103B10008091F70118160CF04DC01092F7014AC0C1
:103B20008A3F29F48091F70187FF44C0F6CF8B3F8D
:103B300039F48091F80187FF3DC01092F8013AC036
:103B40008C3F29F48091F8011816BCF333C0843FF0
:103B500021F48091F4018E7F17C0853F21F480917C
:103B6000F4018D7F11C0863F21F48091F4018B7F99
:103B70000BC0873F21F48091F401877F05C0883F07
:103B800031F48091F4018F7E8093F40113C08D3F56
:103B900021F48091F2018E7F0BC08E3F21F4809141
:103BA000F2018D7F05C08F3F29F48091F2018B7F58
:103BB0008093F2018091F50181110EC08091F60190
:103BC00081110AC08091F701811106C08091F8012E
:103BD000811102C01092F30108958091ED0183FFDD
:103BE0007EC084EA94E00E9446078091F4011F920F
:103BF0008F938FE994E09F938F930E94DF078DE965
:103C000094E00E9446072091F501822F992787FDB5
:103C100090959F932F938AE994E09F938F930E94AE
:103C2000DF0788E994E00E9446072091F601822F81
:103C3000992787FD90959F932F9385E994E09F9313
:103C40008F930E94DF0783E994E00E94460720914A
:103C5000F701822F992787FD90959F932F9380E9F5
:103C600094E09F938F930E94DF078EE894E00E9478
:103C700046072091F801822F992787FD90959F9301
:103C80002F938BE894E09F938F930E94DF0788E83F
:103C900094E00E9446078091F3011F928F9385E87C
:103CA00094E09F938F930E94DF0783E894E00E9443
:103CB00046078091F2011F928F9380E894E09F93D2
:103CC0008F930E94DF078DE794E00E9446078DB72F
:103CD0009EB74C960FB6F8949EBF0FBE8DBF84EF73
:103CE00091E00E94FF0E0E94ED1B9093F0018093E3
:103CF000EF0108951F93CF93DF938091EF0190918F
:103D0000F0010E94051C4091F301442321F0209111
:103D1000060130E006C02091F1015AE0259F900194
:103D200011248217930708F482C08091F501109145
:103D3000F601D091F701C091F801811107C011116E
:103D400005C0D11103C0CC2309F471C04F3F19F055
:103D50004F5F4093F301181624F40E947F1C809358
:103D6000F5018091F50187FF05C00E947F1C8195B8
:103D70008093F501111624F40E947F1C8093F601B4
:103D80008091F60187FF05C00E947F1C819580937A
:103D9000F6016091F501662339F11091F6011123C6
:103DA00019F1772767FD7095872F972F0E942F2B8A
:103DB00023E333E343E35FE30E94932B0E94FC2A57
:103DC0006093F501612F772767FD7095872F972FF7
:103DD0000E942F2B23E333E343E35FE30E94932B03
:103DE0000E94FC2A6093F6011D1624F40E94C71C51
:103DF0008093F7018091F70187FF05C00E94C71CDF
:103E000081958093F7011C1624F40E94C71C8093AF
:103E1000F8018091F80187FF05C00E94C71C8195B9
:103E20008093F801DF91CF911F910C94ED1DDF91EC
:103E3000CF911F910895E4EFF1E085E0DF011D923D
:103E40008A95E9F71092F3011092F201089587EC38
:103E500096E00E9446071F9281E08F931F9285E0B3
:103E60008F9389E796E09F938F930E94DF070F90CF
:103E70000F900F900F900F900F9008958330E9F1FD
:103E800028F4813061F0823009F10895853009F419
:103E900062C008F449C0863009F474C008952091C6
:103EA000F101862F90E0820F911D8F3F910520F444
:103EB000620F6093F10103C08FEF8093F101809155
:103EC000F1011F928F9382EB95E072C02091060161
:103ED000862F90E0820F911D8F3F910520F4620F95
:103EE0006093060103C08FEF809306018091060165
:103EF0001F928F9380EA95E05BC020910501862F89
:103F000090E0820F911D8F3F910520F4620F609326
:103F1000050103C08FEF80930501809105011F9279
:103F20008F938DE895E044C020910401862F90E0A6
:103F3000820F911D8F3F910520F4620F6093040161
:103F400003C08FEF80930401809104011F928F932F
:103F500088E795E02DC020910301862F90E0820F25
:103F6000911D8F3F910520F4620F6093030103C000
:103F70008FEF80930301809103011F928F938FE550
:103F800095E016C020910201862F90E0820F911DCE
:103F90008F3F910520F4620F6093020103C08FEF01
:103FA00080930201809102011F928F9384E495E037
:103FB0009F938F930E94DF070F900F900F900F90A9
:103FC0000895833081F128F4813059F08230D1F0A6
:103FD0000895853009F449C0B8F1863009F456C017
:103FE00008958091F101681720F4861B8093F101F8
:103FF00002C01092F1018091F1011F928F9385E32D
:1040000095E054C080910601681720F4861B8093C8
:10401000060102C010920601809106011F928F9343
:1040200083E295E043C080910501681720F4861B68
:104030008093050102C010920501809105011F9235
:104040008F9380E195E032C080910401681720F4DD
:10405000861B8093040102C0109204018091040128
:104060001F928F938BEF94E021C08091030168171A
:1040700020F4861B8093030102C0109203018091FB
:1040800003011F928F9382EE94E010C08091020191
:10409000681720F4861B8093020102C0109202016F
:1040A000809102011F928F9387EC94E09F938F93EE
:1040B0000E94DF070F900F900F900F900895CF93FD
:1040C000C82F1F928F932CEC37E03F932F930E94C1
:1040D000DF0761E070E080E090E004C0660F771FCA
:1040E000881F991FCA95D2F70E9484180F900F90CD
:1040F0000F900F90CF910C947F14CF938732A8F537
:104100008E3108F02EC1803109F49DC0F8F487305B
:1041100009F465C0A8F4863009F029C18091ED0149
:10412000817F8E7F8093ED0184E799E00E944607AE
:1041300085ED9BE00E94460781E08093FA014DC027
:104140008B30F1F18E3009F46BC011C1863109F466
:10415000ADC020F4813109F4EDC009C1893109F401
:104160008EC08B3109F449C002C1883349F150F443
:10417000893209F4F8C0853309F4F5C0873209F4AF
:10418000F2C0F5C0833409F4EEC028F48A3308F491
:10419000EEC08953E9C0883409F0E9C00E947F1459
:1041A00089EB9BE00E9446072FEF83ED90E32150BF
:1041B00080409040E1F700C000000E94541C0DC0F8
:1041C0008BE999E059C080EA9BE00E944607809104
:1041D000ED01897F877F8093ED01C1E0CDC08091A3
:1041E000ED01C82FC095C170C0FB80F98093ED012F
:1041F000CC2349F38DEA9BE0AEC08091ED0181FBB9
:10420000CC27C0F991E0C927C0FB81F98093ED016B
:10421000CC2319F083E99BE025C085E89BE02CC006
:104220008091ED0182FBCC27C0F991E0C927C0FB4A
:1042300082F98093ED01CC2319F086E79BE012C050
:1042400086E69BE019C08091ED0183FBCC27C0F985
:1042500091E0C927C0FB83F98093ED01CC2351F095
:104260008AE59BE00E9446078091ED018160809382
:10427000ED0182C08DE49BE00E944607AECF85E64B
:1042800099E00E94460788E399E00E94460781E092
:1042900099E00E9446078BEB98E00E94460780E871
:1042A00098E00E94460782E598E0E6CF84E498E033
:1042B0000E9446070E94AE0E1F928F938AE298E0FA
:1042C0009F938F930E94DF07809111011F928F931C
:1042D00083E198E09F938F930E94DF0780911F02F4
:1042E0001F928F9380E098E09F938F930E94DF0747
:1042F0008091280287FB882780F91F928F9388EE90
:1043000097E09F938F930E94DF070E94F91B9F9372
:104310008F937F936F9381ED97E09F938F930E948C
:10432000DF078DB79EB746960FB6F8949EBF0FBEB7
:104330008DBF53CF0E947F148091280287FBCC272A
:10434000C0F991E0C927C0FB87F980932802CC23EC
:1043500029F083E49BE00E9446070EC088E39BE0BF
:104360008BCF8D5101C080E00E945F2036CF86E365
:104370009BE00E944607C0E08C2FCF91089580E01B
:10438000089580E008958E518A3030F4E82FF0E0EF
:10439000EC5DFE4F8081089580E00895CF93C82F93
:1043A0008091FA01813071F020F0823009F448C028
:1043B0003AC1E0910001F09101018081823209F05F
:1043C00034C107C0E0910001F09101018081823287
:1043D00049F48C2F0E94BF2181112FC08C2F0E9485
:1043E0007D202CC08C2F0E94C121811126C0C43198
:1043F000E1F070F4CB3081F0C031D1F40E94271F7E
:1044000084EC97E00E94460782E08093FA0115C091
:10441000C93259F0C83361F484E799E00E94460735
:1044200088EC97E00E94460708C01092FA01FFC08E
:1044300082EC97E00E944607FAC081E08170F9C0E3
:10444000C43218F5CE3108F0BFC0CB3091F1C0F4C2
:10445000C73009F0CEC01092F10184E180930601CB
:1044600094E0909305018093040188E08093030118
:1044700088E28093020188E696E00E944607BCC06D
:10448000C33149F1C431C1F0B4C0CB3409F4A6C082
:1044900028F4C93289F0C83361F0ABC0C13509F4E2
:1044A0009BC0C23509F496C0CE3409F0A2C06AE0C0
:1044B0009BC00E94271FA0C08091F901882319F09A
:1044C0001092F90199C085E796E00E94460781E0C5
:1044D0008093FA01AEC08FE496E00E9446078DE318
:1044E00096E00E9446078091F1011F928F938AE324
:1044F00096E09F938F930E94DF0788E396E00E94E7
:10450000460786E296E00E944607809106011F92C8
:104510008F9383E296E09F938F930E94DF0781E25F
:1045200096E00E94460782E196E00E94460780914D
:1045300005011F928F938FE096E09F938F930E94C7
:10454000DF078DE096E00E9446078CEF95E00E9421
:104550004607809104011F928F9389EF95E09F9306
:104560008F930E94DF0787EF95E00E94460782EE57
:1045700095E00E944607809103011F928F938FED73
:1045800095E09F938F930E94DF078DED95E00E9449
:10459000460786EC95E00E944607809102011F9233
:1045A0008F9383EC95E09F938F930E94DF0781ECBC
:1045B00095E00E9446078DB79EB748960FB6F894CF
:1045C0009EBF0FBE8DBF18C08C2F0E94C321809349
:1045D000F90112C061E003C061E006C06AE08091A9
:1045E000F9010E943E1F08C08091F9010E94E11F5D
:1045F00003C086E696E013C08091F901882369F034
:104600001F928F9380E696E09F938F930E94DF071F
:104610000F900F900F900F9004C08DE596E00E94D0
:10462000460781E006C01092FA0180E002C080E0F7
:1046300005CFCF91089580911E0208959FB7F894F9
:104640001092FD019FBF90912E02943009F058C046
:104650009091E9009F702091EC0020FF02C020E8BB
:1046600001C020E0292B94E09093E9009091EB00A9
:1046700090FF43C09091EE0097FF3FC09091FB01E7
:10468000992321F09091E80095FF37C01092FB012B
:1046900096E03091E80035FD15C030912E0234309F
:1046A00061F53091EB0035FD28C0915021F481E097
:1046B0008093FB0122C0EFE9FFE03197F1F700C0E2
:1046C0000000E7CF8093F1008091E80085FD0AC0EB
:1046D0008091E80080FFFCCF8091E8008E77809386
:1046E000E80006C08FB7F89491E09093FD018FBF6A
:1046F0002F702093E90080E008952F702093E90047
:104700008FEF08950F931F93CF93DF9300D01F92E5
:10471000CDB7DEB78C010E945126823011F0843073
:1047200019F583E089831B830A838093E9008FEF67
:104730009091E800815095FD06C095ED9A95F1F7AE
:1047400000008111F5CF8091E80085FF0DC040E0A9
:1047500050E063E070E0CE0101960E946E268091E9
:10476000E8008E778093E8000F900F900F90DF9114
:10477000CF911F910F910895CF93DF9300D01F9297
:10478000CDB7DEB720912E02243031F522E0298307
:10479000805891099B838A8383E08093E9008FEF9F
:1047A0009091E800815095FD06C095ED9A95F1F73E
:1047B00000008111F5CF8091E80085FF0DC040E039
:1047C00050E063E070E0CE0101960E946E26809179
:1047D000E8008E778093E8000F900F900F90DF91A4
:1047E000CF910895CF93DF93EC010E945126823040
:1047F00011F08430F9F482E08093E9008FEF90911A
:10480000E800815095FD06C095ED9A95F1F70000FE
:104810008111F5CF8091E80085FF0CC040E050E0A9
:1048200065E070E0CE010E946E268091E8008E77F0
:104830008093E800DF91CF910895CF93DF93EC014F
:104840000E945126823019F0843009F047C08091CF
:1048500011018823E1F08091280287FF18C085E0CC
:104860008093E9008FEF9091E800815095FD06C09C
:1048700095E19A95F1F700008111F5CF8091E8005C
:1048800085FF2CC040E050E060E270E017C081E09E
:104890008093E9008FEF9091E800815095FD06C06C
:1048A00095ED9A95F1F700008111F5CF8091E80020
:1048B00085FF14C040E050E068E070E0CE010E9447
:1048C0006E268091E8008E778093E80080E2FE01FA
:1048D000AEEFB1E001900D928A95E1F7DF91CF91B3
:1048E00008958EEF9BE00E94460780912D02811172
:1048F00009C00E9400280E945D288091E200846027
:104900008093E20008958AEF9BE00E944607109290
:104910002D02089586EF9BE00C94460782EF9BE002
:104920000C9446078EEE9BE00E9446070C94B51B44
:104930008091FC018F5F8093FC0162E30E941E2C3A
:10494000911135C01092FC018091FD01882379F10D
:1049500080912E02843049F58091E9008F7090910A
:10496000EC0090FF02C090E801C090E0982B84E03A
:104970008093E9008091EB0080FF14C08091EE00ED
:1049800087FF10C08091E80085FF03C01092F100FE
:10499000F9CF8091E80080FF05C08091E8008E7714
:1049A0008093E8009F709093E9001092FD010895B4
:1049B00042E061EC81E00E947A2742E061EC82E013
:1049C0000E947A2742E061EC83E00E947A2742E26B
:1049D00061EC84E00E947A2742E261EC85E00C946D
:1049E0007A2780913002833009F455C030F4813049
:1049F00071F0823009F48EC008958A3009F47AC0CB
:104A00008B3009F460C0893009F09CC020C08091CF
:104A10002F02813A09F096C08091E800877F809349
:104A2000E8008091330290913402892B21F060E0FC
:104A300080E090E003C060E28EEF91E070E00E94C1
:104A4000B7268091E8008B778093E80008958091E5
:104A50002F02813209F076C08091330290913402A6
:104A6000009719F0049709F06DC08091E800877FE6
:104A70008093E8008091E80082FD05C080912E02BD
:104A80008111F8CF5FC08091F10080931E02809168
:104A9000E8008B7753C080912F02813A09F052C011
:104AA0008091330290913402892B09F04BC08091A0
:104AB000E800877F8093E8008091E80080FFFCCFCA
:104AC0008091110136C080912F028132D9F58091F9
:104AD000330290913402892BA9F58091E800877FF9
:104AE0008093E8000E94AF278091310280931101EA
:104AF0000C947F1480912F02813221F58091E8007F
:104B0000877F8093E8000E94AF27809132028093D4
:104B10001F02089580912F02813AA1F48091E8004C
:104B2000877F8093E8008091E80080FFFCCF809130
:104B30001F028093F1008091E8008E778093E80057
:104B40000C94AF27089584B7877F84BF88E10FB6A0
:104B5000F89480936000109260000FBE80E880930C
:104B60006100109261000E94370F0E9400280E948D
:104B70005D288091E20084608093E2008EE193E200
:104B80000E94631A78940E94DF2A0E94390F87E0FE
:104B900091E00E94A90E8DED9BE00E944607809156
:104BA0002E02853089F489ED9BE00E9446070E9421
:104BB000751B80912C02882391F30E94A01B8823EF
:104BC00071F30E945826EBCF0E94670FE8CF292F80
:104BD000332723303105A9F06CF42130310509F475
:104BE00042C02230310509F043C08DE890E02AE24E
:104BF0003CE042C021323105C9F02232310519F1C1
:104C000037C099278130910541F08230910541F0FC
:104C1000892B71F5E6E2FCE005C0E6E1FCE002C0AC
:104C2000E2E0FCE0849190E09F0126C065307105D0
:104C3000F8F4FB01EE0FFF1FE35CFE4F2081318192
:104C400089E090E019C06530710590F4FB01EE0F2A
:104C5000FF1FED5CFE4F20813181FB01E25DFE4FC5
:104C6000808190E009C082E190E027EB3CE004C045
:104C700080E090E020E030E0FA0131832083089565
:104C80000895CF93C82F0E944026C0932002CF9151
:104C9000089580912E02843011F482E0089581E01D
:104CA000089580912002811102C00C944926089534
:104CB00080E189BD82E189BD09B400FEFDCF80910C
:104CC000D8008F7D8093D8008091E000826080932F
:104CD000E0008091E00081FDFCCF0895CF92DF924B
:104CE000EF92FF920F931F93CF93DF937C018B0181
:104CF000EA010E94D027811131C0209731F08881CC
:104D00009981081B190BE80EF91EC12CD12C011535
:104D1000110519F18091E80085FD14C08091E8002B
:104D20008E778093E800209741F0888199818C0DDF
:104D30009D1D9983888385E011C00E94D027882318
:104D400031F30CC0F70181917F018093F100015094
:104D50001109FFEFCF1ADF0ADACF80E0DF91CF91A0
:104D60001F910F91FF90EF90DF90CF9008952091C9
:104D70003502309136022617370748F06115710564
:104D800039F42091E8002E772093E80001C0B901A2
:104D9000FC0120E061157105B9F180912E02882394
:104DA00009F440C0853009F43FC08091E80083FDDC
:104DB0003DC08091E80082FF06C08091E80082FF3C
:104DC00026C080E008958091E80080FFE3CF209125
:104DD000F3008091F20090E0922B6115710551F083
:104DE0008830910538F421912093F10061507109C8
:104DF0000196F3CF21E0089709F020E08091E800C8
:104E00008E778093E800C6CF2111C7CFD6CF80918F
:104E10002E02882339F0853039F08091E80083FF35
:104E2000CCCF04C082E0089583E0089581E0089526
:104E300020913502309136022617370748F0611568
:104E4000710539F42091E8002E772093E80001C025
:104E5000B901FC0120E061157105C1F180912E02BC
:104E6000882309F441C0853009F440C08091E800EE
:104E700083FD3EC08091E80082FF06C08091E8007B
:104E800082FF27C080E008958091E80080FFE3CF93
:104E90002091F3008091F20090E0922B6115710552
:104EA00059F08830910540F424912093F100319617
:104EB000615071090196F2CF21E0089709F020E0D6
:104EC0008091E8008E778093E800C5CF2111C6CF8E
:104ED000D5CF80912E02882339F0853039F080912A
:104EE000E80083FFCBCF04C082E0089583E00895FB
:104EF00081E00895982F973058F59093E90098171E
:104F000039F07091EC002091ED005091F00003C059
:104F1000242F762F50E021FF19C03091EB003E7F07
:104F20003093EB003091ED003D7F3093ED003091F8
:104F3000EB0031603093EB007093EC002093ED00B8
:104F40005093F0002091EE0027FF07C09F5FD3CF62
:104F50008F708093E90081E0089580E0089580914A
:104F60002F0287FD05C08091E80080FF0EC012C0AF
:104F70008091E80082FD05C080912E028111F8CF5A
:104F800008958091E8008B7708C080912E028111EE
:104F9000EACF08958091E8008E778093E800089525
:104FA0008091E4009091E50045E62091EC0020FF1F
:104FB00021C02091E80020FD21C020912E02222353
:104FC00089F0253089F02091EB0025FD0FC020915C
:104FD000E4003091E5002817390739F3415041F0DA
:104FE000C901E3CF82E0089583E0089581E0089548
:104FF00084E008952091E80022FFDFCF80E008954B
:105000000E946E280E947628E0EEF0E080818160A8
:105010008083E8EDF0E080818F77808319BCA7ED75
:10502000B0E08C918E7F8C9380818F7E80831092F4
:105030002D0208950F931F93CF93DF930E946E2844
:105040000E947628C8EDD0E088818F778883888198
:105050008068888388818F7D888319BC10922E0296
:1050600010922A0210922C0210922B0200EE10E0F5
:10507000F80180818B7F808388818160888342E012
:1050800060E080E00E947A27E1EEF0E080818E7F90
:105090008083E2EEF0E0808181608083808188609F
:1050A0008083F80180818E7F8083888180618883FE
:1050B000DF91CF911F910F910895E8EDF0E080818D
:1050C0008F7E8083E7EDF0E080818160808384E0E3
:1050D00082BF81E080932D020C941A28E8EDF0E065
:1050E00080818E7F80831092E20008951092DA0012
:1050F0001092E10008951F920F920FB60F921124A3
:105100002F933F934F935F936F937F938F939F93CF
:10511000AF93BF93EF93FF938091E10082FF0BC0A9
:105120008091E20082FF07C08091E1008B7F809335
:10513000E1000E9498248091DA0080FF1FC08091D6
:10514000D80080FF1BC08091DA008E7F8093DA0048
:105150008091D90080FF0DC080E189BD82E189BDC9
:1051600009B400FEFDCF81E080932E020E947124DD
:1051700005C019BC10922E020E9483248091E10088
:1051800080FF19C08091E20080FF15C08091E2008D
:105190008E7F8093E2008091E20080618093E20044
:1051A0008091D80080628093D80019BC85E08093FC
:1051B0002E020E948E248091E10084FF30C08091F5
:1051C000E20084FF2CC080E189BD82E189BD09B481
:1051D00000FEFDCF8091D8008F7D8093D800809114
:1051E000E1008F7E8093E1008091E2008F7E8093CA
:1051F000E2008091E20081608093E20080912A02C7
:10520000882311F084E007C08091E30087FF02C08B
:1052100083E001C081E080932E020E94922480915D
:10522000E10083FF29C08091E20083FF25C08091C7
:10523000E100877F8093E10082E080932E0210924C
:105240002A028091E1008E7F8093E1008091E2004C
:105250008E7F8093E2008091E20080618093E20083
:1052600042E060E080E00E947A278091F000886050
:105270008093F0000E948A24FF91EF91BF91AF913B
:105280009F918F917F916F915F914F913F912F915E
:105290000F900FBE0F901F9018951F920F920FB690
:1052A0000F9211242F933F934F935F936F937F93AC
:1052B0008F939F93AF93BF93CF93EF93FF93C0913F
:1052C000E900CF708091EC001092E9008091F0002D
:1052D000877F8093F00078940E9489291092E900DA
:1052E0008091F00088608093F000C093E900FF9106
:1052F000EF91CF91BF91AF919F918F917F916F91DE
:105300005F914F913F912F910F900FBE0F901F9083
:1053100018951F93CF93DF93CDB7DEB7AA970FB63B
:10532000F894DEBF0FBECDBFEFE2F2E08091F10056
:10533000819322E0E733F207C9F70E94F1248091BC
:10534000E80083FF24C120912F0230913002832F87
:1053500090E08A30910508F01AC1FC01E556FF4F34
:105360000C943E2C203821F0223809F010C108C0DE
:1053700080912B0290912C02992389F082600FC0BA
:10538000809133028F70873008F001C18093E9006B
:105390008091EB0085FB882780F91092E9009091BD
:1053A000E800977F9093E8008093F1001092F1005D
:1053B000CCC0822F8D7F09F0EAC0222319F0223061
:1053C00061F0E5C080913102813009F0E0C03330F6
:1053D00009F080E080932C022AC080913102811173
:1053E00026C0209133022F708FEF820F863008F095
:1053F000CEC02093E9008091EB0080FF18C080911F
:10540000EB00333011F4806210C080618093EB00B8
:1054100081E090E001C0880F2A95EAF78093EA00C6
:105420001092EA008091EB0088608093EB0010926C
:10543000E9008091E800877F8093E8000E94AF2711
:10544000A6C02111A4C0109131021F778091E30002
:105450008078812B8093E3008091E800877F8093A0
:10546000E8000E94AF278091E80080FFFCCF809188
:10547000E30080688093E300112311F083E001C012
:1054800082E080932E0283C02058223008F07FC033
:1054900080913102909132028C3D23E0920779F5A0
:1054A00083E08A838AE289834FB7F894DE011396FA
:1054B00020E03EE051E2E32FF0E050935700E4910A
:1054C00020FF03C0E295EF703F5FEF708E2F90E0FA
:1054D000EA3010F0C79601C0C0968D939D932F5F60
:1054E000243149F74FBF8091E800877F8093E8001F
:1054F0006AE270E0CE0101960E94B72615C0609165
:10550000330270913402AE014F5F5F4F0E94E72576
:105510000097E9F12091E800277F2093E800BC0183
:1055200089819A810E9418278091E8008B77809367
:10553000E8002DC0203859F58091E800877F8093DE
:10554000E80080912A028093F1008091E8008E7734
:1055500073CF21111CC0909131029230C0F4809120
:10556000E800877F8093E80090932A020E94AF278B
:1055700080912A02811104C08091E30087FF02C05C
:1055800084E001C081E080932E020E94D8248091A3
:10559000E80083FF0AC08091E800877F8093E800DD
:1055A0008091EB0080628093EB00AA960FB6F8948E
:1055B000DEBF0FBECDBFDF91CF911F910895CF9376
:1055C00080912E028823B1F08091E9008F70909134
:1055D000EC0090FF02C090E801C090E0C92FC82BFA
:1055E0001092E9008091E80083FD0E948929CF7024
:1055F000C093E900CF91089504D06894B1118DC093
:10560000089570D088F09F5790F0B92F9927B7511F
:10561000A0F0D1F0660F771F881F991F1AF0BA9576
:10562000C9F712C0B13081F077D0B1E0089574C0ED
:10563000672F782F8827B85F39F0B93FCCF386956C
:1056400077956795B395D9F73EF4909580957095C9
:1056500061957F4F8F4F9F4F0895E89409C097FB46
:105660003EF490958095709561957F4F8F4F9F4F39
:105670009923A9F0F92F96E9BB279395F69587957D
:1056800077956795B795F111F8CFFAF4BB0F11F440
:1056900060FF1BC06F5F7F4F8F4F9F4F16C08823E7
:1056A00011F096E911C0772321F09EE8872F762F1D
:1056B00005C0662371F096E8862F70E060E02AF05E
:1056C0009A95660F771F881FDAF7880F969587954A
:1056D00097F9089557FD9058440F551F59F05F3FB3
:1056E00071F04795880F97FB991F61F09F3F79F004
:1056F00087950895121613061406551FF2CF469586
:10570000F1DF08C0161617061806991FF1CF869507
:105710007105610508940895E894BB2766277727EB
:10572000CB0197F908950BD078C069D028F06ED0DE
:1057300018F0952309F05AC05FC01124EECFCADFDC
:10574000A0F3959FD1F3950F50E0551F629FF00194
:10575000729FBB27F00DB11D639FAA27F00DB11DED
:10576000AA1F649F6627B00DA11D661F829F222776
:10577000B00DA11D621F739FB00DA11D621F839FFD
:10578000A00D611D221F749F3327A00D611D231FD3
:10579000849F600D211D822F762F6A2F11249F5721
:1057A00050408AF0E1F088234AF0EE0FFF1FBB1F44
:1057B000661F771F881F91505040A9F79E3F5105E3
:1057C00070F014C0AACF5F3FECF3983EDCF38695EF
:1057D00077956795B795F795E7959F5FC1F7FE2B8E
:1057E000880F911D9695879597F9089597F99F676A
:1057F00080E870E060E008959FEF80EC0895002459
:105800000A941616170618060906089500240A9425
:1058100012161306140605060895092E0394000CAB
:1058200011F4882352F0BB0F40F4BF2B11F460FF3A
:1058300004C06F5F7F4F8F4F9F4F0895991B79E092
:1058400004C0991F961708F0961B881F7A95C9F710
:105850008095089597FB072E16F4009407D077FDE6
:1058600009D00E94442C07FC05D03EF49095819508
:105870009F4F0895709561957F4F0895EE0FFF1F1C
:105880000590F491E02D0994AA1BBB1B51E107C0C0
:10589000AA1FBB1FA617B70710F0A61BB70B881FC0
:1058A000991F5A95A9F780959095BC01CD0108954F
:1058B000F999FECF92BD81BDF89A992780B50895D8
:1058C000A8E1B0E042E050E00C94802C262FF9993A
:1058D000FECF92BD81BDF89A019700B4021639F04F
:1058E0001FBA20BD0FB6F894FA9AF99A0FBE089520
:1058F0000196272F0E94672C0C94662CDC01CB01AB
:10590000FC01F999FECF06C0F2BDE1BDF89A3196CF
:1059100000B40D9241505040B8F70895F894FFCF6D
:10592000CA0128081404141B231D24F223BC23825B
:105930002301F4F5F6F7313332363534C6976692E3
:105940009391909401020304050607080900404D55
:10595000362239A70D5A0D240D020DC90C3C0C55E9
:085960000C6E0C870CA70C0073
:00000001FF
