:100000000C94D8030C941C040C941C040C941C0435
:100010000C941C040C941C040C941C040C941C04E0
:100020000C941C040C941C040C94432A0C94152B63
:100030000C9499200C941C040C941C040C941C0427
:100040000C941C040C941C040C941C040C941C04B0
:100050000C941C040C9400210C941C040C941C049F
:100060000C941C040C941C040C941C040C941C0490
:100070000C941C040C941C040C941C040C941C0480
:100080000C941C040C941C040C941C040C941C0470
:100090000C941C040C941C040C941C040C941C0460
:1000A0000C941C040C941C040C941C0498069E06CE
:1000B000A206A506A906AD06B106B506BA06BE0695
:1000C000C206C606C906CD06D106D506D906DE0685
:1000D000211621165B165B169216B4161D185A18B7
:1000E000FA165A18A117A11716185A185A1856189E
:1000F000AE17AE17AE17AE17AE17AE17AE17AE17D8
:10010000AE17AE17AE17AE17AE17AE17AE17AE17C7
:10011000C017CE17D517DC17E617EE18EE18011921
:100120000119F718011901190119EE18EE18FD1837
:1001300001190119FD187A2BA12B8F2CA12B8F2CC3
:10014000E92B0C2C8F2C622C712C2E002B00E00044
:10015000E100025100001E00140004001D003500E3
:1001600003511F001A0016001B004900290020003F
:1001700008000700060050002A00210015000900B1
:1001800019004F004C00220017000A000500000073
:10019000E30050012B0A0000E3020000E2004F01DF
:1001A0002B080000E7020000E40023001C000B0005
:1001B00011000000E700240018000D00100052009C
:1001C000015325000C000E00360051002C002600C3
:1001D00012000F0037002F00280027001300330003
:1001E000380030002D022D0031003400E5000251AE
:1001F00000000100010001000100010000000100F9
:1002000001000100010001000100010001000100E6
:1002100001000100010001000100010001000100D6
:1002200001000100010001000100010001000100C6
:100230000100010001000000010001002B06000088
:1002400001000000010001002B040000010000007B
:100250000100010001000100010000000100010097
:100260000100010001000100010001000100010086
:100270000100010001000100010001000100010076
:100280000100010001000100010001000100010066
:100290000100010001000100000001000100010057
:1002A0000100010000003A0001000100010001000E
:1002B00001003B00010001000100010001003C00C1
:1002C000010001000100010001003D0001000100EA
:1002D0000100010001003E000100010001000000DA
:1002E000010053006A0000006900000001000100E5
:1002F0000100000001000000AC003F000000000011
:1003000000000000AB0040005F005C00590062008C
:10031000AE00410060005D005A00620062004200D1
:1003200061005E005B00630058004300540055000C
:1003300058005800AD004400450056005700010029
:1003400000000100010001000100010000000100A7
:100350000100010001000100010001000100010095
:1003600001000100F800010001000100010001008E
:10037000F70001000100010001000100010001007F
:100380000100010001000000010001002F08000031
:100390003008000001000100F9000000FA00000030
:1003A000FB0001000100000001000000FC00010052
:1003B0000100F2000100F60001000100F000F10070
:1003C00001000100F40001000100F3000100010040
:1003D000F500010001000100010001000100010021
:1003E000010001000100010000006801F000B400FC
:1003F00078005A00643214643214783C1E1E140AC9
:1004000005000000000101010202030405050607C2
:10041000090A0B0C0E0F1112141517191B1D1F21A1
:100420002325282A2C2F313436393B3E4143464977
:100430004C4F5255585A5D6164676A6D7073767996
:100440007C7F8386898C8F9295989B9EA2A5A7AA74
:10045000ADB0B3B6B9BCBEC1C4C6C9CBCED0D3D57E
:10046000D7DADCDEE0E2E4E6E8EAEBEDEEF0F1F329
:10047000F4F5F6F8F9FAFAFBFCFDFDFEFEFEFFFFCF
:10048000FFFFFFFFFFFEFEFEFDFDFCFBFAFAF9F8A1
:10049000F6F5F4F3F1F0EEEDEBEAE8E6E4E2E0DEA7
:1004A000DCDAD7D5D3D0CECBC9C6C4C1BEBCB9B6B1
:1004B000B3B0ADAAA7A5A29E9B9895928F8C898672
:1004C00083807C797673706D6A6764615D5A585574
:1004D000524F4C494643413E3B393634312F2C2A4A
:1004E000282523211F1D1B1917151412110F0E0C7F
:1004F0000B0A0907060505040302020101010000B9
:1005000000000000000001010101010101010102E0
:1005100002020202020202020303030303030303B3
:10052000040404040404050505050506060606067C
:1005300007070707080808080909090A0A0A0A0B31
:100540000B0B0C0C0C0D0D0D0E0E0F0F0F101011D0
:100550001111121213131414151516161717181853
:1005600019191A1A1B1C1C1D1D1E1F1F20202122B9
:10057000222324252526272728292A2B2B2C2D2EFC
:100580002F2F30313233343536363738393A3B3C19
:100590003D3E3F4041424344464748494A4B4C4D0B
:1005A0004F50515253555657585A5B5C5E5F6062CC
:1005B00063646667696A6C6D6E707173747678795E
:1005C0007B7C7E8081838486888A8B8D8F919294B8
:1005D00096989A9B9D9FA1A3A5A7A9ABADAFB1B3D8
:1005E000B5B7B9BBBDBFC1C4C6C8CACCCFD1D3D6BD
:1005F000D8DADCDFE1E4E6E8EBEDF0F2F5F7FAFC5F
:10060000FF16034500720067006F0044006F00781A
:1006100000200045005A00000016034500720067E4
:10062000006F0044006F007800200045005A000071
:10063000000403090409026D00040100A0FA090482
:100640000000010301010009211101000122400005
:100650000705810308000A090401000103010200E3
:10066000092111010001224D000705820308000A3B
:100670000904020001030000000921110100012208
:1006800036000705830308000A090403000103007C
:10069000000009211101000122390007058403200F
:1006A00000011201100100000008EDFE0713010017
:1006B0000102000105010906A101050719E029E76A
:1006C0001500250195087501810205081901290504
:1006D00095057501910295017503910105071900B2
:1006E00029F71500250195F875018102C00501095A
:1006F00080A10185021601002603001A81002A83C9
:1007000000751095018100C0050C0901A101850348
:10071000160100269C021A01002A9C027510950100
:100720008100C005010902A1010901A10005091903
:1007300001290515002501950575018102950175B1
:100740000381010501093009311581257F95027565
:1007500008810609381581257F95017508810605F0
:100760000C0A38021581257F950175088106C0C0E5
:1007700005010906A101050719E029E71500250172
:100780009508750181029501750881010508190117
:1007900029059505750191029501750391010507DC
:1007A000190029FF150026FF00950675088100C075
:1007B00011241FBECFEFDAE0DEBFCDBF04B603FECB
:1007C00024C08091B7039091B803A091B903B09170
:1007D000BA038730904BA740B04BB9F41092B703DF
:1007E0001092B8031092B9031092BA0314BE84B7E2
:1007F000877F84BF88E10FB6F894809360001092E1
:1008000060000FBEE0E0FFE3099511E0A0E0B1E079
:10081000EEEBFCE502C005900D92AA3DB107D9F7B9
:1008200023E0AAEDB1E001C01D92A73BB207E1F7BA
:100830000E9475270C945D2E0C9400001092B90054
:100840008AE08093B800089594EA9093BC00909158
:10085000BC0097FFFCCF9091B900987F983021F0B1
:10086000903111F081E008958093BB0084E880937B
:10087000BC008091BC0087FFFCCF8091B900887FCD
:10088000883111F0803471F780E0089584E9809315
:10089000BC008091BC0084FDFCCF08958093BB0018
:1008A00084E88093BC008091BC0087FFFCCF9091CE
:1008B000B900987F81E0983209F480E0089584E8D7
:1008C0008093BC008091BC0087FFFCCF8091BB006F
:1008D000089580B38C7080BB81B3836F81BB089512
:1008E00080910001811115C080E40E94240480934E
:1008F000000181110CC082E10E944E04809300012E
:10090000811105C08FEF0E944E04809300010E9468
:10091000460484B1807F84B985B1807F85B98AB16E
:10092000837F8AB98BB1837F8BB93E9846980895AF
:100930000C94F4050E943E0B809300010E94700409
:100940000E946904EFE2F2E02BED31E0119280E0C9
:1009500090E0D901A80FB91F1C920196863091052D
:10096000C1F72A5F3F4F82E0ED33F80779F70C9427
:10097000FF070E943E0B809300010E9470040E94BA
:100980006904EFE2F2E0119282E0ED33F807D9F763
:10099000089596E0899FA001112420E030E080E0D6
:1009A00045525E4F61E070E0FA01E20FF31F908163
:1009B000992319F09150908307C0FB01022E01C0CA
:1009C000EE0F0A94EAF78E2B2F5F3F4F263031054A
:1009D00059F7089596E0699FB001112420E030E0B6
:1009E00090E065527E4FAFE0AC01022E02C05595FB
:1009F00047950A94E2F740FF04C0FB01E20FF31FA2
:100A0000A0832F5F3F4F2630310571F708958F92F5
:100A10009F92BF92CF92EF92FF920F931F93CF932B
:100A2000DF9380910001882379F08091DA018F5F54
:100A30008093DA01811108C00E943E0B809300016F
:100A4000811102C00E94D00A8FE2882E82E0982E87
:100A5000C0E0D0E0EE24E394F12C01E01C2FC7307D
:100A600000F58091000181113CC080E40E942404C3
:100A700080930001811112C082E10E944E04809394
:100A8000000181110BC0C7010C2E01C0880F0A9410
:100A9000EAF780950E944E04809300010E9446046C
:100AA00020C0CA30A1F028F4C83059F0C93061F034
:100AB00005C0CC3089F070F0CD3089F0209A2898AC
:100AC00010C0219A29980DC0229A2A980AC0239A08
:100AD0002B9807C0529A01C0539A5B9802C03E9A65
:100AE000469880EA8A95F1F7812F0E94C904B82EB2
:100AF000173018F580910001811144C080E40E94F4
:100B0000240480930001882311F0C12C12C083E1DA
:100B10000E944E04809300018111F7CF81E40E946E
:100B20002404809300018111F0CF0E945F04C82E3D
:100B3000C0940E9446042C2D26C02FB1217020277E
:100B4000799B02C080E001C082E0282B7C9B02C020
:100B500080E001C084E0282B7D9B02C080E001C0C2
:100B600088E0282B7E9B02C080E001C080E1282B1A
:100B70009FB19095991F9927991F9295990F907EF3
:100B8000292B01C020E0F4018081C22ECB209B2DB7
:100B900090959823C92A612F8C250E94EA04F401BC
:100BA000C1924F010E9470042196CE30D10509F008
:100BB00055CF0E94010881E0DF91CF911F910F91E5
:100BC000FF90EF90CF90BF909F908F900895E82F67
:100BD000F0E0E15DFD4F80810895089580E090E0B0
:100BE000089581E0089508956091FF0270910003D7
:100BF00080910103909102030E943B1F56985E98DA
:100C000025982D9826982E9827982F98823019F09D
:100C1000833021F00895259A2D9A0895269A2E9AC8
:100C2000089581E008950C94F1050E94DC182FEFDF
:100C300084E39CE0215080409040E1F700C0000038
:100C40000C942621FF920F931F93CF93DF938C0177
:100C5000FC01C081D18180918E02811113C08281FB
:100C6000882349F0CE010E94221EF82E682FCE0163
:100C70000E94C61D04C0CE010E94F51DF82EBE01C3
:100C80008F2D04C0CE010E94221EBE010E941608B4
:100C9000EC01B8010E941306882309F4A9C1B80128
:100CA000CE010E94840A882309F4A2C1B801CE01B2
:100CB0000E948D0B882309F49BC1C33CFCE5DF0730
:100CC00041F4F8018281882309F492C10E94300F17
:100CD0008FC1C43C8CE5D80708F0E6C0C5319CE55F
:100CE000D90708F07DC0C230ECE5DE0708F49DC0EE
:100CF000F8018281882309F490C00E94AF1F8111FE
:100D000002C00E948E1F0E94C21F90E09093A90310
:100D10008093A803FE01E350FC45E231F10520F485
:100D2000EA5AFF4F0C940F2E8091A803816003C0F4
:100D30008091A80382608093A8034BC08091A80390
:100D40008460F9CF8091A80313C08091A8038061CB
:100D5000F2CF8091A8038062EECF8091A8038064D7
:100D6000EACF8091A8038068E6CF8091A8038460D1
:100D70008860E1CF8091A8038E7FDDCF8091A803AA
:100D80008D7FD9CF8091A8038B7FD5CF8091A80389
:100D900013C08091A8038F7ECECF8091A8038F7D52
:100DA000CACF8091A8038F7BC6CF8091A8038F778D
:100DB000C2CF8091A8038B7F877FBDCF9091A8037E
:100DC00097FB882780F921E0822780FB97F9909391
:100DD000A8038091A8030E94C61F0E94DC1808C1C6
:100DE000C03C9CE5D907D9F108F046C0C531DC45C7
:100DF00079F4F80182818823D1F1C0E9DEE10E9413
:100E0000021F8A7AB9F185E3FE0109950E94CF1E7F
:100E100081E08093410280934202C801DF91CF912B
:100E20001F910F91FF900C941106C115FCE5DF078F
:100E300041F4F8018281882309F4DAC00E94150682
:100E4000D7C0C130DC4521F7F8018281882309F43D
:100E5000CFC080912C03816080932C03C9C0F8011E
:100E60008281882309F4C4C00E942F10C1C0C7E941
:100E7000DEE1C5CF89E2C8CFC13C8CE5D80741F49B
:100E8000F8018281882309F4B3C00E942510B0C004
:100E9000C23CDC4509F0BCCFF8018281882309F40B
:100EA000A7C00E94170FA4C0C73CECE5DE0741F4C1
:100EB000F8018281882309F49BC00E948E0F98C09C
:100EC000C83CFCE5DF07D8F4F8018281C53CFCE5AD
:100ED000DF0731F4882309F48BC00E94610F88C0BA
:100EE000C63CDC4530F4882309F482C00E944F0FD1
:100EF0007FC0882309F47CC00E94730F79C0C93C6D
:100F0000ECE5DE0781F5F8018281882361F010921B
:100F100042020E94CB209093400280933F0280E2E5
:100F20000E94D11565C00E94021F81FF05C081E0AB
:100F300080934102809342028091420281110FC04E
:100F400080913F02909140020E94D720883C9105F9
:100F500030F487E20E947C1487E20E94701580E2E0
:100F60000E94D81545C0C93CFCE5DF0760F5F801D3
:100F70008281882351F0109241020E94CB209093ED
:100F80003E0280933D0282E0CBCF0E94021F85FF8C
:100F900005C081E08093410280934202809141022A
:100FA00081110FC080913D0290913E020E94D72096
:100FB000883C910530F486E20E947C1486E20E940F
:100FC000701582E0CDCFCC3C8CE5D80731F4F80128
:100FD0008281882369F080E009C0CD3CDC4509F0BE
:100FE00017CFF8018281882319F082E00E94092836
:100FF00080E0DF91CF911F910F91FF9008950C94A5
:10100000280B0C949804282F882339F090E02A307C
:1010100010F44D9608950697089587E290E008959C
:1010200008950C9410080C941108089596E0799F87
:10103000F001112494E5899FE00DF11D1124E60FC4
:10104000F11DEE0FFF1FE65BFE4F85919491089511
:10105000880F991F865B9E4FFC018591949108959E
:10106000CF93DF9326E0729FF001112494E5899FCE
:10107000E00DF11D1124E60FF11DEE0FFF1FE65BE1
:10108000FE4F859194910E94DA09EC01811520E4CC
:101090009207C0F5C11580E3D80708F0E5C0C03E4F
:1010A000D105D8F4C03CD10508F072C0C83AD105CA
:1010B00078F4C53AD10508F06FC0C130D10509F404
:1010C00075C108F42CC1C430D10508F06FC127C127
:1010D000CD3BD10508F46BC022C1CF3FD10509F04B
:1010E00048F4C03FD10508F0B9C0C83ED10508F4A6
:1010F0005DC115C1C11590E2D90708F457C1CE01F1
:101100009F70AEC0811524E59207D8F4C11583E520
:10111000D80708F0E4C0C11591E5D90740F4C1151E
:1011200020E5D20708F0AAC0DF70D06A3FC1C11520
:1011300082E5D80708F0BEC0DC2FCC27C16FD06A8B
:1011400035C1C11596E5D90750F4C11525E5D2077B
:1011500008F0DAC0DC2FCC27C46FD06A27C1C115D4
:1011600088E5D80708F4DBC0C11599E5D90708F46C
:10117000D1C0CE0190568115904208F0D0C08D2F7D
:101180008F710E94560ADD27D0628F71D82B0EC155
:10119000CE01805C910964C0C53AD10509F4C2C092
:1011A000C63AD10509F4C1C0C3E8D0E4FFC0C83ACB
:1011B000D10509F4BDC0C93AD10509F4BCC0CA3A89
:1011C000D10509F4BBC0CB3AD10509F4BAC0CC3A79
:1011D000D10509F4B9C0CB3BD10509F4B8C0CC3B6B
:1011E000D10509F4B7C0CD3AD10509F4B6C0C03B6A
:1011F000D10509F4B5C0CE3AD10509F4B4C0CF3A4F
:10120000D10509F4B3C0C13BD10509F4B2C0C23B5A
:10121000D10509F4B1C0C33BD10509F4B0C0C43B4A
:10122000D10509F4AFC0C53BD10509F4AEC0C63B3A
:10123000D10509F4ADC0C73BD10509F4ACC0C83B2A
:10124000D10509F4ABC0C93BD10509F4AAC0CA3B1A
:10125000D10509F0A9C0CAE2D6E4A8C0D065A6C0ED
:101260000E942808EC01A2C0CE019927D3FF03C039
:10127000EC01D86C9BC0EC01D06C98C02C2F237073
:1012800081E090E002C0880F991F2A95E2F79C68E0
:101290009E0174E0369527957A95E1F72370922B9D
:1012A000CF70C695C69520E2C29FE0011124C82BDD
:1012B000D92B7CC08C2F8695869520E2829FC00119
:1012C00011249E0123703327C1E0D0E002C0CC0F6F
:1012D000DD1F2A95E2F7C82BD92BDC6867C08C2F5D
:1012E0008695869520E2829FC00111249E0123707D
:1012F0003327C1E0D0E002C0CC0FDD1F2A95E2F712
:10130000C82BD92BDA6852C0CF71DD27DC2FCC2750
:10131000D0624CC0DC2FCC27C06FD06A47C0C0E081
:10132000D0E044C0C1E8D0E441C0C2E8D0E43EC04F
:10133000C2EED4E43BC0C9EED4E438C0CAEED4E473
:1013400035C0C5EBD4E432C0C6EBD4E42FC0C3EB48
:10135000D4E42CC0C4EBD4E429C0C7EBD4E426C049
:10136000CCECD4E423C0CDECD4E420C0C3E8D5E475
:101370001DC0CAE8D5E41AC0C2E9D5E417C0C4E963
:10138000D5E414C0C1E2D6E411C0C3E2D6E40EC075
:10139000C4E2D6E40BC0C5E2D6E408C0C6E2D6E497
:1013A00005C0C7E2D6E402C0C0E0D4E4CE01DF91BC
:1013B000CF9108958238910549F1B0F481339105B8
:1013C00009F459C048F48932910509F44FC08A32B2
:1013D000910509F455C008958533910509F441C07C
:1013E0008933910599F00895833E910531F138F4E0
:1013F000803E910591F0823E9105A9F00895863EC8
:10140000910501F1873E910539F108952091A803D6
:1014100020FD3BC021FD39C008958091A80380FFC5
:1014200034C089E341C08091A80382FF32C080911B
:10143000A80384FF2CC080E037C08091A80382FD00
:1014400028C0F5CF8091A80383FF25C08091A80311
:1014500084FDF1CF87EE28C08091A80383FD1BC0D7
:10146000F5CF8091A80385FF18C019C08091A8030B
:1014700085FF15C012C08091A80386FF12C013C05B
:101480008091A80386FF0FC00CC080EE0DC083EED4
:101490000BC082EE09C086EE07C085E305C089E275
:1014A00003C081E301C08AE290E00895CF93C82F82
:1014B0000E94C21F282F30E03093A9032093A80375
:1014C00082FF0DC08C2F8871883019F4C77FC460EB
:1014D00006C08C2F8471843011F4CB7FC86023FF49
:1014E0000DC08C2F8871883119F4C77EC46106C085
:1014F0008C2F8471843111F4CB7EC86124FDC77EAA
:101500008C2FCF9108950895CF93DF93EC01FB01C9
:101510008281811102C081E040C08091500281111E
:1015200025C0C631DC45B9F70E94830A81E080936B
:1015300050020E94CB2090934F0280934E02109253
:1015400043021092450210924402109247021092F8
:101550004602109249021092480210924B021092D9
:101560004A0210924D0210924C0216C080914E0217
:1015700090914F020E94D720883C910560F680919F
:101580004302E82FF0E0EE0FFF1FEC5BFD4FD1832D
:10159000C0838F5F8093430280E0DF91CF910895F5
:1015A00056985E9825982D9826982E9827982F98CB
:1015B0008FEF90E0909389008093880090938B0048
:1015C00080938A0090938D0080938C00259A2D9AA9
:1015D0002FEF80E792E0215080409040E1F700C07B
:1015E0000000269A2E9A2FEF80E792E0215080404B
:1015F0009040E1F700C00000279A2F9A2FEF80E774
:1016000092E0215080409040E1F700C00000259812
:101610002D982FEF80E792E0215080409040E1F735
:1016200000C0000026982E982FEF80E792E021500E
:1016300080409040E1F700C0000027982F9856980E
:101640005E9825982D9826982E9827982F9808957B
:1016500089EA8093800089E08093810024982C9807
:101660003F988AB18F7C8AB96E98479A8BB1806314
:101670008BB9769A0E94D00A0C94F30580E280938D
:1016800000018091510281110EC00E941E0481E070
:10169000809351022FEF83ED90E3215080409040E2
:1016A000E1F700C0000080E40E9424048093000160
:1016B00081112EC00E944E0480930001811128C028
:1016C0000E944E0480930001811122C08FE30E948A
:1016D0004E048093000181111BC00E94460480E4E7
:1016E0000E94240480930001811112C08CE00E94AA
:1016F0004E048093000181110BC00E944E04809320
:101700000001811105C08FE30E944E048093000107
:101710000E944604809100010895CF93DF93EC016D
:10172000C13080E8D807C8F0FB0182818823A9F086
:1017300080915202811109C08CE090E00E94152E28
:101740000E94B10B81E0809352020E94B80BCE013F
:101750009F770E94760C0E942E0C81E0DF91CF9142
:10176000089580935302682F8CE090E00C94292E0A
:10177000E0910201F0910301808180935D0381FF7C
:1017800003C081EE0E94701580915D0385FF03C048
:1017900085EE0E94701580915D0380FF03C080EE8E
:1017A0000E94701580915D0384FF03C084EE0E9447
:1017B000701580915D0382FF03C082EE0E94701558
:1017C00080915D0386FF03C086EE0E9470158091B4
:1017D0005D0383FF03C083EE0E94701580915D035B
:1017E00087FF03C087EE0E947015809153028130FD
:1017F000A1F078F0823011F1843049F586EE0E9434
:101800007C1486EE0E94701588E10E947C1488E1A9
:101810001CC082EE0E947C141AC080EE0E947C14D0
:1018200081EE0E947C1488E10E947C1488E10E9471
:10183000701581EE0E94701580EE07C082EE0E9446
:101840007C1487E50E947C1487E50E9470158FE365
:101850009CE90197F1F700C00000089580915302C0
:10186000813029F010F0823041F482EE04C08CE225
:101870000E947C148CE20E94701580915D0381FFB0
:1018800003C081EE0E947C1480915D0385FF03C03C
:1018900085EE0E947C1480915D0380FF03C080EE82
:1018A0000E947C1480915D0384FF03C084EE0E943B
:1018B0007C1480915D0382FF03C082EE0E947C1441
:1018C00080915D0386FF03C086EE0E947C148091A8
:1018D0005D0383FF03C083EE0E947C1480915D034F
:1018E00087FF03C087EE0C947C140895FF920F933A
:1018F0001F93CF93DF938C01CCE0D0E0C8010C2E76
:1019000002C0969587950A94E2F7282F2F70F22E41
:10191000822F0E9403080E947C148F2D0E940308CE
:101920000E9470152497CC3F8FEFD80739F7DF91CD
:10193000CF911F910F91FF900895882319F051982E
:10194000599A02C0519A59985098589A95E09A9588
:10195000F1F70000509A589895E09A95F1F7000039
:10196000882311F0519A599885E08A95F1F7000083
:1019700008958BB18C7F8BB95098589A5198599A89
:1019800085E08A95F1F7000008958AB18C7F8AB9C5
:1019900085E08A95F1F70000519A599885E08A957B
:1019A000F1F70000509A589885E08A95F1F7000009
:1019B00008955098589A85E08A95F1F7000051985B
:1019C000599A85E08A95F1F700000895CF93DF9347
:1019D000D82FC8E08D2F80780E949D0CDD0FC1505C
:1019E000C9F780E00E949D0C85E08A95F1F7000020
:1019F00085E08A95F1F7000080E0DF91CF910895AE
:101A00003BB1242F209523233BB1342B4FB7F894BF
:101A1000FC01680F791FE617F70789F0819198E0BC
:101A20003BB9000000C087FF2BB9880F000000C041
:101A300000C000C02BB900C09A9591F7ECCF4FBF02
:101A40000895AF92BF92CF92DF92EF92FF920F93E1
:101A50001F93CF93DF938C01EB01AFB6B090BC0026
:101A6000F8948091BC008B7F8093BC000E94B90CDD
:101A70000E94C50C84E80E94E60CCC0FDD1FCC0F41
:101A8000DD1F78016E01C00ED11EEC14FD0431F093
:101A9000F70181917F010E94E60CF7CF0E94D90CDB
:101AA000AFBEB092BC00579A40E8BE01C801DF91BA
:101AB000CF911F910F91FF90EF90DF90CF90BF904B
:101AC000AF900C94000DDF92EF92FF920F931F9353
:101AD000CF93DF93662309F44AC0E42FF0E0AFEF21
:101AE000B0E0A61BB109BF01A69FE001A79FD00DE2
:101AF000B69FD00D1124FD2FDD2E7B01ED1AF108CC
:101B00000CE310E0B8010E94E72DEB01BC01E69E5A
:101B1000C001E79E900DF69E900D1124B8010E9421
:101B2000E72DC230D105B1F040F4209779F021972C
:101B300009F58F2FD42E461B20C0C430D10599F053
:101B400068F02597B9F4842F861B17C08F2FD62EE7
:101B5000DF0E13C0862F8F0FD42E03C0D42ED61ABB
:101B6000842F4F2F0AC0842F462F4F0F06C0842F7B
:101B7000D42E03C080E0D12C40E0E42FF0E0EF5FF2
:101B8000FA4F4491ED2DF0E0EF5FFA4F9491E82F7A
:101B9000F0E0EF5FFA4FE491D90111964C93119761
:101BA0009C931296EC93DF91CF911F910F91FF9030
:101BB000EF90DF90089588E090E00C941D2EAB012B
:101BC000BC0188E090E00C943B2E83E080935E03A0
:101BD00010925F038FEF80936003809361036091A5
:101BE0005E0370915F0380916003909161030C9498
:101BF000DF0D80915E0380FF06C06FE070E086E637
:101C000093E00C94210DE8E6F3E0DF0111971C92BC
:101C100011971C921082349683E0E43AF807A9F7F2
:101C2000ECCFE8E6F3E0DF0111978C9311976C930A
:101C30004083349693E0E43AF907A9F70C94F90D40
:101C4000CF92DF92EF92FF920F931F93CF93DF9388
:101C500000D000D0CDB7DEB7F82EC92ED62EE42E98
:101C600000915E0310915F03209160033091610346
:101C7000009362031093630320936403309365031E
:101C800080915E0380FF1EC09E012F5F3F4F8F2D0E
:101C90000E94630D80916203F0FA87F980936203DA
:101CA000F6942091630320782F29C0FA27F9209316
:101CB0006303D0926403E09265034B8169818A815A
:101CC0000E94110E0F900F900F900F90DF91CF9107
:101CD0001F910F91FF90EF90DF90CF9008958F921A
:101CE0009F92AF92BF92CF92DF92EF92FF920F93AB
:101CF0001F93CF93DF93EC01862E942E80915E0389
:101D000080FF88C0982F9E77923021F4CE010E94E8
:101D1000200E56C0E82FE695EF739EE39E0F9F734B
:101D2000943018F4909061034BC09AE39E0F9F7318
:101D3000993070F4881F8827881F90915F03292F9E
:101D4000220FC22FC82B97FB992790F9D92F38C0A3
:101D500087E28E0F8F738A3098F5F0E07997E0FF75
:101D600002C02FEF01C021E0EE7FE651FC4F8591CC
:101D700094916FE070E00E94E72D26036001279F99
:101D8000D00C11247E0188E9E81A8EEFF80A06E6E5
:101D900013E088E6A82EBB24B394C701B5010E94C6
:101DA000E72D9801492D682D0E94630DEC0CFD1C58
:101DB0000C5F1F4F93E0023A190779F70E94F90D63
:101DC00080915E039C2FC0FB87F980935E039695FC
:101DD00080915F038078892BD0FB87F980935F0324
:101DE000809260039092610360915E0370915F0343
:101DF0008091600390916103DF91CF911F910F91CA
:101E0000FF90EF90DF90CF90BF90AF909F908F901A
:101E10000C94DF0DDF91CF911F910F91FF90EF9008
:101E2000DF90CF90BF90AF909F908F9008952091BA
:101E30005E03221F2227221F30915F03432F440F8E
:101E4000842F822B37FB992790F90C9668E671E076
:101E50000E94FB2D40916103609160030C946F0E12
:101E600020915E03221F2227221F30915F03432F00
:101E7000440F842F822B37FB992790F98C309105E2
:101E80001CF4845A9E4F01C00C9768E671E00E94D2
:101E9000FB2D40916103609160030C946F0E809163
:101EA0005E03881F8827881F90915F03292F220FC8
:101EB00097FB992790F9409161036FEF822B0C9467
:101EC0006F0E80915E03881F8827881F90915F03A3
:101ED000292F220F97FB992790F94091610360E029
:101EE000822B0C946F0E40916103842F90E0843F0D
:101EF000910514F4445F01C04FEF80915E03881F89
:101F00008827881F90915F03292F220F97FB99271D
:101F100090F960916003822B0C946F0E40916103E5
:101F2000842F90E00C9714F04C5001C040E0809159
:101F30005E03881F8827881F90915F03292F220F37
:101F400097FB992790F960916003822B0C946F0E98
:101F500090915E0390FF44C09178811102C092601D
:101F600003C0833220F0946490935E0305C08F73A6
:101F7000880F892B80935E0360915E0370915F03ED
:101F800080916003909161030E94DF0D80915E0358
:101F9000982F9E77923019F41092690210C0982FF2
:101FA00096959F732EE3290F2F73273120F491E02C
:101FB0009093690204C0995D9F739A3068F3881FFB
:101FC0008827881F90915F03292F220F97FB99275D
:101FD00090F94091610360916003822B0C946F0E25
:101FE000089580912C03816080932C0381E080937D
:101FF0006A020E94AF1F811104C00E948E1F0E94BE
:10200000E50D0E94DB0D60935E0370935F03809388
:102010006003909361036E7761F40E94E50D0E9466
:10202000DB0D60935E0370935F0380936003909376
:10203000610381E08093690280915E0380FF04C0A8
:1020400086958F730C94A80F089580915E038695F2
:102050008F738F5F833208F081E00C94A80F80911A
:102060005E03982F909590FB80F980935E036091BA
:102070005E0370915F0380916003909161030E9401
:10208000DF0D80915E0380FF04C086958F730C94F2
:10209000A80F109269022FEF80E792E02150804054
:1020A0009040E1F700C000000C94F90DCF93C82FC9
:1020B00080916702909168020E94D720EC2FF0E097
:1020C000E350FC4FE491F0E08E179F0710F10E945F
:1020D000CB209093680280936702E0916602F0E063
:1020E000EF5FFB4F449180915E03881F8827881F14
:1020F00090915F03292F220F97FB992790F9609108
:102100006003822B0E94200E809166028F5F809375
:102110006602CF910895CF93C82F80916402909169
:1021200065020E94D720EC2FF0E0E650FC4FE491CE
:10213000F0E08E179F07E8F00E94CB209093650295
:102140008093640240916103609160038091620218
:10215000909163020E94200E80916202909163022E
:10216000019668E671E00E94E72D909363028093E8
:102170006202CF910895DF92EF92FF920F931F9327
:10218000CF93DF93D82E80916002909161020E94DC
:10219000D720ED2DE695F0E0E650FC4FE491F0E01D
:1021A0008E179F07E8F10E94CB20909361028093E5
:1021B000600206E613E0C0E0D0E098E6E92EFF24D6
:1021C000F39480915E0290915F028C0F9D1FB70186
:1021D0000E94E72D980140916103609160030E9485
:1021E000630D68960C5F1F4FC83681E0D80749F72A
:1021F0000E94F90D20915E0230915F02D0FE0AC06C
:10220000C9010196BE010E94E72D90935F02809361
:102210005E0206C02150310930935F0220935E02B6
:10222000DF91CF911F910F91FF90EF90DF90089574
:102230008F929F92AF92BF92CF92DF92EF92FF92D6
:102240000F931F93CF93DF93C82F80FD03C0992472
:10225000939402C099249A9480915C0290915D02BB
:102260000E94D720C695EC2FF0E0E950FC4FE49196
:10227000F0E08E179F0708F469C00E94CB2090936E
:102280005D0280935C0236E6E32E33E0F32E08E62F
:1022900013E0C0E0D0E047E0A42EB12CF801319764
:1022A0001082F7011082F801108227E0C22ED12C93
:1022B000812C80915B02880D87FD815F992787FDC6
:1022C0009095C817D907E9F4209161032C9DC001AE
:1022D0002D9D900D1124B5010E94FB2D462F80915C
:1022E0005E03881F8827881F90915F03592F550F21
:1022F00097FB992790F9970160916003852B0E94C5
:10230000630D890CF1E0CF1AD108C114D10489F60C
:10231000219684E0E80EF11C0C5F1F4FCF30D105F1
:1023200009F0BCCF0E94F90D80915B0291E09912F7
:1023300006C0811102C08EE007C0815005C090E048
:102340000196BE010E94FB2D80935B02DF91CF912D
:102350001F910F91FF90EF90DF90CF90BF90AF90C3
:102360009F908F9008959F92AF92BF92CF92DF92ED
:10237000EF92FF920F931F93CF93DF93CDB7DEB70A
:10238000EC970FB6F894DEBF0FBECDBF182F80912B
:10239000590290915A020E94D720E12FF0E0EC50B0
:1023A000FC4FE491F0E08E179F0708F491C00E9463
:1023B000CB2090935A02809359028E010F5F1F4FDA
:1023C0005E0183E0A80EB11CE12CF12C6801F5013F
:1023D00031971082F8011082F5011082912C9091B2
:1023E000010180915802999E800D112487FD04C03F
:1023F0008F301CF08EE001C080E0992787FD90951A
:10240000E816F906A1F480915E03881F8827881FCB
:1024100090915F03592F550F97FB992790F99801D9
:102420004091610360916003852B0E94630D93943A
:10243000F7E09F12D4CF8FEFE81AF80A0C5F1F4F16
:10244000E4E0AE0EB11CFFE0EF16F10409F0BFCFDF
:1024500028E633E009E010E06FE0E62EF12CC80139
:10246000B7010E94FB2DFC01D9011197EE0FFF1F50
:10247000EE0FFF1FEC0DFD1D81818C931197808164
:102480008C938281F90180830F5F1F4F2C5F3F4F38
:102490000831110521F70E94F90D909101018091F9
:1024A0005802913049F48A3F2CF489EF8093580206
:1024B0008FEF08C081500AC086313CF085E18093DF
:1024C000580281E08093010103C08F5F809358021E
:1024D000EC960FB6F894DEBF0FBECDBFDF91CF9163
:1024E0001F910F91FF90EF90DF90CF90BF90AF9032
:1024F0009F900895EF92FF920F931F93CF93DF93D6
:1025000080915602909157020E94D720883E9340B6
:10251000C8F10E94CB209093570280935602C0913D
:102520005402D09155022196C170DD27D0935502F7
:10253000C093540206E613E0F12C78E7E72E8F2DC6
:102540008695FE01E80FF11DCF0181709927980152
:102550004091610360916003FC01EE9EC001EF9E1B
:10256000900D11240E94630DF3940C5F1F4FFFE048
:10257000FF12E5CFDF91CF911F910F91FF90EF9068
:102580000C94F90DDF91CF911F910F91FF90EF9077
:10259000089580916902882391F120915E03822F32
:1025A00086958F739EE3980F9F73943018F4825032
:1025B0000C9456109AE3980F9F73933018F486503A
:1025C0000C948B1097E3980F9F73963018F48950F2
:1025D0000C94BB1091E3980F9F73963018F48F50B2
:1025E0000C9418119BE2980F9F73933018F4855147
:1025F0000C94B3112E77203311F40C947A120895B1
:102600009093700280936F020895E0916F02F091B1
:102610007002309721F00190F081E02D099480E064
:102620000895E0916F02F0917002309721F00280DE
:10263000F381E02D09940895E0916F02F09170020A
:10264000309721F00480F581E02D099408952091C0
:102650006D0230916E028217930771F090936E02B3
:1026600080936D02E0916F02F0917002309721F03B
:102670000680F781E02D0994089520916B02309136
:102680006C028217930771F090936C0280936B0237
:10269000E0916F02F0917002309721F00084F18593
:1026A000E02D0994089508950C9453130E94C220BC
:1026B0000E949A040E9449210C94F10FCF92DF925C
:1026C000EF92FF920F931F93CF93DF93CDB7DEB7B7
:1026D0002B970FB6F894DEBF0FBECDBF0E94070543
:1026E00032E7E32E32E0F32E00E010E0C02E802F20
:1026F0000E94E705F701D1907F01D826B1F40F5F62
:102700001F4F0E30110591F78FEF89838A831B824B
:102710000E94CB208160782F9D838C8349815A81D0
:102720006B818D810E943D1441C090912C0391FFDB
:1027300004C08B870E94ED058B8520E030E04D2D95
:1027400050E0922FBA01022E02C0759567950A9447
:10275000E2F760FF25C02E83CF82EE24E394F12CB4
:1027600002C0EE0CFF1C9A95E2F790E08E219F21AB
:1027700021E0892B09F420E028870E94CB2081608A
:10278000782F9A8789874E815F8168858A850E9424
:102790003D14F801EE58FD4F80818E25808306C0E0
:1027A0002F5F3F4F2630310561F6A9CF0E94DB2213
:1027B000109171020E9405131817A1F00E940513D1
:1027C000809371022B960FB6F894DEBF0FBECDBF7B
:1027D000DF91CF911F910F91FF90EF90DF90CF90FD
:1027E0000C9413082B960FB6F894DEBF0FBECDBF26
:1027F000DF91CF911F910F91FF90EF90DF90CF90DD
:102800000895DC0111964C9111975C91852F90E011
:1028100021E030E001C0220F5A95EAF712966C9140
:10282000129750E0662319F060918F0205C0FA01FB
:10283000E058FD4F608162236623B9F036E0349F93
:10284000F001359FF00D1124E80FF91FEE0FFF1F67
:10285000EC5EFE4F808191818D939C93FA01E0584C
:10286000FD4F8081822B80830895FA01E058FD4F4F
:1028700020958081282320830895CF93DF93CDB7BF
:10288000DEB72B970FB6F894DEBF0FBECDBF4F83D8
:10289000588769877A878B878A859B85892B31F052
:1028A0005F3F11F080E003C04F3FE1F781E081110D
:1028B00004C0CE0107960E940114DE01119686E045
:1028C000FD0111928A95E9F785E0FE0137960190A6
:1028D0000D928A95E1F749815A816B817C818D81C6
:1028E0009E810E94A61B2B960FB6F894DEBF0FBEEA
:1028F000CDBFDF91CF910895CF93DF931F92CDB7D6
:10290000DEB7682F882309F4E7C0823879F40E9483
:10291000051381FDE1C069E38091020190910301FB
:102920000E9432200E94CF1E69E310C08338C9F490
:102930000E94051380FDD0C063E580910201909153
:1029400003010E9432200E94CF1E63E580910201A4
:10295000909103010E943D200F90DF91CF910C9444
:10296000CF1E843879F40E94051382FDB5C067E458
:1029700080910201909103010E9432200E94CF1E9B
:1029800067E4E4CF8CEF860F813A70F4862F698379
:102990000E941225698181119FC08091020190914E
:1029A00003010E943220D8CF80E2860F883048F49D
:1029B000677081E001C0880F6A95EAF70E94051FE1
:1029C000CBCF8BE5860F833088F4653A29F0663AE1
:1029D00031F482E890E005C081E890E002C083E82D
:1029E00090E00F90DF91CF910C94271388E5860F2C
:1029F000853108F071C0683A61F1693A69F16A3A63
:102A000071F16B3A79F16C3A81F16B3B89F16C3B76
:102A100091F16D3A99F1603BA1F16E3AA9F16F3AEB
:102A2000B1F1613BB9F1623BC1F1633BC9F1643B78
:102A3000D1F1653BD9F1663BE1F1673BE9F1683BD8
:102A4000F1F1693BF9F16A3B09F03FC08AE292E09B
:102A50003EC082EE90E03BC089EE90E038C08AEE46
:102A600090E035C085EB90E032C086EB90E02FC05F
:102A700083EB90E02CC084EB90E029C087EB90E0E2
:102A800026C08CEC90E023C08DEC90E020C083E861
:102A900091E01DC08AE891E01AC082E991E017C078
:102AA00084E991E014C081E292E011C083E292E0F7
:102AB0000EC084E292E00BC085E292E008C086E29C
:102AC00092E005C087E292E002C080E090E00F90C3
:102AD000DF91CF910C943D130F90DF91CF9108952A
:102AE000882309F45DC0823879F40E94051381FFC0
:102AF00057C069E380910201909103010E94322046
:102B00000E94CF1E69E310C08338B1F40E94051300
:102B100080FF46C063E580910201909103010E940D
:102B200032200E94CF1E63E5809102019091030143
:102B30000E943D200C94CF1E843879F40E94051326
:102B400082FF2EC067E480910201909103010E94F0
:102B500032200E94CF1E67E4E7CF9CEF980F913A96
:102B600010F4682FE1CF90E2980F983050F48770FE
:102B700091E001C0990F8A95EAF7892F0E940B1FF7
:102B8000D9CF9BE5980F933020F480E090E00C942F
:102B90002713885A853120F480E090E00C943D138F
:102BA0000895882321F00E94051F0C94CF1E0895DC
:102BB000882321F00E940B1F0C94CF1E08958F9242
:102BC0009F92BF92CF92DF92EF92FF920F931F934B
:102BD000CF93DF9300D0CDB7DEB74C01472FFC0178
:102BE000C580C2942FE0C222D280DD2031F07983EB
:102BF0006A830E94221F6A81498149836A830E94F5
:102C0000C81E49816A81882389F0DD2079F080E23D
:102C1000860F883058F082E00E94B11E0E94C81EC4
:102C2000BB24B394B82649816A8101C0B12CE42E3B
:102C3000E2949FE0E922F12CF701E859FF4F0C9450
:102C40000F2E842F807F142F1F70882311F0129570
:102C5000107FDD20C1F0112309F4D3C180E2860F7B
:102C6000883010F0611105C0812F6A830E94051F12
:102C700004C0812F6A830E94151F6A816A830E94A3
:102C8000CF1E6A81BEC1862F6A830E9470156A8139
:102C9000112309F40FC280E2860F883010F0611111
:102CA00004C0812F0E940B1F03C0812F0E941B1F95
:102CB0000E94CF1EFFC1242F207F842F8F702032CF
:102CC00011F08295807F662319F06130B9F020C041
:102CD000DD2049F0CC2009F44AC1F1E0CF1247C110
:102CE0000E94351FE7C1CC2021F021E0C21609F473
:102CF000E1C189830E94381F89813FC1DD2029F00D
:102D000091E09C1508F4D6C132C1C110D3C135C1C0
:102D1000DD2021F0CC2009F42AC173C1CC2009F4B4
:102D20002CC180C1242F26952695237030E02115D3
:102D3000310521F02130310561F0BCC1DD2021F0E9
:102D4000862F942F937002C080E090E00E9427139A
:102D5000C1C1DD2021F0862F942F937002C080E046
:102D600090E00E943D13B6C1DD20F9F0653F51F0BF
:102D7000663F71F0643FA9F48091A2039091A30390
:102D800081600BC08091A2039091A303826005C073
:102D90008091A2039091A30384609093A3038093F6
:102DA000A203862F0E94E32122C0653F51F0663FB7
:102DB00091F0643FC9F48091A2039091A3038E7FA8
:102DC00005C08091A2039091A3038D7F9093A303EC
:102DD0008093A20309C02091A2033091A3032B7F0B
:102DE0003093A3032093A203862F0E944B220E94BC
:102DF000D02270C1842F837009F04EC0D11066C1FB
:102E0000262F229526952770220F220F862F8F704E
:102E1000C82ED12CE12CF12C022E04C0CC0CDD1CD0
:102E2000EE1CFF1C0A94D2F764FF10C06FE070E044
:102E300080E090E004C0660F771F881F991F2A95D5
:102E4000D2F7609570958095909503C060E070E032
:102E5000CB01242F26952695237030E022303105B2
:102E600069F02330310589F06C297D298E299F294D
:102E70002130310571F00E94F51C28C16C297D2993
:102E80008E299F290E94071D21C10E94F51CC701A0
:102E9000B6010E94E31C1AC1DD2019F0842F817055
:102EA00001C08695882309F411C1262F2295269505
:102EB0002770220F220F862F8F70C82ED12CE12C65
:102EC000F12C022E04C0CC0CDD1CEE1CFF1C0A945D
:102ED000D2F764FF10C06FE070E080E090E004C0C3
:102EE000660F771F881F991F2A95D2F760957095F6
:102EF0008095909503C060E070E0CB01242F26956B
:102F00002695237030E02230310569F023303105F9
:102F100089F06C297D298E299F292130310571F096
:102F20000E94A11DD3C06C297D298E299F290E9452
:102F3000B31DCCC00E94A11DC701B6010E948F1D08
:102F4000C5C0062F10E0F801E05EF109E531F1059A
:102F500008F053C0E858FF4F0C940F2E162F1F7027
:102F6000842F8F71DD2031F00E943A1D812F0E9445
:102F7000D115A0C00E94551D812F0E94D8159AC05E
:102F8000DD2039F0C11096C0842F8F710E94741D0E
:102F900091C0E1E0EC1508F48DC0F6CFDD2039F0EA
:102FA000842F8F710E943A1D85C0DD20C9F3842FC4
:102FB0008F710E94551D7EC0DD2029F0842F8F71F6
:102FC0000E942B1D77C00E94261D74C0DD2051F089
:102FD000142F1F71812F0E943A1D63E0812F0E94E0
:102FE000A81E68C081E00E94B11EF1E0FC1508F047
:102FF00061C082E00E94B11E5DC0DD2031F0CC20B6
:1030000079F2862F0E947C1455C0CC2081F269335E
:1030100049F42FEF87EE93E0215080409040E1F794
:1030200000C00000862F0E94701544C04F70C4017C
:103030000E94EE050E94531C4DC0623FA9F128F486
:10304000603F49F0613FE1F020C0643FA1F050F0E3
:10305000653F69F01AC0DD2049F180918F0221E0BF
:10306000822702C081E08D2580938F021FC0D1107E
:103070001DC081E0F9CFD11019C010928F0216C087
:10308000CC2091F0D11012C0E8CFCC2069F0862F6F
:1030900049836A83DD2019F00E947C1402C00E94DB
:1030A000701549816A8102C0D0928F024F70C401AD
:1030B0000E941508E8E0EE16F10441F05CF02AE009
:1030C000E21AF10882E0E816F10420F40E940513E8
:1030D0000E941308BB20F1F00E94A41E80FD1AC0BC
:1030E000F40112820E949E1E0E943A1DC4010E9499
:1030F00098180E949E1E0F900F90DF91CF911F9104
:103100000F91FF90EF90DF90CF90BF909F908F90A6
:103110000C94551D0F900F90DF91CF911F910F913F
:10312000FF90EF90DF90CF90BF909F908F90089589
:103130000F931F93CF93DF93EC01288139818B810B
:103140009C81892B31F03F3F11F080E003C02F3F7D
:10315000E1F781E0811113C0CE010E94220688238D
:1031600071F0688179818A810E946D1E8C010E94B4
:10317000C51D0E94E01CB801CE010E94DF15DF9141
:10318000CF911F910F9108950E94221F0E94321F1C
:1031900080910201909103010E9448200E94CF1E5D
:1031A0000E947C230E94D02280E090E00E9427139E
:1031B00080E090E00C943D130E94121F0C94C41800
:1031C0000E94621EE92FE295EF70F0E03297EE3038
:1031D000F105B8F4E357FF4F0C940F2E803F59F0E0
:1031E00018F4803E70F407C0843F59F404C0803E58
:1031F00010F0813F31F481E0089593FB882780F936
:10320000089580E00895CF93DF9300D000D01F92FF
:10321000CDB7DEB70F900F900F900F900F90DF910A
:10322000CF910895CF93DF9300D000D000D0CDB7D9
:10323000DEB726960FB6F894DEBF0FBECDBFDF9186
:10324000CF9108951F93CF93DF93C091900216E022
:1032500080919102C81799F0D0E01C9FF0011D9F4A
:10326000F00D1124EE56FD4F408151816281738132
:10327000848195810E9412192196C770E9CFDF9150
:10328000CF911F9108954091C2025091C302609165
:10329000C4027091C5028091C6029091C7020C943D
:1032A0001219CF938091C70282958F7009F05FC089
:1032B0008091C402882309F45AC020919002A09101
:1032C00091026091C2027091C3028091C5029091F7
:1032D000C60231E06F3F09F030E0B32FC6E02A1795
:1032E00009F445C0009721F07F3F21F44B2F03C024
:1032F00041E001C040E030E040FD35C0C29FF00138
:10330000C39FF00D1124EE56FD4F418174132BC065
:103310004081641328C04281411125C043815481FA
:103320004817590710F441505109481B590B483CA4
:103330005105C8F48091C7028F7080618093C702E5
:1033400086E0829FF001839FF00D1124E956FD4F26
:1033500080818F708061808382EC92E00E94981857
:10336000CF910C9422192F5F3F4F2770B8CFCF9188
:103370000895CF92DF92EF92FF920F931F93CF9316
:10338000DF93CDB7DEB762970FB6F894DEBF0FBEFE
:10339000CDBF8C0185E0F801DE011D9601900D92F4
:1033A0008A95E1F7D8014C9111965C91119712968C
:1033B0006C9112971396ED90FC9014977091C20245
:1033C000E091C3022091C5023091C602211531055A
:1033D00031F0EF3F31F481E07F3F19F403C081E029
:1033E00001C080E0B82FB170CB2E80FD6CC1D090B1
:1033F000C402DD2009F4F5C0F091C702E216F3061D
:1034000038F0C701821B930B883C910548F09BC0A4
:10341000209530952E0D3F1D283C310508F093C0B6
:103420008F2F807F09F052C0E51314C0741312C0AF
:10343000D62E61110FC0FF70F061F093C7020E9499
:10344000431982EC92E00E9498188091C702F8011B
:1034500085836CC1EF2831F05F3F31F481E04F3F4D
:1034600019F403C081E001C080E080FD03C081E069
:10347000862701C080E0F82FF170FF2E80FF1CC06E
:10348000809190022091910236E0821709F428C1C0
:1034900090E0389FF001399FF00D1124EE56FD4F5A
:1034A0007181571306C07081471303C0728167137F
:1034B00003C001968770E9CFD62E662309F436C182
:1034C0008091C70281608093C70253C0E51308C092
:1034D000741306C0611104C0D8011596FC93AEC0E8
:1034E0004D875E878D859E856A8B0E94E0186A896C
:1034F000882329F1D62E662311F12091C702822F4D
:1035000082958F7090E002970CF460C08091C202A7
:103510009091C30298878F831986FB86EA862C8751
:10352000CE01079651C0E51731F14D875E878D8535
:103530009E856A8B0E94E0186A8981112EC0C8019D
:103540000E949818A4C08F2F807F69F77E2DF98A7A
:10355000E88A89890E94031982EC92E00E949818F7
:10356000E2ECF2E086E0DF011D928A95E9F70E9425
:103570004319D12CDBC07413D8CF6111D6CFD80139
:103580001596FC93C8010E949818E2ECF2E086E0E0
:10359000DF011D928A95E9F7C9C0D62E662379F21C
:1035A0002091C702822F82958F7090E0029774F06D
:1035B0008091C2029091C3029A8389831B82FD820B
:1035C000EC822E83CE0101960E94981886E0F801C5
:1035D000A2ECB2E001900D928A95E1F70E94511998
:1035E0006FC0E216F30628F0C701821B930B9C0103
:1035F00004C0209530952E0D3F1D283C310508F064
:1036000052C0D62E662309F49ACFE5132CC074134A
:103610002AC08091C70280FD1DC0982F92959F708F
:10362000C9F0D80115968C9315979F3039F09F5F9C
:103630009295907F8F70892B15968C93C8010E946C
:10364000981886E0F801A2ECB2E001900D928A95FC
:10365000E1F736C086E0F801A2ECB2E001900D92ED
:103660008A95E1F763C04D875E878D859E850E94B0
:10367000E018882379F086E0F801A2ECB2E001902E
:103680000D928A95E1F70E9451190E944319DD2499
:10369000D3944CC08091C70281608093C702C80157
:1036A0000E94981843C07E2DF98AE88A89890E9471
:1036B0000319E2ECF2E086E0DF011D928A95E9F75A
:1036C0000E94431933C0662309F439CF4D875E87C2
:1036D0008D859E850E94E018882309F430CFCBCFDA
:1036E0004D875E878D859E850E94621E292F2295BB
:1036F0002F7030E0223031052CF49F7041F08111A1
:1037000006C00CC0243031052CF49F7049F4805E53
:10371000883020F0C8010E949818CF2CDC2C06C0FD
:10372000D80115969C91907F91F7F8CF8D2D6296D8
:103730000FB6F894DEBF0FBECDBFDF91CF911F91C2
:103740000F91FF90EF90DF90CF9008951F93CF934C
:10375000DF93CDB7DEB72C970FB6F894DEBF0FBE60
:10376000CDBF4F83588769877A878B879C87CE0127
:1037700007960E94B9198823C1F02F8138858A8560
:103780009B85892B31F03F3F11F080E003C02F3F34
:10379000E1F781E0811147C04F81588569857A85BD
:1037A0008B859C850E9412193EC086E0FE013796EB
:1037B000DE01119601900D928A95E1F7FF81E8856F
:1037C0004A855B854115510531F0EF3F31F481E0C9
:1037D000FF3F19F403C081E001C080E080FD23C0F9
:1037E0002091910230E0C90101968770992760917C
:1037F000900270E086179707F1F1F983EA835D8301
:103800004C8396E0929FD001939FB00D1124AE5649
:10381000BD4FFE01319601900D929A95E1F780938C
:1038200091020E94221916E08091900290919102DB
:10383000891779F1189FC00111248E569D4F0E945F
:10384000B919882331F1E09190021E9FF0011124F3
:10385000EE56FD4F40815181628173818481958153
:103860000E9412198091900290E00196877099272A
:1038700080939002D9CF0E94DC181092910210928E
:103880009002E2ECF2E086E0DF011D928A95E9F712
:10389000CACF2C960FB6F894DEBF0FBECDBFDF9116
:1038A000CF911F910895EF92FF920F931F93CF93A3
:1038B000DF93FC01009709F46FC0F12CEE24E39430
:1038C000EF0121968491843740F4843008F055C08C
:1038D000813081F0823021F15FC0853709F447C023
:1038E000C0F19CE7980F903708F056C08F770E9480
:1038F000701545C08F010E5F1F4FFE01849190E24D
:10390000980F983050F48770FE2D01C0FF0F8A95F4
:10391000EAF78F2F0E94251F15C00E947C1414C047
:103920008F010E5F1F4FFE01849190E2980F983037
:1039300068F48770FE2D01C0FF0F8A95EAF78F2F7C
:103940000E942B1F0E94CF1EE80119C00E94701513
:10395000FBCFCF010296FE01C491CC2361F0EFE9C9
:10396000FFE03197F1F700C00000C150F6CFCF0162
:103970000296FE01F490EC0102C00E947C148F2D8F
:10398000882341F0EFE9FFE03197F1F700C0000034
:103990008150F6CFFE0194CFDF91CF911F910F910F
:1039A000FF90EF90089508950E94D31C6093030345
:1039B0007093040380930503909306030C94C4183A
:1039C00008950C94D41C0F931F930091030310913E
:1039D00004032091050330910603602B712B822B89
:1039E000932B1F910F910C94D41C0F931F93009154
:1039F0000303109104032091050330910603602313
:103A00007123822393231F910F910C94D41C0F9345
:103A10001F9300910303109104032091050330913B
:103A2000060360277127822793271F910F910C941B
:103A3000D41C08950E94191D6093FF027093000327
:103A400080930103909302030C94C41860E070E02B
:103A5000CB010C941A1D41E050E060E070E004C01E
:103A6000440F551F661F771F8A95D2F7CB01BA0105
:103A70000C941A1D41E050E060E070E004C0440F77
:103A8000551F661F771F8A95D2F78091FF0290918C
:103A90000003A0910103B0910203482B592B6A2B1C
:103AA0007B2BCB01BA010C941A1D41E050E060E081
:103AB00070E004C0440F551F661F771F8A95D2F728
:103AC00040955095609570958091FF02909100030C
:103AD000A0910103B0910203482359236A237B2359
:103AE000CB01BA010C941A1D41E050E060E070E097
:103AF00004C0440F551F661F771F8A95D2F7809127
:103B0000FF0290910003A0910103B09102034827A6
:103B100059276A277B27CB01BA010C941A1D0F93F2
:103B20001F930091FF021091000320910103309137
:103B30000203602B712B822B932B1F910F910C94FE
:103B40001A1D0F931F930091FF0210910003209103
:103B500001033091020360237123822393231F9179
:103B60000F910C941A1D0F931F930091FF02109157
:103B700000032091010330910203602771278227FF
:103B800093271F910F910C941A1D0895292F220F2E
:103B9000290F220F280F422F4695469546952770EC
:103BA000B1E001C0BB0F2A95EAF785E0489FA0016C
:103BB000112448535D4F80E090E070E0FA01E80F77
:103BC000F91FA0819B01082E02C0369527950A9403
:103BD000E2F72170332721952A272B232A272083D8
:103BE00001968530910551F70895292F220F290F4D
:103BF000220F280F622F669566956695922F977013
:103C000085E0689FB001112468537D4F40E050E08B
:103C100080E0FB01E40FF51F208130E0092E02C097
:103C2000369527950A94E2F721703327042E01C0B8
:103C3000220F0A94EAF7822B4F5F5F4F4530510500
:103C400041F70895CF92DF92EF92FF920F931F9367
:103C5000CF93DF93EC01C0900303D0900403E09076
:103C60000503F09006038091FF0290910003A0915C
:103C70000103B0910203C82AD92AEA2AFB2A0FE1DC
:103C800010E0B701A601002E04C076956795579500
:103C900047950A94D2F740FD05C00150110988F7F5
:103CA00080E007C0BE01802F0E9430080197A9F371
:103CB000802FDF91CF911F910F91FF90EF90DF90B8
:103CC000CF900895CF93DF93EC010E94221EBE0196
:103CD0000E943008DF91CF9108951F93CF93DF9317
:103CE000EB0190918E02992321F0CB010E94621E7C
:103CF00013C0882349F0CB010E94221E182F682F81
:103D0000CE010E94C61D04C0CB010E94F51D182FD4
:103D1000BE01812F0E943008DF91CF911F9108953D
:103D2000682F80910201909103010C943220682F3A
:103D300080910201909103010C943D208091070332
:103D400085958595859508958091070387700895D9
:103D500098E0899F90011124622B609307030C94D3
:103D60003A1D409107038095842380930703982F81
:103D7000977069F450E0282F332727FD30954217BC
:103D8000530729F08595859585950C94551D0895C3
:103D900090910703977081E009F480E00895E09125
:103DA0000201F091030180912B038083E0910201D5
:103DB000F0910301808190912A03892B8083E09107
:103DC0000201F0910301808190912903892B808366
:103DD00090910803992381F0E0910201F091030191
:103DE0008081892B808380910201909103010E9440
:103DF000CB1F811110920803809102019091030161
:103E00000C94111380912B03089590912B03982B00
:103E100090932B030895809590912B039823909372
:103E20002B03089510922B03089590912A03982B49
:103E300090932A030895809590912A039823909354
:103E40002A03089510922A03089590912903982B2C
:103E50009093290308958095909129039823909336
:103E60002903089510922903089580930803089563
:103E7000109208030895CF92DF92EF92FF920F9372
:103E80001F936C01EE24FF24C114D104E104F1045A
:103E900021F46B017C0180E001C080E133272F2DEC
:103EA0001E2D0D2D011511052105310519F0885F15
:103EB0006801790197018601A4E036952795179549
:103EC0000795AA95D1F7011511052105310519F0BE
:103ED0008C5F6801790197018601F2E0369527959C
:103EE00017950795FA95D1F70115110521053105AB
:103EF00019F08E5F68017901B701A6017695679583
:103F000057954795452B462B472B09F08F5F1F91FF
:103F10000F91FF90EF90DF90CF9008956DEE7EEFC0
:103F200080E090E00E94472E60E082E090E00E94F6
:103F3000292E60E083E090E00E94292E60E084E07A
:103F400090E00E94292E60E085E090E00E94292EFA
:103F500040E050E0BA0188E090E00C943B2E80E015
:103F600090E00E94232E21E08D3E9E4F09F020E03C
:103F7000822F089582E090E00C94152E83E090E06B
:103F80000C94152E84E090E00C94152E682F84E09C
:103F900090E00C94292E20E030E040E0FC01E20F9C
:103FA000F31F518151114F5F2F5F3F4F2F3131056B
:103FB000A9F7842F089520E030E04FEFFC01E20FD5
:103FC000F31F5281561799F04F3F19F4511101C058
:103FD000422F2F5F3F4F2E31310581F74F3F39F090
:103FE000FC01E40FF11D47FDFA95628308950895E1
:103FF00020E030E0FC01E20FF31F4281461301C0D4
:1040000012822F5F3F4F2E313105A1F70895262FE1
:104010002695269526952F3170F4FC01E20FF11DAF
:10402000677021E030E0062E01C0220F0A94EAF703
:104030008181822B81830895262F269526952695AA
:104040002F3178F4FC01E20FF11D677021E030E0C0
:10405000062E01C0220F0A94EAF7209581812823B9
:104060002183089520911301222329F02091A80390
:1040700027FD0C9407200C94DB1F209113012223B1
:1040800029F02091A80327FD0C941C200C94F81F04
:1040900020E030E0FC01E20FF31F11822F5F3F4F61
:1040A0002F313105B9F708958091AE03843021F1A5
:1040B00010922D0320E488E190E00FB6F894A895C3
:1040C000809360000FBE2093600080E00E94130880
:1040D00083B7817F846083BF83B7816083BF789417
:1040E000889583B78E7F83BF88E10FB6F89480935D
:1040F0006000109260000FBE08950895CF930E9453
:10410000B9040E9407050E947D20C0E08C2F0E9408
:10411000E705811105C0CF5FCE30C1F780E001C057
:1041200081E0CF9108950E94DC180E9405130C9441
:1041300013081F920F920FB60F9211248F939F9323
:10414000AF93BF9380912D03811113C08091A4037D
:104150009091A503A091A603B091A7034196A11D3C
:10416000B11D8093A4039093A503A093A603B093DD
:10417000A703BF91AF919F918F910F900FBE0F90AA
:104180001F90189582E084BD93E095BD9AEF97BD8E
:1041900080936E0008952FB7F8948091A4039091B6
:1041A000A503A091A603B091A7032FBF0895CF92B6
:1041B000DF92EF92FF920F931F932FB7F8944091E5
:1041C000A4035091A5036091A6037091A7032FBF8C
:1041D0006A017B01EE24FF248C0120E030E0C01650
:1041E000D106E206F30610F441505109481B590B61
:1041F000CA011F910F91FF90EF90DF90CF9008952B
:1042000078941F920F920FB60F9211248F939F9361
:10421000AF93BF938091A4039091A503A091A603AF
:10422000B091A7030196A11DB11D8093A4039093A3
:10423000A503A093A603B093A703BF91AF919F914D
:104240008F910F900FBE0F901F9018950E94C82954
:10425000F8942FEF87EA91E6215080409040E1F7F3
:1042600000C0000087E090EBDC018093B7039093DF
:10427000B803A093B903B093BA032CE088E190E0AF
:104280000FB6F894A895809360000FBE209360004D
:10429000FFCF0E94AF1F811102C00E948E1F0E949B
:1042A000BA1F80932C030E94C21F90E09093A90331
:1042B0008093A8030E94BE1F682F70E080E090E00A
:1042C0000C94E11C8091310380FF0BC060910701C9
:1042D00085E0689FB0011124759567957595679580
:1042E0002AC081FF09C06091070185E0689FB00185
:1042F0001124759567951FC082FF07C06091070163
:1043000085E0689FB001112416C040913203442318
:10431000C9F060910601461788F72091070185E0F2
:10432000289F90011124429FC001439F900D1124AA
:1043300070E00E94FB2D6038710540F46115710535
:1043400039F002C065E070E0862F08958FE7089588
:1043500081E008958091310380FF08C060910501DC
:1043600070E0759567957595679521C081FF06C0CA
:104370006091050170E07595679519C082FF04C0D2
:104380006091050170E010C0809132038823C1F074
:10439000609104018617A0F790910501989FC001D4
:1043A000112470E00E94FB2D6038710528F461151E
:1043B000710521F0862F08958FE7089581E0089513
:1043C00061E070E0F4CF803F21F40E94622181958A
:1043D00004C0813F29F40E9462218093350308952F
:1043E000823F21F40E946221819504C0833F29F419
:1043F0000E946221809334030895893F19F40E943A
:10440000AA2105C08A3F31F40E94AA218195809398
:10441000360308958B3F21F40E94AA21819504C0A0
:104420008C3F29F40E94AA21809337030895843F8A
:1044300021F480913303816017C0853F21F480917E
:104440003303826011C0863F21F48091330384607E
:104450000BC0873F21F480913303886005C0883FFB
:1044600031F48091330380618093330308958D3F4D
:1044700021F48091310381600BC08E3F21F4809143
:104480003103826005C08F3F29F48091310384603D
:10449000809331030895803F39F48091350387FF7D
:1044A0006CC01092350369C0813F29F480913503B7
:1044B0001816BCF362C090913403823F29F497FF31
:1044C0005CC01092340359C0833F19F41916CCF321
:1044D00054C0893F41F48091360318160CF04DC04A
:1044E000109236034AC08A3F29F48091360387FF31
:1044F00044C0F6CF8B3F39F48091370387FF3DC02E
:10450000109237033AC08C3F29F480913703181674
:10451000BCF333C0843F21F4809133038E7F17C0F6
:10452000853F21F4809133038D7F11C0863F21F4B4
:10453000809133038B7F0BC0873F21F4809133033D
:10454000877F05C0883F31F4809133038F7E80934D
:10455000330313C08D3F21F4809131038E7F0BC054
:104560008E3F21F4809131038D7F05C08F3F29F468
:10457000809131038B7F80933103809134038111CB
:104580000EC08091350381110AC0809136038111DC
:1045900006C080913703811102C010923203089542
:1045A00083E393E00E941C130E94CB2090932F037F
:1045B00080932E0308951F93CF93DF9380912E0352
:1045C00090912F030E94D72040913203442321F081
:1045D0002091080130E006C0209130035AE0259F69
:1045E000900111248217930708F482C0809134034C
:1045F00010913503D0913603C0913703811107C064
:10460000111105C0D11103C0CC2309F471C04F3F73
:1046100019F04F5F40933203181624F40E94622170
:10462000809334038091340387FF05C00E94622188
:10463000819580933403111624F40E9462218093A3
:1046400035038091350387FF05C00E946221819563
:104650008093350360913403662339F1109135035B
:10466000112319F1772767FD7095872F972F0E94E7
:10467000F82C23E333E343E35FE30E945C2D0E94C5
:10468000C52C60933403612F772767FD7095872FC2
:10469000972F0E94F82C23E333E343E35FE30E9468
:1046A0005C2D0E94C52C609335031D1624F40E94D6
:1046B000AA21809336038091360387FF05C00E94AC
:1046C000AA218195809336031C1624F40E94AA2106
:1046D000809337038091370387FF05C00E94AA218A
:1046E000819580933703DF91CF911F910C94D02255
:1046F000DF91CF911F910895E3E3F3E085E0DF01BF
:104700001D928A95E9F710923203109231030895B1
:10471000833081F128F4813059F08230D1F008954E
:10472000853009F449C0B8F1863009F456C00895BF
:1047300020913003862F90E0820F911D8F3F9105CD
:1047400020F4620F6093300308958FEF809330035D
:10475000089520910801862F90E0820F911D8F3FD0
:10476000910520F4620F6093080108958FEF809304
:104770000801089520910701862F90E0820F911D76
:104780008F3F910520F4620F6093070108958FEF2A
:1047900080930701089520910601862F90E0820FF3
:1047A000911D8F3F910520F4620F609306010895DB
:1047B0008FEF80930601089520910501862F90E0E8
:1047C000820F911D8F3F910520F4620F60930501C8
:1047D00008958FEF80930501089520910401862F9D
:1047E00090E0820F911D8F3F910520F4620F60933E
:1047F000040108958FEF809304010895833011F12F
:1048000028F4813049F0823091F00895853081F1AB
:1048100020F18630C1F1089580913003681720F4AB
:10482000861B809330030895109230030895809181
:104830000801681720F4861B8093080108951092E0
:104840000801089580910701681720F4861B809362
:1048500007010895109207010895809106016817D5
:1048600020F4861B80930601089510920601089596
:1048700080910501681720F4861B80930501089537
:1048800010920501089580910401681720F4861B99
:10489000809304010895109204010895873220F551
:1048A0008E3108F098C0803109F474C070F48730FC
:1048B00009F44CC018F4863089F12EC08B3009F40D
:1048C000A0C08E3009F45CC027C0863109F499C0BD
:1048D00020F4813109F46FC01FC0893109F491C0FF
:1048E0008B3109F443C018C0883309F48AC050F4EE
:1048F000893209F47EC0853309F47BC0873209F41C
:1049000078C00AC0833409F474C020F48A3308F0F4
:1049100060C002C0883461F080E0089580912C036B
:10492000817F8E7F80932C0381E0809339030895EB
:104930000E94DC182FEF83ED90E3215080409040DF
:10494000E1F700C000000E9426215BC090912C037B
:10495000892F8095817080FB90F990932C038111B1
:1049600050C0997F977F90932C034BC090912C035C
:1049700091FB882780F921E0822780FB91F913C001
:1049800090912C0392FB882780F921E0822780FBFD
:1049900092F909C090912C0393FB882780F921E0BC
:1049A000822780FB93F990932C03882351F1916027
:1049B00090932C0308950E94DC189091A80397FB14
:1049C000882780F921E0822780FB97F99093A8033C
:1049D00018C027EC01C023EE280F61E070E080E0F2
:1049E00090E004C0660F771F881F991F2A95D2F7A1
:1049F00004C061E070E080E090E00E94E11C0E9451
:104A0000DC1881E0089580E0089580E008958E51DB
:104A10008A3030F4E82FF0E0E454FE4F80810895AE
:104A200080E00895CF93C82F80913903813079F0C9
:104A300018F08230D1F182C0E0910201F0910301BF
:104A40008081813169F0823209F07AC009C0E09139
:104A50000201F09103018081813111F0823249F429
:104A60008C2F0E94032581111DC08C2F0E944E2483
:104A70001AC08C2F0E940525811114C0C43179F011
:104A800048F4CB3079F0C03109F05EC082E0809309
:104A9000390308C0C93219F0C83321F055C010924B
:104AA000390352C081E0817051C0C93279F108F5F3
:104AB000C43161F1A0F4C73009F044C01092300352
:104AC00084E180930801C09307018CE38093060181
:104AD00088E08093050188E28093040133C082EE70
:104AE0008C0F863078F58C2F0E9407258093380331
:104AF00029C0CE34E9F020F4CB3421F56AE013C0AC
:104B0000C13579F0C235F1F461E00DC08091380310
:104B1000882319F01092380315C081E0809339037F
:104B200015C061E006C0809138030E9488230AC046
:104B30006AE0809138030E94FE2304C0109239037A
:104B400080E004C081E002C080E0ADCFCF91089545
:104B500080915A0308950F931F93CF93DF9300D052
:104B60001F92CDB7DEB78C010E941928823011F058
:104B7000843019F583E089831B830A838093E900DD
:104B80008FEF9091E800815095FD06C095ED9A95C4
:104B9000F1F700008111F5CF8091E80085FF0DC08D
:104BA00040E050E063E070E0CE0101960E943628BC
:104BB0008091E8008E778093E8000F900F900F901F
:104BC000DF91CF911F910F910895CF93DF9300D084
:104BD0001F92CDB7DEB72091AE03243031F522E02D
:104BE0002983805891099B838A8383E08093E9001D
:104BF0008FEF9091E800815095FD06C095ED9A9554
:104C0000F1F700008111F5CF8091E80085FF0DC01C
:104C100040E050E063E070E0CE0101960E9436284B
:104C20008091E8008E778093E8000F900F900F90AE
:104C3000DF91CF910895CF93DF93EC010E94192863
:104C4000823011F08430F9F482E08093E9008FEF34
:104C50009091E800815095FD06C095ED9A95F1F789
:104C600000008111F5CF8091E80085FF0CC040E085
:104C700050E065E070E0CE010E9436288091E800A7
:104C80008E778093E800DF91CF910895CF93DF93E3
:104C9000EC010E941928823019F0843009F047C0D5
:104CA000809113018823E1F08091A80387FF18C049
:104CB00084E08093E9008FEF9091E800815095FDAA
:104CC00006C095E19A95F1F700008111F5CF80912A
:104CD000E80085FF2CC040E050E060E270E017C0C3
:104CE00081E08093E9008FEF9091E800815095FD7D
:104CF00006C095ED9A95F1F700008111F5CF8091EE
:104D0000E80085FF14C040E050E068E070E0CE01AC
:104D10000E9436288091E8008E778093E80080E238
:104D2000FE01AAE3B3E001900D928A95E1F7DF91CD
:104D3000CF9108958091AD03811109C00E94C829C7
:104D40000E94252A8091E20084608093E200089509
:104D50001092AD030895089508950C94932042E0B5
:104D600061EC81E00E94422942E061EC82E00E9415
:104D7000422942E061EC83E00E94422942E261EC78
:104D800084E00C9442298091B003833009F455C02B
:104D900030F4813071F0823009F48EC008958A3089
:104DA00009F47AC08B3009F460C0893009F09CC0E6
:104DB00020C08091AF03813A09F096C08091E8004D
:104DC000877F8093E8008091B3039091B403892B8F
:104DD00021F060E080E090E003C060E28AE393E0CD
:104DE00070E00E947F288091E8008B778093E80034
:104DF00008958091AF03813209F076C08091B303AA
:104E00009091B403009719F0039709F06DC0809159
:104E1000E800877F8093E8008091E80082FD05C06C
:104E20008091AE038111F8CF5FC08091F100809333
:104E30005A038091E8008B7753C08091AF03813A89
:104E400009F052C08091B3039091B403892B09F00B
:104E50004BC08091E800877F8093E8008091E80054
:104E600080FFFCCF8091130136C08091AF03813267
:104E7000D9F58091B3039091B403892BA9F5809162
:104E8000E800877F8093E8000E9477298091B10332
:104E9000809313010C94DC188091AF03813221F5CB
:104EA0008091E800877F8093E8000E9477298091B5
:104EB000B20380935B0308958091AF03813AA1F41C
:104EC0008091E800877F8093E8008091E80080FF70
:104ED000FCCF80915B038093F1008091E8008E7796
:104EE0008093E8000C947729089584B7877F84BF66
:104EF00088E10FB6F89480936000109260000FBEB6
:104F000080E880936100109261000E9454130E9417
:104F1000C8290E94252A8091E20084608093E200E3
:104F200078940E94A82C0E94561389E091E00E9478
:104F300000138091AE03853069F40E945420809163
:104F4000AC038823B1F30E947E20882391F30E9452
:104F50002028EFCF0E945E130E94C912EACF292FAA
:104F6000332723303105A9F06CF42130310509F4E1
:104F700042C02230310509F043C08DE690E025E3C0
:104F800036E042C021323105C9F02232310519F133
:104F900037C099278130910541F08230910541F069
:104FA000892B71F5E1E3F6E005C0E9E1F6E002C026
:104FB000E1E0F6E0849190E09F0126C06430710545
:104FC000F8F4FB01EE0FFF1FEE52FE4F20813181FE
:104FD00089E090E019C06430710590F4FB01EE0F98
:104FE000FF1FE653FE4F20813181FB01EA53FE4F44
:104FF000808190E009C082E190E022EA36E004C0BE
:1050000080E090E020E030E0FA01318320830895D1
:105010000895CF93C82F0E940828C0935C03CF91B6
:1050200008958091AE03843011F482E0089581E008
:10503000089580915C03811102C00C941128089599
:1050400080E189BD82E189BD09B400FEFDCF809178
:10505000D8008F7D8093D8008091E000826080939B
:10506000E0008091E00081FDFCCF0895CF92DF92B7
:10507000EF92FF920F931F93CF93DF937C018B01ED
:10508000EA010E949829811131C0209731F088816E
:105090009981081B190BE80EF91EC12CD12C0115A2
:1050A000110519F18091E80085FD14C08091E80098
:1050B0008E778093E800209741F0888199818C0D4C
:1050C0009D1D9983888385E011C00E9498298823BB
:1050D00031F30CC0F70181917F018093F100015001
:1050E0001109FFEFCF1ADF0ADACF80E0DF91CF910D
:1050F0001F910F91FF90EF90DF90CF900895209136
:10510000B5033091B6032617370748F061157105CE
:1051100039F42091E8002E772093E80001C0B9010E
:10512000FC0120E061157105B9F18091AE0388237F
:1051300009F440C0853009F43FC08091E80083FD48
:105140003DC08091E80082FF06C08091E80082FFA8
:1051500026C080E008958091E80080FFE3CF209191
:10516000F3008091F20090E0922B6115710551F0EF
:105170008830910538F421912093F1006150710934
:105180000196F3CF21E0089709F020E08091E80034
:105190008E778093E800C6CF2111C7CFD6CF8091FC
:1051A000AE03882339F0853039F08091E80083FF21
:1051B000CCCF04C082E0089583E0089581E0089593
:1051C0002091B5033091B6032617370748F06115D3
:1051D000710539F42091E8002E772093E80001C092
:1051E000B901FC0120E061157105C1F18091AE03A8
:1051F000882309F441C0853009F440C08091E8005B
:1052000083FD3EC08091E80082FF06C08091E800E7
:1052100082FF27C080E008958091E80080FFE3CFFF
:105220002091F3008091F20090E0922B61157105BE
:1052300059F08830910540F424912093F100319683
:10524000615071090196F2CF21E0089709F020E042
:105250008091E8008E778093E800C5CF2111C6CFFA
:10526000D5CF8091AE03882339F0853039F0809115
:10527000E80083FFCBCF04C082E0089583E0089567
:1052800081E00895982F973058F59093E90098178A
:1052900039F07091EC002091ED005091F00003C0C6
:1052A000242F762F50E021FF19C03091EB003E7F74
:1052B0003093EB003091ED003D7F3093ED00309165
:1052C000EB0031603093EB007093EC002093ED0025
:1052D0005093F0002091EE0027FF07C09F5FD3CFCF
:1052E0008F708093E90081E0089580E008958091B7
:1052F000AF0387FD05C08091E80080FF0EC012C09B
:105300008091E80082FD05C08091AE038111F8CF45
:1053100008958091E8008B7708C08091AE038111D9
:10532000EACF08958091E8008E778093E800089591
:105330008091E4009091E50045E62091EC0020FF8B
:1053400021C02091E80020FD21C02091AE0322233E
:1053500089F0253089F02091EB0025FD0FC02091C8
:10536000E4003091E5002817390739F3415041F046
:10537000C901E3CF82E0089583E0089581E00895B4
:1053800084E008952091E80022FFDFCF80E00895B7
:105390000E94362A0E943E2AE0EEF0E08081816081
:1053A0008083E8EDF0E080818F77808319BCA7EDE2
:1053B000B0E08C918E7F8C9380818F7E8083109261
:1053C000AD0308950F931F93CF93DF930E94362A66
:1053D0000E943E2AC8EDD0E088818F77888388813B
:1053E0008068888388818F7D888319BC1092AE0382
:1053F0001092AA031092AC031092AB0300EE10E0DF
:10540000F80180818B7F808388818160888342E07E
:1054100060E080E00E944229E1EEF0E080818E7F32
:105420008083E2EEF0E0808181608083808188600B
:105430008083F80180818E7F80838881806188836A
:10544000DF91CF911F910F910895E8EDF0E08081F9
:105450008F7E8083E7EDF0E080818160808384E04F
:1054600082BF81E08093AD030C94E229E8EDF0E087
:1054700080818E7F80831092E20008951092DA007E
:105480001092E10008951F920F920FB60F9211240F
:105490002F933F934F935F936F937F938F939F933C
:1054A000AF93BF93EF93FF938091E10082FF0BC016
:1054B0008091E20082FF07C08091E1008B7F8093A2
:1054C000E1000E94A72C8091DA0080FF1FC080912C
:1054D000D80080FF1BC08091DA008E7F8093DA00B5
:1054E0008091D90080FF0DC080E189BD82E189BD36
:1054F00009B400FEFDCF81E08093AE030E949A269E
:1055000005C019BC1092AE030E94A8268091E1004C
:1055100080FF19C08091E20080FF15C08091E200F9
:105520008E7F8093E2008091E20080618093E200B0
:105530008091D80080628093D80019BC85E0809368
:10554000AE030E94AC268091E10084FF30C08091C0
:10555000E20084FF2CC080E189BD82E189BD09B4ED
:1055600000FEFDCF8091D8008F7D8093D800809180
:10557000E1008F7E8093E1008091E2008F7E809336
:10558000E2008091E20081608093E2008091AA03B2
:10559000882311F084E007C08091E30087FF02C0F8
:1055A00083E001C081E08093AE030E94AD2680912C
:1055B000E10083FF29C08091E20083FF25C0809134
:1055C000E100877F8093E10082E08093AE03109238
:1055D000AA038091E1008E7F8093E1008091E20038
:1055E0008E7F8093E2008091E20080618093E200F0
:1055F00042E060E080E00E9442298091F0008860F3
:105600008093F0000E94AB26FF91EF91BF91AF9184
:105610009F918F917F916F915F914F913F912F91CA
:105620000F900FBE0F901F9018951F920F920FB6FC
:105630000F9211242F933F934F935F936F937F9318
:105640008F939F93AF93BF93CF93EF93FF93C091AB
:10565000E900CF708091EC001092E9008091F00099
:10566000877F8093F00078940E94512B1092E9007C
:105670008091F00088608093F000C093E900FF9172
:10568000EF91CF91BF91AF919F918F917F916F914A
:105690005F914F913F912F910F900FBE0F901F90F0
:1056A00018951F93CF93DF93CDB7DEB7AA970FB6A8
:1056B000F894DEBF0FBECDBFEFEAF3E08091F100BA
:1056C000819323E0E73BF207C9F70E94C32680914C
:1056D000E80083FF24C12091AF033091B003832FF2
:1056E00090E08A30910508F01AC1FC01E556FF4FA1
:1056F0000C940F2E203821F0223809F010C108C078
:105700008091AB039091AC03992389F082600FC024
:105710008091B3038F70873008F001C18093E90056
:105720008091EB0085FB882780F91092E900909129
:10573000E800977F9093E8008093F1001092F100C9
:10574000CCC0822F8D7F09F0EAC0222319F02230CD
:1057500061F0E5C08091B103813009F0E0C03330E1
:1057600009F080E08093AC032AC08091B1038111DD
:1057700026C02091B3032F708FEF820F863008F080
:10578000CEC02093E9008091EB0080FF18C080918B
:10579000EB00333011F4806210C080618093EB0025
:1057A00081E090E001C0880F2A95EAF78093EA0033
:1057B0001092EA008091EB0088608093EB001092D9
:1057C000E9008091E800877F8093E8000E947729B4
:1057D000A6C02111A4C01091B1031F778091E300EE
:1057E0008078812B8093E3008091E800877F80930D
:1057F000E8000E9477298091E80080FFFCCF80912B
:10580000E30080688093E300112311F083E001C07E
:1058100082E08093AE0383C02058223008F07FC01E
:105820008091B1039091B2038C3D23E0920779F50A
:1058300083E08A838AE289834FB7F894DE01139666
:1058400020E03EE051E2E32FF0E050935700E49176
:1058500020FF03C0E295EF703F5FEF708E2F90E066
:10586000EA3010F0C79601C0C0968D939D932F5FCC
:10587000243149F74FBF8091E800877F8093E8008B
:105880006AE270E0CE0101960E947F2815C0609107
:10589000B3037091B403AE014F5F5F4F0E94AF2717
:1058A0000097E9F12091E800277F2093E800BC01F0
:1058B00089819A810E94E0288091E8008B7780930B
:1058C000E8002DC0203859F58091E800877F80934B
:1058D000E8008091AA038093F1008091E8008E7720
:1058E00073CF21111CC09091B1039230C0F480910C
:1058F000E800877F8093E8009093AA030E947729AD
:105900008091AA03811104C08091E30087FF02C047
:1059100084E001C081E08093AE030E94AF268091B5
:10592000E80083FF0AC08091E800877F8093E80049
:105930008091EB0080628093EB00AA960FB6F894FA
:10594000DEBF0FBECDBFDF91CF911F9108950895A7
:10595000CF938091AE038823B1F08091E9008F70DE
:105960009091EC0090FF02C090E801C090E0C92F38
:10597000C82B1092E9008091E80083FD0E94512B12
:10598000CF70C093E900CF91089504D06894B1110D
:105990008DC0089570D088F09F5790F0B92F992747
:1059A000B751A0F0D1F0660F771F881F991F1AF02A
:1059B000BA95C9F712C0B13081F077D0B1E008953F
:1059C00074C0672F782F8827B85F39F0B93FCCF3C0
:1059D000869577956795B395D9F73EF49095809520
:1059E000709561957F4F8F4F9F4F0895E89409C040
:1059F00097FB3EF490958095709561957F4F8F4F02
:105A00009F4F9923A9F0F92F96E9BB279395F69517
:105A1000879577956795B795F111F8CFFAF4BB0F95
:105A200011F460FF1BC06F5F7F4F8F4F9F4F16C0F9
:105A3000882311F096E911C0772321F09EE8872F83
:105A4000762F05C0662371F096E8862F70E060E03F
:105A50002AF09A95660F771F881FDAF7880F9695B8
:105A6000879597F9089557FD9058440F551F59F0A1
:105A70005F3F71F04795880F97FB991F61F09F3F3B
:105A800079F087950895121613061406551FF2CF64
:105A90004695F1DF08C0161617061806991FF1CFB4
:105AA00086957105610508940895E894BB276627DB
:105AB0007727CB0197F908950BD078C069D028F0EB
:105AC0006ED018F0952309F05AC05FC01124EECFB4
:105AD000CADFA0F3959FD1F3950F50E0551F629F49
