:100000000C949E020C94E2020C94E2020C94E20224
:100010000C94E2020C94E2020C94E2020C94E202D0
:100020000C94E2020C94E2020C947A1A0C944C1B8D
:100030000C944F140C94E2020C94E2020C94E20231
:100040000C94E2020C94E2020C94E2020C94E202A0
:100050000C94E2020C94B6140C94E2020C94E202AA
:100060000C94E2020C94E2020C94E2020C94E20280
:100070000C94E2020C94E2020C94E2020C94E20270
:100080000C94E2020C94E2020C94E2020C94E20260
:100090000C94E2020C94E2020C94E2020C94E20250
:1000A0000C94E2020C94E2020C94E202AB03B10362
:1000B000B503B803BC03C003C403C803CD03D10315
:1000C000D503D903DC03E003E403E803EC03F10305
:1000D000240B240B5E0B5E0B9D0BE80CE80CE80C6C
:1000E000BF0BE80C660C660CDC0CE80CE80CE30CAF
:1000F000730C730C730C730C730C730C730C730C08
:10010000730C730C730C730C730C730C730C730CF7
:10011000850C950C9C0CA30CAD0C780D780D8B0DFB
:100120008B0D810D8B0D8B0D8B0D780D780D870D43
:100130008B0D8B0D870DB11BD81BC61CD81BC61C85
:10014000201C431CC61C991CA81C00F000201E008B
:100150001F0020002100220023002400250026008B
:1001600027002D002E0031002B0014001A0008007B
:10017000150017001C0018000C00120013002F00BF
:1001800030002A00E00004001600070009000A0001
:100190000B000D000E000F0033003400000028009B
:1001A000E10000001D001B00060019000500110001
:1001B00010003600370038000351E5000451E2001A
:1001C000E300000000002C000000000000003500EB
:1001D000E700E6000451E400010001000100010015
:1001E0000100010001000100010001000100010007
:1001F00001002A00010001000100010001000100CE
:1002000001000100010001000100010001003100B6
:10021000390001000100010001000100010001009E
:1002200001000100010001000000010001000000C8
:1002300001000100010001000100010001000100B6
:100240000100010001000100E000010001000000C8
:10025000000001000000000000002A000100010071
:100260000100010001000100010001000100010086
:1002700001000100010001000100010001002A004D
:100280000100010001000100010001000100010066
:1002900001000100010001000100310039000100EE
:1002A0000100010001000100010001000100010046
:1002B0000100010000000100010000000100010038
:1002C0000100010001000100010001000100010026
:1002D00001000100E000E300E20000000000010076
:1002E0000000000000002A00E600E7000100010015
:1002F00035003A003B003C003D003E003F0040001E
:100300004100420043004400450049003900AC0070
:10031000AE00AB00AD000100010001004600470047
:1003200048005200010001000100AA00A900A80035
:1003300001000100550054004A004B0050004F00DE
:10034000000001000100000069006A000100015383
:100350000253570056004D004E00510001000100AD
:100360000100010001000000000001000000000089
:1003700000004C000100010001000100010001002B
:100380000100010054000100010001000100010012
:10039000010001000100010053005F0060006100E6
:1003A00055000100010001000100010001000100F1
:1003B0000100010058005C005D005E005600010075
:1003C0005000510052004F000100010000000100E8
:1003D0000100000059005A005B00570001000100B5
:1003E0000100010001000100010001000100010005
:1003F0006200000000000100000000000000010099
:1004000001000100010001000A0347004800360016
:10041000300000000C0353004100540041004E0026
:1004200000000403090409025400030100A0FA09B2
:100430000400000103010100092111010001224013
:10044000000705810308000A0904010001030000F8
:10045000000921110100012236000705820308006E
:100460000A09040200010300000009211101000132
:10047000223900070583032000011201100100004A
:100480000008EDFE6060030001020001050109069D
:10049000A101050719E029E7150025019508750157
:1004A000810205081901290595057501910295013B
:1004B000750391010507190029F71500250195F825
:1004C00075018102C005010980A1018502160100A4
:1004D0002603001A81002A8300751095018100C04F
:1004E000050C0901A1018503160100269C021A01D1
:1004F000002A9C02751095018100C005010906A122
:1005000001050719E029E715002501950875018106
:1005100002950175088101050819012905950575E0
:100520000191029501750391010507190029FF1535
:100530000026FF00950675088100C00011241FBE2B
:10054000CFEFDAE0DEBFCDBF04B603FE24C080915A
:100550000B0290910C02A0910D02B0910E02873017
:10056000904BA740B04BB9F410920B0210920C02C2
:1005700010920D0210920E0214BE84B7877F84BFC2
:1005800088E10FB6F89480936000109260000FBE6F
:10059000E0E0F8E3099511E0A0E0B1E0E4E7FAE378
:1005A00002C005900D92A033B107D9F722E0A0E375
:1005B000B1E001C01D92AB30B207E1F70E94AE1767
:1005C0000C94381D0C9400000C944407229A089552
:1005D0000E9443070C94E60281FF02C02A98089506
:1005E0002A9A0895CF93DF93EC01611126C00E94EF
:1005F0001113282F2272209330018A818823E9F079
:100600008091000190910101222339F065E30E945D
:10061000E7130E94DE1265E306C069E20E94E71359
:100620000E94DE1269E280910001909101010E9416
:10063000F213DF91CF910C94DE12DF91CF910895E8
:1006400081E0089581E008950C9422030E94660DD4
:100650002FEF84E39CE0215080409040E1F700C000
:1006600000000C94DC140F931F93CF93DF938C0145
:10067000FC01C081D181CE010E945012BE010E94B6
:100680008904EC01B8010E942403882309F432C1D3
:10069000B801CE010E94F706882309F42BC1C531A9
:1006A000FCE5DF0701F5F8018281882319F0CFE925
:1006B000D2E102C0C6EAD2E10E9411138A7A11F097
:1006C00085E301C089E2FE0109950E94DE1281E006
:1006D0008093350180933601C801DF91CF911F913E
:1006E0000F910C942003C6318CE5D80708F097C011
:1006F000C130ECE5DE0759F4F8018281882309F462
:10070000F9C08091D20181608093D201F3C0C230E0
:10071000FCE5DF0708F477C0F80182818823E1F265
:100720000E946413811102C00E944A130E94771331
:1007300090E09093FD018093FC01FE01E350FC45A5
:10074000E231F10520F4EA5AFF4F0C94FC1C809131
:10075000FC01816003C08091FC0182608093FC01F8
:100760004BC08091FC018460F9CF8091FC0113C0E3
:100770008091FC018061F2CF8091FC018062EECF1C
:100780008091FC018064EACF8091FC018068E6CF13
:100790008091FC0184608860E1CF8091FC018E7FB4
:1007A000DDCF8091FC018D7FD9CF8091FC018B7FC3
:1007B000D5CF8091FC0113C08091FC018F7ECECFFC
:1007C0008091FC018F7DCACF8091FC018F7BC6CFC9
:1007D0008091FC018F77C2CF8091FC018B7F877F56
:1007E000BDCF9091FC0197FB882780F921E08227FB
:1007F00080FB97F99093FC018091FC010E947B1390
:100800000E94660D77C0C115DC4509F060CFF80184
:100810008281882309F46EC00E9426036BC0C93C04
:10082000ECE5DE0739F5F8018281882361F010924A
:1008300036010E948114909334018093330180E249
:100840000E94D40A57C08091360181110FC0809157
:100850003301909134010E948D14883C910530F44D
:1008600087E20E947F0987E20E94730A80E20E9469
:10087000DB0A40C0CA3CFCE5DF0738F5C83CDC4574
:1008800009F025CFF8018281882351F010923501BB
:100890000E948114909332018093310182E0D0CF85
:1008A0008091350181110FC0809131019091320109
:1008B0000E948D14883C910530F486E20E947F09E5
:1008C00086E20E94730A82E0D2CFCC3CECE5DE07E0
:1008D00031F4F8018281882369F080E009C0CD3CC1
:1008E000DC4509F0F4CEF8018281882319F082E01A
:1008F0000E94401880E0DF91CF911F910F910895E1
:100900000C94E8020C94E4020C94EC0280E090E079
:1009100008959EE0799FF001112496E4899FE00DEF
:10092000F11D1124E60FF11DEE0FFF1FE45BFE4FDA
:10093000859194910895880F991F865B9E4FFC01C5
:10094000859194910895CF93DF932EE0729FF001EB
:10095000112496E4899FE00DF11D1124E60FF11D8D
:10096000EE0FFF1FE45BFE4F859194910E944D06B0
:10097000EC01811520E49207C0F5C11580E3D8078A
:1009800008F0E5C0C03ED105D8F4C03CD10508F060
:1009900072C0C83AD10578F4C53AD10508F06FC0E5
:1009A000C130D10509F475C108F42CC1C430D1059A
:1009B00008F06FC127C1CD3BD10508F46BC022C13F
:1009C000CF3FD10509F048F4C03FD10508F0B9C0C8
:1009D000C83ED10508F45DC115C1C11590E2D90723
:1009E00008F457C1CE019F70AEC0811524E592076F
:1009F000D8F4C11583E5D80708F0E4C0C11591E526
:100A0000D90740F4C11520E5D20708F0AAC0DF706D
:100A1000D06A3FC1C11582E5D80708F0BEC0DC2FFF
:100A2000CC27C16FD06A35C1C11596E5D90750F4FE
:100A3000C11525E5D20708F0DAC0DC2FCC27C46F3A
:100A4000D06A27C1C11588E5D80708F4DBC0C115F5
:100A500099E5D90708F4D1C0CE019056811590428E
:100A600008F0D0C08D2F8F710E94C906DD27D0629B
:100A70008F71D82B0EC1CE01805C910964C0C53A3C
:100A8000D10509F4C2C0C63AD10509F4C1C0C3E812
:100A9000D0E4FFC0C83AD10509F4BDC0C93AD105B8
:100AA00009F4BCC0CA3AD10509F4BBC0CB3AD105A0
:100AB00009F4BAC0CC3AD10509F4B9C0CB3BD10591
:100AC00009F4B8C0CC3BD10509F4B7C0CD3AD10583
:100AD00009F4B6C0C03BD10509F4B5C0CE3AD10582
:100AE00009F4B4C0CF3AD10509F4B3C0C13BD10574
:100AF00009F4B2C0C23BD10509F4B1C0C33BD10572
:100B000009F4B0C0C43BD10509F4AFC0C53BD10561
:100B100009F4AEC0C63BD10509F4ADC0C73BD10551
:100B200009F4ACC0C83BD10509F4ABC0C93BD10541
:100B300009F4AAC0CA3BD10509F0A9C0CAE2D6E4AB
:100B4000A8C0D065A6C00E949B04EC01A2C0CE0143
:100B50009927D3FF03C0EC01D86C9BC0EC01D06C8B
:100B600098C02C2F237081E090E002C0880F991F5D
:100B70002A95E2F79C689E0174E0369527957A9550
:100B8000E1F72370922BCF70C695C69520E2C29FE5
:100B9000E0011124C82BD92B7CC08C2F869586951B
:100BA00020E2829FC00111249E0123703327C1E0FF
:100BB000D0E002C0CC0FDD1F2A95E2F7C82BD92B5D
:100BC000DC6867C08C2F8695869520E2829FC001E5
:100BD00011249E0123703327C1E0D0E002C0CC0F66
:100BE000DD1F2A95E2F7C82BD92BDA6852C0CF71E6
:100BF000DD27DC2FCC27D0624CC0DC2FCC27C06F88
:100C0000D06A47C0C0E0D0E044C0C1E8D0E441C0F1
:100C1000C2E8D0E43EC0C2EED4E43BC0C9EED4E4A6
:100C200038C0CAEED4E435C0C5EBD4E432C0C6EB5C
:100C3000D4E42FC0C3EBD4E42CC0C4EBD4E429C06B
:100C4000C7EBD4E426C0CCECD4E423C0CDECD4E490
:100C500020C0C3E8D5E41DC0CAE8D5E41AC0C2E983
:100C6000D5E417C0C4E9D5E414C0C1E2D6E411C08C
:100C7000C3E2D6E40EC0C4E2D6E40BC0C5E2D6E4BB
:100C800008C0C6E2D6E405C0C7E2D6E402C0C0E0B0
:100C9000D4E4CE01DF91CF9108958238910549F1D6
:100CA000B0F48133910509F459C048F489329105B3
:100CB00009F44FC08A32910509F455C0089585336F
:100CC000910509F441C08933910599F00895833E57
:100CD000910531F138F4803E910591F0823E910505
:100CE000A9F00895863E910501F1873E910539F1FD
:100CF00008952091FC0120FD3BC021FD39C00895DD
:100D00008091FC0180FF34C089E341C08091FC01E7
:100D100082FF32C08091FC0184FF2CC080E037C08C
:100D20008091FC0182FD28C0F5CF8091FC0183FFFA
:100D300025C08091FC0184FDF1CF87EE28C0809111
:100D4000FC0183FD1BC0F5CF8091FC0185FF18C01D
:100D500019C08091FC0185FF15C012C08091FC0173
:100D600086FF12C013C08091FC0186FF0FC00CC02B
:100D700080EE0DC083EE0BC082EE09C086EE07C088
:100D800085E305C089E203C081E301C08AE290E007
:100D90000895CF93C82F0E947713282F30E0309307
:100DA000FD012093FC0182FF0DC08C2F88718830DB
:100DB00019F4C77FC46006C08C2F8471843011F48D
:100DC000CB7FC86023FF0DC08C2F8871883119F448
:100DD000C77EC46106C08C2F8471843111F4CB7E30
:100DE000C86124FDC77E8C2FCF9108950895CF93BD
:100DF000DF93EC01FB018281811102C081E040C0E0
:100E000080914401811125C0C631DC45B9F70E94AB
:100E1000F60681E0809344010E948114909343017F
:100E200080934201109237011092390110923801DB
:100E300010923B0110923A0110923D0110923C0138
:100E400010923F0110923E01109241011092400118
:100E500016C080914201909143010E948D14883CFC
:100E6000910560F680913701E82FF0E0EE0FFF1F4B
:100E7000E85CFE4FD183C0838F5F8093370180E0B1
:100E8000DF91CF9108950895089585B7806885BF53
:100E900085B7806885BFABE1B1E021E030E08D919E
:100EA000E82FE295EF70F0E041A18F70B90102C028
:100EB000660F771F8A95E2F7CB01962F909549230D
:100EC00041A392A1982B92A371E0A032B70739F702
:100ED000ADE0B1E021E030E08D91E82FE295EF70D8
:100EE000F0E041A18F70B90102C0660F771F8A95AB
:100EF000E2F7CB01962F9095492341A392A1982B1D
:100F000092A371E0AB31B70739F7EFE4F1E0A5E464
:100F1000B1E0119211921D921D9281E0E935F8071E
:100F2000C1F70C9480044F925F927F928F929F92B0
:100F3000AF92BF92CF92DF92EF92FF920F931F93E7
:100F4000CF93DF930BE111E0C5E4D1E0EE24E3940D
:100F5000F12C99249394BE01A880B980198218823B
:100F6000D8012D918D01E22FE295EF70F0E081A183
:100F70002F70A70102C0440F551F2A95E2F79A016E
:100F8000842B81A382A1842E8094882182A350EA9D
:100F90005A95F1F74DE0442E41E0542E80E090E068
:100FA000D2014D912D01C42EC2943FE0C322D12C19
:100FB000D60190967C90C880D9804F70D70102C02E
:100FC000AA0FBB1F4A95E2F77A2241F4A701082E27
:100FD00002C0440F551F0A94E2F702C040E050E0FF
:100FE0004C295D295983488301968E309105C1F6BD
:100FF00081A1882181A382A1822B82A32296FB0159
:1010000080819181A816B90641F0909259010E9401
:10101000811490935B0180935A01F1E000321F0725
:1010200009F099CF809159018823B1F080915A013C
:1010300090915B010E948D14409770F0E5E4F1E01F
:10104000AFE4B1E0819191918D939D9341E0EF34B4
:10105000F407C1F7109259010E94820481E0DF91E8
:10106000CF911F910F91FF90EF90DF90CF90BF90A5
:10107000AF909F908F907F905F904F900895E82F52
:10108000F0E0EE0FFF1FE15BFE4F8081918108953C
:10109000089590936101809360010895E09160014B
:1010A000F0916101309721F00190F081E02D0994D9
:1010B00080E00895E0916001F0916101309721F0A6
:1010C0000280F381E02D0994089520915E01309112
:1010D0005F018217930771F090935F0180935E0127
:1010E000E0916001F0916101309721F00680F78175
:1010F000E02D0994089520915C0130915D018217E3
:10110000930771F090935D0180935C01E091600121
:10111000F0916101309721F00084F185E02D099470
:10112000089508950C9491080E9478140E94450730
:101130000C94FF145F926F927F928F929F92AF9266
:10114000BF92CF92DF92EF92FF920F931F93CF93B4
:10115000DF93CDB7DEB72A970FB6F894DEBF0FBE88
:10116000CDBF0E94930793E6C92E91E0D92E00E0EF
:1011700010E0AA24A394B12C502E802F0E943F0887
:101180003C01F601E190F1906F01E826F926E114A7
:10119000F104B1F40F5F1F4F0530110569F78FEFB0
:1011A00089838A831B820E9481148160782F9D83AA
:1011B0008C8349815A816B818D810E9451093AC08B
:1011C0008091D20181FD0E94480820E030E0450175
:1011D000022E02C0880C991C0A94E2F7C4018E21E9
:1011E0009F21892B09F12E835F826820792081E07D
:1011F000672809F480E088870E9481148160782F35
:101200009A8789874E815F8168858A850E94510906
:10121000F801EE0FFF1FED59FE4F80819181882567
:1012200099259183808306C02F5F3F4F2E30310573
:1012300071F6B0CF109162010E944E081817D9F0D4
:101240000E944E08809362012A960FB6F894DEBF82
:101250000FBECDBFDF91CF911F910F91FF90EF9007
:10126000DF90CF90BF90AF909F908F907F906F90C6
:101270005F900C9484042A960FB6F894DEBF0FBEDC
:10128000CDBFDF91CF911F910F91FF90EF90DF9035
:10129000CF90BF90AF909F908F907F906F905F9016
:1012A0000895CF93DF93CDB7DEB72B970FB6F894A1
:1012B000DEBF0FBECDBF4F83588769877A878B8784
:1012C000DE01119686E0FD0111928A95E9F785E02D
:1012D000FE01379601900D928A95E1F749815A8176
:1012E0006B817C818D819E810E9430102B960FB680
:1012F000F894DEBF0FBECDBFDF91CF910895CF939D
:10130000DF931F92CDB7DEB7682F882309F4E7C0BB
:10131000823879F40E944E0881FDE1C069E3809132
:101320000001909101010E94E7130E94DE1269E31F
:1013300010C08338C9F40E944E0880FDD0C063E518
:1013400080910001909101010E94E7130E94DE123A
:1013500063E580910001909101010E94F2130F90CA
:10136000DF91CF910C94DE12843879F40E944E08FC
:1013700082FDB5C067E480910001909101010E9457
:10138000E7130E94DE1267E4E4CF8CEF860F813A08
:1013900070F4862F69830E94D115698181119FC0E5
:1013A00080910001909101010E94E713D8CF80E263
:1013B000860F883048F4677081E001C0880F6A9515
:1013C000EAF70E941413CBCF8BE5860F833088F4A5
:1013D000653A29F0663A31F482E890E005C081E888
:1013E00090E002C083E890E00F90DF91CF910C94E1
:1013F000650888E5860F853108F071C0683A61F1AB
:10140000693A69F16A3A71F16B3A79F16C3A81F1B2
:101410006B3B89F16C3B91F16D3A99F1603BA1F125
:101420006E3AA9F16F3AB1F1613BB9F1623BC1F19A
:10143000633BC9F1643BD1F1653BD9F1663BE1F116
:10144000673BE9F1683BF1F1693BF9F16A3B09F06F
:101450003FC08AE292E03EC082EE90E03BC089EE5F
:1014600090E038C08AEE90E035C085EB90E032C065
:1014700086EB90E02FC083EB90E02CC084EB90E0F3
:1014800029C087EB90E026C08CEC90E023C08DEC67
:1014900090E020C083E891E01DC08AE891E01AC086
:1014A00082E991E017C084E991E014C081E292E002
:1014B00011C083E292E00EC084E292E00BC085E2AC
:1014C00092E008C086E292E005C087E292E002C0A6
:1014D00080E090E00F90DF91CF910C947B080F900B
:1014E000DF91CF910895882309F45DC0823879F4A3
:1014F0000E944E0881FF57C069E3809100019091DE
:1015000001010E94E7130E94DE1269E310C08338D4
:10151000B1F40E944E0880FF46C063E5809100014F
:10152000909101010E94E7130E94DE1263E5809111
:101530000001909101010E94F2130C94DE12843894
:1015400079F40E944E0882FF2EC067E4809100016A
:10155000909101010E94E7130E94DE1267E4E7CF39
:101560009CEF980F913A10F4682FE1CF90E2980F1A
:10157000983050F4877091E001C0990F8A95EAF78E
:10158000892F0E941A13D9CF9BE5980F933020F42E
:1015900080E090E00C946508885A853120F480E062
:1015A00090E00C947B080895882321F00E94141386
:1015B0000C94DE120895882321F00E941A130C94D3
:1015C000DE1208958F929F92BF92CF92DF92EF9298
:1015D000FF920F931F93CF93DF9300D0CDB7DEB769
:1015E0004C01472FFC01C580C2949FE0C922D280E4
:1015F000DD2031F079836A830E9431136A81498149
:1016000049836A830E94D71249816A81882389F0BD
:10161000DD2079F080E2860F883058F082E00E9469
:10162000C0120E94D712BB24B394B82649816A81A4
:1016300001C0B12CE42EE2948FE0E822F12CF701F6
:10164000E859FF4F0C94FC1C842F807F142F1F70CF
:10165000882311F01295107FDD20C1F0112309F4C9
:1016600096C180E2860F883010F0611105C0812F8D
:101670006A830E94141304C0812F6A830E9424137A
:101680006A816A830E94DE126A8181C1862F6A8321
:101690000E94730A6A81112309F49AC180E2860FBD
:1016A000883010F0611104C0812F0E941A1303C00A
:1016B000812F0E942A130E94DE128AC1242F207FCC
:1016C000842F8F70203211F08295807F662319F06D
:1016D0006130B9F022C0DD2049F0CC2009F40CC102
:1016E000F1E0CF1209C10E94441372C1CC2021F055
:1016F00021E0C21609F46CC189830E9447138981D5
:1017000001C1DD2029F095E09C1508F461C1F4C009
:10171000E4E0EC1508F45CC1F5C0DD2051F0CC200C
:1017200009F4EAC0F401958190FF31C19F7095835F
:10173000E3C0CC2009F4E6C03BC1242F26952695B2
:10174000237030E02115310521F02130310561F0A1
:101750003FC1DD2021F0862F942F937002C080E0DE
:1017600090E00E94650844C1DD2021F0862F942F6F
:10177000937002C080E090E00E947B0839C1842F02
:10178000837009F04EC0D1102FC1262F22952695C7
:101790002770220F220F862F8F70C82ED12CE12C9C
:1017A000F12C022E04C0CC0CDD1CEE1CFF1C0A9494
:1017B000D2F764FF10C06FE070E080E090E004C0FA
:1017C000660F771F881F991F2A95D2F7609570952D
:1017D0008095909503C060E070E0CB01242F2695A2
:1017E0002695237030E02230310569F02330310531
:1017F00089F06C297D298E299F292130310571F0CE
:101800000E947F11F1C06C297D298E299F290E9499
:101810009111EAC00E947F11C701B6010E946D11AB
:10182000E3C0DD2019F0842F817001C086958823E4
:1018300009F4DAC0262F229526952770220F220F51
:10184000862F8F70C82ED12CE12CF12C022E04C0D3
:10185000CC0CDD1CEE1CFF1C0A94D2F764FF10C0F8
:101860006FE070E080E090E004C0660F771F881F93
:10187000991F2A95D2F7609570958095909503C031
:1018800060E070E0CB01242F26952695237030E090
:101890002230310569F02330310589F06C297D292A
:1018A0008E299F292130310571F00E942B129CC096
:1018B0006C297D298E299F290E943D1295C00E9486
:1018C0002B12C701B6010E9419128EC0062F10E01C
:1018D000F801E05EF109E531F10508F054C0E8587F
:1018E000FF4F0C94FC1C162F1F70842F8F71DD206E
:1018F00031F00E94C411812F0E94D40A69C00E9455
:10190000DF11812F0E94DB0A63C0DD2049F0F4E083
:10191000FC1508F45DC0842F8F710E94FE1158C021
:1019200025E02C1508F454C0F6CFDD2039F0842FC3
:101930008F710E94C4114CC0DD20C9F3842F8F71B8
:101940000E94DF1145C0DD2029F0842F8F710E9495
:10195000B5113EC00E94B0113BC0DD2051F0142FE4
:101960001F71812F0E94C41163E0812F0E94B71262
:101970002FC081E00E94C01281E08C1548F582E002
:101980000E94C01225C0DD2031F0CC2081F2862FCC
:101990000E947F091DC0CC2089F2693349F49FEF72
:1019A000E7EEF3E09150E040F040E1F700C00000C6
:1019B000862F0E94730A0CC04F70C4010E948604D7
:1019C0000E94DD1015C04F70C4010E94F20210C0C9
:1019D00028E0E216F10441F05CF09AE0E91AF1081F
:1019E000E2E0EE16F10420F40E944E080E94840406
:1019F000BB20F1F00E94B31280FD1AC0F4011282E4
:101A00000E94AD120E94C411C4010E94260D0E94C2
:101A1000AD120F900F90DF91CF911F910F91FF901A
:101A2000EF90DF90CF90BF909F908F900C94DF113C
:101A30000F900F90DF91CF911F910F91FF90EF903A
:101A4000DF90CF90BF909F908F9008950F931F933A
:101A5000CF93DF93EC01288139818B819C81892B85
:101A600031F03F3F11F080E003C02F3FE1F781E00C
:101A7000811113C0CE010E943303882371F0688165
:101A800079818A810E949B128C010E944F120E94D0
:101A90006A11B801CE010E94E20ADF91CF911F9135
:101AA0000F9108950E9431130E944113809100010B
:101AB000909101010E94FD130E94DE1280E090E0EF
:101AC0000E94650880E090E00C947B080E9421133E
:101AD0000C94520D0E949012E92FE295EF70F0E005
:101AE0003297EE30F105B8F4E357FF4F0C94FC1C2D
:101AF000803F59F018F4803E70F407C0843F59F4D9
:101B000004C0803E10F0813F31F481E0089593FBE2
:101B1000882780F9089580E00895CF93DF9300D05F
:101B200000D01F92CDB7DEB70F900F900F900F909F
:101B30000F90DF91CF910895CF93DF9300D000D025
:101B400000D0CDB7DEB726960FB6F894DEBF0FBE35
:101B5000CDBFDF91CF9108951F93CF93DF93C091B5
:101B60006D0116E080916E01C81799F0D0E01C9FBE
:101B7000F0011D9FF00D1124E159FE4F408151816C
:101B800062817381848195810E949C0D2196C7702A
:101B9000E9CFDF91CF911F91089540919F0150911E
:101BA000A0016091A1017091A2018091A301909187
:101BB000A4010C949C0DCF938091A40182958F7009
:101BC00009F05FC08091A101882309F45AC02091D7
:101BD0006D01A0916E0160919F017091A0018091B3
:101BE000A2019091A30131E06F3F09F030E0B32FE3
:101BF000C6E02A1709F445C0009721F07F3F21F481
:101C00004B2F03C041E001C040E030E040FD35C053
:101C1000C29FF001C39FF00D1124E159FE4F418195
:101C200074132BC04081641328C04281411125C028
:101C3000438154814817590710F441505109481BFA
:101C4000590B483C5105C8F48091A4018F70806104
:101C50008093A40186E0829FF001839FF00D112400
:101C6000EC58FE4F80818F70806180838FE991E016
:101C70000E94260DCF910C94AC0D2F5F3F4F277023
:101C8000B8CFCF910895CF92DF92EF92FF920F934A
:101C90001F93CF93DF93CDB7DEB762970FB6F8945B
:101CA000DEBF0FBECDBF8C0185E0F801DE011D96C1
:101CB00001900D928A95E1F7D8014C9111965C91B3
:101CC000119712966C9112971396ED90FC901497C1
:101CD00070919F01E091A0012091A2013091A30198
:101CE0002115310531F0EF3F31F481E07F3F19F4E8
:101CF00003C081E001C080E0B82FB170CB2E80FD21
:101D00006CC1D090A101DD2009F4F5C0F091A401CF
:101D1000E216F30638F0C701821B930B883C91054D
:101D200048F09BC0209530952E0D3F1D283C310575
:101D300008F093C08F2F807F09F052C0E51314C0C4
:101D4000741312C0D62E61110FC0FF70F061F093B2
:101D5000A4010E94CD0D8FE991E00E94260D809193
:101D6000A401F80185836CC1EF2831F05F3F31F4A5
:101D700081E04F3F19F403C081E001C080E080FDA5
:101D800003C081E0862701C080E0F82FF170FF2EAC
:101D900080FF1CC080916D0120916E0136E082179A
:101DA00009F428C190E0389FF001399FF00D11240B
:101DB000E159FE4F7181571306C07081471303C06C
:101DC0007281671303C001968770E9CFD62E662310
:101DD00009F436C18091A40181608093A40153C0AD
:101DE000E51308C0741306C0611104C0D80115962C
:101DF000FC93AEC04D875E878D859E856A8B0E9461
:101E00006A0D6A89882329F1D62E662311F1209163
:101E1000A401822F82958F7090E002970CF460C02D
:101E200080919F019091A00198878F831986FB86EE
:101E3000EA862C87CE01079651C0E51731F14D8710
:101E40005E878D859E856A8B0E946A0D6A898111E5
:101E50002EC0C8010E94260DA4C08F2F807F69F775
:101E60007E2DF98AE88A89890E948D0D8FE991E09B
:101E70000E94260DEFE9F1E086E0DF011D928A95D0
:101E8000E9F70E94CD0DD12CDBC07413D8CF6111BE
:101E9000D6CFD8011596FC93C8010E94260DEFE914
:101EA000F1E086E0DF011D928A95E9F7C9C0D62EE0
:101EB000662379F22091A401822F82958F7090E0A1
:101EC000029774F080919F019091A0019A83898379
:101ED0001B82FD82EC822E83CE0101960E94260D8C
:101EE00086E0F801AFE9B1E001900D928A95E1F743
:101EF0000E94DB0D6FC0E216F30628F0C701821BBB
:101F0000930B9C0104C0209530952E0D3F1D283C5D
:101F1000310508F052C0D62E662309F49ACFE51396
:101F20002CC074132AC08091A40180FD1DC0982F7D
:101F300092959F70C9F0D80115968C9315979F3094
:101F400039F09F5F9295907F8F70892B15968C93B7
:101F5000C8010E94260D86E0F801AFE9B1E00190CA
:101F60000D928A95E1F736C086E0F801AFE9B1E05D
:101F700001900D928A95E1F763C04D875E878D854C
:101F80009E850E946A0D882379F086E0F801AFE90A
:101F9000B1E001900D928A95E1F70E94DB0D0E945D
:101FA000CD0DDD24D3944CC08091A4018160809339
:101FB000A401C8010E94260D43C07E2DF98AE88A3B
:101FC00089890E948D0DEFE9F1E086E0DF011D9225
:101FD0008A95E9F70E94CD0D33C0662309F439CF05
:101FE0004D875E878D859E850E946A0D882309F442
:101FF00030CFCBCF4D875E878D859E850E94901216
:10200000292F22952F7030E0223031052CF49F705B
:1020100041F0811106C00CC0243031052CF49F70B2
:1020200049F4805E883020F0C8010E94260DCF2C34
:10203000DC2C06C0D80115969C91907F91F7F8CFC3
:102040008D2D62960FB6F894DEBF0FBECDBFDF9127
:10205000CF911F910F91FF90EF90DF90CF90089557
:102060001F93CF93DF93CDB7DEB72C970FB6F894BD
:10207000DEBF0FBECDBF4F83588769877A878B87B6
:102080009C87CE0107960E94430E8823C1F02F81C2
:1020900038858A859B85892B31F03F3F11F080E0A0
:1020A00003C02F3FE1F781E0811147C04F81588580
:1020B00069857A858B859C850E949C0D3EC086E053
:1020C000FE013796DE01119601900D928A95E1F797
:1020D000FF81E8854A855B854115510531F0EF3F69
:1020E00031F481E0FF3F19F403C081E001C080E0DA
:1020F00080FD23C020916E0130E0C90101968770F8
:10210000992760916D0170E086179707F1F1F983C7
:10211000EA835D834C8396E0929FD001939FB00D3C
:102120001124A159BE4FFE01319601900D929A954E
:10213000E1F780936E010E94AC0D16E080916D0175
:1021400090916E01891779F1189FC001112481596E
:102150009E4F0E94430E882331F1E0916D011E9F36
:10216000F0011124E159FE4F408151816281738158
:10217000848195810E949C0D80916D0190E0019673
:102180008770992780936D01D9CF0E94660D1092B8
:102190006E0110926D01EFE9F1E086E0DF011D9222
:1021A0008A95E9F7CACF2C960FB6F894DEBF0FBE1A
:1021B000CDBFDF91CF911F910895EF92FF920F93C2
:1021C0001F93CF93DF93FC01009709F46FC0F12CAC
:1021D000EE24E394EF0121968491843740F4843017
:1021E00008F055C0813081F0823021F15FC0853721
:1021F00009F447C0C0F19CE7980F903708F056C02B
:102200008F770E94730A45C08F010E5F1F4FFE013A
:10221000849190E2980F983050F48770FE2D01C0A1
:10222000FF0F8A95EAF78F2F0E94341315C00E9482
:102230007F0914C08F010E5F1F4FFE01849190E251
:10224000980F983068F48770FE2D01C0FF0F8A95B3
:10225000EAF78F2F0E943A130E94DE12E80119C09C
:102260000E94730AFBCFCF010296FE01C491CC23DA
:1022700061F0EFE9FFE03197F1F700C00000C150D5
:10228000F6CFCF010296FE01F490EC0102C00E944D
:102290007F098F2D882341F0EFE9FFE03197F1F7B7
:1022A00000C000008150F6CFFE0194CFDF91CF91A6
:1022B0001F910F91FF90EF90089508950E945D1176
:1022C0006093A9017093AA018093AB019093AC0134
:1022D0000C94520D08950C945E110F931F9300916E
:1022E000A9011091AA012091AB013091AC01602BA2
:1022F000712B822B932B1F910F910C945E110F93D6
:102300001F930091A9011091AA012091AB01309176
:10231000AC0160237123822393231F910F910C94AE
:102320005E110F931F930091A9011091AA012091B2
:10233000AB013091AC0160277127822793271F9151
:102340000F910C945E1108950E94A3116093A50152
:102350007093A6018093A7019093A8010C94520D4D
:1023600060E070E0CB010C94A41141E050E060E02B
:1023700070E004C0440F551F661F771F8A95D2F77F
:10238000CB01BA010C94A41141E050E060E070E090
:1023900004C0440F551F661F771F8A95D2F780919E
:1023A000A5019091A601A091A701B091A801482B89
:1023B000592B6A2B7B2BCB01BA010C94A41141E061
:1023C00050E060E070E004C0440F551F661F771FA7
:1023D0008A95D2F740955095609570958091A501AA
:1023E0009091A601A091A701B091A801482359237B
:1023F0006A237B23CB01BA010C94A41141E050E085
:1024000060E070E004C0440F551F661F771F8A9577
:10241000D2F78091A5019091A601A091A701B0915A
:10242000A801482759276A277B27CB01BA010C94BA
:10243000A4110F931F930091A5011091A601209163
:10244000A7013091A801602B712B822B932B1F9138
:102450000F910C94A4110F931F930091A50110915B
:10246000A6012091A7013091A80160237123822346
:1024700093231F910F910C94A4110F931F9300911C
:10248000A5011091A6012091A7013091A801602714
:102490007127822793271F910F910C94A4110895FF
:1024A000CF92DF92EF92FF920F931F93CF93DF9320
:1024B000EC01C090A901D090AA01E090AB01F0908E
:1024C000AC018091A5019091A601A091A701B091C6
:1024D000A801C82AD92AEA2AFB2A0FE110E0B7018D
:1024E000A601002E04C076956795579547950A94E6
:1024F000D2F740FD05C00150110988F780E007C000
:10250000BE01802F0E94A3040197A9F3802FDF91C1
:10251000CF911F910F91FF90EF90DF90CF90089592
:10252000CF93DF93EC010E945012BE010E94A304DE
:10253000DF91CF910895CB010E9490120895682FEA
:1025400080910001909101010C94E713682F809114
:102550000001909101010C94F2138091AD018595D9
:102560008595859508958091AD018770089598E0CF
:10257000899F90011124622B6093AD010C94C411CA
:102580004091AD01809584238093AD01982F977081
:1025900069F450E0282F332727FD30954217530761
:1025A00029F08595859585950C94DF110895909176
:1025B000AD01977081E009F480E00895E091000199
:1025C000F09101018091D1018083E0910001F091AF
:1025D000010180819091D001892B8083E0910001DD
:1025E000F091010180819091CF01892B808390919E
:1025F000AE01992381F0E0910001F0910101808109
:10260000892B808380910001909101010E948013A9
:1026100081111092AE0180910001909101010C9402
:102620005A088091D10108959091D101982B9093EF
:10263000D101089580959091D10198239093D10173
:1026400008951092D10108959091D001982B909304
:10265000D001089580959091D00198239093D00156
:1026600008951092D00108959091CF01982B9093E6
:10267000CF01089580959091CF0198239093CF0139
:1026800008951092CF0108958093AE01089510929D
:10269000AE0108956DEE7EEF80E090E00E94221D75
:1026A00060E082E090E00E94101D60E083E090E036
:1026B0000E94101D60E084E090E00E94101D60E028
:1026C00085E090E00C94101D80E090E00E940A1DCF
:1026D00021E08D3E9E4F09F020E0822F089582E098
:1026E00090E00C94021D83E090E00C94021D84E0C5
:1026F00090E00C94021D682F84E090E00C94101D73
:1027000020E030E040E0FC01E20FF31F5181511165
:102710004F5F2F5F3F4F2F313105A9F7842F089569
:1027200020E030E04FEFFC01E20FF31F528156171B
:1027300099F04F3F19F4511101C0422F2F5F3F4FC5
:102740002E31310581F74F3F39F0FC01E40FF11DC7
:1027500047FDFA9562830895089520E030E0FC017A
:10276000E20FF31F4281461301C012822F5F3F4FD9
:102770002E313105A1F70895262F26952695269509
:102780002F3170F4FC01E20FF11D677021E030E0A1
:10279000062E01C0220F0A94EAF78181822B8183E1
:1027A0000895262F2695269526952F3178F4FC013D
:1027B000E20FF11D677021E030E0062E01C0220F0C
:1027C0000A94EAF720958181282321830895209196
:1027D0000C01222329F02091FC0127FD0C94BC134D
:1027E0000C94901320910C01222329F02091FC01DC
:1027F00027FD0C94D1130C94AD1320E030E0FC01C4
:10280000E20FF31F11822F5F3F4F2F313105B9F7D0
:10281000089580910202843021F11092D30120E4C6
:1028200088E190E00FB6F894A895809360000FBE01
:102830002093600080E00E94840483B7817F8460DD
:1028400083BF83B7816083BF7894889583B78E7F79
:1028500083BF88E10FB6F894809360001092600007
:102860000FBE089508950895CF930E9432140E94D8
:1028700093070E943314C0E08C2F0E943F08892BDD
:1028800029F4CF5FC530C1F780E001C081E0CF916E
:1028900008950E94660D0E944E080C9484041F92B5
:1028A0000F920FB60F9211248F939F93AF93BF9304
:1028B0008091D301811113C08091F8019091F901A9
:1028C000A091FA01B091FB014196A11DB11D809329
:1028D000F8019093F901A093FA01B093FB01BF9125
:1028E000AF919F918F910F900FBE0F901F901895F1
:1028F00082E084BD93E095BD9AEF97BD80936E0012
:1029000008952FB7F8948091F8019091F901A09162
:10291000FA01B091FB012FBF0895CF92DF92EF92A1
:10292000FF920F931F932FB7F8944091F8015091A5
:10293000F9016091FA017091FB012FBF6A017B01DF
:10294000EE24FF248C0120E030E0C016D106E20620
:10295000F30610F441505109481B590BCA011F914D
:102960000F91FF90EF90DF90CF90089578941F9291
:102970000F920FB60F9211248F939F93AF93BF9333
:102980008091F8019091F901A091FA01B091FB01B9
:102990000196A11DB11D8093F8019093F901A093B8
:1029A000FA01B093FB01BF91AF919F918F910F906E
:1029B0000FBE0F901F9018950E94FF19F8942FEFEB
:1029C00087EA91E6215080409040E1F700C0000086
:1029D00087E090EBDC0180930B0290930C02A093B4
:1029E0000D02B0930E022CE088E190E00FB6F8944F
:1029F000A895809360000FBE20936000FFCF0E94D7
:102A00006413811102C00E944A130E946F138093C5
:102A1000D2010E94771390E09093FD018093FC0116
:102A20000E947313682F70E080E090E00C946B11AB
:102A3000873220F58E3108F098C0803109F474C0D7
:102A400070F4873009F44CC018F4863089F12EC038
:102A50008B3009F4A0C08E3009F45CC027C08631E9
:102A600009F499C020F4813109F46FC01FC0893185
:102A700009F491C08B3109F443C018C0883309F4BC
:102A80008AC050F4893209F47EC0853309F47BC0D2
:102A9000873209F478C00AC0833409F474C020F482
:102AA0008A3308F060C002C0883461F080E0089585
:102AB0008091D201817F8E7F8093D20181E08093CB
:102AC000D40108950E94660D2FEF83ED90E321500D
:102AD00080409040E1F700C000000E94DC145BC021
:102AE0009091D201892F8095817080FB90F990930D
:102AF000D201811150C0997F977F9093D2014BC032
:102B00009091D20191FB882780F921E0822780FBF8
:102B100091F913C09091D20192FB882780F921E0AE
:102B2000822780FB92F909C09091D20193FB8827FC
:102B300080F921E0822780FB93F99093D2018823CA
:102B400051F191609093D20108950E94660D909189
:102B5000FC0197FB882780F921E0822780FB97F909
:102B60009093FC0118C027EC01C023EE280F61E010
:102B700070E080E090E004C0660F771F881F991F07
:102B80002A95D2F704C061E070E080E090E00E94F6
:102B90006B110E94660D81E0089580E0089580E049
:102BA0000895CF93C82F8091D401882319F08130E4
:102BB00049F02EC0E0910001F09101018081823244
:102BC00049F507C0E0910001F09101018081823256
:102BD00049F48C2F0E94CD15811117C08C2F0E94B3
:102BE000181514C08C2F0E94CF1581110EC0C4314E
:102BF00049F018F4CB3049F00FC0C93219F0C8338E
:102C000021F00AC01092D40107C081E0817006C093
:102C10001092D40180E002C080E0F8CFCF910895F7
:102C20008091F501089508950F931F93CF93DF933B
:102C300000D01F92CDB7DEB78C010E9450188230B1
:102C400011F0843021F583E089831B830A8382E0BD
:102C50008093E9008FEF9091E800815095FD06C0C8
:102C600095ED9A95F1F700008111F5CF8091E8007C
:102C700085FF0DC040E050E063E070E0CE010196BA
:102C80000E946D188091E8008E778093E8000F9085
:102C90000F900F90DF91CF911F910F910895CF93D7
:102CA000DF9300D01F92CDB7DEB72091020224300F
:102CB00029F522E02983805891099B838A832093F8
:102CC000E9008FEF9091E800815095FD06C095EDE9
:102CD0009A95F1F700008111F5CF8091E80085FF0A
:102CE0000DC040E050E063E070E0CE0101960E942C
:102CF0006D188091E8008E778093E8000F900F9018
:102D00000F90DF91CF910895CF93DF93EC010E9454
:102D10005018823019F0843009F047C080910C01BE
:102D20008823E1F08091FC0187FF18C083E0809345
:102D3000E9008FEF9091E800815095FD06C095E184
:102D40009A95F1F700008111F5CF8091E80085FF99
:102D50002CC040E050E060E270E017C081E080935A
:102D6000E9008FEF9091E800815095FD06C095ED48
:102D70009A95F1F700008111F5CF8091E80085FF69
:102D800014C040E050E068E070E0CE010E946D1891
:102D90008091E8008E778093E80080E2FE01A5ED47
:102DA000B1E001900D928A95E1F7DF91CF910895FE
:102DB00080910102811109C00E94FF190E945C1AD2
:102DC0008091E20084608093E200089510920102F5
:102DD0000895089508950C94491442E061EC81E04F
:102DE0000E94791942E061EC82E00E94791942E286
:102DF00061EC83E00C94791980910402833009F42A
:102E000055C030F4813071F0823009F48EC00895DD
:102E10008A3009F47AC08B3009F460C0893009F037
:102E20009CC020C080910302813A09F096C0809135
:102E3000E800877F8093E800809107029091080264
:102E4000892B21F060E080E090E003C060E285ED36
:102E500091E070E00E94B6188091E8008B77809333
:102E6000E800089580910302813209F076C08091D4
:102E7000070290910802009719F0029709F06DC0BF
:102E80008091E800877F8093E8008091E80082FDD0
:102E900005C0809102028111F8CF5FC08091F100DE
:102EA0008093F5018091E8008B7753C080910302F5
:102EB000813A09F052C08091070290910802892B53
:102EC00009F04BC08091E800877F8093E8008091F3
:102ED000E80080FFFCCF80910C0136C08091030296
:102EE0008132D9F58091070290910802892BA9F5CA
:102EF0008091E800877F8093E8000E94AE1980915E
:102F0000050280930C010C94660D809103028132BE
:102F100021F58091E800877F8093E8000E94AE1938
:102F2000809106028093F601089580910302813A10
:102F3000A1F48091E800877F8093E8008091E80009
:102F400080FFFCCF8091F6018093F1008091E80032
:102F50008E778093E8000C94AE19089584B7877F2C
:102F600084BF88E10FB6F8948093600010926000EF
:102F70000FBE80E880936100109261000E94920869
:102F80000E94FF190E945C1A8091E2008460809385
:102F9000E20078940E94DF1C0E94940882E091E095
:102FA0000E94490880910202853069F40E94091448
:102FB000809100028823B1F30E943414882391F396
:102FC0000E945718EFCF0E949A08ECCF292F332781
:102FD00023303105A9F06CF42130310509F442C0E9
:102FE0002230310509F043C084E590E026E234E068
:102FF00042C021323105C9F02232310519F137C002
:1030000099278130910541F08230910541F0892B5B
:1030100071F5E2E2F4E005C0E4E1F4E002C0E8E0CA
:10302000F4E0849190E09F0126C063307105F8F4CC
:10303000FB01EE0FFF1FE75DFE4F2081318189E02C
:1030400090E019C06330710590F4FB01EE0FFF1F93
:10305000ED5DFE4F20813181FB01E05EFE4F8081FE
:1030600090E009C082E190E02AE734E004C080E00B
:1030700090E020E030E0FA01318320830895089544
:10308000CF93C82F0E943F18C093F701CF910895A6
:1030900080910202843011F482E0089581E0089565
:1030A0008091F701811102C00C944818089580E1C5
:1030B00089BD82E189BD09B400FEFDCF8091D800B1
:1030C0008F7D8093D8008091E00082608093E00043
:1030D0008091E00081FDFCCF0895CF92DF92EF92C6
:1030E000FF920F931F93CF93DF937C018B01EA0133
:1030F0000E94CF19811131C0209731F088819981C8
:10310000081B190BE80EF91EC12CD12C0115110555
:1031100019F18091E80085FD14C08091E8008E7758
:103120008093E800209741F0888199818C0D9D1D46
:103130009983888385E011C00E94CF19882331F3D9
:103140000CC0F70181917F018093F10001501109BA
:10315000FFEFCF1ADF0ADACF80E0DF91CF911F9126
:103160000F91FF90EF90DF90CF900895209109028A
:1031700030910A022617370748F06115710539F4B6
:103180002091E8002E772093E80001C0B901FC01EE
:1031900020E061157105B9F180910202882309F4DC
:1031A00040C0853009F43FC08091E80083FD3DC0F8
:1031B0008091E80082FF06C08091E80082FF26C06F
:1031C00080E008958091E80080FFE3CF2091F30034
:1031D0008091F20090E0922B6115710551F08830DA
:1031E000910538F421912093F10061507109019605
:1031F000F3CF21E0089709F020E08091E8008E7776
:103200008093E800C6CF2111C7CFD6CF80910202AC
:10321000882339F0853039F08091E80083FFCCCFE6
:1032200004C082E0089583E0089581E0089520912C
:10323000090230910A022617370748F06115710517
:1032400039F42091E8002E772093E80001C0B901FD
:10325000FC0120E061157105C1F180910202882313
:1032600009F441C0853009F440C08091E80083FD35
:103270003EC08091E80082FF06C08091E80082FF96
:1032800027C080E008958091E80080FFE3CF20917F
:10329000F3008091F20090E0922B6115710559F0D6
:1032A0008830910540F424912093F10031966150CB
:1032B00071090196F2CF21E0089709F020E0809192
:1032C000E8008E778093E800C5CF2111C6CFD5CF17
:1032D00080910202882339F0853039F08091E8002E
:1032E00083FFCBCF04C082E0089583E0089581E09E
:1032F0000895982F973058F59093E900981739F072
:103300007091EC002091ED005091F00003C0242F4B
:10331000762F50E021FF19C03091EB003E7F3093B3
:10332000EB003091ED003D7F3093ED003091EB00EC
:1033300031603093EB007093EC002093ED005093DC
:10334000F0002091EE0027FF07C09F5FD3CF8F7062
:103350008093E90081E0089580E008958091030260
:1033600087FD05C08091E80080FF0EC012C08091EB
:10337000E80082FD05C0809102028111F8CF089516
:103380008091E8008B7708C0809102028111EACF1A
:1033900008958091E8008E778093E80008958091E9
:1033A000E4009091E50045E62091EC0020FF21C06B
:1033B0002091E80020FD21C020910202222389F003
:1033C000253089F02091EB0025FD0FC02091E4000D
:1033D0003091E5002817390739F3415041F0C90110
:1033E000E3CF82E0089583E0089581E0089584E0CA
:1033F00008952091E80022FFDFCF80E008950E9429
:103400006D1A0E94751AE0EEF0E080818160808381
:10341000E8EDF0E080818F77808319BCA7EDB0E004
:103420008C918E7F8C9380818F7E8083109201029D
:1034300008950F931F93CF93DF930E946D1A0E94FC
:10344000751AC8EDD0E088818F778883888180687D
:10345000888388818F7D888319BC10920202109224
:10346000FE01109200021092FF0100EE10E0F80140
:1034700080818B7F808388818160888342E060E0E7
:1034800080E00E947919E1EEF0E080818E7F8083F8
:10349000E2EEF0E0808181608083808188608083BB
:1034A000F80180818E7F8083888180618883DF91AD
:1034B000CF911F910F910895E8EDF0E080818F7E0C
:1034C0008083E7EDF0E080818160808384E082BFCB
:1034D00081E0809301020C94191AE8EDF0E08081FC
:1034E0008E7F80831092E20008951092DA0010928D
:1034F000E10008951F920F920FB60F9211242F939F
:103500003F934F935F936F937F938F939F93AF936B
:10351000BF93EF93FF938091E10082FF0BC08091F6
:10352000E20082FF07C08091E1008B7F8093E10081
:103530000E94DE1C8091DA0080FF1FC08091D800BD
:1035400080FF1BC08091DA008E7F8093DA0080912B
:10355000D90080FF0DC080E189BD82E189BD09B439
:1035600000FEFDCF81E0809302020E94D81605C0C4
:1035700019BC109202020E94E6168091E10080FFC1
:1035800019C08091E20080FF15C08091E2008E7F1B
:103590008093E2008091E20080618093E20080915C
:1035A000D80080628093D80019BC85E08093020225
:1035B0000E94EA168091E10084FF30C08091E20011
:1035C00084FF2CC080E189BD82E189BD09B400FE81
:1035D000FDCF8091D8008F7D8093D8008091E1004D
:1035E0008F7E8093E1008091E2008F7E8093E200E5
:1035F0008091E20081608093E2008091FE01882347
:1036000011F084E007C08091E30087FF02C083E0EF
:1036100001C081E0809302020E94EB168091E100DC
:1036200083FF29C08091E20083FF25C08091E100E3
:10363000877F8093E10082E0809302021092FE0176
:103640008091E1008E7F8093E1008091E2008E7F87
:103650008093E2008091E20080618093E20042E08A
:1036600060E080E00E9479198091F000886080938A
:10367000F0000E94E916FF91EF91BF91AF919F91E9
:103680008F917F916F915F914F913F912F910F900B
:103690000FBE0F901F9018951F920F920FB60F92AA
:1036A00011242F933F934F935F936F937F938F9347
:1036B0009F93AF93BF93CF93EF93FF93C091E90094
:1036C000CF708091EC001092E9008091F000877F2C
:1036D0008093F00078940E94881B1092E9008091FA
:1036E000F00088608093F000C093E900FF91EF91B3
:1036F000CF91BF91AF919F918F917F916F915F918A
:103700004F913F912F910F900FBE0F901F901895E2
:103710001F93CF93DF93CDB7DEB7AA970FB6F89478
:10372000DEBF0FBECDBFE3E0F2E08091F1008193F8
:1037300022E0EB30F207C9F70E94FC168091E80006
:1037400083FF24C12091030230910402832F90E073
:103750008A30910508F01AC1FC01E556FF4F0C9420
:10376000FC1C203821F0223809F010C108C08091DB
:10377000FF0190910002992389F082600FC080912F
:1037800007028F70873008F001C18093E9008091B3
:10379000EB0085FB882780F91092E9009091E80002
:1037A000977F9093E8008093F1001092F100CCC0D5
:1037B000822F8D7F09F0EAC0222319F0223061F0B8
:1037C000E5C080910502813009F0E0C0333009F096
:1037D00080E0809300022AC080910502811126C0FA
:1037E000209107022F708FEF820F863008F0CEC035
:1037F0002093E9008091EB0080FF18C08091EB00DE
:10380000333011F4806210C080618093EB0081E05E
:1038100090E001C0880F2A95EAF78093EA001092A1
:10382000EA008091EB0088608093EB001092E90041
:103830008091E800877F8093E8000E94AE19A6C0BF
:103840002111A4C0109105021F778091E3008078B8
:10385000812B8093E3008091E800877F8093E800CC
:103860000E94AE198091E80080FFFCCF8091E300B8
:1038700080688093E300112311F083E001C082E0AF
:103880008093020283C02058223008F07FC08091CC
:103890000502909106028C3D23E0920779F583E0C2
:1038A0008A838AE289834FB7F894DE01139620E079
:1038B0003EE051E2E32FF0E050935700E49120FF07
:1038C00003C0E295EF703F5FEF708E2F90E0EA301B
:1038D00010F0C79601C0C0968D939D932F5F243141
:1038E00049F74FBF8091E800877F8093E8006AE244
:1038F00070E0CE0101960E94B61815C060910702D3
:1039000070910802AE014F5F5F4F0E94E61700976B
:10391000E9F12091E800277F2093E800BC0189812C
:103920009A810E9417198091E8008B778093E800B4
:103930002DC0203859F58091E800877F8093E800FA
:103940008091FE018093F1008091E8008E7773CF23
:1039500021111CC0909105029230C0F48091E800C2
:10396000877F8093E8009093FE010E94AE198091BA
:10397000FE01811104C08091E30087FF02C084E052
:1039800001C081E0809302020E94ED168091E80060
:1039900083FF0AC08091E800877F8093E8008091D0
:1039A000EB0080628093EB00AA960FB6F894DEBF1E
:1039B0000FBECDBFDF91CF911F9108950895CF9392
:1039C000809102028823B1F08091E9008F7090917C
:1039D000EC0090FF02C090E801C090E0C92FC82B16
:1039E0001092E9008091E80083FD0E94881BCF704F
:1039F000C093E900CF910895EE0FFF1F0590F49159
:103A0000E02D0994F999FECF92BD81BDF89A9927CE
:103A100080B50895A8E1B0E042E050E00C942A1D82
:103A2000262FF999FECF92BD81BDF89A019700B477
:103A3000021639F01FBA20BD0FB6F894FA9AF99A17
:103A40000FBE08950196272F0E94111D0C94101D82
:103A5000DC01CB01FC01F999FECF06C0F2BDE1BD4E
:103A6000F89A319600B40D9241505040B8F708953D
:043A7000F894FFCFF8
:103A7400AF011016841613164F16141601F0F1C672
:103A84006766379431303534979633909192939595
:103A9400403639FB04C5048C04380451046A04001C
:00000001FF
