:100000000C94F7020C943B030C943B030C943B03BD
:100010000C943B030C943B030C943B030C943B0368
:100020000C943B030C943B030C94F11F0C94C320E1
:100030000C94A2150C943B030C943B030C943B03CF
:100040000C943B030C943B030C943B030C943B0338
:100050000C943B030C9409160C943B030C943B0347
:100060000C943B030C943B030C943B030C943B0318
:100070000C943B030C943B030C943B030C943B0308
:100080000C943B030C943B030C943B030C943B03F8
:100090000C943B030C943B030C943B030C943B03E8
:1000A0000C943B030C943B030C943B0305040B049E
:1000B0000F04120416041A041E04220427042B043D
:1000C0002F04330436043A043E04420446044B042D
:1000D000F70BF70B310C310C700C920C240E240E24
:1000E000D40C240E7B0D7B0DF20DF90D240E1F0E8A
:1000F000880D880D880D880D880D880D880D880D58
:10010000880D880D880D880D880D880D880D880D47
:100110009A0DAA0DB10DB80DC20DB80EB80ECB0ECA
:10012000CB0EC10ECB0ECB0ECB0EB80EB80EC70E3B
:10013000CB0ECB0EC70E28214F213D224F213D2251
:100140009721BA213D2210221F2200F000201E001C
:100150001F0020002100220023002400250026008B
:1001600027002D002E00310035002B0014001A004E
:100170000800150017001C0018000C0012001300E6
:100180002F0030002A004900E0000400160007009C
:1001900009000A000B000D000E000F0033003400B0
:1001A000000028004C00E10000001D001B000600BC
:1001B0001900050011001000360037003800E50076
:1001C000520003510451E200E300000000002C0043
:1001D000000000000000E700E600E40050005100CD
:1001E0004F000100010001000100010001000100B9
:1001F0000100010001000100010001002A000100CE
:1002000001000100010001000100010001000100E6
:10021000010001000100010001003100010039006E
:1002200001000100010001000100010001000100C6
:1002300001000100010000000100010001000000B8
:1002400001000100010001000100010001000100A6
:1002500001000100010001000100E000E300E200F4
:10026000000000000100000000000000E600E700C0
:10027000E400010001000100010001000100010093
:100280000100010001000100010001000100010066
:1002900001002A000100010001000100010001002D
:1002A0000100010001000100010001000100010046
:1002B00031000100390001000100010001000100CE
:1002C0000100010001000100010001000000010027
:1002D0000100010000000100010001000100010017
:1002E0000100010001000100010001000100010006
:1002F00001000100010000000000010000000000FA
:1003000000000100010001000100010001003500B2
:100310003A003B003C003D003E003F0040004100F1
:1003200042004300440045004C00BE5C3900AC0074
:10033000AE00AB00AD000100010001004600470027
:100340004800010052000100BD5C0100AA00A900A4
:10035000A800010001005500540001004A004B00B4
:10036000510000000100BC5C0100000069006A004F
:100370000100025301535700560001004D004E008A
:100380000100010001000100010001000000000067
:100390000100000000000000010001000100010058
:1003A00001000100010001000100010054000100F2
:1003B0000100010001000100010001000100010035
:1003C000010053005F006000610055000100010062
:1003D0000100010001000100010001000100010015
:1003E00058005C005D005E005600010050005100A6
:1003F00052004F00010001000000010001006700F1
:10040000000059005A005B00570001000100010084
:1004100001000100010001000100010001000100D4
:100420006200000000006300000000000000010006
:1004300001000100010001000100100353006100F0
:1004400062006500720036003800000020034F0093
:1004500072006900670069006E0061007400690045
:1004600076006500200043006F002E0000000403AA
:10047000090409026D00040100A0FA09040000014A
:10048000030101000921110100012240000705813B
:100490000308000A090401000103010200092111F7
:1004A000010001224D000705820308000A09040229
:1004B000000103000000092111010001223600079C
:1004C00005830308000A0904030001030000000972
:1004D00021110100012239000705840320000112C7
:1004E00001100100000008EDFE6060030001020041
:1004F0000105010906A101050719E029E7150025F5
:1005000001950875018102050819012905950575F0
:100510000191029501750391010507190029F7154D
:1005200000250195F875018102C005010980A1012E
:1005300085021601002603001A81002A8300751027
:1005400095018100C0050C0901A101850316010078
:10055000269C021A01002A9C02751095018100C098
:1005600005010902A1010901A100050919012905D7
:10057000150025019505750181029501750381011D
:100580000501093009311581257F9502750881061D
:1005900009381581257F950175088106050C0A38F3
:1005A000021581257F950175088106C0C0050109E6
:1005B00006A101050719E029E71500250195087531
:1005C0000181029501750881010508190129059528
:1005D000057501910295017503910105071900291F
:1005E000FF150026FF00950675088100C000112444
:1005F0001FBECFEFDAE0DEBFCDBF04B603FE24C0DE
:1006000080912E0290912F02A0913002B091310280
:100610008730904BA740B04BB9F410922E02109245
:100620002F02109230021092310214BE84B7877FDD
:1006300084BF88E10FB6F894809360001092600048
:100640000FBEE0E0F8E3099511E0A0E0B1E0E6EFCD
:10065000F7E402C005900D92A634B107D9F722E065
:10066000A6E4B1E001C01D92AE32B207E1F70E94EC
:10067000251D0C94F9230C9400000C940808229A70
:1006800008950E9407080C943F0381FF02C02A9836
:1006900001C02A9A0C941D05CF93DF93EC016111E0
:1006A00026C00E945114282F2272209346018A816D
:1006B0008823E9F08091000190910101222339F013
:1006C00065E30E9435150E941E1465E306C069E2C9
:1006D0000E9435150E941E1469E2809100019091DC
:1006E00001010E944015DF91CF910C941E14DF91FF
:1006F000CF91089581E0089581E008950C947C03E2
:100700000E94A60E2FEF84E39CE021508040904091
:10071000E1F700C000000C942F160F931F93CF93A6
:10072000DF938C01FC01C081D181CE010E94901326
:10073000BE010E942305EC01B8010E947E038823BC
:1007400009F432C1B801CE010E94BB07882309F425
:100750002BC1C531FCE5DF0701F5F8018281882353
:1007600019F0CFEDD3E102C0C6EED3E10E945114DF
:100770008A7A11F085E301C089E2FE0109950E94A1
:100780001E1481E080934B0180934C01C801DF91DE
:10079000CF911F910F910C947A03C6318CE5D80745
:1007A00008F097C0C130ECE5DE0759F4F80182810A
:1007B000882309F4F9C08091E80181608093E80101
:1007C000F3C0C230FCE5DF0708F477C0F80182818E
:1007D0008823E1F20E94A914811102C00E948A14A8
:1007E0000E94BC1490E090931F0280931E02FE01B1
:1007F000E350FC45E231F10520F4EA5AFF4F0C9436
:10080000A92380911E02816003C080911E02826034
:1008100080931E024BC080911E028460F9CF8091AC
:100820001E0213C080911E028061F2CF80911E02D1
:100830008062EECF80911E028064EACF80911E021A
:100840008068E6CF80911E0284608860E1CF80914D
:100850001E028E7FDDCF80911E028D7FD9CF8091C9
:100860001E028B7FD5CF80911E0213C080911E0285
:100870008F7ECECF80911E028F7DCACF80911E02C7
:100880008F7BC6CF80911E028F77C2CF80911E02D0
:100890008B7F877FBDCF90911E0297FB882780F9C1
:1008A00021E0822780FB97F990931E0280911E021F
:1008B0000E94C0140E94A60E77C0C115DC4509F045
:1008C00060CFF8018281882309F46EC00E94800302
:1008D0006BC0C93CECE5DE0739F5F801828188235D
:1008E00061F010924C010E94D41590934A018093BC
:1008F000490180E20E94A70B57C080914C018111F1
:100900000FC08091490190914A010E94E015883CF6
:10091000910530F487E20E94520A87E20E94460B5A
:1009200080E20E94AE0B40C0CA3CFCE5DF0738F510
:10093000C83CDC4509F025CFF8018281882351F0BD
:1009400010924B010E94D415909348018093470167
:1009500082E0D0CF80914B0181110FC0809147017F
:10096000909148010E94E015883C910530F486E2A0
:100970000E94520A86E20E94460B82E0D2CFCC3C13
:10098000ECE5DE0731F4F8018281882369F080E02C
:1009900009C0CD3CDC4509F0F4CEF8018281882302
:1009A00019F082E00E94B71D80E0DF91CF911F9186
:1009B0000F9108950C943D03269A2E988FEF9FEF88
:1009C000909387008093860082E28093800089E183
:1009D000809381000C94AF1A0E94DC040C944103B4
:1009E00081110AC0809180008F7D809380001092D9
:1009F0008B0010928A000895843041F48091800029
:100A00008062809380008FEF9FEF12C090918000F2
:100A100090629093800024E030E0281B3109220F7F
:100A2000331F8FEF9FEF02C0969587952A95E2F7C7
:100A300090938B0080938A00089508950C94450349
:100A400080E090E008959FE0799FF00111249BE4FD
:100A5000899FE00DF11D1124E60FF11DEE0FFF1F20
:100A6000E45BFE4F859194910895880F991F865BF2
:100A70009E4FFC01859194910895CF93DF932FE0D1
:100A8000729FF00111249BE4899FE00DF11D112458
:100A9000E60FF11DEE0FFF1FE45BFE4F8591949171
:100AA0000E941107EC01811521E5920708F044C06E
:100AB000C11580E5D80708F01FC1C83ED10510F563
:100AC000C03ED10508F0A9C1C83AD10578F4C53AAD
:100AD000D10508F09CC0C130D10509F49EC108F4CD
:100AE00055C1C430D10508F098C150C1CD3BD105E6
:100AF00008F498C0C03CD10508F448C1CE01805C20
:100B00009109E9C0C11590E3D90780F4C11520E22D
:100B1000D20708F0DEC0C03FD10508F437C1CF3F8F
:100B2000D10511F008F079C1D06577C1C11580E415
:100B3000D80708F0DEC0D3C0C11596E5D90768F51F
:100B4000C11525E5D20708F00DC1C11583E5D80709
:100B500050F4C11592E5D90708F0EAC0DC2FCC2784
:100B6000C16FD06A5AC1C11524E5D20708F0F5C09B
:100B70008C2F8695869520E2829FC00111249E01CC
:100B800023703327C1E0D0E002C0CC0FDD1F2A95CF
:100B9000E2F7C82BD92BDA6840C1CC3B8CE5D807EB
:100BA00009F4EBC098F4C11528E5D20708F4EEC0AB
:100BB000C11589E5D80708F4DBC0CC3A9CE5D90714
:100BC00008F4E4C0CC5ADC45D46D27C1CF3B2CE5FA
:100BD000D20709F4D8C060F4CD3B9CE5D90709F4ED
:100BE000CFC0CE3BDC4509F0D1C0C0E0D2ED15C18D
:100BF000CE0190568115904208F0C8C08D2F8F719C
:100C00000E948D07DD27D0628F71D82B06C1C53AAF
:100C1000D10509F4BEC0C63AD10509F4BDC0C3E888
:100C2000D0E4FBC0C83AD10509F4B9C0C93AD1052E
:100C300009F4B8C0CA3AD10509F4B7C0CB3AD10516
:100C400009F4B6C0CC3AD10509F4B5C0CB3BD10507
:100C500009F4B4C0CC3BD10509F4B3C0CD3AD105F9
:100C600009F4B2C0C03BD10509F4B1C0CE3AD105F8
:100C700009F4B0C0CF3AD10509F4AFC0C13BD105EA
:100C800009F4AEC0C23BD10509F4ADC0C33BD105E8
:100C900009F4ACC0C43BD10509F4ABC0C53BD105D8
:100CA00009F4AAC0C63BD10509F4A9C0C73BD105C8
:100CB00009F4A8C0C83BD10509F4A7C0C93BD105B8
:100CC00009F4A6C0CA3BD10509F0A5C0CAE2D6E422
:100CD000A4C0CE019F700E943505EC019EC0CE01DC
:100CE0009927D3FF03C0EC01D86C97C0EC01D06CFE
:100CF00094C0DF70D06A91C02C2F237081E090E007
:100D000002C0880F991F2A95E2F79C689E0174E043
:100D1000369527957A95E1F72370922BCF70C6957B
:100D2000C69520E2C29FE0011124C82BD92B75C0C3
:100D30008C2F8695869520E2829FC00111249E010A
:100D400023703327C1E0D0E002C0CC0FDD1F2A950D
:100D5000E2F7C82BD92BDC6860C0DC2FCC27C46F2E
:100D6000D06A5BC0CF71DD27DC2FCC27D06255C0A5
:100D7000DC2FCC27C06FD06A50C0C0E0D1ED4DC091
:100D8000C0E0D0ED4AC0C0E0D3ED47C0C0E0D0E045
:100D900044C0C1E8D0E441C0C2E8D0E43EC0C2EEE5
:100DA000D4E43BC0C9EED4E438C0CAEED4E435C0C4
:100DB000C5EBD4E432C0C6EBD4E42FC0C3EBD4E41B
:100DC0002CC0C4EBD4E429C0C7EBD4E426C0CCECDF
:100DD000D4E423C0CDECD4E420C0C3E8D5E41DC0E6
:100DE000CAE8D5E41AC0C2E9D5E417C0C4E9D5E41D
:100DF00014C0C1E2D6E411C0C3E2D6E40EC0C4E21E
:100E0000D6E40BC0C5E2D6E408C0C6E2D6E405C00D
:100E1000C7E2D6E402C0C0E0D4E4CE01DF91CF91B6
:100E200008958238910549F1B0F48133910509F4B0
:100E300059C048F48932910509F44FC08A329105AE
:100E400009F455C008958533910509F441C08933EB
:100E5000910599F00895833E910531F138F4803E73
:100E6000910591F0823E9105A9F00895863E910585
:100E700001F1873E910539F1089520911E0220FD70
:100E80003BC021FD39C0089580911E0280FF34C00F
:100E900089E341C080911E0282FF32C080911E0210
:100EA00084FF2CC080E037C080911E0282FD28C0E4
:100EB000F5CF80911E0283FF25C080911E0284FD24
:100EC000F1CF87EE28C080911E0283FD1BC0F5CFB5
:100ED00080911E0285FF18C019C080911E0285FFF7
:100EE00015C012C080911E0286FF12C013C08091EF
:100EF0001E0286FF0FC00CC080EE0DC083EE0BC03B
:100F000082EE09C086EE07C085E305C089E203C012
:100F100081E301C08AE290E00895CF93C82F0E9438
:100F2000BC14282F30E030931F0220931E0282FF52
:100F30000DC08C2F8871883019F4C77FC46006C03B
:100F40008C2F8471843011F4CB7FC86023FF0DC0D7
:100F50008C2F8871883119F4C77EC46106C08C2F2C
:100F60008471843111F4CB7EC86124FDC77E8C2F3F
:100F7000CF9108950895CF93DF93EC01FB01828117
:100F8000811102C081E040C080915A01811125C0C9
:100F9000C631DC45B9F70E94BA0781E080935A0157
:100FA0000E94D415909359018093580110924D01DD
:100FB00010924F0110924E01109251011092500167
:100FC0001092530110925201109255011092540147
:100FD000109257011092560116C0809158019091BD
:100FE00059010E94E015883C910560F680914D0101
:100FF000E82FF0E0EE0FFF1FE25BFE4FD183C083CE
:101000008F5F80934D0180E0DF91CF910895089527
:10101000089585B7806885BF85B7806885BFA2E2DF
:10102000B1E021E030E08D91E82FE295EF70F0E043
:1010300041A18F70B90102C0660F771F8A95E2F750
:10104000CB01962F9095492341A392A1982B92A36F
:1010500071E0A732B70739F7A3E1B1E021E030E052
:101060008D91E82FE295EF70F0E041A18F70B9010A
:1010700002C0660F771F8A95E2F7CB01962F9095F5
:10108000492341A392A1982B92A371E0A232B70702
:1010900039F7E5E6F1E0ABE5B1E0119211921D926E
:1010A0001D9281E0EF36F807C1F70C94EC044F92E3
:1010B0005F927F928F929F92AF92BF92CF92DF9278
:1010C000EF92FF920F931F93CF93DF9302E211E011
:1010D000CBE5D1E0EE24E394F12C99249394BE0166
:1010E000A880B98019821882D8012D918D01E22F34
:1010F000E295EF70F0E081A12F70A70102C0440FCC
:10110000551F2A95E2F79A01842B81A382A1842E90
:101110008094882182A350EA5A95F1F743E1442E46
:1011200041E0542E80E090E0D2014D912D01C42E7B
:10113000C2943FE0C322D12CD60190967C90C88007
:10114000D9804F70D70102C0AA0FBB1F4A95E2F7A2
:101150007A2241F4A701082E02C0440F551F0A94B9
:10116000E2F702C040E050E04C295D2959834883F2
:1011700001968F309105C1F681A1882181A382A1BA
:10118000822B82A32296FB0180819181A816B90649
:1011900041F090926F010E94D41590937101809359
:1011A0007001F1E007321F0709F099CF80916F01BC
:1011B0008823B1F080917001909171010E94E01537
:1011C000069770F0EBE5F1E0A5E6B1E08191919131
:1011D0008D939D9341E0E536F407C1F710926F01BE
:1011E0000E94DA0481E0DF91CF911F910F91FF906F
:1011F000EF90DF90CF90BF90AF909F908F907F90B7
:101200005F904F900895E82FF0E0EE0FFF1FEB592D
:10121000FE4F808191810895089590937701809386
:1012200076010895E0917601F0917701309721F0F1
:101230000190F081E02D099480E00895E09176011D
:10124000F0917701309721F00280F381E02D09942D
:101250000895E0917601F0917701309721F00480B4
:10126000F581E02D09940895209174013091750164
:101270008217930771F09093750180937401E09148
:101280007601F0917701309721F00680F781E02D0B
:101290000994089520917201309173018217930788
:1012A00071F09093730180937201E0917601F09157
:1012B0007701309721F00084F185E02D099408959D
:1012C00008950C9460090E94CB150E9409080E94A1
:1012D00052160C94AF1A5F926F927F928F929F92E8
:1012E000AF92BF92CF92DF92EF92FF920F931F9334
:1012F000CF93DF93CDB7DEB72A970FB6F894DEBF52
:101300000FBECDBF0E94570899E7C92E91E0D92E94
:1013100000E010E0AA24A394B12C502E802F0E944C
:1013200003093C01F601E190F1906F01E826F926EE
:10133000E114F104B1F40F5F1F4F0530110569F797
:101340008FEF89838A831B820E94D4158160782F56
:101350009D838C8349815A816B818D810E94240AEF
:101360003AC08091E80181FD0E940C0920E030E044
:101370004501022E02C0880C991C0A94E2F7C401B0
:101380008E219F21892B09F12E835F82682079208D
:1013900081E0672809F480E088870E94D415816085
:1013A000782F9A8789874E815F8168858A850E9418
:1013B000240AF801EE0FFF1FE758FE4F808191814C
:1013C000882599259183808306C02F5F3F4F2F305A
:1013D000310571F6B0CF0E94E417109178010E9498
:1013E00012091817D9F00E941209809378012A96E1
:1013F0000FB6F894DEBF0FBECDBFDF91CF911F9126
:101400000F91FF90EF90DF90CF90BF90AF909F90A3
:101410008F907F906F905F900C941E052A960FB668
:10142000F894DEBF0FBECDBFDF91CF911F910F911A
:10143000FF90EF90DF90CF90BF90AF909F908F90F4
:101440007F906F905F900895CF93DF93CDB7DEB715
:101450002B970FB6F894DEBF0FBECDBF4F835887D2
:1014600069877A878B87DE01119686E0FD011192EC
:101470008A95E9F785E0FE01379601900D928A95ED
:10148000E1F749815A816B817C818D819E810E9427
:1014900070112B960FB6F894DEBF0FBECDBFDF9153
:1014A000CF910895CF93DF931F92CDB7DEB7682F0A
:1014B000882309F4E7C0823879F40E94120981FD7B
:1014C000E1C069E380910001909101010E9435150E
:1014D0000E941E1469E310C08338C9F40E941209E7
:1014E00080FDD0C063E580910001909101010E94D0
:1014F00035150E941E1463E5809100019091010151
:101500000E9440150F90DF91CF910C941E148438E7
:1015100079F40E94120982FDB5C067E48091000150
:10152000909101010E9435150E941E1467E4E4CFDA
:101530008CEF860F813A70F4862F69830E941B1A04
:10154000698181119FC080910001909101010E94E9
:101550003515D8CF80E2860F883048F4677081E077
:1015600001C0880F6A95EAF70E945414CBCF8BE52F
:10157000860F833088F4653A29F0663A31F482E8C0
:1015800090E005C081E890E002C083E890E00F9011
:10159000DF91CF910C94340988E5860F853108F0EE
:1015A00071C0683A61F1693A69F16A3A71F16B3A6E
:1015B00079F16C3A81F16B3B89F16C3B91F16D3AB9
:1015C00099F1603BA1F16E3AA9F16F3AB1F1613B3B
:1015D000B9F1623BC1F1633BC9F1643BD1F1653BB9
:1015E000D9F1663BE1F1673BE9F1683BF1F1693B19
:1015F000F9F16A3B09F03FC08AE292E03EC082EE18
:1016000090E03BC089EE90E038C08AEE90E035C0B3
:1016100085EB90E032C086EB90E02FC083EB90E04A
:101620002CC084EB90E029C087EB90E026C08CECC6
:1016300090E023C08DEC90E020C083E891E01DC0D5
:101640008AE891E01AC082E991E017C084E991E04C
:1016500014C081E292E011C083E292E00EC084E205
:1016600092E00BC085E292E008C086E292E005C0FD
:1016700087E292E002C080E090E00F90DF91CF918E
:101680000C944A090F90DF91CF910895882309F4B3
:101690005DC0823879F40E94120981FF57C069E366
:1016A00080910001909101010E9435150E941E1445
:1016B00069E310C08338B1F40E94120980FF46C06C
:1016C00063E580910001909101010E9435150E940F
:1016D0001E1463E580910001909101010E94401564
:1016E0000C941E14843879F40E94120982FF2EC0D3
:1016F00067E480910001909101010E9435150E94DC
:101700001E1467E4E7CF9CEF980F913A10F4682F0E
:10171000E1CF90E2980F983050F4877091E001C0CB
:10172000990F8A95EAF7892F0E945A14D9CF9BE521
:10173000980F933020F480E090E00C943409885A9C
:10174000853120F480E090E00C944A0908958823C4
:1017500021F00E9454140C941E140895882321F043
:101760000E945A140C941E1408958F929F92BF9257
:10177000CF92DF92EF92FF920F931F93CF93DF935D
:1017800000D0CDB7DEB74C01472FFC01C580C29415
:101790009FE0C922D280DD2031F079836A830E94E4
:1017A00071146A81498149836A830E9417144981AF
:1017B0006A81882389F0DD2079F080E2860F883005
:1017C00058F082E00E9400140E941714BB24B394C6
:1017D000B82649816A8101C0B12CE42EE2948FE0E1
:1017E000E822F12CF701E859FF4F0C94A923842F2C
:1017F000807F142F1F70882311F01295107FDD2039
:10180000C1F0112309F4D9C180E2860F883010F0AD
:10181000611105C0812F6A830E94541404C0812F76
:101820006A830E9464146A816A830E941E146A811A
:10183000C4C1862F6A830E94460B6A81112309F472
:1018400003C280E2860F883010F0611104C0812F3E
:101850000E945A1403C0812F0E946A140E941E1411
:10186000F3C1242F207F842F8F70203211F08295B6
:10187000807F662319F06130B9F022C0DD2049F085
:10188000CC2009F44EC1F1E0CF124BC10E94841468
:10189000DBC1CC2021F021E0C21609F4D5C1898337
:1018A0000E948714898143C1DD2029F095E09C15B1
:1018B00008F4CAC136C1E4E0EC1508F4C5C137C16B
:1018C000DD2051F0CC2009F42CC1F401958190FF6A
:1018D00074C19F70958325C1CC2009F428C17EC1B5
:1018E000242F26952695237030E02115310521F00F
:1018F0002130310561F0A8C1DD2021F0862F942F21
:10190000937002C080E090E00E943409ADC1DD20F8
:1019100021F0862F942F937002C080E090E00E9407
:101920004A09A2C1DD20F9F0653F51F0663F71F030
:10193000643FA9F4809118029091190281600BC054
:101940008091180290911902826005C0809118025E
:101950009091190284609093190280931802862F47
:101960000E94EC161EC0653F51F0663F71F0643F67
:10197000A9F480911802909119028E7F0BC080917A
:101980001802909119028D7F05C0809118029091E4
:1019900019028B7F9093190280931802862F0E9460
:1019A00054170E94D91760C1842F837009F04EC06C
:1019B000D11056C1262F229526952770220F220F6F
:1019C000862F8F70C82ED12CE12CF12C022E04C052
:1019D000CC0CDD1CEE1CFF1C0A94D2F764FF10C077
:1019E0006FE070E080E090E004C0660F771F881F12
:1019F000991F2A95D2F7609570958095909503C0B0
:101A000060E070E0CB01242F26952695237030E00E
:101A10002230310569F02330310589F06C297D29A8
:101A20008E299F292130310571F00E94BF1218C103
:101A30006C297D298E299F290E94D11211C10E94F3
:101A4000BF12C701B6010E94AD120AC1DD2019F014
:101A5000842F817001C08695882309F401C1262F47
:101A6000229526952770220F220F862F8F70C82E61
:101A7000D12CE12CF12C022E04C0CC0CDD1CEE1C70
:101A8000FF1C0A94D2F764FF10C06FE070E080E0A2
:101A900090E004C0660F771F881F991F2A95D2F720
:101AA000609570958095909503C060E070E0CB01E3
:101AB000242F26952695237030E02230310569F0D9
:101AC0002330310589F06C297D298E299F29213009
:101AD000310571F00E946B13C3C06C297D298E29DA
:101AE0009F290E947D13BCC00E946B13C701B601E1
:101AF0000E945913B5C0062F10E0F801E05EF1090D
:101B0000E531F10508F055C0E858FF4F0C94A923C2
:101B1000162F1F70842F8F71DD2031F00E94041367
:101B2000812F0E94A70B90C00E941F13812F0E943B
:101B3000AE0B8AC0DD2049F0F4E0FC1508F484C047
:101B4000842F8F710E943E137FC025E02C1508F46E
:101B50007BC0F6CFDD2039F0842F8F710E940413F3
:101B600073C0DD20C9F3842F8F710E941F136CC0D6
:101B7000DD2029F0842F8F710E94F51265C00E942C
:101B8000F01262C0DD2051F0142F1F71812F0E94CE
:101B9000041363E0812F0E94F71356C081E00E9476
:101BA000001481E08C1508F04FC082E00E94001400
:101BB0004BC0DD2031F0CC2079F2862F0E94520AF2
:101BC00043C0CC2081F2693349F49FEFE7EEF3E0A4
:101BD0009150E040F040E1F700C00000862F0E94E5
:101BE000460B32C04F70C4010E9420050E941D1296
:101BF0003BC0D11039C0942F9F70292F30E0223084
:101C00003105B9F04CF42115310581F02130310551
:101C1000D9F40E94E81A28C02330310569F0243035
:101C2000310591F4862F0E943C1B1EC00E94CC1AE5
:101C30001BC00E94041B18C00E94171B15C04F70C8
:101C4000C4010E944C0310C028E0E216F10441F0E8
:101C50005CF09AE0E91AF108E2E0EE16F10420F4F3
:101C60000E9412090E941E05BB20F1F00E94F3138E
:101C700080FD1AC0F40112820E94ED130E94041329
:101C8000C4010E94620E0E94ED130F900F90DF912D
:101C9000CF911F910F91FF90EF90DF90CF90BF9069
:101CA0009F908F900C941F130F900F90DF91CF9106
:101CB0001F910F91FF90EF90DF90CF90BF909F907A
:101CC0008F9008950F931F93CF93DF93EC0128819A
:101CD00039818B819C81892B31F03F3F11F080E06D
:101CE00003C02F3FE1F781E0811113C0CE010E94B4
:101CF0008D03882371F0688179818A810E94DB13CA
:101D00008C010E948F130E94AA12B801CE010E947A
:101D1000B50BDF91CF911F910F9108950E9471141F
:101D20000E94811480910001909101010E944B1545
:101D30000E941E140E9485180E94D91780E090E02E
:101D40000E94340980E090E00C944A090E946114DA
:101D50000C948E0E0E94D013E92FE295EF70F0E004
:101D60003297EE30F105B8F4E357FF4F0C94A923F6
:101D7000803F59F018F4803E70F407C0843F59F456
:101D800004C0803E10F0813F31F481E0089593FB60
:101D9000882780F9089580E00895CF93DF9300D0DD
:101DA00000D01F92CDB7DEB70F900F900F900F901D
:101DB0000F90DF91CF910895CF93DF9300D000D0A3
:101DC00000D0CDB7DEB726960FB6F894DEBF0FBEB3
:101DD000CDBFDF91CF9108951F93CF93DF93C09133
:101DE000830116E080918401C81799F0D0E01C9F10
:101DF000F0011D9FF00D1124EB57FE4F40815181E2
:101E000062817381848195810E94DC0E2196C77066
:101E1000E9CFDF91CF911F9108954091B501509185
:101E2000B6016091B7017091B8018091B9019091AC
:101E3000BA010C94DC0ECF938091BA0182958F7019
:101E400009F05FC08091B701882309F45AC020913E
:101E50008301A09184016091B5017091B6018091D8
:101E6000B8019091B90131E06F3F09F030E0B32F34
:101E7000C6E02A1709F445C0009721F07F3F21F4FE
:101E80004B2F03C041E001C040E030E040FD35C0D1
:101E9000C29FF001C39FF00D1124EB57FE4F41810B
:101EA00074132BC04081641328C04281411125C0A6
:101EB000438154814817590710F441505109481B78
:101EC000590B483C5105C8F48091BA018F7080616C
:101ED0008093BA0186E0829FF001839FF00D112468
:101EE000E657FE4F80818F708061808385EB91E0A3
:101EF0000E94620ECF910C94EC0E2F5F3F4F277023
:101F0000B8CFCF910895CF92DF92EF92FF920F93C7
:101F10001F93CF93DF93CDB7DEB762970FB6F894D8
:101F2000DEBF0FBECDBF8C0185E0F801DE011D963E
:101F300001900D928A95E1F7D8014C9111965C9130
:101F4000119712966C9112971396ED90FC9014973E
:101F50007091B501E091B6012091B8013091B901BD
:101F60002115310531F0EF3F31F481E07F3F19F465
:101F700003C081E001C080E0B82FB170CB2E80FD9E
:101F80006CC1D090B701DD2009F4F5C0F091BA0121
:101F9000E216F30638F0C701821B930B883C9105CB
:101FA00048F09BC0209530952E0D3F1D283C3105F3
:101FB00008F093C08F2F807F09F052C0E51314C042
:101FC000741312C0D62E61110FC0FF70F061F09330
:101FD000BA010E940D0F85EB91E00E94620E809184
:101FE000BA01F80185836CC1EF2831F05F3F31F40D
:101FF00081E04F3F19F403C081E001C080E080FD23
:1020000003C081E0862701C080E0F82FF170FF2E29
:1020100080FF1CC0809183012091840136E08217EB
:1020200009F428C190E0389FF001399FF00D112488
:10203000EB57FE4F7181571306C07081471303C0E1
:102040007281671303C001968770E9CFD62E66238D
:1020500009F436C18091BA0181608093BA0153C0FE
:10206000E51308C0741306C0611104C0D8011596A9
:10207000FC93AEC04D875E878D859E856A8B0E94DE
:10208000AA0E6A89882329F1D62E662311F12091A0
:10209000BA01822F82958F7090E002970CF460C095
:1020A0008091B5019091B60198878F831986FB8640
:1020B000EA862C87CE01079651C0E51731F14D878E
:1020C0005E878D859E856A8B0E94AA0E6A89811122
:1020D0002EC0C8010E94620EA4C08F2F807F69F7B6
:1020E0007E2DF98AE88A89890E94CD0E85EB91E0E0
:1020F0000E94620EE5EBF1E086E0DF011D928A9519
:10210000E9F70E940D0FD12CDBC07413D8CF6111F9
:10211000D6CFD8011596FC93C8010E94620EE5EB5C
:10212000F1E086E0DF011D928A95E9F7C9C0D62E5D
:10213000662379F22091BA01822F82958F7090E008
:10214000029774F08091B5019091B6019A838983CA
:102150001B82FD82EC822E83CE0101960E94620ECC
:1021600086E0F801A5EBB1E001900D928A95E1F7C8
:102170000E941B0F6FC0E216F30628F0C701821BF6
:10218000930B9C0104C0209530952E0D3F1D283CDB
:10219000310508F052C0D62E662309F49ACFE51314
:1021A0002CC074132AC08091BA0180FD1DC0982FE5
:1021B00092959F70C9F0D80115968C9315979F3012
:1021C00039F09F5F9295907F8F70892B15968C9335
:1021D000C8010E94620E86E0F801A5EBB1E0019013
:1021E0000D928A95E1F736C086E0F801A5EBB1E0E3
:1021F00001900D928A95E1F763C04D875E878D85CA
:102200009E850E94AA0E882379F086E0F801A5EB4E
:10221000B1E001900D928A95E1F70E941B0F0E9498
:102220000D0FDD24D3944CC08091BA01816080935E
:10223000BA01C8010E94620E43C07E2DF98AE88A65
:1022400089890E94CD0EE5EBF1E086E0DF011D9269
:102250008A95E9F70E940D0F33C0662309F439CF40
:102260004D875E878D859E850E94AA0E882309F47E
:1022700030CFCBCF4D875E878D859E850E94D01352
:10228000292F22952F7030E0223031052CF49F70D9
:1022900041F0811106C00CC0243031052CF49F7030
:1022A00049F4805E883020F0C8010E94620ECF2C75
:1022B000DC2C06C0D80115969C91907F91F7F8CF41
:1022C0008D2D62960FB6F894DEBF0FBECDBFDF91A5
:1022D000CF911F910F91FF90EF90DF90CF900895D5
:1022E0001F93CF93DF93CDB7DEB72C970FB6F8943B
:1022F000DEBF0FBECDBF4F83588769877A878B8734
:102300009C87CE0107960E94830F8823C1F02F81FE
:1023100038858A859B85892B31F03F3F11F080E01D
:1023200003C02F3FE1F781E0811147C04F815885FD
:1023300069857A858B859C850E94DC0E3EC086E08F
:10234000FE013796DE01119601900D928A95E1F714
:10235000FF81E8854A855B854115510531F0EF3FE6
:1023600031F481E0FF3F19F403C081E001C080E057
:1023700080FD23C02091840130E0C901019687705F
:1023800099276091830170E086179707F1F1F9832F
:10239000EA835D834C8396E0929FD001939FB00DBA
:1023A0001124AB57BE4FFE01319601900D929A95C4
:1023B000E1F7809384010E94EC0E16E08091830186
:1023C00090918401891779F1189FC00111248B57CE
:1023D0009E4F0E94830F882331F1E09183011E9F5D
:1023E000F0011124EB57FE4F4081518162817381CE
:1023F000848195810E94DC0E8091830190E001969A
:102400008770992780938301D9CF0E94A60E1092DE
:10241000840110928301E5EBF1E086E0DF011D927B
:102420008A95E9F7CACF2C960FB6F894DEBF0FBE97
:10243000CDBFDF91CF911F910895EF92FF920F933F
:102440001F93CF93DF93FC01009709F46FC0F12C29
:10245000EE24E394EF0121968491843740F4843094
:1024600008F055C0813081F0823021F15FC085379E
:1024700009F447C0C0F19CE7980F903708F056C0A8
:102480008F770E94460B45C08F010E5F1F4FFE01E4
:10249000849190E2980F983050F48770FE2D01C01F
:1024A000FF0F8A95EAF78F2F0E94741415C00E94BF
:1024B000520A14C08F010E5F1F4FFE01849190E2FB
:1024C000980F983068F48770FE2D01C0FF0F8A9531
:1024D000EAF78F2F0E947A140E941E14E80119C097
:1024E0000E94460BFBCFCF010296FE01C491CC2384
:1024F00061F0EFE9FFE03197F1F700C00000C15053
:10250000F6CFCF010296FE01F490EC0102C00E94CA
:10251000520A8F2D882341F0EFE9FFE03197F1F760
:1025200000C000008150F6CFFE0194CFDF91CF9123
:102530001F910F91FF90EF90089508950E949D12B2
:102540006093BF017093C0018093C1019093C20159
:102550000C948E0E08950C949E120F931F9300916D
:10256000BF011091C0012091C1013091C201602BC7
:10257000712B822B932B1F910F910C949E120F9312
:102580001F930091BF011091C0012091C1013091B2
:10259000C20160237123822393231F910F910C9416
:1025A0009E120F931F930091BF011091C0012091C3
:1025B000C1013091C20160277127822793271F91A3
:1025C0000F910C949E1208950E94E3126093BB0138
:1025D0007093BC018093BD019093BE010C948E0E4C
:1025E00060E070E0CB010C94E41241E050E060E068
:1025F00070E004C0440F551F661F771F8A95D2F7FD
:10260000CB01BA010C94E41241E050E060E070E0CC
:1026100004C0440F551F661F771F8A95D2F780911B
:10262000BB019091BC01A091BD01B091BE01482BAE
:10263000592B6A2B7B2BCB01BA010C94E41241E09D
:1026400050E060E070E004C0440F551F661F771F24
:102650008A95D2F740955095609570958091BB0111
:102660009091BC01A091BD01B091BE0148235923B6
:102670006A237B23CB01BA010C94E41241E050E0C1
:1026800060E070E004C0440F551F661F771F8A95F5
:10269000D2F78091BB019091BC01A091BD01B09196
:1026A000BE01482759276A277B27CB01BA010C9422
:1026B000E4120F931F930091BB011091BC01209174
:1026C000BD013091BE01602B712B822B932B1F918A
:1026D0000F910C94E4120F931F930091BB01109182
:1026E000BC012091BD013091BE0160237123822382
:1026F00093231F910F910C94E4120F931F93009159
:10270000BB011091BC012091BD013091BE01602739
:102710007127822793271F910F910C94E41208953B
:10272000CF92DF92EF92FF920F931F93CF93DF939D
:10273000EC01C090BF01D090C001E090C101F090C9
:10274000C2018091BB019091BC01A091BD01B091EB
:10275000BE01C82AD92AEA2AFB2A0FE110E0B701F4
:10276000A601002E04C076956795579547950A9463
:10277000D2F740FD05C00150110988F780E007C07D
:10278000BE01802F0E943D050197A9F3802FDF91A4
:10279000CF911F910F91FF90EF90DF90CF90089510
:1027A000CF93DF93EC010E949013BE010E943D0580
:1027B000DF91CF910895CB010E94D0130895682F27
:1027C00080910001909101010C943515682F809142
:1027D0000001909101010C9440158091C3018595F1
:1027E0008595859508958091C3018770089598E037
:1027F000899F90011124622B6093C3010C940413F0
:102800004091C301809584238093C301982F9770D2
:1028100069F450E0282F332727FD309542175307DE
:1028200029F08595859585950C941F1308959091B1
:10283000C301977081E009F480E00895E091000100
:10284000F09101018091E7018083E0910001F09116
:10285000010180819091E601892B8083E091000144
:10286000F091010180819091E501892B8083909105
:10287000C401992381F0E0910001F0910101808170
:10288000892B808380910001909101010E94CE14D8
:1028900081111092C40180910001909101010C946A
:1028A0001E098091E70108959091E701982B90937C
:1028B000E701089580959091E70198239093E701AF
:1028C00008951092E70108959091E601982B909356
:1028D000E601089580959091E60198239093E60192
:1028E00008951092E60108959091E501982B909338
:1028F000E501089580959091E50198239093E50175
:1029000008951092E50108958093C40108951092EE
:10291000C40108956DEE7EEF80E090E00E94E32315
:1029200060E082E090E00E94D12360E083E090E0EC
:102930000E94D12360E084E090E00E94D12360E017
:1029400085E090E00E94D12360E086E090E00C9466
:10295000D12380E090E00E94CB2321E08D3E9E4F6A
:1029600009F020E0822F089582E090E00C94C323C8
:1029700083E090E00C94C32384E090E00C94C323A4
:10298000682F84E090E00C94D12386E090E00C94D2
:10299000C323682F86E090E00C94D12320E030E040
:1029A00040E0FC01E20FF31F518151114F5F2F5F97
:1029B0003F4F2F313105A9F7842F089520E030E0F3
:1029C0004FEFFC01E20FF31F5281561799F04F3F72
:1029D00019F4511101C0422F2F5F3F4F2E313105A5
:1029E00081F74F3F39F0FC01E40FF11D47FDFA95E7
:1029F00062830895089520E030E0FC01E20FF31FA8
:102A00004281461301C012822F5F3F4F2E313105A4
:102A1000A1F70895262F2695269526952F3170F437
:102A2000FC01E20FF11D677021E030E0062E01C0CD
:102A3000220F0A94EAF78181822B81830895262F41
:102A40002695269526952F3178F4FC01E20FF11D8D
:102A5000677021E030E0062E01C0220F0A94EAF7E9
:102A6000209581812823218308952091120122231A
:102A700029F020911E0227FD0C940A150C94DE14F7
:102A800020911201222329F020911E0227FD0C948F
:102A90001F150C94FB1420E030E0FC01E20FF31F43
:102AA00011822F5F3F4F2F313105B9F70895809183
:102AB0002502843039F11092E90120E488E190E0A8
:102AC0000FB6F894A895809360000FBE2093600025
:102AD00080E00E94F00480E00E941E0583B7817FA1
:102AE000846083BF83B7816083BF7894889583B700
:102AF0008E7F83BF88E10FB6F894809360001092B8
:102B000060000FBE089508950895CF930E94831525
:102B10000E9457080E948415C0E08C2F0E94030970
:102B2000892B29F4CF5FC530C1F780E001C081E077
:102B3000CF9108950E94A60E0E94AF1A0E9412091A
:102B40000C941E051F920F920FB60F9211248F93B3
:102B50009F93AF93BF938091E901811113C080913E
:102B60001A0290911B02A0911C02B0911D02419685
:102B7000A11DB11D80931A0290931B02A0931C0209
:102B8000B0931D02BF91AF919F918F910F900FBE97
:102B90000F901F90189582E084BD93E095BD9AEF49
:102BA00097BD80936E0008952FB7F89480911A0214
:102BB00090911B02A0911C02B0911D022FBF08959D
:102BC000CF92DF92EF92FF920F931F932FB7F8945B
:102BD00040911A0250911B0260911C0270911D02DB
:102BE0002FBF6A017B01EE24FF248C0120E030E03E
:102BF000C016D106E206F30610F441505109481BF5
:102C0000590BCA011F910F91FF90EF90DF90CF9069
:102C1000089578941F920F920FB60F9211248F93FC
:102C20009F93AF93BF9380911A0290911B02A09142
:102C30001C02B0911D020196A11DB11D80931A02C4
:102C400090931B02A0931C02B0931D02BF91AF9101
:102C50009F918F910F900FBE0F901F9018950E941B
:102C6000761FF8942FEF87EA91E62150804090403C
:102C7000E1F700C0000087E090EBDC0180932E02BA
:102C800090932F02A0933002B09331022CE088E1A0
:102C900090E00FB6F894A895809360000FBE209343
:102CA0006000FFCF0E94A914811102C00E948A1403
:102CB0000E94B4148093E8010E94BC1490E09093A9
:102CC0001F0280931E020E94B814682F70E080E0FB
:102CD00090E00C94AB128091EC0180FF0BC06091EE
:102CE000050185E0689FB00111247595679575957C
:102CF00067952AC081FF09C06091050185E0689F42
:102D0000B0011124759567951FC082FF07C06091BF
:102D1000050185E0689FB001112416C04091ED01C6
:102D20004423C9F060910401461788F720910501FA
:102D300085E0289F90011124429FC001439F900D80
:102D4000112470E00E9495236038710540F46115EC
:102D5000710539F002C065E070E0862F08958FE7B5
:102D6000089581E008958091EC0180FF08C0609192
:102D7000030170E0759567957595679521C081FF92
:102D800006C06091030170E07595679519C082FFD8
:102D900004C06091030170E010C08091ED018823B0
:102DA000C1F0609102018617A0F790910301989FEE
:102DB000C001112470E00E9495236038710528F449
:102DC0006115710521F0862F08958FE7089581E040
:102DD000089561E070E0F4CF803F21F40E946B160B
:102DE000819504C0813F29F40E946B168093F00105
:102DF0000895823F21F40E946B16819504C0833FA1
:102E000029F40E946B168093EF010895893F19F40D
:102E10000E94B31605C08A3F31F40E94B316819513
:102E20008093F10108958B3F21F40E94B3168195A0
:102E300004C08C3F29F40E94B3168093F2010895D8
:102E4000843F21F48091EE01816017C0853F21F419
:102E50008091EE01826011C0863F21F48091EE01E5
:102E600084600BC0873F21F48091EE01886005C02B
:102E7000883F31F48091EE0180618093EE010895E6
:102E80008D3F21F48091EC0181600BC08E3F21F4D5
:102E90008091EC01826005C08F3F29F48091EC01A4
:102EA00084608093EC010895803F39F48091F001B3
:102EB00087FF6CC01092F00169C0813F29F48091B6
:102EC000F0011816BCF362C09091EF01823F29F423
:102ED00097FF5CC01092EF0159C0833F19F4191697
:102EE000CCF354C0893F41F48091F10118160CF0E5
:102EF0004DC01092F1014AC08A3F29F48091F1013E
:102F000087FF44C0F6CF8B3F39F48091F20187FFF1
:102F10003DC01092F2013AC08C3F29F48091F20139
:102F20001816BCF333C0843F21F48091EE018E7FEC
:102F300017C0853F21F48091EE018D7F11C0863F3F
:102F400021F48091EE018B7F0BC0873F21F48091AB
:102F5000EE01877F05C0883F31F48091EE018F7EBE
:102F60008093EE0113C08D3F21F48091EC018E7FA0
:102F70000BC08E3F21F48091EC018D7F05C08F3F07
:102F800029F48091EC018B7F8093EC018091EF011B
:102F900081110EC08091F00181110AC08091F10170
:102FA000811106C08091F201811102C01092ED01E1
:102FB00008958EEE91E00E9429090E94D415909305
:102FC000EB018093EA0108951F93CF93DF938091E3
:102FD000EA019091EB010E94E0154091ED0144233C
:102FE00021F02091060130E006C0209107015AE04F
:102FF000259F900111248217930708F482C08091C5
:10300000EF011091F001D091F101C091F201811115
:1030100007C0111105C0D11103C0CC2309F471C040
:103020004F3F19F04F5F4093ED01181624F40E94B2
:103030006B168093EF018091EF0187FF05C00E941E
:103040006B1681958093EF01111624F40E946B1684
:103050008093F0018091F00187FF05C00E946B16FC
:1030600081958093F0016091EF01662339F1109111
:10307000F001112319F1772767FD7095872F972F9E
:103080000E94A62223E333E343E35FE30E940A2383
:103090000E9473226093EF01612F772767FD70957F
:1030A000872F972F0E94A62223E333E343E35FE3B6
:1030B0000E940A230E9473226093F0011D1624F4DB
:1030C0000E94B3168093F1018091F10187FF05C042
:1030D0000E94B31681958093F1011C1624F40E947E
:1030E000B3168093F2018091F20187FF05C00E9420
:1030F000B31681958093F201DF91CF911F910C94CB
:10310000D917DF91CF911F910895EEEEF1E085E0A0
:10311000DF011D928A95E9F71092ED011092EC0102
:103120000895833081F128F4813059F08230D1F054
:103130000895853009F449C0B8F1863009F456C0C5
:10314000089520910701862F90E0820F911D8F3FF7
:10315000910520F4620F6093070108958FEF80932B
:103160000701089520910601862F90E0820F911D9E
:103170008F3F910520F4620F6093060108958FEF51
:1031800080930601089520910501862F90E0820F1B
:10319000911D8F3F910520F4620F60930501089502
:1031A0008FEF80930501089520910401862F90E010
:1031B000820F911D8F3F910520F4620F60930401EF
:1031C00008958FEF80930401089520910301862FC5
:1031D00090E0820F911D8F3F910520F4620F609364
:1031E000030108958FEF8093030108952091020158
:1031F000862F90E0820F911D8F3F910520F4620F82
:103200006093020108958FEF809302010895833047
:1032100011F128F4813049F0823091F00895853021
:1032200081F120F18630C1F108958091070168177E
:1032300020F4861B809307010895109207010895DA
:1032400080910601681720F4861B8093060108957B
:1032500010920601089580910501681720F4861BDD
:10326000809305010895109205010895809104014D
:10327000681720F4861B80930401089510920401BE
:10328000089580910301681720F4861B8093030141
:10329000089510920301089580910201681720F4A7
:1032A000861B8093020108951092020108958732CF
:1032B00020F58E3108F098C0803109F474C070F4A4
:1032C000873009F44CC018F4863089F12EC08B3059
:1032D00009F4A0C08E3009F45CC027C0863109F41F
:1032E00099C020F4813109F46FC01FC0893109F4FD
:1032F00091C08B3109F443C018C0883309F48AC0E7
:1033000050F4893209F47EC0853309F47BC08732DA
:1033100009F478C00AC0833409F474C020F48A33F5
:1033200008F060C002C0883461F080E008958091A8
:10333000E801817F8E7F8093E80181E08093F40132
:1033400008950E94A60E2FEF83ED90E32150804058
:103350009040E1F700C000000E942F165BC09091E2
:10336000E801892F8095817080FB90F99093E801A6
:10337000811150C0997F977F9093E8014BC0909145
:10338000E80191FB882780F921E0822780FB91F9F1
:1033900013C09091E80192FB882780F921E08227F1
:1033A00080FB92F909C09091E80193FB882780F98E
:1033B00021E0822780FB93F99093E801882351F163
:1033C00091609093E80108950E94A60E90911E02CC
:1033D00097FB882780F921E0822780FB97F990935B
:1033E0001E0218C027EC01C023EE280F61E070E038
:1033F00080E090E004C0660F771F881F991F2A9510
:10340000D2F704C061E070E080E090E00E94AB126F
:103410000E94A60E81E0089580E0089580E008955E
:103420008E518A3030F4E82FF0E0E95DFE4F808164
:10343000089580E00895CF93C82F8091F4018130E2
:1034400069F018F08230B1F180C0E0910001F09194
:1034500001018081823209F07AC007C0E091000149
:10346000F09101018081823249F48C2F0E940C1A64
:1034700081111DC08C2F0E9457191AC08C2F0E94D9
:103480000E1A811114C0C43179F048F4CB3079F0B0
:10349000C03109F060C082E08093F40108C0C932F5
:1034A00019F0C83321F057C01092F40154C081E0E4
:1034B000817053C0C93289F118F5C43171F1B0F48B
:1034C000C73009F046C08EE18093070182E3809304
:1034D00006018AE08093050184E18093040188E07D
:1034E0008093030188E28093020133C082EE8C0F47
:1034F000863078F58C2F0E94101A8093F30129C032
:10350000CE34E9F020F4CB3421F56AE013C0C135A4
:1035100079F0C235F1F461E00DC08091F3018823A8
:1035200019F01092F30115C081E08093F40115C0E9
:1035300061E006C08091F3010E9491180AC06AE020
:103540008091F3010E94071904C01092F40180E0F9
:1035500004C081E002C080E0ABCFCF9108950E940B
:10356000A914811102C00E948A140E94C51480937C
:103570002002282F269530E02530310524F0817077
:103580008860809320028091200280FF02C086958F
:1035900001C080E00C94F00420912002322F369577
:1035A000832F90E0049744F491E0930F990F822FBA
:1035B0008170892B8093200280912002816080930A
:1035C00020020E94C9148091200286950C94F00478
:1035D00080912002982F969591F09158990F8170C3
:1035E000892B809320028E7F91E009F490E08091F6
:1035F000200290FB80F9809320020E94C9148091E0
:10360000200286950C94F00480912002982F9095CA
:1036100090FB80F9809320020E94C91480912002BF
:1036200080FF02C0869501C080E00C94F0043091C8
:103630002002232F26952F5F2F77822F90E0317065
:1036400005972CF4220F232B2093200202C03093E5
:103650002002809120028E7F91E009F490E0809119
:10366000200290FB80F9809320020E94C91480916F
:10367000200286950C94F00420912002922F9695BA
:103680009827990F822F8170892B809320028E7F3B
:1036900091E009F490E08091200290FB80F9809302
:1036A00020020E94C9148091200286950C94F00497
:1036B0008091150208950F931F93CF93DF9300D04D
:1036C0001F92CDB7DEB78C010E94C71D823011F06A
:1036D000843019F583E089831B830A838093E90092
:1036E0008FEF9091E800815095FD06C095ED9A9579
:1036F000F1F700008111F5CF8091E80085FF0DC042
:1037000040E050E063E070E0CE0101960E94E41DCD
:103710008091E8008E778093E8000F900F900F90D3
:10372000DF91CF911F910F910895CF93DF9300D038
:103730001F92CDB7DEB720912502243031F522E06B
:103740002983805891099B838A8383E08093E900D1
:103750008FEF9091E800815095FD06C095ED9A9508
:10376000F1F700008111F5CF8091E80085FF0DC0D1
:1037700040E050E063E070E0CE0101960E94E41D5D
:103780008091E8008E778093E8000F900F900F9063
:10379000DF91CF910895CF93DF93EC010E94C71D75
:1037A000823011F08430F9F482E08093E9008FEFE9
:1037B0009091E800815095FD06C095ED9A95F1F73E
:1037C00000008111F5CF8091E80085FF0CC040E03A
:1037D00050E065E070E0CE010E94E41D8091E800B9
:1037E0008E778093E800DF91CF910895CF93DF9398
:1037F000EC010E94C71D823019F0843009F047C0E7
:10380000809112018823E1F080911E0287FF18C089
:1038100084E08093E9008FEF9091E800815095FD5E
:1038200006C095E19A95F1F700008111F5CF8091DE
:10383000E80085FF2CC040E050E060E270E017C077
:1038400081E08093E9008FEF9091E800815095FD31
:1038500006C095ED9A95F1F700008111F5CF8091A2
:10386000E80085FF14C040E050E068E070E0CE0161
:103870000E94E41D8091E8008E778093E80080E24A
:10388000FE01A5EFB1E001900D928A95E1F7DF917D
:10389000CF91089580912402811109C00E94761F62
:1038A0000E94D31F8091E20084608093E20008951B
:1038B000109224020895089508950C949A1542E0F8
:1038C00061EC81E00E94F01E42E061EC82E00E9427
:1038D000F01E42E061EC83E00E94F01E42E261ECE7
:1038E00084E00C94F01E80912702833009F455C0C7
:1038F00030F4813071F0823009F48EC008958A303E
:1039000009F47AC08B3009F460C0893009F09CC09A
:1039100020C080912602813A09F096C08091E8008B
:10392000877F8093E80080912A0290912B02892B57
:1039300021F060E080E090E003C060E285EF91E07C
:1039400070E00E942D1E8091E8008B778093E80044
:10395000089580912602813209F076C080912A0272
:1039600090912B02009719F0039709F06DC0809198
:10397000E800877F8093E8008091E80082FD05C021
:10398000809125028111F8CF5FC08091F100809372
:1039900015028091E8008B7753C080912602813A0E
:1039A00009F052C080912A0290912B02892B09F0D4
:1039B0004BC08091E800877F8093E8008091E80009
:1039C00080FFFCCF8091120136C0809126028132A7
:1039D000D9F580912A0290912B02892BA9F580912B
:1039E000E800877F8093E8000E94251F80912802CD
:1039F000809312010C94A60E80912602813221F54B
:103A00008091E800877F8093E8000E94251F8091C5
:103A1000290280931602089580912602813AA1F42A
:103A20008091E800877F8093E8008091E80080FF24
:103A3000FCCF809116028093F1008091E8008E7790
:103A40008093E8000C94251F089584B7877F84BF76
:103A500088E10FB6F89480936000109260000FBE6A
:103A600080E880936100109261000E9461090E94C9
:103A7000761F0E94D31F8091E20084608093E20051
:103A800078940E9456220E94630988E091E00E9487
:103A90000D0980912502853069F40E9457158091A7
:103AA00023028823B1F30E948515882391F30E9495
:103AB000CE1DEFCF0E946B09ECCF292F3327233087
:103AC0003105A9F06CF42130310509F442C02230EF
:103AD000310509F043C08DE690E022E734E042C0B2
:103AE00021323105C9F02232310519F137C0992749
:103AF0008130910541F08230910541F0892B71F5BB
:103B0000EEE6F4E005C0ECE4F4E002C0EAE3F4E041
:103B1000849190E09F0126C064307105F8F4FB01A8
:103B2000EE0FFF1FE35CFE4F2081318189E090E0C2
:103B300019C06430710590F4FB01EE0FFF1FEB5CC0
:103B4000FE4F20813181FB01EF5CFE4F808190E0D0
:103B500009C082E190E02FED34E004C080E090E005
:103B600020E030E0FA013183208308950895CF9357
:103B7000C82F0E94B61DC0931702CF91089580915F
:103B80002502843011F482E0089581E00895809147
:103B90001702811102C00C94BF1D089580E189BDF8
:103BA00082E189BD09B400FEFDCF8091D8008F7DF0
:103BB0008093D8008091E00082608093E000809143
:103BC000E00081FDFCCF0895CF92DF92EF92FF924B
:103BD0000F931F93CF93DF937C018B01EA010E9427
:103BE000461F811131C0209731F088819981081BCF
:103BF000190BE80EF91EC12CD12C0115110519F174
:103C00008091E80085FD14C08091E8008E77809354
:103C1000E800209741F0888199818C0D9D1D998342
:103C2000888385E011C00E94461F882331F30CC0B1
:103C3000F70181917F018093F10001501109FFEF9D
:103C4000CF1ADF0ADACF80E0DF91CF911F910F9179
:103C5000FF90EF90DF90CF90089520912C0230914B
:103C60002D022617370748F06115710539F42091A8
:103C7000E8002E772093E80001C0B901FC0120E0A4
:103C800061157105B9F180912502882309F440C0BE
:103C9000853009F43FC08091E80083FD3DC08091EC
:103CA000E80082FF06C08091E80082FF26C080E025
:103CB00008958091E80080FFE3CF2091F300809188
:103CC000F20090E0922B6115710551F0883091055A
:103CD00038F421912093F100615071090196F3CFDE
:103CE00021E0089709F020E08091E8008E7780932A
:103CF000E800C6CF2111C7CFD6CF809125028823F7
:103D000039F0853039F08091E80083FFCCCF04C0D2
:103D100082E0089583E0089581E0089520912C02C7
:103D200030912D022617370748F06115710539F4D7
:103D30002091E8002E772093E80001C0B901FC0132
:103D400020E061157105C1F180912502882309F4F5
:103D500041C0853009F440C08091E80083FD3EC039
:103D60008091E80082FF06C08091E80082FF27C0B2
:103D700080E008958091E80080FFE3CF2091F30078
:103D80008091F20090E0922B6115710559F0883016
:103D9000910540F424912093F1003196615071090E
:103DA0000196F2CF21E0089709F020E08091E80029
:103DB0008E778093E800C5CF2111C6CFD5CF8091F3
:103DC0002502882339F0853039F08091E80083FF9F
:103DD000CBCF04C082E0089583E0089581E0089588
:103DE000982F973058F59093E900981739F0709113
:103DF000EC002091ED005091F00003C0242F762FAD
:103E000050E021FF19C03091EB003E7F3093EB0072
:103E10003091ED003D7F3093ED003091EB0031604B
:103E20003093EB007093EC002093ED005093F00082
:103E30002091EE0027FF07C09F5FD3CF8F70809344
:103E4000E90081E0089580E008958091260287FDD1
:103E500005C08091E80080FF0EC012C08091E8008C
:103E600082FD05C0809125028111F8CF08958091CF
:103E7000E8008B7708C0809125028111EACF089570
:103E80008091E8008E778093E80008958091E400A7
:103E90009091E50045E62091EC0020FF21C02091A3
:103EA000E80020FD21C020912502222389F0253041
:103EB00089F02091EB0025FD0FC02091E4003091A6
:103EC000E5002817390739F3415041F0C901E3CF24
:103ED00082E0089583E0089581E0089584E00895E4
:103EE0002091E80022FFDFCF80E008950E94E41FC8
:103EF0000E94EC1FE0EEF0E0808181608083E8EDBD
:103F0000F0E080818F77808319BCA7EDB0E08C91C1
:103F10008E7F8C9380818F7E8083109224020895FF
:103F20000F931F93CF93DF930E94E41F0E94EC1F17
:103F3000C8EDD0E088818F77888388818068888306
:103F400088818F7D888319BC1092250210922102EE
:103F5000109223021092220200EE10E0F8018081FC
:103F60008B7F808388818160888342E060E080E08D
:103F70000E94F01EE1EEF0E080818E7F8083E2EE11
:103F8000F0E0808181608083808188608083F80197
:103F900080818E7F8083888180618883DF91CF914B
:103FA0001F910F910895E8EDF0E080818F7E80836E
:103FB000E7EDF0E080818160808384E082BF81E072
:103FC000809324020C94901FE8EDF0E080818E7FB6
:103FD00080831092E20008951092DA001092E100BE
:103FE00008951F920F920FB60F9211242F933F93B3
:103FF0004F935F936F937F938F939F93AF93BF93F1
:10400000EF93FF938091E10082FF0BC08091E2006B
:1040100082FF07C08091E1008B7F8093E1000E94C6
:1040200055228091DA0080FF1FC08091D80080FF68
:104030001BC08091DA008E7F8093DA008091D900D6
:1040400080FF0DC080E189BD82E189BD09B400FE19
:10405000FDCF81E0809325020E944A1C05C019BC57
:10406000109225020E94581C8091E10080FF19C027
:104070008091E20080FF15C08091E2008E7F8093E6
:10408000E2008091E20080618093E2008091D8009C
:1040900080628093D80019BC85E0809325020E943D
:1040A0005C1C8091E10084FF30C08091E20084FFBD
:1040B0002CC080E189BD82E189BD09B400FEFDCF3D
:1040C0008091D8008F7D8093D8008091E1008F7E11
:1040D0008093E1008091E2008F7E8093E2008091E6
:1040E000E20081608093E20080912102882311F038
:1040F00084E007C08091E30087FF02C083E001C035
:1041000081E0809325020E945D1C8091E10083FF85
:1041100029C08091E20083FF25C08091E100877F64
:104120008093E10082E08093250210922102809129
:10413000E1008E7F8093E1008091E2008E7F80938A
:10414000E2008091E20080618093E20042E060E062
:1041500080E00E94F01E8091F00088608093F00063
:104160000E945B1CFF91EF91BF91AF919F918F9146
:104170007F916F915F914F913F912F910F900FBE63
:104180000F901F9018951F920F920FB60F92112447
:104190002F933F934F935F936F937F938F939F934F
:1041A000AF93BF93CF93EF93FF93C091E900CF708C
:1041B0008091EC001092E9008091F000877F80935D
:1041C000F00078940E94FF201092E9008091F000A6
:1041D00088608093F000C093E900FF91EF91CF9148
:1041E000BF91AF919F918F917F916F915F914F910F
:1041F0003F912F910F900FBE0F901F9018951F9316
:10420000CF93DF93CDB7DEB7AA970FB6F894DEBF92
:104210000FBECDBFE6E2F2E08091F100819322E093
:10422000EE32F207C9F70E94731C8091E80083FF09
:1042300024C12091260230912702832F90E08A30FA
:10424000910508F01AC1FC01E556FF4F0C94A92313
:10425000203821F0223809F010C108C080912202D4
:1042600090912302992389F082600FC080912A02E5
:104270008F70873008F001C18093E9008091EB00D6
:1042800085FB882780F91092E9009091E800977FDC
:104290009093E8008093F1001092F100CCC0822F3F
:1042A0008D7F09F0EAC0222319F0223061F0E5C0C9
:1042B00080912802813009F0E0C0333009F080E0BD
:1042C000809323022AC080912802811126C0209168
:1042D0002A022F708FEF820F863008F0CEC0209315
:1042E000E9008091EB0080FF18C08091EB00333033
:1042F00011F4806210C080618093EB0081E090E057
:1043000001C0880F2A95EAF78093EA001092EA002C
:104310008091EB0088608093EB001092E90080911F
:10432000E800877F8093E8000E94251FA6C0211126
:10433000A4C0109128021F778091E3008078812B20
:104340008093E3008091E800877F8093E8000E94DB
:10435000251F8091E80080FFFCCF8091E3008068FA
:104360008093E300112311F083E001C082E0809389
:10437000250283C02058223008F07FC08091280297
:10438000909129028C3D23E0920779F583E08A839E
:104390008AE289834FB7F894DE01139620E03EE06D
:1043A00051E2E32FF0E050935700E49120FF03C067
:1043B000E295EF703F5FEF708E2F90E0EA3010F0E3
:1043C000C79601C0C0968D939D932F5F243149F706
:1043D0004FBF8091E800877F8093E8006AE270E039
:1043E000CE0101960E942D1E15C060912A02709187
:1043F0002B02AE014F5F5F4F0E945D1D0097E9F1F8
:104400002091E800277F2093E800BC0189819A81F0
:104410000E948E1E8091E8008B778093E8002DC06B
:10442000203859F58091E800877F8093E8008091DB
:1044300021028093F1008091E8008E7773CF2111E3
:104440001CC0909128029230C0F48091E800877FD0
:104450008093E800909321020E94251F8091210201
:10446000811104C08091E30087FF02C084E001C095
:1044700081E0809325020E945F1C8091E80083FF09
:104480000AC08091E800877F8093E8008091EB006C
:1044900080628093EB00AA960FB6F894DEBF0FBE41
:1044A000CDBFDF91CF911F9108950895CF93809153
:1044B00025028823B1F08091E9008F709091EC0083
:1044C00090FF02C090E801C090E0C92FC82B109265
:1044D000E9008091E80083FD0E94FF20CF70C09327
:1044E000E900CF91089504D06894B1118DC008956A
:1044F00070D088F09F5790F0B92F9927B751A0F04E
:10450000D1F0660F771F881F991F1AF0BA95C9F767
:1045100012C0B13081F077D0B1E0089574C0672F38
:10452000782F8827B85F39F0B93FCCF38695779517
:104530006795B395D9F73EF4909580957095619500
:104540007F4F8F4F9F4F0895E89409C097FB3EF42B
:1045500090958095709561957F4F8F4F9F4F9923D0
:10456000A9F0F92F96E9BB279395F695879577954E
:104570006795B795F111F8CFFAF4BB0F11F460FF0E
:104580001BC06F5F7F4F8F4F9F4F16C0882311F066
:1045900096E911C0772321F09EE8872F762F05C07A
:1045A000662371F096E8862F70E060E02AF09A9515
:1045B000660F771F881FDAF7880F9695879597F90A
:1045C000089557FD9058440F551F59F05F3F71F003
:1045D0004795880F97FB991F61F09F3F79F087956A
:1045E0000895121613061406551FF2CF4695F1DFF3
:1045F00008C0161617061806991FF1CF8695710583
:10460000610508940895E894BB2766277727CB01B6
:1046100097F908950BD078C069D028F06ED018F0C3
:10462000952309F05AC05FC01124EECFCADFA0F372
:10463000959FD1F3950F50E0551F629FF001729F37
:10464000BB27F00DB11D639FAA27F00DB11DAA1F56
:10465000649F6627B00DA11D661F829F2227B00DA3
:10466000A11D621F739FB00DA11D621F839FA00D2E
:10467000611D221F749F3327A00D611D231F849F7E
:10468000600D211D822F762F6A2F11249F575040D5
:104690008AF0E1F088234AF0EE0FFF1FBB1F661F70
:1046A000771F881F91505040A9F79E3F510570F029
:1046B00014C0AACF5F3FECF3983EDCF38695779564
:1046C0006795B795F795E7959F5FC1F7FE2B880F24
:1046D000911D9695879597F9089597F99F6780E8BA
:1046E00070E060E008959FEF80EC089500240A9444
:1046F0001616170618060906089500240A941216BD
:104700001306140605060895092E0394000C11F4EF
:10471000882352F0BB0F40F4BF2B11F460FF04C09C
:104720006F5F7F4F8F4F9F4F089597FB072E16F4B3
:10473000009407D077FD09D00E94AF2307FC05D075
:104740003EF4909581959F4F0895709561957F4FA8
:104750000895EE0FFF1F0590F491E02D0994AA1B18
:10476000BB1B51E107C0AA1FBB1FA617B70710F05C
:10477000A61BB70B881F991F5A95A9F7809590958E
:10478000BC01CD010895F999FECF92BD81BDF89A83
:10479000992780B50895A8E1B0E042E050E00C947C
:1047A000EB23262FF999FECF92BD81BDF89A019790
:1047B00000B4021639F01FBA20BD0FB6F894FA9A69
:1047C000F99A0FBE08950196272F0E94D2230C94C8
:1047D000D123DC01CB01FC01F999FECF06C0F2BD6B
:1047E000E1BDF89A319600B40D9241505040B8F7AF
:0647F0000895F894FFCFCC
:1047F600C5012808140A321E581BF61BCB1B951B35
:104806005B1B01F0F1C667663794313035349796F5
:1048160033F49091F6F7950102030405060708099B
:1048260000404D3639AD0560052A05F10484049D26
:0648360004B604CF0400EB
:00000001FF
